{
  "_format": "hh-sol-artifact-1",
  "contractName": "BqETH",
  "sourceName": "contracts/BqETH.sol",
  "abi": [
    {
      "inputs": [],
      "stateMutability": "payable",
      "type": "constructor"
    },
    {
      "anonymous": false,
      "inputs": [
        {
          "indexed": false,
          "internalType": "string",
          "name": "id",
          "type": "string"
        },
        {
          "indexed": false,
          "internalType": "string",
          "name": "label",
          "type": "string"
        },
        {
          "indexed": false,
          "internalType": "string",
          "name": "policyEncryptingKey",
          "type": "string"
        },
        {
          "indexed": false,
          "internalType": "string",
          "name": "encryptedTreasureMap",
          "type": "string"
        },
        {
          "indexed": false,
          "internalType": "string",
          "name": "aliceVerifyingKey",
          "type": "string"
        },
        {
          "indexed": false,
          "internalType": "string",
          "name": "size",
          "type": "string"
        },
        {
          "indexed": false,
          "internalType": "string",
          "name": "startTimestamp",
          "type": "string"
        },
        {
          "indexed": false,
          "internalType": "string",
          "name": "endTimestamp",
          "type": "string"
        }
      ],
      "name": "NewPolicyRegistered",
      "type": "event"
    },
    {
      "anonymous": false,
      "inputs": [
        {
          "indexed": false,
          "internalType": "address",
          "name": "sender",
          "type": "address"
        },
        {
          "indexed": false,
          "internalType": "uint256",
          "name": "pid",
          "type": "uint256"
        },
        {
          "indexed": false,
          "internalType": "bool",
          "name": "ready",
          "type": "bool"
        }
      ],
      "name": "NewPuzzleRegistered",
      "type": "event"
    },
    {
      "anonymous": false,
      "inputs": [
        {
          "indexed": false,
          "internalType": "uint256",
          "name": "pid",
          "type": "uint256"
        },
        {
          "indexed": false,
          "internalType": "bytes",
          "name": "solution",
          "type": "bytes"
        },
        {
          "indexed": false,
          "internalType": "string",
          "name": "verifyingKey",
          "type": "string"
        },
        {
          "indexed": false,
          "internalType": "string",
          "name": "messageKit",
          "type": "string"
        },
        {
          "indexed": false,
          "internalType": "uint256",
          "name": "sdate",
          "type": "uint256"
        },
        {
          "indexed": false,
          "internalType": "string",
          "name": "treasureMap",
          "type": "string"
        },
        {
          "indexed": false,
          "internalType": "string",
          "name": "policyEncryptingKey",
          "type": "string"
        }
      ],
      "name": "PuzzleInactive",
      "type": "event"
    },
    {
      "anonymous": false,
      "inputs": [
        {
          "indexed": false,
          "internalType": "uint256",
          "name": "pid",
          "type": "uint256"
        },
        {
          "indexed": false,
          "internalType": "bytes",
          "name": "y",
          "type": "bytes"
        },
        {
          "indexed": false,
          "internalType": "uint256",
          "name": "sdate",
          "type": "uint256"
        },
        {
          "indexed": false,
          "internalType": "uint256",
          "name": "reward",
          "type": "uint256"
        }
      ],
      "name": "RewardClaimed",
      "type": "event"
    },
    {
      "stateMutability": "payable",
      "type": "fallback"
    },
    {
      "inputs": [
        {
          "internalType": "address",
          "name": "",
          "type": "address"
        }
      ],
      "name": "activePolicies",
      "outputs": [
        {
          "internalType": "address",
          "name": "creator",
          "type": "address"
        },
        {
          "internalType": "uint256",
          "name": "pid",
          "type": "uint256"
        },
        {
          "internalType": "string",
          "name": "messageKit",
          "type": "string"
        },
        {
          "internalType": "string",
          "name": "encryptedTreasureMap",
          "type": "string"
        },
        {
          "internalType": "string",
          "name": "revocationKit",
          "type": "string"
        },
        {
          "internalType": "string",
          "name": "aliceVerifyingKey",
          "type": "string"
        },
        {
          "internalType": "string",
          "name": "policyEncryptingKey",
          "type": "string"
        }
      ],
      "stateMutability": "view",
      "type": "function"
    },
    {
      "inputs": [
        {
          "internalType": "address",
          "name": "",
          "type": "address"
        }
      ],
      "name": "activePuzzles",
      "outputs": [
        {
          "internalType": "uint256",
          "name": "",
          "type": "uint256"
        }
      ],
      "stateMutability": "view",
      "type": "function"
    },
    {
      "inputs": [
        {
          "internalType": "bytes",
          "name": "base",
          "type": "bytes"
        },
        {
          "internalType": "uint256",
          "name": "e",
          "type": "uint256"
        },
        {
          "internalType": "bytes",
          "name": "m",
          "type": "bytes"
        }
      ],
      "name": "bignum_expmod",
      "outputs": [
        {
          "internalType": "bytes",
          "name": "o",
          "type": "bytes"
        }
      ],
      "stateMutability": "view",
      "type": "function"
    },
    {
      "inputs": [],
      "name": "claimBlockNumber",
      "outputs": [
        {
          "internalType": "uint256",
          "name": "",
          "type": "uint256"
        }
      ],
      "stateMutability": "view",
      "type": "function"
    },
    {
      "inputs": [
        {
          "internalType": "address payable",
          "name": "_farmer",
          "type": "address"
        },
        {
          "internalType": "uint256",
          "name": "_pid",
          "type": "uint256"
        },
        {
          "internalType": "bytes32",
          "name": "_h1",
          "type": "bytes32"
        },
        {
          "internalType": "bytes32",
          "name": "_x2",
          "type": "bytes32"
        }
      ],
      "name": "claimPuzzle",
      "outputs": [
        {
          "internalType": "uint256",
          "name": "",
          "type": "uint256"
        }
      ],
      "stateMutability": "nonpayable",
      "type": "function"
    },
    {
      "inputs": [
        {
          "internalType": "address payable",
          "name": "_farmer",
          "type": "address"
        },
        {
          "internalType": "uint256",
          "name": "_pid",
          "type": "uint256"
        },
        {
          "internalType": "bytes",
          "name": "_y",
          "type": "bytes"
        },
        {
          "internalType": "bytes[]",
          "name": "_proof",
          "type": "bytes[]"
        }
      ],
      "name": "claimReward",
      "outputs": [
        {
          "internalType": "uint256",
          "name": "",
          "type": "uint256"
        }
      ],
      "stateMutability": "nonpayable",
      "type": "function"
    },
    {
      "inputs": [
        {
          "internalType": "address",
          "name": "",
          "type": "address"
        }
      ],
      "name": "escrow_balances",
      "outputs": [
        {
          "internalType": "uint256",
          "name": "",
          "type": "uint256"
        }
      ],
      "stateMutability": "view",
      "type": "function"
    },
    {
      "inputs": [
        {
          "internalType": "address",
          "name": "_user",
          "type": "address"
        }
      ],
      "name": "getActiveChain",
      "outputs": [
        {
          "components": [
            {
              "internalType": "address",
              "name": "creator",
              "type": "address"
            },
            {
              "internalType": "address payable",
              "name": "farmer",
              "type": "address"
            },
            {
              "internalType": "bytes",
              "name": "N",
              "type": "bytes"
            },
            {
              "internalType": "bytes",
              "name": "x",
              "type": "bytes"
            },
            {
              "internalType": "uint256",
              "name": "t",
              "type": "uint256"
            },
            {
              "internalType": "uint256",
              "name": "sdate",
              "type": "uint256"
            },
            {
              "internalType": "bytes32",
              "name": "h3",
              "type": "bytes32"
            },
            {
              "internalType": "uint256",
              "name": "reward",
              "type": "uint256"
            },
            {
              "internalType": "string",
              "name": "phi",
              "type": "string"
            },
            {
              "internalType": "uint256",
              "name": "head",
              "type": "uint256"
            }
          ],
          "internalType": "struct BqETH.Puzzle[]",
          "name": "chain",
          "type": "tuple[]"
        },
        {
          "internalType": "string",
          "name": "verifyingKey",
          "type": "string"
        },
        {
          "internalType": "string",
          "name": "messageKit",
          "type": "string"
        },
        {
          "internalType": "string",
          "name": "treasureMap",
          "type": "string"
        }
      ],
      "stateMutability": "view",
      "type": "function"
    },
    {
      "inputs": [
        {
          "internalType": "address",
          "name": "_user",
          "type": "address"
        }
      ],
      "name": "getActivePuzzle",
      "outputs": [
        {
          "internalType": "uint256",
          "name": "pid",
          "type": "uint256"
        },
        {
          "internalType": "address",
          "name": "creator",
          "type": "address"
        },
        {
          "internalType": "bytes",
          "name": "N",
          "type": "bytes"
        },
        {
          "internalType": "bytes",
          "name": "x",
          "type": "bytes"
        },
        {
          "internalType": "uint256",
          "name": "t",
          "type": "uint256"
        },
        {
          "internalType": "bytes32",
          "name": "h3",
          "type": "bytes32"
        },
        {
          "internalType": "uint256",
          "name": "reward",
          "type": "uint256"
        },
        {
          "internalType": "string",
          "name": "verifyingKey",
          "type": "string"
        },
        {
          "internalType": "string",
          "name": "messageKit",
          "type": "string"
        },
        {
          "internalType": "string",
          "name": "treasureMap",
          "type": "string"
        },
        {
          "internalType": "string",
          "name": "encryptedPhi",
          "type": "string"
        },
        {
          "internalType": "uint256",
          "name": "sdate",
          "type": "uint256"
        }
      ],
      "stateMutability": "view",
      "type": "function"
    },
    {
      "inputs": [
        {
          "internalType": "uint256",
          "name": "_pid",
          "type": "uint256"
        }
      ],
      "name": "getPuzzle",
      "outputs": [
        {
          "internalType": "uint256",
          "name": "pid",
          "type": "uint256"
        },
        {
          "internalType": "address",
          "name": "creator",
          "type": "address"
        },
        {
          "internalType": "bytes",
          "name": "N",
          "type": "bytes"
        },
        {
          "internalType": "bytes",
          "name": "x",
          "type": "bytes"
        },
        {
          "internalType": "uint256",
          "name": "t",
          "type": "uint256"
        },
        {
          "internalType": "bytes32",
          "name": "h3",
          "type": "bytes32"
        },
        {
          "internalType": "uint256",
          "name": "reward",
          "type": "uint256"
        },
        {
          "internalType": "string",
          "name": "verifyingKey",
          "type": "string"
        },
        {
          "internalType": "string",
          "name": "messageKit",
          "type": "string"
        },
        {
          "internalType": "string",
          "name": "treasureMap",
          "type": "string"
        },
        {
          "internalType": "string",
          "name": "phi",
          "type": "string"
        },
        {
          "internalType": "uint256",
          "name": "sdate",
          "type": "uint256"
        }
      ],
      "stateMutability": "view",
      "type": "function"
    },
    {
      "inputs": [
        {
          "internalType": "uint256",
          "name": "x",
          "type": "uint256"
        }
      ],
      "name": "log2",
      "outputs": [
        {
          "internalType": "uint8",
          "name": "",
          "type": "uint8"
        }
      ],
      "stateMutability": "pure",
      "type": "function"
    },
    {
      "inputs": [],
      "name": "name",
      "outputs": [
        {
          "internalType": "string",
          "name": "",
          "type": "string"
        }
      ],
      "stateMutability": "view",
      "type": "function"
    },
    {
      "inputs": [
        {
          "internalType": "bytes",
          "name": "_N",
          "type": "bytes"
        },
        {
          "internalType": "bytes",
          "name": "_x",
          "type": "bytes"
        },
        {
          "internalType": "uint256",
          "name": "_t",
          "type": "uint256"
        }
      ],
      "name": "puzzleKey",
      "outputs": [
        {
          "internalType": "uint256",
          "name": "",
          "type": "uint256"
        }
      ],
      "stateMutability": "pure",
      "type": "function"
    },
    {
      "inputs": [
        {
          "internalType": "bytes",
          "name": "_x",
          "type": "bytes"
        },
        {
          "internalType": "bytes",
          "name": "_y",
          "type": "bytes"
        },
        {
          "internalType": "bytes",
          "name": "_u",
          "type": "bytes"
        }
      ],
      "name": "r_value",
      "outputs": [
        {
          "internalType": "bytes16",
          "name": "result",
          "type": "bytes16"
        }
      ],
      "stateMutability": "pure",
      "type": "function"
    },
    {
      "inputs": [
        {
          "internalType": "bytes",
          "name": "_N",
          "type": "bytes"
        },
        {
          "components": [
            {
              "internalType": "bytes",
              "name": "x",
              "type": "bytes"
            },
            {
              "internalType": "uint256",
              "name": "t",
              "type": "uint256"
            },
            {
              "internalType": "uint256",
              "name": "pid",
              "type": "uint256"
            },
            {
              "internalType": "bytes32",
              "name": "h3",
              "type": "bytes32"
            },
            {
              "internalType": "uint256",
              "name": "reward",
              "type": "uint256"
            }
          ],
          "internalType": "struct BqETH.ChainData[]",
          "name": "_c",
          "type": "tuple[]"
        },
        {
          "internalType": "string",
          "name": "_phi",
          "type": "string"
        },
        {
          "internalType": "uint256",
          "name": "_sdate",
          "type": "uint256"
        },
        {
          "components": [
            {
              "internalType": "string",
              "name": "id",
              "type": "string"
            },
            {
              "internalType": "string",
              "name": "label",
              "type": "string"
            },
            {
              "internalType": "string",
              "name": "policyEncryptingKey",
              "type": "string"
            },
            {
              "internalType": "string",
              "name": "encryptedTreasureMap",
              "type": "string"
            },
            {
              "internalType": "string",
              "name": "revocationKit",
              "type": "string"
            },
            {
              "internalType": "string",
              "name": "aliceVerifyingKey",
              "type": "string"
            },
            {
              "internalType": "string",
              "name": "size",
              "type": "string"
            },
            {
              "internalType": "string",
              "name": "startTimestamp",
              "type": "string"
            },
            {
              "internalType": "string",
              "name": "endTimestamp",
              "type": "string"
            }
          ],
          "internalType": "struct BqETH.PolicyData",
          "name": "_policy",
          "type": "tuple"
        }
      ],
      "name": "registerFlippedPuzzle",
      "outputs": [
        {
          "internalType": "uint256",
          "name": "",
          "type": "uint256"
        }
      ],
      "stateMutability": "payable",
      "type": "function"
    },
    {
      "inputs": [
        {
          "internalType": "bytes",
          "name": "_N",
          "type": "bytes"
        },
        {
          "components": [
            {
              "internalType": "bytes",
              "name": "x",
              "type": "bytes"
            },
            {
              "internalType": "uint256",
              "name": "t",
              "type": "uint256"
            },
            {
              "internalType": "uint256",
              "name": "pid",
              "type": "uint256"
            },
            {
              "internalType": "bytes32",
              "name": "h3",
              "type": "bytes32"
            },
            {
              "internalType": "uint256",
              "name": "reward",
              "type": "uint256"
            }
          ],
          "internalType": "struct BqETH.ChainData[]",
          "name": "_c",
          "type": "tuple[]"
        },
        {
          "internalType": "string",
          "name": "_phi",
          "type": "string"
        },
        {
          "internalType": "uint256",
          "name": "_sdate",
          "type": "uint256"
        },
        {
          "components": [
            {
              "internalType": "string",
              "name": "id",
              "type": "string"
            },
            {
              "internalType": "string",
              "name": "label",
              "type": "string"
            },
            {
              "internalType": "string",
              "name": "policyEncryptingKey",
              "type": "string"
            },
            {
              "internalType": "string",
              "name": "encryptedTreasureMap",
              "type": "string"
            },
            {
              "internalType": "string",
              "name": "revocationKit",
              "type": "string"
            },
            {
              "internalType": "string",
              "name": "aliceVerifyingKey",
              "type": "string"
            },
            {
              "internalType": "string",
              "name": "size",
              "type": "string"
            },
            {
              "internalType": "string",
              "name": "startTimestamp",
              "type": "string"
            },
            {
              "internalType": "string",
              "name": "endTimestamp",
              "type": "string"
            }
          ],
          "internalType": "struct BqETH.PolicyData",
          "name": "_policy",
          "type": "tuple"
        },
        {
          "internalType": "string",
          "name": "_messageKit",
          "type": "string"
        }
      ],
      "name": "registerPuzzleChain",
      "outputs": [
        {
          "internalType": "uint256",
          "name": "",
          "type": "uint256"
        }
      ],
      "stateMutability": "payable",
      "type": "function"
    },
    {
      "inputs": [
        {
          "internalType": "uint256",
          "name": "",
          "type": "uint256"
        }
      ],
      "name": "userPuzzles",
      "outputs": [
        {
          "internalType": "address",
          "name": "creator",
          "type": "address"
        },
        {
          "internalType": "address payable",
          "name": "farmer",
          "type": "address"
        },
        {
          "internalType": "bytes",
          "name": "N",
          "type": "bytes"
        },
        {
          "internalType": "bytes",
          "name": "x",
          "type": "bytes"
        },
        {
          "internalType": "uint256",
          "name": "t",
          "type": "uint256"
        },
        {
          "internalType": "uint256",
          "name": "sdate",
          "type": "uint256"
        },
        {
          "internalType": "bytes32",
          "name": "h3",
          "type": "bytes32"
        },
        {
          "internalType": "uint256",
          "name": "reward",
          "type": "uint256"
        },
        {
          "internalType": "string",
          "name": "phi",
          "type": "string"
        },
        {
          "internalType": "uint256",
          "name": "head",
          "type": "uint256"
        }
      ],
      "stateMutability": "view",
      "type": "function"
    },
    {
      "inputs": [],
      "name": "version",
      "outputs": [
        {
          "internalType": "string",
          "name": "",
          "type": "string"
        }
      ],
      "stateMutability": "view",
      "type": "function"
    },
    {
      "stateMutability": "payable",
      "type": "receive"
    }
  ],
  "bytecode": "0x60806040527effffffffffffffffffffffffffffffffffffffffffffffffffffffffffffff6000557f01000000000000000000000000000000000000000000000000000000000000006001556040518060400160405280601a81526020017f427145544820436f6e74726163742076657273696f6e20302e31000000000000815250600290805190602001906200009892919062000271565b506200015b604051806060016040528060268152602001620079be6026913960028054620000c690620003ef565b80601f0160208091040260200160405190810160405280929190818152602001828054620000f490620003ef565b8015620001455780601f10620001195761010080835404028352916020019162000145565b820191906000526020600020905b8154815290600101906020018083116200012757829003601f168201915b5050505050620001a260201b620044561760201c565b33600360006101000a81548173ffffffffffffffffffffffffffffffffffffffff021916908373ffffffffffffffffffffffffffffffffffffffff16021790555062000465565b620002448282604051602401620001bb92919062000362565b6040516020818303038152906040527f4b5c4277000000000000000000000000000000000000000000000000000000007bffffffffffffffffffffffffffffffffffffffffffffffffffffffff19166020820180517bffffffffffffffffffffffffffffffffffffffffffffffffffffffff83818316178352505050506200024860201b60201c565b5050565b60008151905060006a636f6e736f6c652e6c6f679050602083016000808483855afa5050505050565b8280546200027f90620003ef565b90600052602060002090601f016020900481019282620002a35760008555620002ef565b82601f10620002be57805160ff1916838001178555620002ef565b82800160010185558215620002ef579182015b82811115620002ee578251825591602001919060010190620002d1565b5b509050620002fe919062000302565b5090565b5b808211156200031d57600081600090555060010162000303565b5090565b60006200032e826200039d565b6200033a8185620003a8565b93506200034c818560208601620003b9565b620003578162000454565b840191505092915050565b600060408201905081810360008301526200037e818562000321565b9050818103602083015262000394818462000321565b90509392505050565b600081519050919050565b600082825260208201905092915050565b60005b83811015620003d9578082015181840152602081019050620003bc565b83811115620003e9576000848401525b50505050565b600060028204905060018216806200040857607f821691505b602082108114156200041f576200041e62000425565b5b50919050565b7f4e487b7100000000000000000000000000000000000000000000000000000000600052602260045260246000fd5b6000601f19601f8301169050919050565b61754980620004756000396000f3fe60806040526004361061010d5760003560e01c8063606748cf11610095578063cdab164911610064578063cdab1649146103fe578063d10da1b51461043b578063e786748114610478578063ed9c79f4146104b5578063f542c3cd146104f257610114565b8063606748cf146103015780637eeb5bdf1461033e5780639576c7c11461037e578063b0eac321146103bb57610114565b80631f2d8b46116100dc5780631f2d8b46146101d9578063387b29be146102215780633fed202d146102515780635456bf131461029957806354fd4d50146102d657610114565b806306fdde03146101165780631652896a146101415780631e1d25581461017e5780631e348629146101ae57610114565b3661011457005b005b34801561012257600080fd5b5061012b610538565b60405161013891906168ba565b60405180910390f35b34801561014d57600080fd5b5061016860048036038101906101639190616099565b6105c6565b6040516101759190616a99565b60405180910390f35b61019860048036038101906101939190615e2a565b6105ff565b6040516101a59190616a99565b60405180910390f35b3480156101ba57600080fd5b506101c3610e3f565b6040516101d09190616a99565b60405180910390f35b3480156101e557600080fd5b5061020060048036038101906101fb9190616197565b610e45565b6040516102189c9b9a99989796959493929190616ab4565b60405180910390f35b61023b60048036038101906102369190615f01565b6114fc565b6040516102489190616a99565b60405180910390f35b34801561025d57600080fd5b5061027860048036038101906102739190615cdd565b611d4e565b6040516102909c9b9a99989796959493929190616ab4565b60405180910390f35b3480156102a557600080fd5b506102c060048036038101906102bb9190616197565b611dd5565b6040516102cd9190616c76565b60405180910390f35b3480156102e257600080fd5b506102eb611ef5565b6040516102f891906168ba565b60405180910390f35b34801561030d57600080fd5b5061032860048036038101906103239190616118565b611f87565b604051610335919061684c565b60405180910390f35b34801561034a57600080fd5b5061036560048036038101906103609190615cdd565b612011565b6040516103759493929190616777565b60405180910390f35b34801561038a57600080fd5b506103a560048036038101906103a09190615d06565b61305a565b6040516103b29190616a99565b60405180910390f35b3480156103c757600080fd5b506103e260048036038101906103dd9190615cdd565b613193565b6040516103f597969594939291906166e5565b60405180910390f35b34801561040a57600080fd5b5061042560048036038101906104209190615cdd565b61349d565b6040516104329190616a99565b60405180910390f35b34801561044757600080fd5b50610462600480360381019061045d9190615d69565b6134b5565b60405161046f9190616a99565b60405180910390f35b34801561048457600080fd5b5061049f600480360381019061049a9190616002565b6140e7565b6040516104ac91906167d8565b60405180910390f35b3480156104c157600080fd5b506104dc60048036038101906104d79190615cdd565b614212565b6040516104e99190616a99565b60405180910390f35b3480156104fe57600080fd5b5061051960048036038101906105149190616197565b61422a565b60405161052f9a999897969594939291906165fd565b60405180910390f35b60028054610545906171e2565b80601f0160208091040260200160405190810160405280929190818152602001828054610571906171e2565b80156105be5780601f10610593576101008083540402835291602001916105be565b820191906000526020600020905b8154815290600101906020018083116105a157829003601f168201915b505050505081565b60008383836040516020016105dd939291906165c8565b6040516020818303038152906040528051906020012060001c90509392505050565b600080600860003373ffffffffffffffffffffffffffffffffffffffff1673ffffffffffffffffffffffffffffffffffffffff1681526020019081526020016000205490506005600082815260200190815260200160002060000160009054906101000a900473ffffffffffffffffffffffffffffffffffffffff1673ffffffffffffffffffffffffffffffffffffffff163373ffffffffffffffffffffffffffffffffffffffff16146106b257600080fd5b600080600061074c8a8a6000815181106106f5577f4e487b7100000000000000000000000000000000000000000000000000000000600052603260045260246000fd5b6020026020010151600001518b60008151811061073b577f4e487b7100000000000000000000000000000000000000000000000000000000600052603260045260246000fd5b6020026020010151602001516105c6565b905060005b8951811015610cb55760006107ef8c8c8481518110610799577f4e487b7100000000000000000000000000000000000000000000000000000000600052603260045260246000fd5b6020026020010151600001518d85815181106107de577f4e487b7100000000000000000000000000000000000000000000000000000000600052603260045260246000fd5b6020026020010151602001516105c6565b905060006107fb61551f565b33816000019073ffffffffffffffffffffffffffffffffffffffff16908173ffffffffffffffffffffffffffffffffffffffff168152505081816020019073ffffffffffffffffffffffffffffffffffffffff16908173ffffffffffffffffffffffffffffffffffffffff16815250508d81604001819052508c84815181106108ad577f4e487b7100000000000000000000000000000000000000000000000000000000600052603260045260246000fd5b60200260200101516000015181606001819052508c84815181106108fa577f4e487b7100000000000000000000000000000000000000000000000000000000600052603260045260246000fd5b60200260200101516020015181608001818152505060018d5161091d9190617078565b841461096d578c848151811061095c577f4e487b7100000000000000000000000000000000000000000000000000000000600052603260045260246000fd5b60200260200101516040015161096f565b8a5b8160a00181815250508c84815181106109b1577f4e487b7100000000000000000000000000000000000000000000000000000000600052603260045260246000fd5b6020026020010151606001518160c00181815250508c84815181106109ff577f4e487b7100000000000000000000000000000000000000000000000000000000600052603260045260246000fd5b6020026020010151608001518160e00181815250506000841480610a2f575060018d51610a2c9190617078565b84145b610a485760405180602001604052806000815250610a4a565b8b5b8161010001819052508481610120018181525050806005600085815260200190815260200160002060008201518160000160006101000a81548173ffffffffffffffffffffffffffffffffffffffff021916908373ffffffffffffffffffffffffffffffffffffffff16021790555060208201518160010160006101000a81548173ffffffffffffffffffffffffffffffffffffffff021916908373ffffffffffffffffffffffffffffffffffffffff1602179055506040820151816002019080519060200190610b1c9291906155a1565b506060820151816003019080519060200190610b399291906155a1565b506080820151816004015560a0820151816005015560c0820151816006015560e08201518160070155610100820151816008019080519060200190610b7f929190615627565b5061012082015181600901559050508c8481518110610bc7577f4e487b7100000000000000000000000000000000000000000000000000000000600052603260045260246000fd5b60200260200101516080015187610bde9190616e46565b96506000841415610c315782600860003373ffffffffffffffffffffffffffffffffffffffff1673ffffffffffffffffffffffffffffffffffffffff168152602001908152602001600020819055508295505b610c536040518060600160405280602181526020016174f360219139846144f2565b7fdb740cfa0f1894a61ae6e1849cc97444d4b50c7c67bdb8098c217eeee6ea7aff338460008714610c85576000610c88565b60015b604051610c97939291906166ae565b60405180910390a15050508080610cad90617245565b915050610751565b5034600660003373ffffffffffffffffffffffffffffffffffffffff1673ffffffffffffffffffffffffffffffffffffffff1681526020019081526020016000206000828254610d059190616e46565b925050819055506000600760006005600088815260200190815260200160002060000160009054906101000a900473ffffffffffffffffffffffffffffffffffffffff1673ffffffffffffffffffffffffffffffffffffffff1673ffffffffffffffffffffffffffffffffffffffff16815260200190815260200160002090508281600101819055508660600151816003019080519060200190610daa929190615627565b508660800151816004019080519060200190610dc7929190615627565b507f088f6097554d1cac804daedd99305c40328e68f77263b389059512ebbac735f68760000151886020015189604001518a606001518b60a001518c60c001518d60e001518e6101000151604051610e26989796959493929190616913565b60405180910390a1829550505050505095945050505050565b60045481565b6000806060806000806000606080606080600080600560008f8152602001908152602001600020604051806101400160405290816000820160009054906101000a900473ffffffffffffffffffffffffffffffffffffffff1673ffffffffffffffffffffffffffffffffffffffff1673ffffffffffffffffffffffffffffffffffffffff1681526020016001820160009054906101000a900473ffffffffffffffffffffffffffffffffffffffff1673ffffffffffffffffffffffffffffffffffffffff1673ffffffffffffffffffffffffffffffffffffffff168152602001600282018054610f34906171e2565b80601f0160208091040260200160405190810160405280929190818152602001828054610f60906171e2565b8015610fad5780601f10610f8257610100808354040283529160200191610fad565b820191906000526020600020905b815481529060010190602001808311610f9057829003601f168201915b50505050508152602001600382018054610fc6906171e2565b80601f0160208091040260200160405190810160405280929190818152602001828054610ff2906171e2565b801561103f5780601f106110145761010080835404028352916020019161103f565b820191906000526020600020905b81548152906001019060200180831161102257829003601f168201915b5050505050815260200160048201548152602001600582015481526020016006820154815260200160078201548152602001600882018054611080906171e2565b80601f01602080910402602001604051908101604052809291908181526020018280546110ac906171e2565b80156110f95780601f106110ce576101008083540402835291602001916110f9565b820191906000526020600020905b8154815290600101906020018083116110dc57829003601f168201915b505050505081526020016009820154815250509050600060076000836000015173ffffffffffffffffffffffffffffffffffffffff1673ffffffffffffffffffffffffffffffffffffffff1681526020019081526020016000206040518060e00160405290816000820160009054906101000a900473ffffffffffffffffffffffffffffffffffffffff1673ffffffffffffffffffffffffffffffffffffffff1673ffffffffffffffffffffffffffffffffffffffff168152602001600182015481526020016002820180546111ce906171e2565b80601f01602080910402602001604051908101604052809291908181526020018280546111fa906171e2565b80156112475780601f1061121c57610100808354040283529160200191611247565b820191906000526020600020905b81548152906001019060200180831161122a57829003601f168201915b50505050508152602001600382018054611260906171e2565b80601f016020809104026020016040519081016040528092919081815260200182805461128c906171e2565b80156112d95780601f106112ae576101008083540402835291602001916112d9565b820191906000526020600020905b8154815290600101906020018083116112bc57829003601f168201915b505050505081526020016004820180546112f2906171e2565b80601f016020809104026020016040519081016040528092919081815260200182805461131e906171e2565b801561136b5780601f106113405761010080835404028352916020019161136b565b820191906000526020600020905b81548152906001019060200180831161134e57829003601f168201915b50505050508152602001600582018054611384906171e2565b80601f01602080910402602001604051908101604052809291908181526020018280546113b0906171e2565b80156113fd5780601f106113d2576101008083540402835291602001916113fd565b820191906000526020600020905b8154815290600101906020018083116113e057829003601f168201915b50505050508152602001600682018054611416906171e2565b80601f0160208091040260200160405190810160405280929190818152602001828054611442906171e2565b801561148f5780601f106114645761010080835404028352916020019161148f565b820191906000526020600020905b81548152906001019060200180831161147257829003601f168201915b50505050508152505090508e82600001518360400151846060015185608001518660c001518760e001518760a00151886040015189606001518b61010001518c60a001519d509d509d509d509d509d509d509d509d509d509d509d50505091939597999b5091939597999b565b60008060009050600080600061159d8b8b600081518110611546577f4e487b7100000000000000000000000000000000000000000000000000000000600052603260045260246000fd5b6020026020010151600001518c60008151811061158c577f4e487b7100000000000000000000000000000000000000000000000000000000600052603260045260246000fd5b6020026020010151602001516105c6565b905060005b8a51811015611b035761163e8c8c83815181106115e8577f4e487b7100000000000000000000000000000000000000000000000000000000600052603260045260246000fd5b6020026020010151600001518d848151811061162d577f4e487b7100000000000000000000000000000000000000000000000000000000600052603260045260246000fd5b6020026020010151602001516105c6565b9450600061164a61551f565b33816000019073ffffffffffffffffffffffffffffffffffffffff16908173ffffffffffffffffffffffffffffffffffffffff168152505081816020019073ffffffffffffffffffffffffffffffffffffffff16908173ffffffffffffffffffffffffffffffffffffffff16815250508d81604001819052508c83815181106116fc577f4e487b7100000000000000000000000000000000000000000000000000000000600052603260045260246000fd5b60200260200101516000015181606001819052508c8381518110611749577f4e487b7100000000000000000000000000000000000000000000000000000000600052603260045260246000fd5b60200260200101516020015181608001818152505060018d5161176c9190617078565b83146117bc578c83815181106117ab577f4e487b7100000000000000000000000000000000000000000000000000000000600052603260045260246000fd5b6020026020010151604001516117be565b8a5b8160a00181815250508c8381518110611800577f4e487b7100000000000000000000000000000000000000000000000000000000600052603260045260246000fd5b6020026020010151606001518160c00181815250508c838151811061184e577f4e487b7100000000000000000000000000000000000000000000000000000000600052603260045260246000fd5b6020026020010151608001518160e0018181525050600083148061187e575060018d5161187b9190617078565b83145b6118975760405180602001604052806000815250611899565b8b5b8161010001819052508381610120018181525050806005600089815260200190815260200160002060008201518160000160006101000a81548173ffffffffffffffffffffffffffffffffffffffff021916908373ffffffffffffffffffffffffffffffffffffffff16021790555060208201518160010160006101000a81548173ffffffffffffffffffffffffffffffffffffffff021916908373ffffffffffffffffffffffffffffffffffffffff160217905550604082015181600201908051906020019061196b9291906155a1565b5060608201518160030190805190602001906119889291906155a1565b506080820151816004015560a0820151816005015560c0820151816006015560e082015181600701556101008201518160080190805190602001906119ce929190615627565b5061012082015181600901559050508c8381518110611a16577f4e487b7100000000000000000000000000000000000000000000000000000000600052603260045260246000fd5b60200260200101516080015186611a2d9190616e46565b95506000831415611a805786600860003373ffffffffffffffffffffffffffffffffffffffff1673ffffffffffffffffffffffffffffffffffffffff168152602001908152602001600020819055508694505b611aa26040518060600160405280602181526020016174f360219139886144f2565b7fdb740cfa0f1894a61ae6e1849cc97444d4b50c7c67bdb8098c217eeee6ea7aff338860008614611ad4576000611ad7565b60015b604051611ae6939291906166ae565b60405180910390a150508080611afb90617245565b9150506115a2565b5034600660003373ffffffffffffffffffffffffffffffffffffffff1673ffffffffffffffffffffffffffffffffffffffff1681526020019081526020016000206000828254611b539190616e46565b925050819055506040518060e001604052803373ffffffffffffffffffffffffffffffffffffffff16815260200183815260200187815260200188606001518152602001886080015181526020018860a0015181526020018860400151815250600760003373ffffffffffffffffffffffffffffffffffffffff1673ffffffffffffffffffffffffffffffffffffffff16815260200190815260200160002060008201518160000160006101000a81548173ffffffffffffffffffffffffffffffffffffffff021916908373ffffffffffffffffffffffffffffffffffffffff160217905550602082015181600101556040820151816002019080519060200190611c5f929190615627565b506060820151816003019080519060200190611c7c929190615627565b506080820151816004019080519060200190611c99929190615627565b5060a0820151816005019080519060200190611cb6929190615627565b5060c0820151816006019080519060200190611cd3929190615627565b509050507f088f6097554d1cac804daedd99305c40328e68f77263b389059512ebbac735f68760000151886020015189604001518a606001518b60a001518c60c001518d60e001518e6101000151604051611d35989796959493929190616913565b60405180910390a1819450505050509695505050505050565b6000806060806000806000606080606080600080600860008f73ffffffffffffffffffffffffffffffffffffffff1673ffffffffffffffffffffffffffffffffffffffff168152602001908152602001600020549050611dad81610e45565b9c509c509c509c509c509c509c509c509c509c509c509c505091939597999b5091939597999b565b600080600090507001000000000000000000000000000000008310611e0b57608083901c9250608081611e089190616e9c565b90505b680100000000000000008310611e3257604083901c9250604081611e2f9190616e9c565b90505b6401000000008310611e5557602083901c9250602081611e529190616e9c565b90505b620100008310611e7657601083901c9250601081611e739190616e9c565b90505b6101008310611e9657600883901c9250600881611e939190616e9c565b90505b60108310611eb557600483901c9250600481611eb29190616e9c565b90505b60048310611ed457600283901c9250600281611ed19190616e9c565b90505b60028310611eec57600181611ee99190616e9c565b90505b80915050919050565b606060028054611f04906171e2565b80601f0160208091040260200160405190810160405280929190818152602001828054611f30906171e2565b8015611f7d5780601f10611f5257610100808354040283529160200191611f7d565b820191906000526020600020905b815481529060010190602001808311611f6057829003601f168201915b5050505050905090565b60606040518451835181835260208084015280604084015281606084018360208a016004612710fa611fb857600080fd5b85826060018401528082608085010182602088016004612710fa611fdb57600080fd5b80602084018284608001018560056107d05a03fa611ff857600080fd5b6020818401016040528083528293505050509392505050565b6060806060806000600860008773ffffffffffffffffffffffffffffffffffffffff1673ffffffffffffffffffffffffffffffffffffffff168152602001908152602001600020549050600060056000838152602001908152602001600020604051806101400160405290816000820160009054906101000a900473ffffffffffffffffffffffffffffffffffffffff1673ffffffffffffffffffffffffffffffffffffffff1673ffffffffffffffffffffffffffffffffffffffff1681526020016001820160009054906101000a900473ffffffffffffffffffffffffffffffffffffffff1673ffffffffffffffffffffffffffffffffffffffff1673ffffffffffffffffffffffffffffffffffffffff168152602001600282018054612138906171e2565b80601f0160208091040260200160405190810160405280929190818152602001828054612164906171e2565b80156121b15780601f10612186576101008083540402835291602001916121b1565b820191906000526020600020905b81548152906001019060200180831161219457829003601f168201915b505050505081526020016003820180546121ca906171e2565b80601f01602080910402602001604051908101604052809291908181526020018280546121f6906171e2565b80156122435780601f1061221857610100808354040283529160200191612243565b820191906000526020600020905b81548152906001019060200180831161222657829003601f168201915b5050505050815260200160048201548152602001600582015481526020016006820154815260200160078201548152602001600882018054612284906171e2565b80601f01602080910402602001604051908101604052809291908181526020018280546122b0906171e2565b80156122fd5780601f106122d2576101008083540402835291602001916122fd565b820191906000526020600020905b8154815290600101906020018083116122e057829003601f168201915b5050505050815260200160098201548152505090506000600190505b651d8fda4ce00067ffffffffffffffff168260a00151111561260157600560008360a001518152602001908152602001600020604051806101400160405290816000820160009054906101000a900473ffffffffffffffffffffffffffffffffffffffff1673ffffffffffffffffffffffffffffffffffffffff1673ffffffffffffffffffffffffffffffffffffffff1681526020016001820160009054906101000a900473ffffffffffffffffffffffffffffffffffffffff1673ffffffffffffffffffffffffffffffffffffffff1673ffffffffffffffffffffffffffffffffffffffff168152602001600282018054612414906171e2565b80601f0160208091040260200160405190810160405280929190818152602001828054612440906171e2565b801561248d5780601f106124625761010080835404028352916020019161248d565b820191906000526020600020905b81548152906001019060200180831161247057829003601f168201915b505050505081526020016003820180546124a6906171e2565b80601f01602080910402602001604051908101604052809291908181526020018280546124d2906171e2565b801561251f5780601f106124f45761010080835404028352916020019161251f565b820191906000526020600020905b81548152906001019060200180831161250257829003601f168201915b5050505050815260200160048201548152602001600582015481526020016006820154815260200160078201548152602001600882018054612560906171e2565b80601f016020809104026020016040519081016040528092919081815260200182805461258c906171e2565b80156125d95780601f106125ae576101008083540402835291602001916125d9565b820191906000526020600020905b8154815290600101906020018083116125bc57829003601f168201915b50505050508152602001600982015481525050915080806125f990617245565b915050612319565b60008167ffffffffffffffff811115612643577f4e487b7100000000000000000000000000000000000000000000000000000000600052604160045260246000fd5b60405190808252806020026020018201604052801561267c57816020015b61266961551f565b8152602001906001900390816126615790505b50905060056000858152602001908152602001600020604051806101400160405290816000820160009054906101000a900473ffffffffffffffffffffffffffffffffffffffff1673ffffffffffffffffffffffffffffffffffffffff1673ffffffffffffffffffffffffffffffffffffffff1681526020016001820160009054906101000a900473ffffffffffffffffffffffffffffffffffffffff1673ffffffffffffffffffffffffffffffffffffffff1673ffffffffffffffffffffffffffffffffffffffff16815260200160028201805461275a906171e2565b80601f0160208091040260200160405190810160405280929190818152602001828054612786906171e2565b80156127d35780601f106127a8576101008083540402835291602001916127d3565b820191906000526020600020905b8154815290600101906020018083116127b657829003601f168201915b505050505081526020016003820180546127ec906171e2565b80601f0160208091040260200160405190810160405280929190818152602001828054612818906171e2565b80156128655780601f1061283a57610100808354040283529160200191612865565b820191906000526020600020905b81548152906001019060200180831161284857829003601f168201915b50505050508152602001600482015481526020016005820154815260200160068201548152602001600782015481526020016008820180546128a6906171e2565b80601f01602080910402602001604051908101604052809291908181526020018280546128d2906171e2565b801561291f5780601f106128f45761010080835404028352916020019161291f565b820191906000526020600020905b81548152906001019060200180831161290257829003601f168201915b50505050508152602001600982015481525050925060005b651d8fda4ce00067ffffffffffffffff168460a001511115612c64578382828151811061298d577f4e487b7100000000000000000000000000000000000000000000000000000000600052603260045260246000fd5b6020026020010181905250600560008560a001518152602001908152602001600020604051806101400160405290816000820160009054906101000a900473ffffffffffffffffffffffffffffffffffffffff1673ffffffffffffffffffffffffffffffffffffffff1673ffffffffffffffffffffffffffffffffffffffff1681526020016001820160009054906101000a900473ffffffffffffffffffffffffffffffffffffffff1673ffffffffffffffffffffffffffffffffffffffff1673ffffffffffffffffffffffffffffffffffffffff168152602001600282018054612a77906171e2565b80601f0160208091040260200160405190810160405280929190818152602001828054612aa3906171e2565b8015612af05780601f10612ac557610100808354040283529160200191612af0565b820191906000526020600020905b815481529060010190602001808311612ad357829003601f168201915b50505050508152602001600382018054612b09906171e2565b80601f0160208091040260200160405190810160405280929190818152602001828054612b35906171e2565b8015612b825780601f10612b5757610100808354040283529160200191612b82565b820191906000526020600020905b815481529060010190602001808311612b6557829003601f168201915b5050505050815260200160048201548152602001600582015481526020016006820154815260200160078201548152602001600882018054612bc3906171e2565b80601f0160208091040260200160405190810160405280929190818152602001828054612bef906171e2565b8015612c3c5780601f10612c1157610100808354040283529160200191612c3c565b820191906000526020600020905b815481529060010190602001808311612c1f57829003601f168201915b5050505050815260200160098201548152505093508080612c5c90617245565b915050612937565b83828281518110612c9e577f4e487b7100000000000000000000000000000000000000000000000000000000600052603260045260246000fd5b6020026020010181905250600060076000866000015173ffffffffffffffffffffffffffffffffffffffff1673ffffffffffffffffffffffffffffffffffffffff1681526020019081526020016000206040518060e00160405290816000820160009054906101000a900473ffffffffffffffffffffffffffffffffffffffff1673ffffffffffffffffffffffffffffffffffffffff1673ffffffffffffffffffffffffffffffffffffffff16815260200160018201548152602001600282018054612d69906171e2565b80601f0160208091040260200160405190810160405280929190818152602001828054612d95906171e2565b8015612de25780601f10612db757610100808354040283529160200191612de2565b820191906000526020600020905b815481529060010190602001808311612dc557829003601f168201915b50505050508152602001600382018054612dfb906171e2565b80601f0160208091040260200160405190810160405280929190818152602001828054612e27906171e2565b8015612e745780601f10612e4957610100808354040283529160200191612e74565b820191906000526020600020905b815481529060010190602001808311612e5757829003601f168201915b50505050508152602001600482018054612e8d906171e2565b80601f0160208091040260200160405190810160405280929190818152602001828054612eb9906171e2565b8015612f065780601f10612edb57610100808354040283529160200191612f06565b820191906000526020600020905b815481529060010190602001808311612ee957829003601f168201915b50505050508152602001600582018054612f1f906171e2565b80601f0160208091040260200160405190810160405280929190818152602001828054612f4b906171e2565b8015612f985780601f10612f6d57610100808354040283529160200191612f98565b820191906000526020600020905b815481529060010190602001808311612f7b57829003601f168201915b50505050508152602001600682018054612fb1906171e2565b80601f0160208091040260200160405190810160405280929190818152602001828054612fdd906171e2565b801561302a5780601f10612fff5761010080835404028352916020019161302a565b820191906000526020600020905b81548152906001019060200180831161300d57829003601f168201915b5050505050815250509050828160a001518260400151836060015199509950995099505050505050509193509193565b6000436004541061306a57600080fd5b4360048190555060006005600086815260200190815260200160002090506000838560405160200161309d9291906167f3565b604051602081830303815290604052905081600601546002826040516130c391906165b1565b602060405180830381855afa1580156130e0573d6000803e3d6000fd5b5050506040513d601f19601f820116820180604052508101906131039190615e01565b14613143576040517f08c379a000000000000000000000000000000000000000000000000000000000815260040161313a90616a19565b60405180910390fd5b868260010160006101000a81548173ffffffffffffffffffffffffffffffffffffffff021916908373ffffffffffffffffffffffffffffffffffffffff1602179055508592505050949350505050565b60076020528060005260406000206000915090508060000160009054906101000a900473ffffffffffffffffffffffffffffffffffffffff16908060010154908060020180546131e2906171e2565b80601f016020809104026020016040519081016040528092919081815260200182805461320e906171e2565b801561325b5780601f106132305761010080835404028352916020019161325b565b820191906000526020600020905b81548152906001019060200180831161323e57829003601f168201915b505050505090806003018054613270906171e2565b80601f016020809104026020016040519081016040528092919081815260200182805461329c906171e2565b80156132e95780601f106132be576101008083540402835291602001916132e9565b820191906000526020600020905b8154815290600101906020018083116132cc57829003601f168201915b5050505050908060040180546132fe906171e2565b80601f016020809104026020016040519081016040528092919081815260200182805461332a906171e2565b80156133775780601f1061334c57610100808354040283529160200191613377565b820191906000526020600020905b81548152906001019060200180831161335a57829003601f168201915b50505050509080600501805461338c906171e2565b80601f01602080910402602001604051908101604052809291908181526020018280546133b8906171e2565b80156134055780601f106133da57610100808354040283529160200191613405565b820191906000526020600020905b8154815290600101906020018083116133e857829003601f168201915b50505050509080600601805461341a906171e2565b80601f0160208091040260200160405190810160405280929190818152602001828054613446906171e2565b80156134935780601f1061346857610100808354040283529160200191613493565b820191906000526020600020905b81548152906001019060200180831161347657829003601f168201915b5050505050905087565b60086020528060005260406000206000915090505481565b600043600454106134c557600080fd5b43600481905550600060056000878152602001908152602001600020905061359061357b8260030180546134f8906171e2565b80601f0160208091040260200160405190810160405280929190818152602001828054613524906171e2565b80156135715780601f1061354657610100808354040283529160200191613571565b820191906000526020600020905b81548152906001019060200180831161355457829003601f168201915b505050505061458e565b60405180602001604052806000815250614659565b61409a578673ffffffffffffffffffffffffffffffffffffffff168160010160009054906101000a900473ffffffffffffffffffffffffffffffffffffffff1673ffffffffffffffffffffffffffffffffffffffff1614613626576040517f08c379a000000000000000000000000000000000000000000000000000000000815260040161361d90616a39565b60405180910390fd5b600060028660405160200161363b919061684c565b60405160208183030381529060405260405161365791906165b1565b602060405180830381855afa158015613674573d6000803e3d6000fd5b5050506040513d601f19601f820116820180604052508101906136979190615e01565b9050600060027f4271455448000000000000000000000000000000000000000000000000000000886040516020016136d092919061681c565b6040516020818303038152906040526040516136ec91906165b1565b602060405180830381855afa158015613709573d6000803e3d6000fd5b5050506040513d601f19601f8201168201806040525081019061372c9190615e01565b90508260060154600282846040516020016137489291906167f3565b60405160208183030381529060405260405161376491906165b1565b602060405180830381855afa158015613781573d6000803e3d6000fd5b5050506040513d601f19601f820116820180604052508101906137a49190615e01565b146137e4576040517f08c379a00000000000000000000000000000000000000000000000000000000081526004016137db90616a79565b60405180910390fd5b600060016137f58560040154611dd5565b6137ff91906170ac565b60ff169050613937846002018054613816906171e2565b80601f0160208091040260200160405190810160405280929190818152602001828054613842906171e2565b801561388f5780601f106138645761010080835404028352916020019161388f565b820191906000526020600020905b81548152906001019060200180831161387257829003601f168201915b50505050508560030180546138a3906171e2565b80601f01602080910402602001604051908101604052809291908181526020018280546138cf906171e2565b801561391c5780601f106138f15761010080835404028352916020019161391c565b820191906000526020600020905b8154815290600101906020018083116138ff57829003601f168201915b5050505050838b60008c8c90613932919061718b565b6146df565b1561408e578360010160009054906101000a900473ffffffffffffffffffffffffffffffffffffffff1673ffffffffffffffffffffffffffffffffffffffff166108fc85600701549081150290604051600060405180830381858888f193505050501580156139aa573d6000803e3d6000fd5b508360070154600660008660000160009054906101000a900473ffffffffffffffffffffffffffffffffffffffff1673ffffffffffffffffffffffffffffffffffffffff1673ffffffffffffffffffffffffffffffffffffffff1681526020019081526020016000206000828254613a229190617078565b9250508190555060405180602001604052806000815250846003019080519060200190613a509291906156ad565b506000600760008660000160009054906101000a900473ffffffffffffffffffffffffffffffffffffffff1673ffffffffffffffffffffffffffffffffffffffff1673ffffffffffffffffffffffffffffffffffffffff1681526020019081526020016000206040518060e00160405290816000820160009054906101000a900473ffffffffffffffffffffffffffffffffffffffff1673ffffffffffffffffffffffffffffffffffffffff1673ffffffffffffffffffffffffffffffffffffffff16815260200160018201548152602001600282018054613b31906171e2565b80601f0160208091040260200160405190810160405280929190818152602001828054613b5d906171e2565b8015613baa5780601f10613b7f57610100808354040283529160200191613baa565b820191906000526020600020905b815481529060010190602001808311613b8d57829003601f168201915b50505050508152602001600382018054613bc3906171e2565b80601f0160208091040260200160405190810160405280929190818152602001828054613bef906171e2565b8015613c3c5780601f10613c1157610100808354040283529160200191613c3c565b820191906000526020600020905b815481529060010190602001808311613c1f57829003601f168201915b50505050508152602001600482018054613c55906171e2565b80601f0160208091040260200160405190810160405280929190818152602001828054613c81906171e2565b8015613cce5780601f10613ca357610100808354040283529160200191613cce565b820191906000526020600020905b815481529060010190602001808311613cb157829003601f168201915b50505050508152602001600582018054613ce7906171e2565b80601f0160208091040260200160405190810160405280929190818152602001828054613d13906171e2565b8015613d605780601f10613d3557610100808354040283529160200191613d60565b820191906000526020600020905b815481529060010190602001808311613d4357829003601f168201915b50505050508152602001600682018054613d79906171e2565b80601f0160208091040260200160405190810160405280929190818152602001828054613da5906171e2565b8015613df25780601f10613dc757610100808354040283529160200191613df2565b820191906000526020600020905b815481529060010190602001808311613dd557829003601f168201915b50505050508152505090507f0f32a026611e96b6cc3d9e4ae1db35e07afdd9193b6ac4e118a1c4d86f027ae48a8a8360a001518460400151896005015486606001518760c00151604051613e4c9796959493929190616b98565b60405180910390a17fa31e7c63ad889208fb9fe6bb68680577308bcf776c5d7de7099b89fe5809b6078a8a87600501548860070154604051613e919493929190616c2a565b60405180910390a1651d8fda4ce00067ffffffffffffffff168560050154101561408c5760008560090154905060008190505b60006005600083815260200190815260200160002060050154905060056000838152602001908152602001600020600080820160006101000a81549073ffffffffffffffffffffffffffffffffffffffff02191690556001820160006101000a81549073ffffffffffffffffffffffffffffffffffffffff0219169055600282016000613f519190615733565b600382016000613f619190615733565b6004820160009055600582016000905560068201600090556007820160009055600882016000613f919190615773565b6009820160009055505080915050651d8fda4ce00067ffffffffffffffff168111613ec45781600860008960000160009054906101000a900473ffffffffffffffffffffffffffffffffffffffff1673ffffffffffffffffffffffffffffffffffffffff1673ffffffffffffffffffffffffffffffffffffffff16815260200190815260200160002054141561408957600860008860000160009054906101000a900473ffffffffffffffffffffffffffffffffffffffff1673ffffffffffffffffffffffffffffffffffffffff1673ffffffffffffffffffffffffffffffffffffffff168152602001908152602001600020600090555b50505b505b889450505050506140de565b6140d86040518060400160405280601681526020017f50757a7a6c6520616c726561647920636c61696d65640000000000000000000081525061481d565b60009150505b95945050505050565b6000808484846040516020016140ff9392919061686e565b6040516020818303038152906040529050600060028260405161412291906165b1565b602060405180830381855afa15801561413f573d6000803e3d6000fd5b5050506040513d601f19601f820116820180604052508101906141629190615e01565b905060006040518060400160405280600060801b6fffffffffffffffffffffffffffffffff19166fffffffffffffffffffffffffffffffff19168152602001600060801b6fffffffffffffffffffffffffffffffff1916815250905081815281601082015280600060028110614201577f4e487b7100000000000000000000000000000000000000000000000000000000600052603260045260246000fd5b602002015193505050509392505050565b60066020528060005260406000206000915090505481565b60056020528060005260406000206000915090508060000160009054906101000a900473ffffffffffffffffffffffffffffffffffffffff16908060010160009054906101000a900473ffffffffffffffffffffffffffffffffffffffff1690806002018054614299906171e2565b80601f01602080910402602001604051908101604052809291908181526020018280546142c5906171e2565b80156143125780601f106142e757610100808354040283529160200191614312565b820191906000526020600020905b8154815290600101906020018083116142f557829003601f168201915b505050505090806003018054614327906171e2565b80601f0160208091040260200160405190810160405280929190818152602001828054614353906171e2565b80156143a05780601f10614375576101008083540402835291602001916143a0565b820191906000526020600020905b81548152906001019060200180831161438357829003601f168201915b5050505050908060040154908060050154908060060154908060070154908060080180546143cd906171e2565b80601f01602080910402602001604051908101604052809291908181526020018280546143f9906171e2565b80156144465780601f1061441b57610100808354040283529160200191614446565b820191906000526020600020905b81548152906001019060200180831161442957829003601f168201915b505050505090806009015490508a565b6144ee828260405160240161446c9291906168dc565b6040516020818303038152906040527f4b5c4277000000000000000000000000000000000000000000000000000000007bffffffffffffffffffffffffffffffffffffffffffffffffffffffff19166020820180517bffffffffffffffffffffffffffffffffffffffffffffffffffffffff83818316178352505050506148b6565b5050565b61458a82826040516024016145089291906169c9565b6040516020818303038152906040527fb60e72cc000000000000000000000000000000000000000000000000000000007bffffffffffffffffffffffffffffffffffffffffffffffffffffffff19166020820180517bffffffffffffffffffffffffffffffffffffffffffffffffffffffff83818316178352505050506148b6565b5050565b606060005b600060f81b8382815181106145d1577f4e487b7100000000000000000000000000000000000000000000000000000000600052603260045260246000fd5b602001015160f81c60f81b7effffffffffffffffffffffffffffffffffffffffffffffffffffffffffffff1916141561463857808061460f90617245565b91505082518114156146335760405180602001604052806000815250915050614654565b614593565b600081111561464f57825181840193508181038452505b829150505b919050565b6000808351905060008114156146735760009150506146d9565b60006020826146829190617298565b146146915760009150506146d9565b825181146146a35760009150506146d9565b60006001925060205b600183018110156146d557600182019150808501518187015114841693506020810190506146ac565b5050505b92915050565b600080828460ff168151811061471e577f4e487b7100000000000000000000000000000000000000000000000000000000600052603260045260246000fd5b6020026020010151905060006147358887846140e7565b90506000816fffffffffffffffffffffffffffffffff191660001c90506147676147608a838d611f87565b848c6148df565b985061477e61477784838d611f87565b888c6148df565b9650845160018761478f9190616e9c565b60ff16146147c7576147bd8a8a60018b6147a99190617078565b8a60018b6147b79190616e9c565b8a6146df565b9350505050614813565b60008860026147d69190616f26565b60026147e29190616f26565b90506147f8886147f38c848f611f87565b614659565b1561480a576001945050505050614813565b60009450505050505b9695505050505050565b6148b38160405160240161483191906168ba565b6040516020818303038152906040527f41304fac000000000000000000000000000000000000000000000000000000007bffffffffffffffffffffffffffffffffffffffffffffffffffffffff19166020820180517bffffffffffffffffffffffffffffffffffffffffffffffffffffffff83818316178352505050506148b6565b50565b60008151905060006a636f6e736f6c652e6c6f679050602083016000808483855afa5050505050565b606060006148f96148f186868661493f565b600285611f87565b9050600061491361490b87878761498f565b600286611f87565b9050600061492283838761498f565b9050600061492f826149ce565b9050809450505050509392505050565b6060600061494d8585614b63565b90506149598184614ef3565b801561496c575061496a8184614659565b155b1561497a5780915050614988565b61498481846150fe565b9150505b9392505050565b606061499b8385614ef3565b156149b1576149aa84846150fe565b90506149c7565b6149c4826149bf85876150fe565b6150fe565b90505b9392505050565b60606000825167ffffffffffffffff811115614a13577f4e487b7100000000000000000000000000000000000000000000000000000000600052604160045260246000fd5b6040519080825280601f01601f191660200182016040528015614a455781602001600182028036833780820191505090505b5090506000805b8451821015614b58576000858381518110614a90577f4e487b7100000000000000000000000000000000000000000000000000000000600052603260045260246000fd5b602001015160f81c60f81b60f81c9050600060028260ff16901c9050600060068360ff16901b905060008460ff161115614ad3578382614ad09190616e9c565b91505b8160f81b868681518110614b10577f4e487b7100000000000000000000000000000000000000000000000000000000600052603260045260246000fd5b60200101907effffffffffffffffffffffffffffffffffffffffffffffffffffffffffffff1916908160001a9053508480614b4a90617245565b955050809350505050614a4c565b829350505050919050565b606060006001614b7585518551615506565b614b7f9190616e46565b67ffffffffffffffff811115614bbe577f4e487b7100000000000000000000000000000000000000000000000000000000600052604160045260246000fd5b6040519080825280601f01601f191660200182016040528015614bf05781602001600182028036833780820191505090505b5090506000805b601f828751614c069190617078565b118015614c1f5750601f828651614c1d9190617078565b115b15614ca657600080602084018851036020890101519150602084018751036020880101519050600054821691506000548116905060008360ff168284614c659190616e46565b614c6f9190616e46565b90508060001b60f81c9350600054811690508060208601875103602088010152601f85614c9c9190616e46565b9450505050614bf7565b5b614cb386518651615506565b821015614e6f5760008651831015614d2e57866001848951614cd59190617078565b614cdf9190617078565b81518110614d16577f4e487b7100000000000000000000000000000000000000000000000000000000600052603260045260246000fd5b602001015160f81c60f81b60f81c60ff169050614d33565b600090505b60008651841015614da757866001858951614d4e9190617078565b614d589190617078565b81518110614d8f577f4e487b7100000000000000000000000000000000000000000000000000000000600052603260045260246000fd5b602001015160f81c60f81b60f81c60ff169050614dac565b600090505b60008360ff168284614dbe9190616e0e565b614dc89190616e0e565b90508060f81b866001878951614dde9190617078565b614de89190617078565b81518110614e1f577f4e487b7100000000000000000000000000000000000000000000000000000000600052603260045260246000fd5b60200101907effffffffffffffffffffffffffffffffffffffffffffffffffffffffffffff1916908160001a90535060088161ffff16901c93508480614e6490617245565b955050505050614ca7565b8060f81b83600081518110614ead577f4e487b7100000000000000000000000000000000000000000000000000000000600052603260045260246000fd5b60200101907effffffffffffffffffffffffffffffffffffffffffffffffffffffffffffff1916908160001a905350614ee58361458e565b925082935050505092915050565b6000815183511015614f0857600190506150f8565b815183511115614f1b57600090506150f8565b60005b83518110156150f257828181518110614f60577f4e487b7100000000000000000000000000000000000000000000000000000000600052603260045260246000fd5b602001015160f81c60f81b7effffffffffffffffffffffffffffffffffffffffffffffffffffffffffffff1916848281518110614fc6577f4e487b7100000000000000000000000000000000000000000000000000000000600052603260045260246000fd5b602001015160f81c60f81b7effffffffffffffffffffffffffffffffffffffffffffffffffffffffffffff191610156150035760019150506150f8565b82818151811061503c577f4e487b7100000000000000000000000000000000000000000000000000000000600052603260045260246000fd5b602001015160f81c60f81b7effffffffffffffffffffffffffffffffffffffffffffffffffffffffffffff19168482815181106150a2577f4e487b7100000000000000000000000000000000000000000000000000000000600052603260045260246000fd5b602001015160f81c60f81b7effffffffffffffffffffffffffffffffffffffffffffffffffffffffffffff191611156150df5760009150506150f8565b80806150ea90617245565b915050614f1e565b50600190505b92915050565b6060815183511015615145576040517f08c379a000000000000000000000000000000000000000000000000000000000815260040161513c906169f9565b60405180910390fd5b6000835167ffffffffffffffff811115615188577f4e487b7100000000000000000000000000000000000000000000000000000000600052604160045260246000fd5b6040519080825280601f01601f1916602001820160405280156151ba5781602001600182028036833780820191505090505b5090506000805b601f8287516151d09190617078565b1180156151e95750601f8286516151e79190617078565b115b156152ac57600080602084018851036020890101519150602084018751036020880101519050600054821691506000548116905060008360ff168261522e9190616e46565b8310615259578360ff16826152439190616e46565b8361524e9190617078565b905060009350615287565b8360ff16826152689190616e46565b600154846152769190616e46565b6152809190617078565b9050600193505b8060208601875103602088010152601f856152a29190616e46565b94505050506151c1565b5b85518210156154a95760008660018489516152c89190617078565b6152d29190617078565b81518110615309577f4e487b7100000000000000000000000000000000000000000000000000000000600052603260045260246000fd5b602001015160f81c60f81b60f81c60ff16905060008651841015615390578660018589516153379190617078565b6153419190617078565b81518110615378577f4e487b7100000000000000000000000000000000000000000000000000000000600052603260045260246000fd5b602001015160f81c60f81b60f81c60ff169050615395565b600090505b60008360ff16826153a69190616e0e565b61ffff168361ffff16106153dd578360ff16826153c39190616e0e565b836153ce9190617044565b61ffff1690506000935061540f565b8360ff16826153ec9190616e0e565b610100846153fa9190616e0e565b6154049190617044565b61ffff169050600193505b8060f81b8660018789516154239190617078565b61542d9190617078565b81518110615464577f4e487b7100000000000000000000000000000000000000000000000000000000600052603260045260246000fd5b60200101907effffffffffffffffffffffffffffffffffffffffffffffffffffffffffffff1916908160001a905350848061549e90617245565b9550505050506152ad565b60008160ff16146154ef576040517f08c379a00000000000000000000000000000000000000000000000000000000081526004016154e690616a59565b60405180910390fd5b6154f88361458e565b925082935050505092915050565b60008183116155155781615517565b825b905092915050565b604051806101400160405280600073ffffffffffffffffffffffffffffffffffffffff168152602001600073ffffffffffffffffffffffffffffffffffffffff16815260200160608152602001606081526020016000815260200160008152602001600080191681526020016000815260200160608152602001600081525090565b8280546155ad906171e2565b90600052602060002090601f0160209004810192826155cf5760008555615616565b82601f106155e857805160ff1916838001178555615616565b82800160010185558215615616579182015b828111156156155782518255916020019190600101906155fa565b5b50905061562391906157b3565b5090565b828054615633906171e2565b90600052602060002090601f016020900481019282615655576000855561569c565b82601f1061566e57805160ff191683800117855561569c565b8280016001018555821561569c579182015b8281111561569b578251825591602001919060010190615680565b5b5090506156a991906157b3565b5090565b8280546156b9906171e2565b90600052602060002090601f0160209004810192826156db5760008555615722565b82601f106156f457805160ff1916838001178555615722565b82800160010185558215615722579182015b82811115615721578251825591602001919060010190615706565b5b50905061572f91906157b3565b5090565b50805461573f906171e2565b6000825580601f106157515750615770565b601f01602090049060005260206000209081019061576f91906157b3565b5b50565b50805461577f906171e2565b6000825580601f1061579157506157b0565b601f0160209004906000526020600020908101906157af91906157b3565b5b50565b5b808211156157cc5760008160009055506001016157b4565b5090565b60006157e36157de84616cb6565b616c91565b9050808382526020820190508285602086028201111561580257600080fd5b60005b8581101561584c57813567ffffffffffffffff81111561582457600080fd5b8086016158318982615a20565b85526020850194506020840193505050600181019050615805565b5050509392505050565b600061586961586484616ce2565b616c91565b9050808382526020820190508285602086028201111561588857600080fd5b60005b858110156158d257813567ffffffffffffffff8111156158aa57600080fd5b8086016158b78982615a74565b8552602085019450602084019350505060018101905061588b565b5050509392505050565b60006158ef6158ea84616d0e565b616c91565b90508281526020810184848401111561590757600080fd5b6159128482856171a0565b509392505050565b600061592d61592884616d3f565b616c91565b90508281526020810184848401111561594557600080fd5b6159508482856171a0565b509392505050565b60008135905061596781617496565b92915050565b60008135905061597c816174ad565b92915050565b60008083601f84011261599457600080fd5b8235905067ffffffffffffffff8111156159ad57600080fd5b6020830191508360208202830111156159c557600080fd5b9250929050565b600082601f8301126159dd57600080fd5b81356159ed848260208601615856565b91505092915050565b600081359050615a05816174c4565b92915050565b600081519050615a1a816174c4565b92915050565b600082601f830112615a3157600080fd5b8135615a418482602086016158dc565b91505092915050565b600082601f830112615a5b57600080fd5b8135615a6b84826020860161591a565b91505092915050565b600060a08284031215615a8657600080fd5b615a9060a0616c91565b9050600082013567ffffffffffffffff811115615aac57600080fd5b615ab884828501615a20565b6000830152506020615acc84828501615cc8565b6020830152506040615ae084828501615cc8565b6040830152506060615af4848285016159f6565b6060830152506080615b0884828501615cc8565b60808301525092915050565b60006101208284031215615b2757600080fd5b615b32610120616c91565b9050600082013567ffffffffffffffff811115615b4e57600080fd5b615b5a84828501615a4a565b600083015250602082013567ffffffffffffffff811115615b7a57600080fd5b615b8684828501615a4a565b602083015250604082013567ffffffffffffffff811115615ba657600080fd5b615bb284828501615a4a565b604083015250606082013567ffffffffffffffff811115615bd257600080fd5b615bde84828501615a4a565b606083015250608082013567ffffffffffffffff811115615bfe57600080fd5b615c0a84828501615a4a565b60808301525060a082013567ffffffffffffffff811115615c2a57600080fd5b615c3684828501615a4a565b60a08301525060c082013567ffffffffffffffff811115615c5657600080fd5b615c6284828501615a4a565b60c08301525060e082013567ffffffffffffffff811115615c8257600080fd5b615c8e84828501615a4a565b60e08301525061010082013567ffffffffffffffff811115615caf57600080fd5b615cbb84828501615a4a565b6101008301525092915050565b600081359050615cd7816174db565b92915050565b600060208284031215615cef57600080fd5b6000615cfd84828501615958565b91505092915050565b60008060008060808587031215615d1c57600080fd5b6000615d2a8782880161596d565b9450506020615d3b87828801615cc8565b9350506040615d4c878288016159f6565b9250506060615d5d878288016159f6565b91505092959194509250565b600080600080600060808688031215615d8157600080fd5b6000615d8f8882890161596d565b9550506020615da088828901615cc8565b945050604086013567ffffffffffffffff811115615dbd57600080fd5b615dc988828901615a20565b935050606086013567ffffffffffffffff811115615de657600080fd5b615df288828901615982565b92509250509295509295909350565b600060208284031215615e1357600080fd5b6000615e2184828501615a0b565b91505092915050565b600080600080600060a08688031215615e4257600080fd5b600086013567ffffffffffffffff811115615e5c57600080fd5b615e6888828901615a20565b955050602086013567ffffffffffffffff811115615e8557600080fd5b615e91888289016159cc565b945050604086013567ffffffffffffffff811115615eae57600080fd5b615eba88828901615a4a565b9350506060615ecb88828901615cc8565b925050608086013567ffffffffffffffff811115615ee857600080fd5b615ef488828901615b14565b9150509295509295909350565b60008060008060008060c08789031215615f1a57600080fd5b600087013567ffffffffffffffff811115615f3457600080fd5b615f4089828a01615a20565b965050602087013567ffffffffffffffff811115615f5d57600080fd5b615f6989828a016159cc565b955050604087013567ffffffffffffffff811115615f8657600080fd5b615f9289828a01615a4a565b9450506060615fa389828a01615cc8565b935050608087013567ffffffffffffffff811115615fc057600080fd5b615fcc89828a01615b14565b92505060a087013567ffffffffffffffff811115615fe957600080fd5b615ff589828a01615a4a565b9150509295509295509295565b60008060006060848603121561601757600080fd5b600084013567ffffffffffffffff81111561603157600080fd5b61603d86828701615a20565b935050602084013567ffffffffffffffff81111561605a57600080fd5b61606686828701615a20565b925050604084013567ffffffffffffffff81111561608357600080fd5b61608f86828701615a20565b9150509250925092565b6000806000606084860312156160ae57600080fd5b600084013567ffffffffffffffff8111156160c857600080fd5b6160d486828701615a20565b935050602084013567ffffffffffffffff8111156160f157600080fd5b6160fd86828701615a20565b925050604061610e86828701615cc8565b9150509250925092565b60008060006060848603121561612d57600080fd5b600084013567ffffffffffffffff81111561614757600080fd5b61615386828701615a20565b935050602061616486828701615cc8565b925050604084013567ffffffffffffffff81111561618157600080fd5b61618d86828701615a20565b9150509250925092565b6000602082840312156161a957600080fd5b60006161b784828501615cc8565b91505092915050565b60006161cc8383616485565b905092915050565b6161dd816170f2565b82525050565b6161ec816170f2565b82525050565b6161fb816170e0565b82525050565b61620a816170e0565b82525050565b600061621b82616d80565b6162258185616dae565b93508360208202850161623785616d70565b8060005b85811015616273578484038952815161625485826161c0565b945061625f83616da1565b925060208a0199505060018101905061623b565b50829750879550505050505092915050565b61628e81617104565b82525050565b61629d81617110565b82525050565b6162ac8161713c565b82525050565b6162bb8161713c565b82525050565b60006162cc82616d8b565b6162d68185616dbf565b93506162e68185602086016171af565b6162ef81617385565b840191505092915050565b600061630582616d8b565b61630f8185616dd0565b935061631f8185602086016171af565b61632881617385565b840191505092915050565b600061633e82616d8b565b6163488185616de1565b93506163588185602086016171af565b80840191505092915050565b600061636f82616d96565b6163798185616dec565b93506163898185602086016171af565b61639281617385565b840191505092915050565b60006163a882616d96565b6163b28185616dfd565b93506163c28185602086016171af565b6163cb81617385565b840191505092915050565b60006163e3601583616dfd565b91506163ee826173a3565b602082019050919050565b6000616406602383616dfd565b9150616411826173cc565b604082019050919050565b6000616429601883616dfd565b91506164348261741b565b602082019050919050565b600061644c600f83616dfd565b915061645782617444565b602082019050919050565b600061646f601f83616dfd565b915061647a8261746d565b602082019050919050565b60006101408301600083015161649e60008601826161f2565b5060208301516164b160208601826161d4565b50604083015184820360408601526164c982826162c1565b915050606083015184820360608601526164e382826162c1565b91505060808301516164f8608086018261656d565b5060a083015161650b60a086018261656d565b5060c083015161651e60c08601826162a3565b5060e083015161653160e086018261656d565b5061010083015184820361010086015261654b8282616364565b91505061012083015161656261012086018261656d565b508091505092915050565b61657681617174565b82525050565b61658581617174565b82525050565b61659c61659782617174565b61728e565b82525050565b6165ab8161717e565b82525050565b60006165bd8284616333565b915081905092915050565b60006165d48286616333565b91506165e08285616333565b91506165ec828461658b565b602082019150819050949350505050565b600061014082019050616613600083018d616201565b616620602083018c6161e3565b8181036040830152616632818b6162fa565b90508181036060830152616646818a6162fa565b9050616655608083018961657c565b61666260a083018861657c565b61666f60c08301876162b2565b61667c60e083018661657c565b81810361010083015261668f818561639d565b905061669f61012083018461657c565b9b9a5050505050505050505050565b60006060820190506166c36000830186616201565b6166d0602083018561657c565b6166dd6040830184616285565b949350505050565b600060e0820190506166fa600083018a616201565b616707602083018961657c565b8181036040830152616719818861639d565b9050818103606083015261672d818761639d565b90508181036080830152616741818661639d565b905081810360a0830152616755818561639d565b905081810360c0830152616769818461639d565b905098975050505050505050565b600060808201905081810360008301526167918187616210565b905081810360208301526167a5818661639d565b905081810360408301526167b9818561639d565b905081810360608301526167cd818461639d565b905095945050505050565b60006020820190506167ed6000830184616294565b92915050565b600060408201905061680860008301856162b2565b61681560208301846162b2565b9392505050565b600060408201905061683160008301856162b2565b818103602083015261684381846162fa565b90509392505050565b6000602082019050818103600083015261686681846162fa565b905092915050565b6000606082019050818103600083015261688881866162fa565b9050818103602083015261689c81856162fa565b905081810360408301526168b081846162fa565b9050949350505050565b600060208201905081810360008301526168d4818461639d565b905092915050565b600060408201905081810360008301526168f6818561639d565b9050818103602083015261690a818461639d565b90509392505050565b600061010082019050818103600083015261692e818b61639d565b90508181036020830152616942818a61639d565b90508181036040830152616956818961639d565b9050818103606083015261696a818861639d565b9050818103608083015261697e818761639d565b905081810360a0830152616992818661639d565b905081810360c08301526169a6818561639d565b905081810360e08301526169ba818461639d565b90509998505050505050505050565b600060408201905081810360008301526169e3818561639d565b90506169f2602083018461657c565b9392505050565b60006020820190508181036000830152616a12816163d6565b9050919050565b60006020820190508181036000830152616a32816163f9565b9050919050565b60006020820190508181036000830152616a528161641c565b9050919050565b60006020820190508181036000830152616a728161643f565b9050919050565b60006020820190508181036000830152616a9281616462565b9050919050565b6000602082019050616aae600083018461657c565b92915050565b600061018082019050616aca600083018f61657c565b616ad7602083018e616201565b8181036040830152616ae9818d6162fa565b90508181036060830152616afd818c6162fa565b9050616b0c608083018b61657c565b616b1960a083018a6162b2565b616b2660c083018961657c565b81810360e0830152616b38818861639d565b9050818103610100830152616b4d818761639d565b9050818103610120830152616b62818661639d565b9050818103610140830152616b77818561639d565b9050616b8761016083018461657c565b9d9c50505050505050505050505050565b600060e082019050616bad600083018a61657c565b8181036020830152616bbf81896162fa565b90508181036040830152616bd3818861639d565b90508181036060830152616be7818761639d565b9050616bf6608083018661657c565b81810360a0830152616c08818561639d565b905081810360c0830152616c1c818461639d565b905098975050505050505050565b6000608082019050616c3f600083018761657c565b8181036020830152616c5181866162fa565b9050616c60604083018561657c565b616c6d606083018461657c565b95945050505050565b6000602082019050616c8b60008301846165a2565b92915050565b6000616c9b616cac565b9050616ca78282617214565b919050565b6000604051905090565b600067ffffffffffffffff821115616cd157616cd0617356565b5b602082029050602081019050919050565b600067ffffffffffffffff821115616cfd57616cfc617356565b5b602082029050602081019050919050565b600067ffffffffffffffff821115616d2957616d28617356565b5b616d3282617385565b9050602081019050919050565b600067ffffffffffffffff821115616d5a57616d59617356565b5b616d6382617385565b9050602081019050919050565b6000819050602082019050919050565b600081519050919050565b600081519050919050565b600081519050919050565b6000602082019050919050565b600082825260208201905092915050565b600082825260208201905092915050565b600082825260208201905092915050565b600081905092915050565b600082825260208201905092915050565b600082825260208201905092915050565b6000616e1982617146565b9150616e2483617146565b92508261ffff03821115616e3b57616e3a6172c9565b5b828201905092915050565b6000616e5182617174565b9150616e5c83617174565b9250827fffffffffffffffffffffffffffffffffffffffffffffffffffffffffffffffff03821115616e9157616e906172c9565b5b828201905092915050565b6000616ea78261717e565b9150616eb28361717e565b92508260ff03821115616ec857616ec76172c9565b5b828201905092915050565b6000808291508390505b6001851115616f1d57808604811115616ef957616ef86172c9565b5b6001851615616f085780820291505b8081029050616f1685617396565b9450616edd565b94509492505050565b6000616f3182617174565b9150616f3c83617174565b9250616f697fffffffffffffffffffffffffffffffffffffffffffffffffffffffffffffffff8484616f71565b905092915050565b600082616f81576001905061703d565b81616f8f576000905061703d565b8160018114616fa55760028114616faf57616fde565b600191505061703d565b60ff841115616fc157616fc06172c9565b5b8360020a915084821115616fd857616fd76172c9565b5b5061703d565b5060208310610133831016604e8410600b84101617156170135782820a90508381111561700e5761700d6172c9565b5b61703d565b6170208484846001616ed3565b92509050818404811115617037576170366172c9565b5b81810290505b9392505050565b600061704f82617146565b915061705a83617146565b92508282101561706d5761706c6172c9565b5b828203905092915050565b600061708382617174565b915061708e83617174565b9250828210156170a1576170a06172c9565b5b828203905092915050565b60006170b78261717e565b91506170c28361717e565b9250828210156170d5576170d46172c9565b5b828203905092915050565b60006170eb82617154565b9050919050565b60006170fd82617154565b9050919050565b60008115159050919050565b60007fffffffffffffffffffffffffffffffff0000000000000000000000000000000082169050919050565b6000819050919050565b600061ffff82169050919050565b600073ffffffffffffffffffffffffffffffffffffffff82169050919050565b6000819050919050565b600060ff82169050919050565b60006171983684846157d0565b905092915050565b82818337600083830152505050565b60005b838110156171cd5780820151818401526020810190506171b2565b838111156171dc576000848401525b50505050565b600060028204905060018216806171fa57607f821691505b6020821081141561720e5761720d617327565b5b50919050565b61721d82617385565b810181811067ffffffffffffffff8211171561723c5761723b617356565b5b80604052505050565b600061725082617174565b91507fffffffffffffffffffffffffffffffffffffffffffffffffffffffffffffffff821415617283576172826172c9565b5b600182019050919050565b6000819050919050565b60006172a382617174565b91506172ae83617174565b9250826172be576172bd6172f8565b5b828206905092915050565b7f4e487b7100000000000000000000000000000000000000000000000000000000600052601160045260246000fd5b7f4e487b7100000000000000000000000000000000000000000000000000000000600052601260045260246000fd5b7f4e487b7100000000000000000000000000000000000000000000000000000000600052602260045260246000fd5b7f4e487b7100000000000000000000000000000000000000000000000000000000600052604160045260246000fd5b6000601f19601f8301169050919050565b60008160011c9050919050565b7f5375627472616374696f6e20756e646572666c6f770000000000000000000000600082015250565b7f436f6d6d69746d656e74206d757374206d617463682070757a7a6c652073746160008201527f6d702e0000000000000000000000000000000000000000000000000000000000602082015250565b7f4f726967696e616c206661726d65722072657175697265640000000000000000600082015250565b7f556e646572666c6f77206572726f720000000000000000000000000000000000600082015250565b7f536f6c7574696f6e206d757374206d6174636820636f6d6d69746d656e742e00600082015250565b61749f816170e0565b81146174aa57600080fd5b50565b6174b6816170f2565b81146174c157600080fd5b50565b6174cd8161713c565b81146174d857600080fd5b50565b6174e481617174565b81146174ef57600080fd5b5056fe526567697374657265642070757a7a6c6520776974682048617368203a27257327a2646970667358221220e209b3b130d9258e1668dfb82bc05e812e306c93c4be8b7ae5b61bc8e40b93d864736f6c634300080400334465706c6f79696e6720427145544820436f6e747261637420776974682076657273696f6e3a",
  "linkReferences": {},
  "deployedLinkReferences": {}
}