{
  "_format": "hh-sol-artifact-1",
  "contractName": "BigNumbers",
  "sourceName": "contracts/BigNumbers.sol",
  "abi": [
    {
      "inputs": [
        {
          "components": [
            {
              "internalType": "bytes",
              "name": "val",
              "type": "bytes"
            },
            {
              "internalType": "bool",
              "name": "neg",
              "type": "bool"
            },
            {
              "internalType": "uint256",
              "name": "bitlen",
              "type": "uint256"
            }
          ],
          "internalType": "struct BigNumber",
          "name": "n",
          "type": "tuple"
        }
      ],
      "name": "toBytes",
      "outputs": [
        {
          "internalType": "bytes",
          "name": "r",
          "type": "bytes"
        }
      ],
      "stateMutability": "pure",
      "type": "function"
    }
  ],
  "bytecode": "0x6103bd610053600b82828239805160001a607314610046577f4e487b7100000000000000000000000000000000000000000000000000000000600052600060045260246000fd5b30600052607381538281f3fe73000000000000000000000000000000000000000030146080604052600436106100355760003560e01c8063b1f2efa31461003a575b600080fd5b610054600480360381019061004f9190610182565b61006a565b60405161006191906101fc565b60405180910390f35b606081600001519050919050565b600061008b61008684610243565b61021e565b9050828152602081018484840111156100a357600080fd5b6100ae8482856102a6565b509392505050565b6000813590506100c581610359565b92915050565b600082601f8301126100dc57600080fd5b81356100ec848260208601610078565b91505092915050565b60006060828403121561010757600080fd5b610111606061021e565b9050600082013567ffffffffffffffff81111561012d57600080fd5b610139848285016100cb565b600083015250602061014d848285016100b6565b60208301525060406101618482850161016d565b60408301525092915050565b60008135905061017c81610370565b92915050565b60006020828403121561019457600080fd5b600082013567ffffffffffffffff8111156101ae57600080fd5b6101ba848285016100f5565b91505092915050565b60006101ce82610274565b6101d8818561027f565b93506101e88185602086016102b5565b6101f181610348565b840191505092915050565b6000602082019050818103600083015261021681846101c3565b905092915050565b6000610228610239565b905061023482826102e8565b919050565b6000604051905090565b600067ffffffffffffffff82111561025e5761025d610319565b5b61026782610348565b9050602081019050919050565b600081519050919050565b600082825260208201905092915050565b60008115159050919050565b6000819050919050565b82818337600083830152505050565b60005b838110156102d35780820151818401526020810190506102b8565b838111156102e2576000848401525b50505050565b6102f182610348565b810181811067ffffffffffffffff821117156103105761030f610319565b5b80604052505050565b7f4e487b7100000000000000000000000000000000000000000000000000000000600052604160045260246000fd5b6000601f19601f8301169050919050565b61036281610290565b811461036d57600080fd5b50565b6103798161029c565b811461038457600080fd5b5056fea2646970667358221220832cb861e43cc714d27b0f299fdd70bce1ebef402ad3301c71b54b848db230bf64736f6c63430008040033",
  "linkReferences": {},
  "deployedLinkReferences": {}
}