{
	"data": {
		"bytecode": {
			"linkReferences": {},
			"object": "60806040527effffffffffffffffffffffffffffffffffffffffffffffffffffffffffffff6000557f01000000000000000000000000000000000000000000000000000000000000006001556040518060400160405280601a81526020017f427145544820436f6e74726163742076657273696f6e20302e3100000000000081525060029081620000919190620004e4565b5062000154604051806060016040528060268152602001620081de6026913960028054620000bf90620002d3565b80601f0160208091040260200160405190810160405280929190818152602001828054620000ed90620002d3565b80156200013e5780601f1062000112576101008083540402835291602001916200013e565b820191906000526020600020905b8154815290600101906020018083116200012057829003601f168201915b50505050506200019b60201b6200467d1760201c565b33600360006101000a81548173ffffffffffffffffffffffffffffffffffffffff021916908373ffffffffffffffffffffffffffffffffffffffff16021790555062000695565b6200023d8282604051602401620001b49291906200065a565b6040516020818303038152906040527f4b5c4277000000000000000000000000000000000000000000000000000000007bffffffffffffffffffffffffffffffffffffffffffffffffffffffff19166020820180517bffffffffffffffffffffffffffffffffffffffffffffffffffffffff83818316178352505050506200024160201b60201c565b5050565b60008151905060006a636f6e736f6c652e6c6f679050602083016000808483855afa5050505050565b600081519050919050565b7f4e487b7100000000000000000000000000000000000000000000000000000000600052604160045260246000fd5b7f4e487b7100000000000000000000000000000000000000000000000000000000600052602260045260246000fd5b60006002820490506001821680620002ec57607f821691505b602082108103620003025762000301620002a4565b5b50919050565b60008190508160005260206000209050919050565b60006020601f8301049050919050565b600082821b905092915050565b6000600883026200036c7fffffffffffffffffffffffffffffffffffffffffffffffffffffffffffffffff826200032d565b6200037886836200032d565b95508019841693508086168417925050509392505050565b6000819050919050565b6000819050919050565b6000620003c5620003bf620003b98462000390565b6200039a565b62000390565b9050919050565b6000819050919050565b620003e183620003a4565b620003f9620003f082620003cc565b8484546200033a565b825550505050565b600090565b6200041062000401565b6200041d818484620003d6565b505050565b5b8181101562000445576200043960008262000406565b60018101905062000423565b5050565b601f82111562000494576200045e8162000308565b62000469846200031d565b8101602085101562000479578190505b6200049162000488856200031d565b83018262000422565b50505b505050565b600082821c905092915050565b6000620004b96000198460080262000499565b1980831691505092915050565b6000620004d48383620004a6565b9150826002028217905092915050565b620004ef826200026a565b67ffffffffffffffff8111156200050b576200050a62000275565b5b620005178254620002d3565b6200052482828562000449565b600060209050601f8311600181146200055c576000841562000547578287015190505b620005538582620004c6565b865550620005c3565b601f1984166200056c8662000308565b60005b8281101562000596578489015182556001820191506020850194506020810190506200056f565b86831015620005b65784890151620005b2601f891682620004a6565b8355505b6001600288020188555050505b505050505050565b600082825260208201905092915050565b60005b83811015620005fc578082015181840152602081019050620005df565b60008484015250505050565b6000601f19601f8301169050919050565b600062000626826200026a565b620006328185620005cb565b935062000644818560208601620005dc565b6200064f8162000608565b840191505092915050565b6000604082019050818103600083015262000676818562000619565b905081810360208301526200068c818462000619565b90509392505050565b617b3980620006a56000396000f3fe6080604052600436106101235760003560e01c806354fd4d50116100a0578063cdab164911610064578063cdab16491461048e578063d10da1b5146104cb578063e786748114610508578063ed9c79f414610545578063f542c3cd146105825761012a565b806354fd4d5014610366578063606748cf146103915780637eeb5bdf146103ce5780639576c7c11461040e578063b0eac3211461044b5761012a565b80631f2d8b46116100e75780631f2d8b461461022c578063387b29be146102745780633e30b440146102a45780633fed202d146102e15780635456bf13146103295761012a565b806304d7f1b11461012c57806306fdde03146101695780631652896a146101945780631e1d2558146101d15780631e348629146102015761012a565b3661012a57005b005b34801561013857600080fd5b50610153600480360381019061014e9190615786565b6105c8565b604051610160919061589e565b60405180910390f35b34801561017557600080fd5b5061017e6106e0565b60405161018b9190615938565b60405180910390f35b3480156101a057600080fd5b506101bb60048036038101906101b6919061595a565b61076e565b6040516101c891906159f4565b60405180910390f35b6101eb60048036038101906101e69190615e55565b6107a7565b6040516101f891906159f4565b60405180910390f35b34801561020d57600080fd5b50610216610e47565b60405161022391906159f4565b60405180910390f35b34801561023857600080fd5b50610253600480360381019061024e9190615f40565b610e4d565b60405161026b9c9b9a99989796959493929190616012565b60405180910390f35b61028e600480360381019061028991906160f6565b611504565b60405161029b91906159f4565b60405180910390f35b3480156102b057600080fd5b506102cb60048036038101906102c6919061620f565b611ba1565b6040516102d891906162b6565b60405180910390f35b3480156102ed57600080fd5b5061030860048036038101906103039190616304565b611c01565b6040516103209c9b9a99989796959493929190616012565b60405180910390f35b34801561033557600080fd5b50610350600480360381019061034b9190615f40565b611c88565b60405161035d9190616340565b60405180910390f35b34801561037257600080fd5b5061037b611da8565b6040516103889190615938565b60405180910390f35b34801561039d57600080fd5b506103b860048036038101906103b3919061635b565b611e3a565b6040516103c591906162b6565b60405180910390f35b3480156103da57600080fd5b506103f560048036038101906103f09190616304565b611ec4565b6040516104059493929190616672565b60405180910390f35b34801561041a57600080fd5b50610435600480360381019061043091906166ff565b612e9b565b60405161044291906159f4565b60405180910390f35b34801561045757600080fd5b50610472600480360381019061046d9190616304565b612fd4565b6040516104859796959493929190616766565b60405180910390f35b34801561049a57600080fd5b506104b560048036038101906104b09190616304565b6132de565b6040516104c291906159f4565b60405180910390f35b3480156104d757600080fd5b506104f260048036038101906104ed9190616853565b6132f6565b6040516104ff91906159f4565b60405180910390f35b34801561051457600080fd5b5061052f600480360381019061052a919061620f565b614334565b60405161053c9190616932565b60405180910390f35b34801561055157600080fd5b5061056c60048036038101906105679190616304565b614439565b60405161057991906159f4565b60405180910390f35b34801561058e57600080fd5b506105a960048036038101906105a49190615f40565b614451565b6040516105bf9a9998979695949392919061695c565b60405180910390f35b600080828460ff16815181106105e1576105e0616a0d565b5b6020026020010151905060006105f8888784614334565b90506000816fffffffffffffffffffffffffffffffff191660001c905061062a6106238a838d611e3a565b848c611ba1565b985061064161063a84838d611e3a565b888c611ba1565b965084516001876106529190616a6b565b60ff161461068a576106808a8a60018b61066c9190616aa0565b8a60018b61067a9190616a6b565b8a6105c8565b93505050506106d6565b60008860026106999190616c07565b60026106a59190616c07565b90506106bb886106b68c848f611e3a565b614719565b156106cd5760019450505050506106d6565b60009450505050505b9695505050505050565b600280546106ed90616c81565b80601f016020809104026020016040519081016040528092919081815260200182805461071990616c81565b80156107665780601f1061073b57610100808354040283529160200191610766565b820191906000526020600020905b81548152906001019060200180831161074957829003601f168201915b505050505081565b600083838360405160200161078593929190616d0f565b6040516020818303038152906040528051906020012060001c90509392505050565b600080600860003373ffffffffffffffffffffffffffffffffffffffff1673ffffffffffffffffffffffffffffffffffffffff1681526020019081526020016000205490506005600082815260200190815260200160002060000160009054906101000a900473ffffffffffffffffffffffffffffffffffffffff1673ffffffffffffffffffffffffffffffffffffffff163373ffffffffffffffffffffffffffffffffffffffff161461085a57600080fd5b60008060006108a88a8a60008151811061087757610876616a0d565b5b6020026020010151600001518b60008151811061089757610896616a0d565b5b60200260200101516020015161076e565b905060005b8951811015610ccb5760006108ff8c8c84815181106108cf576108ce616a0d565b5b6020026020010151600001518d85815181106108ee576108ed616a0d565b5b60200260200101516020015161076e565b9050600061090b6153b8565b33816000019073ffffffffffffffffffffffffffffffffffffffff16908173ffffffffffffffffffffffffffffffffffffffff168152505081816020019073ffffffffffffffffffffffffffffffffffffffff16908173ffffffffffffffffffffffffffffffffffffffff16815250508d81604001819052508c848151811061099757610996616a0d565b5b60200260200101516000015181606001819052508c84815181106109be576109bd616a0d565b5b60200260200101516020015181608001818152505060018d516109e19190616aa0565b8414610a0b578c84815181106109fa576109f9616a0d565b5b602002602001015160400151610a0d565b8a5b8160a00181815250508c8481518110610a2957610a28616a0d565b5b6020026020010151606001518160c00181815250508c8481518110610a5157610a50616a0d565b5b6020026020010151608001518160e00181815250506000841480610a81575060018d51610a7e9190616aa0565b84145b610a9a5760405180602001604052806000815250610a9c565b8b5b8161010001819052508481610120018181525050806005600085815260200190815260200160002060008201518160000160006101000a81548173ffffffffffffffffffffffffffffffffffffffff021916908373ffffffffffffffffffffffffffffffffffffffff16021790555060208201518160010160006101000a81548173ffffffffffffffffffffffffffffffffffffffff021916908373ffffffffffffffffffffffffffffffffffffffff1602179055506040820151816002019081610b679190616ef0565b506060820151816003019081610b7d9190616ef0565b506080820151816004015560a0820151816005015560c0820151816006015560e08201518160070155610100820151816008019081610bbc919061701d565b5061012082015181600901559050508c8481518110610bde57610bdd616a0d565b5b60200260200101516080015187610bf591906170ef565b965060008403610c475782600860003373ffffffffffffffffffffffffffffffffffffffff1673ffffffffffffffffffffffffffffffffffffffff168152602001908152602001600020819055508295505b610c69604051806060016040528060218152602001617ae3602191398461479e565b7fdb740cfa0f1894a61ae6e1849cc97444d4b50c7c67bdb8098c217eeee6ea7aff338460008714610c9b576000610c9e565b60015b604051610cad93929190617123565b60405180910390a15050508080610cc39061715a565b9150506108ad565b5034600660003373ffffffffffffffffffffffffffffffffffffffff1673ffffffffffffffffffffffffffffffffffffffff1681526020019081526020016000206000828254610d1b91906170ef565b925050819055506000600760006005600088815260200190815260200160002060000160009054906101000a900473ffffffffffffffffffffffffffffffffffffffff1673ffffffffffffffffffffffffffffffffffffffff1673ffffffffffffffffffffffffffffffffffffffff16815260200190815260200160002090508281600101819055508660600151816003019081610db9919061701d565b508660800151816004019081610dcf919061701d565b507f088f6097554d1cac804daedd99305c40328e68f77263b389059512ebbac735f68760000151886020015189604001518a606001518b60a001518c60c001518d60e001518e6101000151604051610e2e9897969594939291906171a2565b60405180910390a1829550505050505095945050505050565b60045481565b6000806060806000806000606080606080600080600560008f8152602001908152602001600020604051806101400160405290816000820160009054906101000a900473ffffffffffffffffffffffffffffffffffffffff1673ffffffffffffffffffffffffffffffffffffffff1673ffffffffffffffffffffffffffffffffffffffff1681526020016001820160009054906101000a900473ffffffffffffffffffffffffffffffffffffffff1673ffffffffffffffffffffffffffffffffffffffff1673ffffffffffffffffffffffffffffffffffffffff168152602001600282018054610f3c90616c81565b80601f0160208091040260200160405190810160405280929190818152602001828054610f6890616c81565b8015610fb55780601f10610f8a57610100808354040283529160200191610fb5565b820191906000526020600020905b815481529060010190602001808311610f9857829003601f168201915b50505050508152602001600382018054610fce90616c81565b80601f0160208091040260200160405190810160405280929190818152602001828054610ffa90616c81565b80156110475780601f1061101c57610100808354040283529160200191611047565b820191906000526020600020905b81548152906001019060200180831161102a57829003601f168201915b505050505081526020016004820154815260200160058201548152602001600682015481526020016007820154815260200160088201805461108890616c81565b80601f01602080910402602001604051908101604052809291908181526020018280546110b490616c81565b80156111015780601f106110d657610100808354040283529160200191611101565b820191906000526020600020905b8154815290600101906020018083116110e457829003601f168201915b505050505081526020016009820154815250509050600060076000836000015173ffffffffffffffffffffffffffffffffffffffff1673ffffffffffffffffffffffffffffffffffffffff1681526020019081526020016000206040518060e00160405290816000820160009054906101000a900473ffffffffffffffffffffffffffffffffffffffff1673ffffffffffffffffffffffffffffffffffffffff1673ffffffffffffffffffffffffffffffffffffffff168152602001600182015481526020016002820180546111d690616c81565b80601f016020809104026020016040519081016040528092919081815260200182805461120290616c81565b801561124f5780601f106112245761010080835404028352916020019161124f565b820191906000526020600020905b81548152906001019060200180831161123257829003601f168201915b5050505050815260200160038201805461126890616c81565b80601f016020809104026020016040519081016040528092919081815260200182805461129490616c81565b80156112e15780601f106112b6576101008083540402835291602001916112e1565b820191906000526020600020905b8154815290600101906020018083116112c457829003601f168201915b505050505081526020016004820180546112fa90616c81565b80601f016020809104026020016040519081016040528092919081815260200182805461132690616c81565b80156113735780601f1061134857610100808354040283529160200191611373565b820191906000526020600020905b81548152906001019060200180831161135657829003601f168201915b5050505050815260200160058201805461138c90616c81565b80601f01602080910402602001604051908101604052809291908181526020018280546113b890616c81565b80156114055780601f106113da57610100808354040283529160200191611405565b820191906000526020600020905b8154815290600101906020018083116113e857829003601f168201915b5050505050815260200160068201805461141e90616c81565b80601f016020809104026020016040519081016040528092919081815260200182805461144a90616c81565b80156114975780601f1061146c57610100808354040283529160200191611497565b820191906000526020600020905b81548152906001019060200180831161147a57829003601f168201915b50505050508152505090508e82600001518360400151846060015185608001518660c001518760e001518760a00151886040015189606001518b61010001518c60a001519d509d509d509d509d509d509d509d509d509d509d509d50505091939597999b5091939597999b565b6000806000905060008060006115598b8b60008151811061152857611527616a0d565b5b6020026020010151600001518c60008151811061154857611547616a0d565b5b60200260200101516020015161076e565b905060005b8a51811015611979576115ae8c8c838151811061157e5761157d616a0d565b5b6020026020010151600001518d848151811061159d5761159c616a0d565b5b60200260200101516020015161076e565b945060006115ba6153b8565b33816000019073ffffffffffffffffffffffffffffffffffffffff16908173ffffffffffffffffffffffffffffffffffffffff168152505081816020019073ffffffffffffffffffffffffffffffffffffffff16908173ffffffffffffffffffffffffffffffffffffffff16815250508d81604001819052508c838151811061164657611645616a0d565b5b60200260200101516000015181606001819052508c838151811061166d5761166c616a0d565b5b60200260200101516020015181608001818152505060018d516116909190616aa0565b83146116ba578c83815181106116a9576116a8616a0d565b5b6020026020010151604001516116bc565b8a5b8160a00181815250508c83815181106116d8576116d7616a0d565b5b6020026020010151606001518160c00181815250508c8381518110611700576116ff616a0d565b5b6020026020010151608001518160e00181815250506000831480611730575060018d5161172d9190616aa0565b83145b611749576040518060200160405280600081525061174b565b8b5b8161010001819052508381610120018181525050806005600089815260200190815260200160002060008201518160000160006101000a81548173ffffffffffffffffffffffffffffffffffffffff021916908373ffffffffffffffffffffffffffffffffffffffff16021790555060208201518160010160006101000a81548173ffffffffffffffffffffffffffffffffffffffff021916908373ffffffffffffffffffffffffffffffffffffffff16021790555060408201518160020190816118169190616ef0565b50606082015181600301908161182c9190616ef0565b506080820151816004015560a0820151816005015560c0820151816006015560e0820151816007015561010082015181600801908161186b919061701d565b5061012082015181600901559050508c838151811061188d5761188c616a0d565b5b602002602001015160800151866118a491906170ef565b9550600083036118f65786600860003373ffffffffffffffffffffffffffffffffffffffff1673ffffffffffffffffffffffffffffffffffffffff168152602001908152602001600020819055508694505b611918604051806060016040528060218152602001617ae3602191398861479e565b7fdb740cfa0f1894a61ae6e1849cc97444d4b50c7c67bdb8098c217eeee6ea7aff33886000861461194a57600061194d565b60015b60405161195c93929190617123565b60405180910390a1505080806119719061715a565b91505061155e565b5034600660003373ffffffffffffffffffffffffffffffffffffffff1673ffffffffffffffffffffffffffffffffffffffff16815260200190815260200160002060008282546119c991906170ef565b925050819055506040518060e001604052803373ffffffffffffffffffffffffffffffffffffffff16815260200183815260200187815260200188606001518152602001886080015181526020018860a0015181526020018860400151815250600760003373ffffffffffffffffffffffffffffffffffffffff1673ffffffffffffffffffffffffffffffffffffffff16815260200190815260200160002060008201518160000160006101000a81548173ffffffffffffffffffffffffffffffffffffffff021916908373ffffffffffffffffffffffffffffffffffffffff160217905550602082015181600101556040820151816002019081611ace919061701d565b506060820151816003019081611ae4919061701d565b506080820151816004019081611afa919061701d565b5060a0820151816005019081611b10919061701d565b5060c0820151816006019081611b26919061701d565b509050507f088f6097554d1cac804daedd99305c40328e68f77263b389059512ebbac735f68760000151886020015189604001518a606001518b60a001518c60c001518d60e001518e6101000151604051611b889897969594939291906171a2565b60405180910390a1819450505050509695505050505050565b60606000611bbb611bb386868661483a565b600285611e3a565b90506000611bd5611bcd87878761488a565b600286611e3a565b90506000611be483838761488a565b90506000611bf1826148c9565b9050809450505050509392505050565b6000806060806000806000606080606080600080600860008f73ffffffffffffffffffffffffffffffffffffffff1673ffffffffffffffffffffffffffffffffffffffff168152602001908152602001600020549050611c6081610e4d565b9c509c509c509c509c509c509c509c509c509c509c509c505091939597999b5091939597999b565b600080600090507001000000000000000000000000000000008310611cbe57608083901c9250608081611cbb9190616a6b565b90505b680100000000000000008310611ce557604083901c9250604081611ce29190616a6b565b90505b6401000000008310611d0857602083901c9250602081611d059190616a6b565b90505b620100008310611d2957601083901c9250601081611d269190616a6b565b90505b6101008310611d4957600883901c9250600881611d469190616a6b565b90505b60108310611d6857600483901c9250600481611d659190616a6b565b90505b60048310611d8757600283901c9250600281611d849190616a6b565b90505b60028310611d9f57600181611d9c9190616a6b565b90505b80915050919050565b606060028054611db790616c81565b80601f0160208091040260200160405190810160405280929190818152602001828054611de390616c81565b8015611e305780601f10611e0557610100808354040283529160200191611e30565b820191906000526020600020905b815481529060010190602001808311611e1357829003601f168201915b5050505050905090565b60606040518451835181835260208084015280604084015281606084018360208a016004612710fa611e6b57600080fd5b85826060018401528082608085010182602088016004612710fa611e8e57600080fd5b80602084018284608001018560056107d05a03fa611eab57600080fd5b6020818401016040528083528293505050509392505050565b6060806060806000600860008773ffffffffffffffffffffffffffffffffffffffff1673ffffffffffffffffffffffffffffffffffffffff168152602001908152602001600020549050600060056000838152602001908152602001600020604051806101400160405290816000820160009054906101000a900473ffffffffffffffffffffffffffffffffffffffff1673ffffffffffffffffffffffffffffffffffffffff1673ffffffffffffffffffffffffffffffffffffffff1681526020016001820160009054906101000a900473ffffffffffffffffffffffffffffffffffffffff1673ffffffffffffffffffffffffffffffffffffffff1673ffffffffffffffffffffffffffffffffffffffff168152602001600282018054611feb90616c81565b80601f016020809104026020016040519081016040528092919081815260200182805461201790616c81565b80156120645780601f1061203957610100808354040283529160200191612064565b820191906000526020600020905b81548152906001019060200180831161204757829003601f168201915b5050505050815260200160038201805461207d90616c81565b80601f01602080910402602001604051908101604052809291908181526020018280546120a990616c81565b80156120f65780601f106120cb576101008083540402835291602001916120f6565b820191906000526020600020905b8154815290600101906020018083116120d957829003601f168201915b505050505081526020016004820154815260200160058201548152602001600682015481526020016007820154815260200160088201805461213790616c81565b80601f016020809104026020016040519081016040528092919081815260200182805461216390616c81565b80156121b05780601f10612185576101008083540402835291602001916121b0565b820191906000526020600020905b81548152906001019060200180831161219357829003601f168201915b5050505050815260200160098201548152505090506000600190505b651d8fda4ce00067ffffffffffffffff168260a0015111156124b457600560008360a001518152602001908152602001600020604051806101400160405290816000820160009054906101000a900473ffffffffffffffffffffffffffffffffffffffff1673ffffffffffffffffffffffffffffffffffffffff1673ffffffffffffffffffffffffffffffffffffffff1681526020016001820160009054906101000a900473ffffffffffffffffffffffffffffffffffffffff1673ffffffffffffffffffffffffffffffffffffffff1673ffffffffffffffffffffffffffffffffffffffff1681526020016002820180546122c790616c81565b80601f01602080910402602001604051908101604052809291908181526020018280546122f390616c81565b80156123405780601f1061231557610100808354040283529160200191612340565b820191906000526020600020905b81548152906001019060200180831161232357829003601f168201915b5050505050815260200160038201805461235990616c81565b80601f016020809104026020016040519081016040528092919081815260200182805461238590616c81565b80156123d25780601f106123a7576101008083540402835291602001916123d2565b820191906000526020600020905b8154815290600101906020018083116123b557829003601f168201915b505050505081526020016004820154815260200160058201548152602001600682015481526020016007820154815260200160088201805461241390616c81565b80601f016020809104026020016040519081016040528092919081815260200182805461243f90616c81565b801561248c5780601f106124615761010080835404028352916020019161248c565b820191906000526020600020905b81548152906001019060200180831161246f57829003601f168201915b50505050508152602001600982015481525050915080806124ac9061715a565b9150506121cc565b60008167ffffffffffffffff8111156124d0576124cf615506565b5b60405190808252806020026020018201604052801561250957816020015b6124f66153b8565b8152602001906001900390816124ee5790505b50905060056000858152602001908152602001600020604051806101400160405290816000820160009054906101000a900473ffffffffffffffffffffffffffffffffffffffff1673ffffffffffffffffffffffffffffffffffffffff1673ffffffffffffffffffffffffffffffffffffffff1681526020016001820160009054906101000a900473ffffffffffffffffffffffffffffffffffffffff1673ffffffffffffffffffffffffffffffffffffffff1673ffffffffffffffffffffffffffffffffffffffff1681526020016002820180546125e790616c81565b80601f016020809104026020016040519081016040528092919081815260200182805461261390616c81565b80156126605780601f1061263557610100808354040283529160200191612660565b820191906000526020600020905b81548152906001019060200180831161264357829003601f168201915b5050505050815260200160038201805461267990616c81565b80601f01602080910402602001604051908101604052809291908181526020018280546126a590616c81565b80156126f25780601f106126c7576101008083540402835291602001916126f2565b820191906000526020600020905b8154815290600101906020018083116126d557829003601f168201915b505050505081526020016004820154815260200160058201548152602001600682015481526020016007820154815260200160088201805461273390616c81565b80601f016020809104026020016040519081016040528092919081815260200182805461275f90616c81565b80156127ac5780601f10612781576101008083540402835291602001916127ac565b820191906000526020600020905b81548152906001019060200180831161278f57829003601f168201915b50505050508152602001600982015481525050925060005b651d8fda4ce00067ffffffffffffffff168460a001511115612acb57838282815181106127f4576127f3616a0d565b5b6020026020010181905250600560008560a001518152602001908152602001600020604051806101400160405290816000820160009054906101000a900473ffffffffffffffffffffffffffffffffffffffff1673ffffffffffffffffffffffffffffffffffffffff1673ffffffffffffffffffffffffffffffffffffffff1681526020016001820160009054906101000a900473ffffffffffffffffffffffffffffffffffffffff1673ffffffffffffffffffffffffffffffffffffffff1673ffffffffffffffffffffffffffffffffffffffff1681526020016002820180546128de90616c81565b80601f016020809104026020016040519081016040528092919081815260200182805461290a90616c81565b80156129575780601f1061292c57610100808354040283529160200191612957565b820191906000526020600020905b81548152906001019060200180831161293a57829003601f168201915b5050505050815260200160038201805461297090616c81565b80601f016020809104026020016040519081016040528092919081815260200182805461299c90616c81565b80156129e95780601f106129be576101008083540402835291602001916129e9565b820191906000526020600020905b8154815290600101906020018083116129cc57829003601f168201915b5050505050815260200160048201548152602001600582015481526020016006820154815260200160078201548152602001600882018054612a2a90616c81565b80601f0160208091040260200160405190810160405280929190818152602001828054612a5690616c81565b8015612aa35780601f10612a7857610100808354040283529160200191612aa3565b820191906000526020600020905b815481529060010190602001808311612a8657829003601f168201915b5050505050815260200160098201548152505093508080612ac39061715a565b9150506127c4565b83828281518110612adf57612ade616a0d565b5b6020026020010181905250600060076000866000015173ffffffffffffffffffffffffffffffffffffffff1673ffffffffffffffffffffffffffffffffffffffff1681526020019081526020016000206040518060e00160405290816000820160009054906101000a900473ffffffffffffffffffffffffffffffffffffffff1673ffffffffffffffffffffffffffffffffffffffff1673ffffffffffffffffffffffffffffffffffffffff16815260200160018201548152602001600282018054612baa90616c81565b80601f0160208091040260200160405190810160405280929190818152602001828054612bd690616c81565b8015612c235780601f10612bf857610100808354040283529160200191612c23565b820191906000526020600020905b815481529060010190602001808311612c0657829003601f168201915b50505050508152602001600382018054612c3c90616c81565b80601f0160208091040260200160405190810160405280929190818152602001828054612c6890616c81565b8015612cb55780601f10612c8a57610100808354040283529160200191612cb5565b820191906000526020600020905b815481529060010190602001808311612c9857829003601f168201915b50505050508152602001600482018054612cce90616c81565b80601f0160208091040260200160405190810160405280929190818152602001828054612cfa90616c81565b8015612d475780601f10612d1c57610100808354040283529160200191612d47565b820191906000526020600020905b815481529060010190602001808311612d2a57829003601f168201915b50505050508152602001600582018054612d6090616c81565b80601f0160208091040260200160405190810160405280929190818152602001828054612d8c90616c81565b8015612dd95780601f10612dae57610100808354040283529160200191612dd9565b820191906000526020600020905b815481529060010190602001808311612dbc57829003601f168201915b50505050508152602001600682018054612df290616c81565b80601f0160208091040260200160405190810160405280929190818152602001828054612e1e90616c81565b8015612e6b5780601f10612e4057610100808354040283529160200191612e6b565b820191906000526020600020905b815481529060010190602001808311612e4e57829003601f168201915b5050505050815250509050828160a001518260400151836060015199509950995099505050505050509193509193565b60004360045410612eab57600080fd5b43600481905550600060056000868152602001908152602001600020905060008385604051602001612ede929190617258565b60405160208183030381529060405290508160060154600282604051612f049190617281565b602060405180830381855afa158015612f21573d6000803e3d6000fd5b5050506040513d601f19601f82011682018060405250810190612f4491906172ad565b14612f84576040517f08c379a0000000000000000000000000000000000000000000000000000000008152600401612f7b9061734c565b60405180910390fd5b868260010160006101000a81548173ffffffffffffffffffffffffffffffffffffffff021916908373ffffffffffffffffffffffffffffffffffffffff1602179055508592505050949350505050565b60076020528060005260406000206000915090508060000160009054906101000a900473ffffffffffffffffffffffffffffffffffffffff169080600101549080600201805461302390616c81565b80601f016020809104026020016040519081016040528092919081815260200182805461304f90616c81565b801561309c5780601f106130715761010080835404028352916020019161309c565b820191906000526020600020905b81548152906001019060200180831161307f57829003601f168201915b5050505050908060030180546130b190616c81565b80601f01602080910402602001604051908101604052809291908181526020018280546130dd90616c81565b801561312a5780601f106130ff5761010080835404028352916020019161312a565b820191906000526020600020905b81548152906001019060200180831161310d57829003601f168201915b50505050509080600401805461313f90616c81565b80601f016020809104026020016040519081016040528092919081815260200182805461316b90616c81565b80156131b85780601f1061318d576101008083540402835291602001916131b8565b820191906000526020600020905b81548152906001019060200180831161319b57829003601f168201915b5050505050908060050180546131cd90616c81565b80601f01602080910402602001604051908101604052809291908181526020018280546131f990616c81565b80156132465780601f1061321b57610100808354040283529160200191613246565b820191906000526020600020905b81548152906001019060200180831161322957829003601f168201915b50505050509080600601805461325b90616c81565b80601f016020809104026020016040519081016040528092919081815260200182805461328790616c81565b80156132d45780601f106132a9576101008083540402835291602001916132d4565b820191906000526020600020905b8154815290600101906020018083116132b757829003601f168201915b5050505050905087565b60086020528060005260406000206000915090505481565b6000436004541061330657600080fd5b4360048190555061334b6040518060400160405280600781526020017f4661726d65723a000000000000000000000000000000000000000000000000008152506149ec565b6133738660405160200161335f91906173b4565b604051602081830303815290604052614a85565b6133b16040518060400160405280600481526020017f5069643a000000000000000000000000000000000000000000000000000000008152506149ec565b6133d9856040516020016133c591906173cf565b604051602081830303815290604052614a85565b600060056000878152602001908152602001600020905061349d61348882600301805461340590616c81565b80601f016020809104026020016040519081016040528092919081815260200182805461343190616c81565b801561347e5780601f106134535761010080835404028352916020019161347e565b820191906000526020600020905b81548152906001019060200180831161346157829003601f168201915b5050505050614b1e565b60405180602001604052806000815250614719565b6142e7578673ffffffffffffffffffffffffffffffffffffffff168160010160009054906101000a900473ffffffffffffffffffffffffffffffffffffffff1673ffffffffffffffffffffffffffffffffffffffff1614613533576040517f08c379a000000000000000000000000000000000000000000000000000000000815260040161352a90617436565b60405180910390fd5b60006002866040516135459190617281565b602060405180830381855afa158015613562573d6000803e3d6000fd5b5050506040513d601f19601f8201168201806040525081019061358591906172ad565b9050600060027f4271455448000000000000000000000000000000000000000000000000000000886040516020016135be929190617477565b6040516020818303038152906040526040516135da9190617281565b602060405180830381855afa1580156135f7573d6000803e3d6000fd5b5050506040513d601f19601f8201168201806040525081019061361a91906172ad565b905061365a6040518060400160405280600381526020017f48313a00000000000000000000000000000000000000000000000000000000008152506149ec565b6136828260405160200161366e919061749f565b604051602081830303815290604052614a85565b6136c06040518060400160405280600381526020017f58323a00000000000000000000000000000000000000000000000000000000008152506149ec565b6136e8816040516020016136d4919061749f565b604051602081830303815290604052614a85565b826006015460028284604051602001613702929190617258565b60405160208183030381529060405260405161371e9190617281565b602060405180830381855afa15801561373b573d6000803e3d6000fd5b5050506040513d601f19601f8201168201806040525081019061375e91906172ad565b1461379e576040517f08c379a000000000000000000000000000000000000000000000000000000000815260040161379590617506565b60405180910390fd5b600060016137af8560040154611c88565b6137b99190617526565b60ff1690506137fc6040518060400160405280600281526020017f4e3a0000000000000000000000000000000000000000000000000000000000008152506149ec565b6138278460020160405160200161381391906175de565b604051602081830303815290604052614a85565b6138656040518060400160405280600281526020017f783a0000000000000000000000000000000000000000000000000000000000008152506149ec565b6138908460030160405160200161387c91906175de565b604051602081830303815290604052614a85565b6138ce6040518060400160405280600281526020017f643a0000000000000000000000000000000000000000000000000000000000008152506149ec565b6138f6816040516020016138e291906173cf565b604051602081830303815290604052614a85565b6139346040518060400160405280600381526020017f5f793a00000000000000000000000000000000000000000000000000000000008152506149ec565b61395c886040516020016139489190617281565b604051602081830303815290604052614a85565b60005b87879050811015613a09576139a96040518060400160405280600881526020017f50726f6f662025640000000000000000000000000000000000000000000000008152508261479e565b6139f68888838181106139bf576139be616a0d565b5b90506020028101906139d19190617604565b6040516020016139e2929190617694565b604051602081830303815290604052614a85565b8080613a019061715a565b91505061395f565b50613b3d846002018054613a1c90616c81565b80601f0160208091040260200160405190810160405280929190818152602001828054613a4890616c81565b8015613a955780601f10613a6a57610100808354040283529160200191613a95565b820191906000526020600020905b815481529060010190602001808311613a7857829003601f168201915b5050505050856003018054613aa990616c81565b80601f0160208091040260200160405190810160405280929190818152602001828054613ad590616c81565b8015613b225780601f10613af757610100808354040283529160200191613b22565b820191906000526020600020905b815481529060010190602001808311613b0557829003601f168201915b5050505050838b60008c8c90613b3891906176b8565b6105c8565b15614290578360010160009054906101000a900473ffffffffffffffffffffffffffffffffffffffff1673ffffffffffffffffffffffffffffffffffffffff166108fc85600701549081150290604051600060405180830381858888f19350505050158015613bb0573d6000803e3d6000fd5b508360070154600660008660000160009054906101000a900473ffffffffffffffffffffffffffffffffffffffff1673ffffffffffffffffffffffffffffffffffffffff1673ffffffffffffffffffffffffffffffffffffffff1681526020019081526020016000206000828254613c289190616aa0565b9250508190555060405180602001604052806000815250846003019081613c4f91906176cd565b506000600760008660000160009054906101000a900473ffffffffffffffffffffffffffffffffffffffff1673ffffffffffffffffffffffffffffffffffffffff1673ffffffffffffffffffffffffffffffffffffffff1681526020019081526020016000206040518060e00160405290816000820160009054906101000a900473ffffffffffffffffffffffffffffffffffffffff1673ffffffffffffffffffffffffffffffffffffffff1673ffffffffffffffffffffffffffffffffffffffff16815260200160018201548152602001600282018054613d3090616c81565b80601f0160208091040260200160405190810160405280929190818152602001828054613d5c90616c81565b8015613da95780601f10613d7e57610100808354040283529160200191613da9565b820191906000526020600020905b815481529060010190602001808311613d8c57829003601f168201915b50505050508152602001600382018054613dc290616c81565b80601f0160208091040260200160405190810160405280929190818152602001828054613dee90616c81565b8015613e3b5780601f10613e1057610100808354040283529160200191613e3b565b820191906000526020600020905b815481529060010190602001808311613e1e57829003601f168201915b50505050508152602001600482018054613e5490616c81565b80601f0160208091040260200160405190810160405280929190818152602001828054613e8090616c81565b8015613ecd5780601f10613ea257610100808354040283529160200191613ecd565b820191906000526020600020905b815481529060010190602001808311613eb057829003601f168201915b50505050508152602001600582018054613ee690616c81565b80601f0160208091040260200160405190810160405280929190818152602001828054613f1290616c81565b8015613f5f5780601f10613f3457610100808354040283529160200191613f5f565b820191906000526020600020905b815481529060010190602001808311613f4257829003601f168201915b50505050508152602001600682018054613f7890616c81565b80601f0160208091040260200160405190810160405280929190818152602001828054613fa490616c81565b8015613ff15780601f10613fc657610100808354040283529160200191613ff1565b820191906000526020600020905b815481529060010190602001808311613fd457829003601f168201915b50505050508152505090507f0f32a026611e96b6cc3d9e4ae1db35e07afdd9193b6ac4e118a1c4d86f027ae48a8a8360a001518460400151896005015486606001518760c0015160405161404b979695949392919061779f565b60405180910390a17fa31e7c63ad889208fb9fe6bb68680577308bcf776c5d7de7099b89fe5809b6078a8a876005015488600701546040516140909493929190617831565b60405180910390a1651d8fda4ce00067ffffffffffffffff168560050154101561428a5760008560090154905060008190505b60006005600083815260200190815260200160002060050154905060056000838152602001908152602001600020600080820160006101000a81549073ffffffffffffffffffffffffffffffffffffffff02191690556001820160006101000a81549073ffffffffffffffffffffffffffffffffffffffff0219169055600282016000614150919061543a565b600382016000614160919061543a565b6004820160009055600582016000905560068201600090556007820160009055600882016000614190919061547a565b6009820160009055505080915050651d8fda4ce00067ffffffffffffffff1681116140c35781600860008960000160009054906101000a900473ffffffffffffffffffffffffffffffffffffffff1673ffffffffffffffffffffffffffffffffffffffff1673ffffffffffffffffffffffffffffffffffffffff168152602001908152602001600020540361428757600860008860000160009054906101000a900473ffffffffffffffffffffffffffffffffffffffff1673ffffffffffffffffffffffffffffffffffffffff1673ffffffffffffffffffffffffffffffffffffffff168152602001908152602001600020600090555b50505b506142db565b6142ce6040518060400160405280601381526020017f566572696669636174696f6e206661696c6564000000000000000000000000008152506149ec565b600094505050505061432b565b8894505050505061432b565b6143256040518060400160405280601681526020017f50757a7a6c6520616c726561647920636c61696d6564000000000000000000008152506149ec565b60009150505b95945050505050565b60008084848460405160200161434c9392919061787d565b6040516020818303038152906040529050600060028260405161436f9190617281565b602060405180830381855afa15801561438c573d6000803e3d6000fd5b5050506040513d601f19601f820116820180604052508101906143af91906172ad565b905060006040518060400160405280600060801b6fffffffffffffffffffffffffffffffff19166fffffffffffffffffffffffffffffffff19168152602001600060801b6fffffffffffffffffffffffffffffffff191681525090508181528160108201528060006002811061442857614427616a0d565b5b602002015193505050509392505050565b60066020528060005260406000206000915090505481565b60056020528060005260406000206000915090508060000160009054906101000a900473ffffffffffffffffffffffffffffffffffffffff16908060010160009054906101000a900473ffffffffffffffffffffffffffffffffffffffff16908060020180546144c090616c81565b80601f01602080910402602001604051908101604052809291908181526020018280546144ec90616c81565b80156145395780601f1061450e57610100808354040283529160200191614539565b820191906000526020600020905b81548152906001019060200180831161451c57829003601f168201915b50505050509080600301805461454e90616c81565b80601f016020809104026020016040519081016040528092919081815260200182805461457a90616c81565b80156145c75780601f1061459c576101008083540402835291602001916145c7565b820191906000526020600020905b8154815290600101906020018083116145aa57829003601f168201915b5050505050908060040154908060050154908060060154908060070154908060080180546145f490616c81565b80601f016020809104026020016040519081016040528092919081815260200182805461462090616c81565b801561466d5780601f106146425761010080835404028352916020019161466d565b820191906000526020600020905b81548152906001019060200180831161465057829003601f168201915b505050505090806009015490508a565b61471582826040516024016146939291906178c9565b6040516020818303038152906040527f4b5c4277000000000000000000000000000000000000000000000000000000007bffffffffffffffffffffffffffffffffffffffffffffffffffffffff19166020820180517bffffffffffffffffffffffffffffffffffffffffffffffffffffffff8381831617835250505050614bc1565b5050565b6000808351905060008103614732576000915050614798565b6000602082614741919061792f565b14614750576000915050614798565b82518114614762576000915050614798565b60006001925060205b60018301811015614794576001820191508085015181870151148416935060208101905061476b565b5050505b92915050565b61483682826040516024016147b4929190617960565b6040516020818303038152906040527fb60e72cc000000000000000000000000000000000000000000000000000000007bffffffffffffffffffffffffffffffffffffffffffffffffffffffff19166020820180517bffffffffffffffffffffffffffffffffffffffffffffffffffffffff8381831617835250505050614bc1565b5050565b606060006148488585614bea565b90506148548184614ebc565b801561486757506148658184614719565b155b156148755780915050614883565b61487f818461502f565b9150505b9392505050565b60606148968385614ebc565b156148ac576148a5848461502f565b90506148c2565b6148bf826148ba858761502f565b61502f565b90505b9392505050565b60606000825167ffffffffffffffff8111156148e8576148e7615506565b5b6040519080825280601f01601f19166020018201604052801561491a5781602001600182028036833780820191505090505b5090506000805b84518210156149e157600085838151811061493f5761493e616a0d565b5b602001015160f81c60f81b60f81c9050600060028260ff16901c9050600060068360ff16901b905060008460ff16111561498257838261497f9190616a6b565b91505b8160f81b86868151811061499957614998616a0d565b5b60200101907effffffffffffffffffffffffffffffffffffffffffffffffffffffffffffff1916908160001a90535084806149d39061715a565b955050809350505050614921565b829350505050919050565b614a8281604051602401614a009190615938565b6040516020818303038152906040527f41304fac000000000000000000000000000000000000000000000000000000007bffffffffffffffffffffffffffffffffffffffffffffffffffffffff19166020820180517bffffffffffffffffffffffffffffffffffffffffffffffffffffffff8381831617835250505050614bc1565b50565b614b1b81604051602401614a9991906162b6565b6040516020818303038152906040527f0be77f56000000000000000000000000000000000000000000000000000000007bffffffffffffffffffffffffffffffffffffffffffffffffffffffff19166020820180517bffffffffffffffffffffffffffffffffffffffffffffffffffffffff8381831617835250505050614bc1565b50565b606060005b600060f81b838281518110614b3b57614b3a616a0d565b5b602001015160f81c60f81b7effffffffffffffffffffffffffffffffffffffffffffffffffffffffffffff191603614ba0578080614b789061715a565b91505082518103614b9b5760405180602001604052806000815250915050614bbc565b614b23565b6000811115614bb757825181840193508181038452505b829150505b919050565b60008151905060006a636f6e736f6c652e6c6f679050602083016000808483855afa5050505050565b606060006001614bfc8551855161539f565b614c0691906170ef565b67ffffffffffffffff811115614c1f57614c1e615506565b5b6040519080825280601f01601f191660200182016040528015614c515781602001600182028036833780820191505090505b5090506000805b601f828751614c679190616aa0565b118015614c805750601f828651614c7e9190616aa0565b115b15614d0757600080602084018851036020890101519150602084018751036020880101519050600054821691506000548116905060008360ff168284614cc691906170ef565b614cd091906170ef565b90508060001b60f81c9350600054811690508060208601875103602088010152601f85614cfd91906170ef565b9450505050614c58565b5b614d148651865161539f565b821015614e5e5760008651831015614d6957866001848951614d369190616aa0565b614d409190616aa0565b81518110614d5157614d50616a0d565b5b602001015160f81c60f81b60f81c60ff169050614d6e565b600090505b60008651841015614dbc57866001858951614d899190616aa0565b614d939190616aa0565b81518110614da457614da3616a0d565b5b602001015160f81c60f81b60f81c60ff169050614dc1565b600090505b60008360ff168284614dd3919061799e565b614ddd919061799e565b90508060f81b866001878951614df39190616aa0565b614dfd9190616aa0565b81518110614e0e57614e0d616a0d565b5b60200101907effffffffffffffffffffffffffffffffffffffffffffffffffffffffffffff1916908160001a90535060088161ffff16901c93508480614e539061715a565b955050505050614d08565b8060f81b83600081518110614e7657614e75616a0d565b5b60200101907effffffffffffffffffffffffffffffffffffffffffffffffffffffffffffff1916908160001a905350614eae83614b1e565b925082935050505092915050565b6000815183511015614ed15760019050615029565b815183511115614ee45760009050615029565b60005b835181101561502357828181518110614f0357614f02616a0d565b5b602001015160f81c60f81b7effffffffffffffffffffffffffffffffffffffffffffffffffffffffffffff1916848281518110614f4357614f42616a0d565b5b602001015160f81c60f81b7effffffffffffffffffffffffffffffffffffffffffffffffffffffffffffff19161015614f80576001915050615029565b828181518110614f9357614f92616a0d565b5b602001015160f81c60f81b7effffffffffffffffffffffffffffffffffffffffffffffffffffffffffffff1916848281518110614fd357614fd2616a0d565b5b602001015160f81c60f81b7effffffffffffffffffffffffffffffffffffffffffffffffffffffffffffff19161115615010576000915050615029565b808061501b9061715a565b915050614ee7565b50600190505b92915050565b6060815183511015615076576040517f08c379a000000000000000000000000000000000000000000000000000000000815260040161506d90617a20565b60405180910390fd5b6000835167ffffffffffffffff81111561509357615092615506565b5b6040519080825280601f01601f1916602001820160405280156150c55781602001600182028036833780820191505090505b5090506000805b601f8287516150db9190616aa0565b1180156150f45750601f8286516150f29190616aa0565b115b156151b757600080602084018851036020890101519150602084018751036020880101519050600054821691506000548116905060008360ff168261513991906170ef565b8310615164578360ff168261514e91906170ef565b836151599190616aa0565b905060009350615192565b8360ff168261517391906170ef565b6001548461518191906170ef565b61518b9190616aa0565b9050600193505b8060208601875103602088010152601f856151ad91906170ef565b94505050506150cc565b5b85518210156153425760008660018489516151d39190616aa0565b6151dd9190616aa0565b815181106151ee576151ed616a0d565b5b602001015160f81c60f81b60f81c60ff1690506000865184101561524f5786600185895161521c9190616aa0565b6152269190616aa0565b8151811061523757615236616a0d565b5b602001015160f81c60f81b60f81c60ff169050615254565b600090505b60008360ff1682615265919061799e565b61ffff168361ffff161061529c578360ff1682615282919061799e565b8361528d9190617a40565b61ffff169050600093506152ce565b8360ff16826152ab919061799e565b610100846152b9919061799e565b6152c39190617a40565b61ffff169050600193505b8060f81b8660018789516152e29190616aa0565b6152ec9190616aa0565b815181106152fd576152fc616a0d565b5b60200101907effffffffffffffffffffffffffffffffffffffffffffffffffffffffffffff1916908160001a90535084806153379061715a565b9550505050506151b8565b60008160ff1614615388576040517f08c379a000000000000000000000000000000000000000000000000000000000815260040161537f90617ac2565b60405180910390fd5b61539183614b1e565b925082935050505092915050565b60008183116153ae57816153b0565b825b905092915050565b604051806101400160405280600073ffffffffffffffffffffffffffffffffffffffff168152602001600073ffffffffffffffffffffffffffffffffffffffff16815260200160608152602001606081526020016000815260200160008152602001600080191681526020016000815260200160608152602001600081525090565b50805461544690616c81565b6000825580601f106154585750615477565b601f01602090049060005260206000209081019061547691906154ba565b5b50565b50805461548690616c81565b6000825580601f1061549857506154b7565b601f0160209004906000526020600020908101906154b691906154ba565b5b50565b5b808211156154d35760008160009055506001016154bb565b5090565b6000604051905090565b600080fd5b600080fd5b600080fd5b600080fd5b6000601f19601f8301169050919050565b7f4e487b7100000000000000000000000000000000000000000000000000000000600052604160045260246000fd5b61553e826154f5565b810181811067ffffffffffffffff8211171561555d5761555c615506565b5b80604052505050565b60006155706154d7565b905061557c8282615535565b919050565b600067ffffffffffffffff82111561559c5761559b615506565b5b6155a5826154f5565b9050602081019050919050565b82818337600083830152505050565b60006155d46155cf84615581565b615566565b9050828152602081018484840111156155f0576155ef6154f0565b5b6155fb8482856155b2565b509392505050565b600082601f830112615618576156176154eb565b5b81356156288482602086016155c1565b91505092915050565b6000819050919050565b61564481615631565b811461564f57600080fd5b50565b6000813590506156618161563b565b92915050565b600060ff82169050919050565b61567d81615667565b811461568857600080fd5b50565b60008135905061569a81615674565b92915050565b600067ffffffffffffffff8211156156bb576156ba615506565b5b602082029050602081019050919050565b600080fd5b60006156e46156df846156a0565b615566565b90508083825260208201905060208402830185811115615707576157066156cc565b5b835b8181101561574e57803567ffffffffffffffff81111561572c5761572b6154eb565b5b8086016157398982615603565b85526020850194505050602081019050615709565b5050509392505050565b600082601f83011261576d5761576c6154eb565b5b813561577d8482602086016156d1565b91505092915050565b60008060008060008060c087890312156157a3576157a26154e1565b5b600087013567ffffffffffffffff8111156157c1576157c06154e6565b5b6157cd89828a01615603565b965050602087013567ffffffffffffffff8111156157ee576157ed6154e6565b5b6157fa89828a01615603565b955050604061580b89828a01615652565b945050606087013567ffffffffffffffff81111561582c5761582b6154e6565b5b61583889828a01615603565b935050608061584989828a0161568b565b92505060a087013567ffffffffffffffff81111561586a576158696154e6565b5b61587689828a01615758565b9150509295509295509295565b60008115159050919050565b61589881615883565b82525050565b60006020820190506158b3600083018461588f565b92915050565b600081519050919050565b600082825260208201905092915050565b60005b838110156158f35780820151818401526020810190506158d8565b60008484015250505050565b600061590a826158b9565b61591481856158c4565b93506159248185602086016158d5565b61592d816154f5565b840191505092915050565b6000602082019050818103600083015261595281846158ff565b905092915050565b600080600060608486031215615973576159726154e1565b5b600084013567ffffffffffffffff811115615991576159906154e6565b5b61599d86828701615603565b935050602084013567ffffffffffffffff8111156159be576159bd6154e6565b5b6159ca86828701615603565b92505060406159db86828701615652565b9150509250925092565b6159ee81615631565b82525050565b6000602082019050615a0960008301846159e5565b92915050565b600067ffffffffffffffff821115615a2a57615a29615506565b5b602082029050602081019050919050565b600080fd5b600080fd5b6000819050919050565b615a5881615a45565b8114615a6357600080fd5b50565b600081359050615a7581615a4f565b92915050565b600060a08284031215615a9157615a90615a3b565b5b615a9b60a0615566565b9050600082013567ffffffffffffffff811115615abb57615aba615a40565b5b615ac784828501615603565b6000830152506020615adb84828501615652565b6020830152506040615aef84828501615652565b6040830152506060615b0384828501615a66565b6060830152506080615b1784828501615652565b60808301525092915050565b6000615b36615b3184615a0f565b615566565b90508083825260208201905060208402830185811115615b5957615b586156cc565b5b835b81811015615ba057803567ffffffffffffffff811115615b7e57615b7d6154eb565b5b808601615b8b8982615a7b565b85526020850194505050602081019050615b5b565b5050509392505050565b600082601f830112615bbf57615bbe6154eb565b5b8135615bcf848260208601615b23565b91505092915050565b600067ffffffffffffffff821115615bf357615bf2615506565b5b615bfc826154f5565b9050602081019050919050565b6000615c1c615c1784615bd8565b615566565b905082815260208101848484011115615c3857615c376154f0565b5b615c438482856155b2565b509392505050565b600082601f830112615c6057615c5f6154eb565b5b8135615c70848260208601615c09565b91505092915050565b60006101208284031215615c9057615c8f615a3b565b5b615c9b610120615566565b9050600082013567ffffffffffffffff811115615cbb57615cba615a40565b5b615cc784828501615c4b565b600083015250602082013567ffffffffffffffff811115615ceb57615cea615a40565b5b615cf784828501615c4b565b602083015250604082013567ffffffffffffffff811115615d1b57615d1a615a40565b5b615d2784828501615c4b565b604083015250606082013567ffffffffffffffff811115615d4b57615d4a615a40565b5b615d5784828501615c4b565b606083015250608082013567ffffffffffffffff811115615d7b57615d7a615a40565b5b615d8784828501615c4b565b60808301525060a082013567ffffffffffffffff811115615dab57615daa615a40565b5b615db784828501615c4b565b60a08301525060c082013567ffffffffffffffff811115615ddb57615dda615a40565b5b615de784828501615c4b565b60c08301525060e082013567ffffffffffffffff811115615e0b57615e0a615a40565b5b615e1784828501615c4b565b60e08301525061010082013567ffffffffffffffff811115615e3c57615e3b615a40565b5b615e4884828501615c4b565b6101008301525092915050565b600080600080600060a08688031215615e7157615e706154e1565b5b600086013567ffffffffffffffff811115615e8f57615e8e6154e6565b5b615e9b88828901615603565b955050602086013567ffffffffffffffff811115615ebc57615ebb6154e6565b5b615ec888828901615baa565b945050604086013567ffffffffffffffff811115615ee957615ee86154e6565b5b615ef588828901615c4b565b9350506060615f0688828901615652565b925050608086013567ffffffffffffffff811115615f2757615f266154e6565b5b615f3388828901615c79565b9150509295509295909350565b600060208284031215615f5657615f556154e1565b5b6000615f6484828501615652565b91505092915050565b600073ffffffffffffffffffffffffffffffffffffffff82169050919050565b6000615f9882615f6d565b9050919050565b615fa881615f8d565b82525050565b600081519050919050565b600082825260208201905092915050565b6000615fd582615fae565b615fdf8185615fb9565b9350615fef8185602086016158d5565b615ff8816154f5565b840191505092915050565b61600c81615a45565b82525050565b600061018082019050616028600083018f6159e5565b616035602083018e615f9f565b8181036040830152616047818d615fca565b9050818103606083015261605b818c615fca565b905061606a608083018b6159e5565b61607760a083018a616003565b61608460c08301896159e5565b81810360e083015261609681886158ff565b90508181036101008301526160ab81876158ff565b90508181036101208301526160c081866158ff565b90508181036101408301526160d581856158ff565b90506160e56101608301846159e5565b9d9c50505050505050505050505050565b60008060008060008060c08789031215616113576161126154e1565b5b600087013567ffffffffffffffff811115616131576161306154e6565b5b61613d89828a01615603565b965050602087013567ffffffffffffffff81111561615e5761615d6154e6565b5b61616a89828a01615baa565b955050604087013567ffffffffffffffff81111561618b5761618a6154e6565b5b61619789828a01615c4b565b94505060606161a889828a01615652565b935050608087013567ffffffffffffffff8111156161c9576161c86154e6565b5b6161d589828a01615c79565b92505060a087013567ffffffffffffffff8111156161f6576161f56154e6565b5b61620289828a01615c4b565b9150509295509295509295565b600080600060608486031215616228576162276154e1565b5b600084013567ffffffffffffffff811115616246576162456154e6565b5b61625286828701615603565b935050602084013567ffffffffffffffff811115616273576162726154e6565b5b61627f86828701615603565b925050604084013567ffffffffffffffff8111156162a05761629f6154e6565b5b6162ac86828701615603565b9150509250925092565b600060208201905081810360008301526162d08184615fca565b905092915050565b6162e181615f8d565b81146162ec57600080fd5b50565b6000813590506162fe816162d8565b92915050565b60006020828403121561631a576163196154e1565b5b6000616328848285016162ef565b91505092915050565b61633a81615667565b82525050565b60006020820190506163556000830184616331565b92915050565b600080600060608486031215616374576163736154e1565b5b600084013567ffffffffffffffff811115616392576163916154e6565b5b61639e86828701615603565b93505060206163af86828701615652565b925050604084013567ffffffffffffffff8111156163d0576163cf6154e6565b5b6163dc86828701615603565b9150509250925092565b600081519050919050565b600082825260208201905092915050565b6000819050602082019050919050565b61641b81615f8d565b82525050565b600061642c82615f6d565b9050919050565b61643c81616421565b82525050565b600082825260208201905092915050565b600061645e82615fae565b6164688185616442565b93506164788185602086016158d5565b616481816154f5565b840191505092915050565b61649581615631565b82525050565b6164a481615a45565b82525050565b600082825260208201905092915050565b60006164c6826158b9565b6164d081856164aa565b93506164e08185602086016158d5565b6164e9816154f5565b840191505092915050565b60006101408301600083015161650d6000860182616412565b5060208301516165206020860182616433565b50604083015184820360408601526165388282616453565b915050606083015184820360608601526165528282616453565b9150506080830151616567608086018261648c565b5060a083015161657a60a086018261648c565b5060c083015161658d60c086018261649b565b5060e08301516165a060e086018261648c565b506101008301518482036101008601526165ba82826164bb565b9150506101208301516165d161012086018261648c565b508091505092915050565b60006165e883836164f4565b905092915050565b6000602082019050919050565b6000616608826163e6565b61661281856163f1565b93508360208202850161662485616402565b8060005b85811015616660578484038952815161664185826165dc565b945061664c836165f0565b925060208a01995050600181019050616628565b50829750879550505050505092915050565b6000608082019050818103600083015261668c81876165fd565b905081810360208301526166a081866158ff565b905081810360408301526166b481856158ff565b905081810360608301526166c881846158ff565b905095945050505050565b6166dc81616421565b81146166e757600080fd5b50565b6000813590506166f9816166d3565b92915050565b60008060008060808587031215616719576167186154e1565b5b6000616727878288016166ea565b945050602061673887828801615652565b935050604061674987828801615a66565b925050606061675a87828801615a66565b91505092959194509250565b600060e08201905061677b600083018a615f9f565b61678860208301896159e5565b818103604083015261679a81886158ff565b905081810360608301526167ae81876158ff565b905081810360808301526167c281866158ff565b905081810360a08301526167d681856158ff565b905081810360c08301526167ea81846158ff565b905098975050505050505050565b600080fd5b60008083601f840112616813576168126154eb565b5b8235905067ffffffffffffffff8111156168305761682f6167f8565b5b60208301915083602082028301111561684c5761684b6156cc565b5b9250929050565b60008060008060006080868803121561686f5761686e6154e1565b5b600061687d888289016166ea565b955050602061688e88828901615652565b945050604086013567ffffffffffffffff8111156168af576168ae6154e6565b5b6168bb88828901615603565b935050606086013567ffffffffffffffff8111156168dc576168db6154e6565b5b6168e8888289016167fd565b92509250509295509295909350565b60007fffffffffffffffffffffffffffffffff0000000000000000000000000000000082169050919050565b61692c816168f7565b82525050565b60006020820190506169476000830184616923565b92915050565b61695681616421565b82525050565b600061014082019050616972600083018d615f9f565b61697f602083018c61694d565b8181036040830152616991818b615fca565b905081810360608301526169a5818a615fca565b90506169b460808301896159e5565b6169c160a08301886159e5565b6169ce60c0830187616003565b6169db60e08301866159e5565b8181036101008301526169ee81856158ff565b90506169fe6101208301846159e5565b9b9a5050505050505050505050565b7f4e487b7100000000000000000000000000000000000000000000000000000000600052603260045260246000fd5b7f4e487b7100000000000000000000000000000000000000000000000000000000600052601160045260246000fd5b6000616a7682615667565b9150616a8183615667565b9250828201905060ff811115616a9a57616a99616a3c565b5b92915050565b6000616aab82615631565b9150616ab683615631565b9250828203905081811115616ace57616acd616a3c565b5b92915050565b60008160011c9050919050565b6000808291508390505b6001851115616b2b57808604811115616b0757616b06616a3c565b5b6001851615616b165780820291505b8081029050616b2485616ad4565b9450616aeb565b94509492505050565b600082616b445760019050616c00565b81616b525760009050616c00565b8160018114616b685760028114616b7257616ba1565b6001915050616c00565b60ff841115616b8457616b83616a3c565b5b8360020a915084821115616b9b57616b9a616a3c565b5b50616c00565b5060208310610133831016604e8410600b8410161715616bd65782820a905083811115616bd157616bd0616a3c565b5b616c00565b616be38484846001616ae1565b92509050818404811115616bfa57616bf9616a3c565b5b81810290505b9392505050565b6000616c1282615631565b9150616c1d83615631565b9250616c4a7fffffffffffffffffffffffffffffffffffffffffffffffffffffffffffffffff8484616b34565b905092915050565b7f4e487b7100000000000000000000000000000000000000000000000000000000600052602260045260246000fd5b60006002820490506001821680616c9957607f821691505b602082108103616cac57616cab616c52565b5b50919050565b600081905092915050565b6000616cc882615fae565b616cd28185616cb2565b9350616ce28185602086016158d5565b80840191505092915050565b6000819050919050565b616d09616d0482615631565b616cee565b82525050565b6000616d1b8286616cbd565b9150616d278285616cbd565b9150616d338284616cf8565b602082019150819050949350505050565b60008190508160005260206000209050919050565b60006020601f8301049050919050565b600082821b905092915050565b600060088302616da67fffffffffffffffffffffffffffffffffffffffffffffffffffffffffffffffff82616d69565b616db08683616d69565b95508019841693508086168417925050509392505050565b6000819050919050565b6000616ded616de8616de384615631565b616dc8565b615631565b9050919050565b6000819050919050565b616e0783616dd2565b616e1b616e1382616df4565b848454616d76565b825550505050565b600090565b616e30616e23565b616e3b818484616dfe565b505050565b5b81811015616e5f57616e54600082616e28565b600181019050616e41565b5050565b601f821115616ea457616e7581616d44565b616e7e84616d59565b81016020851015616e8d578190505b616ea1616e9985616d59565b830182616e40565b50505b505050565b600082821c905092915050565b6000616ec760001984600802616ea9565b1980831691505092915050565b6000616ee08383616eb6565b9150826002028217905092915050565b616ef982615fae565b67ffffffffffffffff811115616f1257616f11615506565b5b616f1c8254616c81565b616f27828285616e63565b600060209050601f831160018114616f5a5760008415616f48578287015190505b616f528582616ed4565b865550616fba565b601f198416616f6886616d44565b60005b82811015616f9057848901518255600182019150602085019450602081019050616f6b565b86831015616fad5784890151616fa9601f891682616eb6565b8355505b6001600288020188555050505b505050505050565b60008190508160005260206000209050919050565b601f82111561701857616fe981616fc2565b616ff284616d59565b81016020851015617001578190505b61701561700d85616d59565b830182616e40565b50505b505050565b617026826158b9565b67ffffffffffffffff81111561703f5761703e615506565b5b6170498254616c81565b617054828285616fd7565b600060209050601f8311600181146170875760008415617075578287015190505b61707f8582616ed4565b8655506170e7565b601f19841661709586616fc2565b60005b828110156170bd57848901518255600182019150602085019450602081019050617098565b868310156170da57848901516170d6601f891682616eb6565b8355505b6001600288020188555050505b505050505050565b60006170fa82615631565b915061710583615631565b925082820190508082111561711d5761711c616a3c565b5b92915050565b60006060820190506171386000830186615f9f565b61714560208301856159e5565b617152604083018461588f565b949350505050565b600061716582615631565b91507fffffffffffffffffffffffffffffffffffffffffffffffffffffffffffffffff820361719757617196616a3c565b5b600182019050919050565b60006101008201905081810360008301526171bd818b6158ff565b905081810360208301526171d1818a6158ff565b905081810360408301526171e581896158ff565b905081810360608301526171f981886158ff565b9050818103608083015261720d81876158ff565b905081810360a083015261722181866158ff565b905081810360c083015261723581856158ff565b905081810360e083015261724981846158ff565b90509998505050505050505050565b600060408201905061726d6000830185616003565b61727a6020830184616003565b9392505050565b600061728d8284616cbd565b915081905092915050565b6000815190506172a781615a4f565b92915050565b6000602082840312156172c3576172c26154e1565b5b60006172d184828501617298565b91505092915050565b7f436f6d6d69746d656e74206d757374206d617463682070757a7a6c652073746160008201527f6d702e0000000000000000000000000000000000000000000000000000000000602082015250565b60006173366023836158c4565b9150617341826172da565b604082019050919050565b6000602082019050818103600083015261736581617329565b9050919050565b60008160601b9050919050565b60006173848261736c565b9050919050565b600061739682617379565b9050919050565b6173ae6173a982616421565b61738b565b82525050565b60006173c0828461739d565b60148201915081905092915050565b60006173db8284616cf8565b60208201915081905092915050565b7f4f726967696e616c206661726d65722072657175697265640000000000000000600082015250565b60006174206018836158c4565b915061742b826173ea565b602082019050919050565b6000602082019050818103600083015261744f81617413565b9050919050565b6000819050919050565b61747161746c82615a45565b617456565b82525050565b60006174838285617460565b6020820191506174938284616cbd565b91508190509392505050565b60006174ab8284617460565b60208201915081905092915050565b7f536f6c7574696f6e206d757374206d6174636820636f6d6d69746d656e742e00600082015250565b60006174f0601f836158c4565b91506174fb826174ba565b602082019050919050565b6000602082019050818103600083015261751f816174e3565b9050919050565b600061753182615667565b915061753c83615667565b9250828203905060ff81111561755557617554616a3c565b5b92915050565b6000815461756881616c81565b6175728186616cb2565b9450600182166000811461758d57600181146175a2576175d5565b60ff19831686528115158202860193506175d5565b6175ab85616d44565b60005b838110156175cd578154818901526001820191506020810190506175ae565b838801955050505b50505092915050565b60006175ea828461755b565b915081905092915050565b600080fd5b600080fd5b600080fd5b60008083356001602003843603038112617621576176206175f5565b5b80840192508235915067ffffffffffffffff821115617643576176426175fa565b5b60208301925060018202360383131561765f5761765e6175ff565b5b509250929050565b60006176738385615fb9565b93506176808385846155b2565b617689836154f5565b840190509392505050565b600060208201905081810360008301526176af818486617667565b90509392505050565b60006176c53684846156d1565b905092915050565b6176d6826158b9565b67ffffffffffffffff8111156176ef576176ee615506565b5b6176f98254616c81565b617704828285616e63565b600060209050601f8311600181146177375760008415617725578287015190505b61772f8582616ed4565b865550617797565b601f19841661774586616d44565b60005b8281101561776d57848901518255600182019150602085019450602081019050617748565b8683101561778a5784890151617786601f891682616eb6565b8355505b6001600288020188555050505b505050505050565b600060e0820190506177b4600083018a6159e5565b81810360208301526177c68189615fca565b905081810360408301526177da81886158ff565b905081810360608301526177ee81876158ff565b90506177fd60808301866159e5565b81810360a083015261780f81856158ff565b905081810360c083015261782381846158ff565b905098975050505050505050565b600060808201905061784660008301876159e5565b81810360208301526178588186615fca565b905061786760408301856159e5565b61787460608301846159e5565b95945050505050565b600060608201905081810360008301526178978186615fca565b905081810360208301526178ab8185615fca565b905081810360408301526178bf8184615fca565b9050949350505050565b600060408201905081810360008301526178e381856158ff565b905081810360208301526178f781846158ff565b90509392505050565b7f4e487b7100000000000000000000000000000000000000000000000000000000600052601260045260246000fd5b600061793a82615631565b915061794583615631565b92508261795557617954617900565b5b828206905092915050565b6000604082019050818103600083015261797a81856158ff565b905061798960208301846159e5565b9392505050565b600061ffff82169050919050565b60006179a982617990565b91506179b483617990565b9250828201905061ffff8111156179ce576179cd616a3c565b5b92915050565b7f5375627472616374696f6e20756e646572666c6f770000000000000000000000600082015250565b6000617a0a6015836158c4565b9150617a15826179d4565b602082019050919050565b60006020820190508181036000830152617a39816179fd565b9050919050565b6000617a4b82617990565b9150617a5683617990565b9250828203905061ffff811115617a7057617a6f616a3c565b5b92915050565b7f556e646572666c6f77206572726f720000000000000000000000000000000000600082015250565b6000617aac600f836158c4565b9150617ab782617a76565b602082019050919050565b60006020820190508181036000830152617adb81617a9f565b905091905056fe526567697374657265642070757a7a6c6520776974682048617368203a27257327a2646970667358221220e9f76a33847d8777836f6979eddb1764c8038bdcb5651dbb4efe3373559bd44c64736f6c634300081100334465706c6f79696e6720427145544820436f6e747261637420776974682076657273696f6e3a",
			"opcodes": "PUSH1 0x80 PUSH1 0x40 MSTORE PUSH31 0xFFFFFFFFFFFFFFFFFFFFFFFFFFFFFFFFFFFFFFFFFFFFFFFFFFFFFFFFFFFFFF PUSH1 0x0 SSTORE PUSH32 0x100000000000000000000000000000000000000000000000000000000000000 PUSH1 0x1 SSTORE PUSH1 0x40 MLOAD DUP1 PUSH1 0x40 ADD PUSH1 0x40 MSTORE DUP1 PUSH1 0x1A DUP2 MSTORE PUSH1 0x20 ADD PUSH32 0x427145544820436F6E74726163742076657273696F6E20302E31000000000000 DUP2 MSTORE POP PUSH1 0x2 SWAP1 DUP2 PUSH3 0x91 SWAP2 SWAP1 PUSH3 0x4E4 JUMP JUMPDEST POP PUSH3 0x154 PUSH1 0x40 MLOAD DUP1 PUSH1 0x60 ADD PUSH1 0x40 MSTORE DUP1 PUSH1 0x26 DUP2 MSTORE PUSH1 0x20 ADD PUSH3 0x81DE PUSH1 0x26 SWAP2 CODECOPY PUSH1 0x2 DUP1 SLOAD PUSH3 0xBF SWAP1 PUSH3 0x2D3 JUMP JUMPDEST DUP1 PUSH1 0x1F ADD PUSH1 0x20 DUP1 SWAP2 DIV MUL PUSH1 0x20 ADD PUSH1 0x40 MLOAD SWAP1 DUP2 ADD PUSH1 0x40 MSTORE DUP1 SWAP3 SWAP2 SWAP1 DUP2 DUP2 MSTORE PUSH1 0x20 ADD DUP3 DUP1 SLOAD PUSH3 0xED SWAP1 PUSH3 0x2D3 JUMP JUMPDEST DUP1 ISZERO PUSH3 0x13E JUMPI DUP1 PUSH1 0x1F LT PUSH3 0x112 JUMPI PUSH2 0x100 DUP1 DUP4 SLOAD DIV MUL DUP4 MSTORE SWAP2 PUSH1 0x20 ADD SWAP2 PUSH3 0x13E JUMP JUMPDEST DUP3 ADD SWAP2 SWAP1 PUSH1 0x0 MSTORE PUSH1 0x20 PUSH1 0x0 KECCAK256 SWAP1 JUMPDEST DUP2 SLOAD DUP2 MSTORE SWAP1 PUSH1 0x1 ADD SWAP1 PUSH1 0x20 ADD DUP1 DUP4 GT PUSH3 0x120 JUMPI DUP3 SWAP1 SUB PUSH1 0x1F AND DUP3 ADD SWAP2 JUMPDEST POP POP POP POP POP PUSH3 0x19B PUSH1 0x20 SHL PUSH3 0x467D OR PUSH1 0x20 SHR JUMP JUMPDEST CALLER PUSH1 0x3 PUSH1 0x0 PUSH2 0x100 EXP DUP2 SLOAD DUP2 PUSH20 0xFFFFFFFFFFFFFFFFFFFFFFFFFFFFFFFFFFFFFFFF MUL NOT AND SWAP1 DUP4 PUSH20 0xFFFFFFFFFFFFFFFFFFFFFFFFFFFFFFFFFFFFFFFF AND MUL OR SWAP1 SSTORE POP PUSH3 0x695 JUMP JUMPDEST PUSH3 0x23D DUP3 DUP3 PUSH1 0x40 MLOAD PUSH1 0x24 ADD PUSH3 0x1B4 SWAP3 SWAP2 SWAP1 PUSH3 0x65A JUMP JUMPDEST PUSH1 0x40 MLOAD PUSH1 0x20 DUP2 DUP4 SUB SUB DUP2 MSTORE SWAP1 PUSH1 0x40 MSTORE PUSH32 0x4B5C427700000000000000000000000000000000000000000000000000000000 PUSH28 0xFFFFFFFFFFFFFFFFFFFFFFFFFFFFFFFFFFFFFFFFFFFFFFFFFFFFFFFF NOT AND PUSH1 0x20 DUP3 ADD DUP1 MLOAD PUSH28 0xFFFFFFFFFFFFFFFFFFFFFFFFFFFFFFFFFFFFFFFFFFFFFFFFFFFFFFFF DUP4 DUP2 DUP4 AND OR DUP4 MSTORE POP POP POP POP PUSH3 0x241 PUSH1 0x20 SHL PUSH1 0x20 SHR JUMP JUMPDEST POP POP JUMP JUMPDEST PUSH1 0x0 DUP2 MLOAD SWAP1 POP PUSH1 0x0 PUSH11 0x636F6E736F6C652E6C6F67 SWAP1 POP PUSH1 0x20 DUP4 ADD PUSH1 0x0 DUP1 DUP5 DUP4 DUP6 GAS STATICCALL POP POP POP POP POP JUMP JUMPDEST PUSH1 0x0 DUP2 MLOAD SWAP1 POP SWAP2 SWAP1 POP JUMP JUMPDEST PUSH32 0x4E487B7100000000000000000000000000000000000000000000000000000000 PUSH1 0x0 MSTORE PUSH1 0x41 PUSH1 0x4 MSTORE PUSH1 0x24 PUSH1 0x0 REVERT JUMPDEST PUSH32 0x4E487B7100000000000000000000000000000000000000000000000000000000 PUSH1 0x0 MSTORE PUSH1 0x22 PUSH1 0x4 MSTORE PUSH1 0x24 PUSH1 0x0 REVERT JUMPDEST PUSH1 0x0 PUSH1 0x2 DUP3 DIV SWAP1 POP PUSH1 0x1 DUP3 AND DUP1 PUSH3 0x2EC JUMPI PUSH1 0x7F DUP3 AND SWAP2 POP JUMPDEST PUSH1 0x20 DUP3 LT DUP2 SUB PUSH3 0x302 JUMPI PUSH3 0x301 PUSH3 0x2A4 JUMP JUMPDEST JUMPDEST POP SWAP2 SWAP1 POP JUMP JUMPDEST PUSH1 0x0 DUP2 SWAP1 POP DUP2 PUSH1 0x0 MSTORE PUSH1 0x20 PUSH1 0x0 KECCAK256 SWAP1 POP SWAP2 SWAP1 POP JUMP JUMPDEST PUSH1 0x0 PUSH1 0x20 PUSH1 0x1F DUP4 ADD DIV SWAP1 POP SWAP2 SWAP1 POP JUMP JUMPDEST PUSH1 0x0 DUP3 DUP3 SHL SWAP1 POP SWAP3 SWAP2 POP POP JUMP JUMPDEST PUSH1 0x0 PUSH1 0x8 DUP4 MUL PUSH3 0x36C PUSH32 0xFFFFFFFFFFFFFFFFFFFFFFFFFFFFFFFFFFFFFFFFFFFFFFFFFFFFFFFFFFFFFFFF DUP3 PUSH3 0x32D JUMP JUMPDEST PUSH3 0x378 DUP7 DUP4 PUSH3 0x32D JUMP JUMPDEST SWAP6 POP DUP1 NOT DUP5 AND SWAP4 POP DUP1 DUP7 AND DUP5 OR SWAP3 POP POP POP SWAP4 SWAP3 POP POP POP JUMP JUMPDEST PUSH1 0x0 DUP2 SWAP1 POP SWAP2 SWAP1 POP JUMP JUMPDEST PUSH1 0x0 DUP2 SWAP1 POP SWAP2 SWAP1 POP JUMP JUMPDEST PUSH1 0x0 PUSH3 0x3C5 PUSH3 0x3BF PUSH3 0x3B9 DUP5 PUSH3 0x390 JUMP JUMPDEST PUSH3 0x39A JUMP JUMPDEST PUSH3 0x390 JUMP JUMPDEST SWAP1 POP SWAP2 SWAP1 POP JUMP JUMPDEST PUSH1 0x0 DUP2 SWAP1 POP SWAP2 SWAP1 POP JUMP JUMPDEST PUSH3 0x3E1 DUP4 PUSH3 0x3A4 JUMP JUMPDEST PUSH3 0x3F9 PUSH3 0x3F0 DUP3 PUSH3 0x3CC JUMP JUMPDEST DUP5 DUP5 SLOAD PUSH3 0x33A JUMP JUMPDEST DUP3 SSTORE POP POP POP POP JUMP JUMPDEST PUSH1 0x0 SWAP1 JUMP JUMPDEST PUSH3 0x410 PUSH3 0x401 JUMP JUMPDEST PUSH3 0x41D DUP2 DUP5 DUP5 PUSH3 0x3D6 JUMP JUMPDEST POP POP POP JUMP JUMPDEST JUMPDEST DUP2 DUP2 LT ISZERO PUSH3 0x445 JUMPI PUSH3 0x439 PUSH1 0x0 DUP3 PUSH3 0x406 JUMP JUMPDEST PUSH1 0x1 DUP2 ADD SWAP1 POP PUSH3 0x423 JUMP JUMPDEST POP POP JUMP JUMPDEST PUSH1 0x1F DUP3 GT ISZERO PUSH3 0x494 JUMPI PUSH3 0x45E DUP2 PUSH3 0x308 JUMP JUMPDEST PUSH3 0x469 DUP5 PUSH3 0x31D JUMP JUMPDEST DUP2 ADD PUSH1 0x20 DUP6 LT ISZERO PUSH3 0x479 JUMPI DUP2 SWAP1 POP JUMPDEST PUSH3 0x491 PUSH3 0x488 DUP6 PUSH3 0x31D JUMP JUMPDEST DUP4 ADD DUP3 PUSH3 0x422 JUMP JUMPDEST POP POP JUMPDEST POP POP POP JUMP JUMPDEST PUSH1 0x0 DUP3 DUP3 SHR SWAP1 POP SWAP3 SWAP2 POP POP JUMP JUMPDEST PUSH1 0x0 PUSH3 0x4B9 PUSH1 0x0 NOT DUP5 PUSH1 0x8 MUL PUSH3 0x499 JUMP JUMPDEST NOT DUP1 DUP4 AND SWAP2 POP POP SWAP3 SWAP2 POP POP JUMP JUMPDEST PUSH1 0x0 PUSH3 0x4D4 DUP4 DUP4 PUSH3 0x4A6 JUMP JUMPDEST SWAP2 POP DUP3 PUSH1 0x2 MUL DUP3 OR SWAP1 POP SWAP3 SWAP2 POP POP JUMP JUMPDEST PUSH3 0x4EF DUP3 PUSH3 0x26A JUMP JUMPDEST PUSH8 0xFFFFFFFFFFFFFFFF DUP2 GT ISZERO PUSH3 0x50B JUMPI PUSH3 0x50A PUSH3 0x275 JUMP JUMPDEST JUMPDEST PUSH3 0x517 DUP3 SLOAD PUSH3 0x2D3 JUMP JUMPDEST PUSH3 0x524 DUP3 DUP3 DUP6 PUSH3 0x449 JUMP JUMPDEST PUSH1 0x0 PUSH1 0x20 SWAP1 POP PUSH1 0x1F DUP4 GT PUSH1 0x1 DUP2 EQ PUSH3 0x55C JUMPI PUSH1 0x0 DUP5 ISZERO PUSH3 0x547 JUMPI DUP3 DUP8 ADD MLOAD SWAP1 POP JUMPDEST PUSH3 0x553 DUP6 DUP3 PUSH3 0x4C6 JUMP JUMPDEST DUP7 SSTORE POP PUSH3 0x5C3 JUMP JUMPDEST PUSH1 0x1F NOT DUP5 AND PUSH3 0x56C DUP7 PUSH3 0x308 JUMP JUMPDEST PUSH1 0x0 JUMPDEST DUP3 DUP2 LT ISZERO PUSH3 0x596 JUMPI DUP5 DUP10 ADD MLOAD DUP3 SSTORE PUSH1 0x1 DUP3 ADD SWAP2 POP PUSH1 0x20 DUP6 ADD SWAP5 POP PUSH1 0x20 DUP2 ADD SWAP1 POP PUSH3 0x56F JUMP JUMPDEST DUP7 DUP4 LT ISZERO PUSH3 0x5B6 JUMPI DUP5 DUP10 ADD MLOAD PUSH3 0x5B2 PUSH1 0x1F DUP10 AND DUP3 PUSH3 0x4A6 JUMP JUMPDEST DUP4 SSTORE POP JUMPDEST PUSH1 0x1 PUSH1 0x2 DUP9 MUL ADD DUP9 SSTORE POP POP POP JUMPDEST POP POP POP POP POP POP JUMP JUMPDEST PUSH1 0x0 DUP3 DUP3 MSTORE PUSH1 0x20 DUP3 ADD SWAP1 POP SWAP3 SWAP2 POP POP JUMP JUMPDEST PUSH1 0x0 JUMPDEST DUP4 DUP2 LT ISZERO PUSH3 0x5FC JUMPI DUP1 DUP3 ADD MLOAD DUP2 DUP5 ADD MSTORE PUSH1 0x20 DUP2 ADD SWAP1 POP PUSH3 0x5DF JUMP JUMPDEST PUSH1 0x0 DUP5 DUP5 ADD MSTORE POP POP POP POP JUMP JUMPDEST PUSH1 0x0 PUSH1 0x1F NOT PUSH1 0x1F DUP4 ADD AND SWAP1 POP SWAP2 SWAP1 POP JUMP JUMPDEST PUSH1 0x0 PUSH3 0x626 DUP3 PUSH3 0x26A JUMP JUMPDEST PUSH3 0x632 DUP2 DUP6 PUSH3 0x5CB JUMP JUMPDEST SWAP4 POP PUSH3 0x644 DUP2 DUP6 PUSH1 0x20 DUP7 ADD PUSH3 0x5DC JUMP JUMPDEST PUSH3 0x64F DUP2 PUSH3 0x608 JUMP JUMPDEST DUP5 ADD SWAP2 POP POP SWAP3 SWAP2 POP POP JUMP JUMPDEST PUSH1 0x0 PUSH1 0x40 DUP3 ADD SWAP1 POP DUP2 DUP2 SUB PUSH1 0x0 DUP4 ADD MSTORE PUSH3 0x676 DUP2 DUP6 PUSH3 0x619 JUMP JUMPDEST SWAP1 POP DUP2 DUP2 SUB PUSH1 0x20 DUP4 ADD MSTORE PUSH3 0x68C DUP2 DUP5 PUSH3 0x619 JUMP JUMPDEST SWAP1 POP SWAP4 SWAP3 POP POP POP JUMP JUMPDEST PUSH2 0x7B39 DUP1 PUSH3 0x6A5 PUSH1 0x0 CODECOPY PUSH1 0x0 RETURN INVALID PUSH1 0x80 PUSH1 0x40 MSTORE PUSH1 0x4 CALLDATASIZE LT PUSH2 0x123 JUMPI PUSH1 0x0 CALLDATALOAD PUSH1 0xE0 SHR DUP1 PUSH4 0x54FD4D50 GT PUSH2 0xA0 JUMPI DUP1 PUSH4 0xCDAB1649 GT PUSH2 0x64 JUMPI DUP1 PUSH4 0xCDAB1649 EQ PUSH2 0x48E JUMPI DUP1 PUSH4 0xD10DA1B5 EQ PUSH2 0x4CB JUMPI DUP1 PUSH4 0xE7867481 EQ PUSH2 0x508 JUMPI DUP1 PUSH4 0xED9C79F4 EQ PUSH2 0x545 JUMPI DUP1 PUSH4 0xF542C3CD EQ PUSH2 0x582 JUMPI PUSH2 0x12A JUMP JUMPDEST DUP1 PUSH4 0x54FD4D50 EQ PUSH2 0x366 JUMPI DUP1 PUSH4 0x606748CF EQ PUSH2 0x391 JUMPI DUP1 PUSH4 0x7EEB5BDF EQ PUSH2 0x3CE JUMPI DUP1 PUSH4 0x9576C7C1 EQ PUSH2 0x40E JUMPI DUP1 PUSH4 0xB0EAC321 EQ PUSH2 0x44B JUMPI PUSH2 0x12A JUMP JUMPDEST DUP1 PUSH4 0x1F2D8B46 GT PUSH2 0xE7 JUMPI DUP1 PUSH4 0x1F2D8B46 EQ PUSH2 0x22C JUMPI DUP1 PUSH4 0x387B29BE EQ PUSH2 0x274 JUMPI DUP1 PUSH4 0x3E30B440 EQ PUSH2 0x2A4 JUMPI DUP1 PUSH4 0x3FED202D EQ PUSH2 0x2E1 JUMPI DUP1 PUSH4 0x5456BF13 EQ PUSH2 0x329 JUMPI PUSH2 0x12A JUMP JUMPDEST DUP1 PUSH4 0x4D7F1B1 EQ PUSH2 0x12C JUMPI DUP1 PUSH4 0x6FDDE03 EQ PUSH2 0x169 JUMPI DUP1 PUSH4 0x1652896A EQ PUSH2 0x194 JUMPI DUP1 PUSH4 0x1E1D2558 EQ PUSH2 0x1D1 JUMPI DUP1 PUSH4 0x1E348629 EQ PUSH2 0x201 JUMPI PUSH2 0x12A JUMP JUMPDEST CALLDATASIZE PUSH2 0x12A JUMPI STOP JUMPDEST STOP JUMPDEST CALLVALUE DUP1 ISZERO PUSH2 0x138 JUMPI PUSH1 0x0 DUP1 REVERT JUMPDEST POP PUSH2 0x153 PUSH1 0x4 DUP1 CALLDATASIZE SUB DUP2 ADD SWAP1 PUSH2 0x14E SWAP2 SWAP1 PUSH2 0x5786 JUMP JUMPDEST PUSH2 0x5C8 JUMP JUMPDEST PUSH1 0x40 MLOAD PUSH2 0x160 SWAP2 SWAP1 PUSH2 0x589E JUMP JUMPDEST PUSH1 0x40 MLOAD DUP1 SWAP2 SUB SWAP1 RETURN JUMPDEST CALLVALUE DUP1 ISZERO PUSH2 0x175 JUMPI PUSH1 0x0 DUP1 REVERT JUMPDEST POP PUSH2 0x17E PUSH2 0x6E0 JUMP JUMPDEST PUSH1 0x40 MLOAD PUSH2 0x18B SWAP2 SWAP1 PUSH2 0x5938 JUMP JUMPDEST PUSH1 0x40 MLOAD DUP1 SWAP2 SUB SWAP1 RETURN JUMPDEST CALLVALUE DUP1 ISZERO PUSH2 0x1A0 JUMPI PUSH1 0x0 DUP1 REVERT JUMPDEST POP PUSH2 0x1BB PUSH1 0x4 DUP1 CALLDATASIZE SUB DUP2 ADD SWAP1 PUSH2 0x1B6 SWAP2 SWAP1 PUSH2 0x595A JUMP JUMPDEST PUSH2 0x76E JUMP JUMPDEST PUSH1 0x40 MLOAD PUSH2 0x1C8 SWAP2 SWAP1 PUSH2 0x59F4 JUMP JUMPDEST PUSH1 0x40 MLOAD DUP1 SWAP2 SUB SWAP1 RETURN JUMPDEST PUSH2 0x1EB PUSH1 0x4 DUP1 CALLDATASIZE SUB DUP2 ADD SWAP1 PUSH2 0x1E6 SWAP2 SWAP1 PUSH2 0x5E55 JUMP JUMPDEST PUSH2 0x7A7 JUMP JUMPDEST PUSH1 0x40 MLOAD PUSH2 0x1F8 SWAP2 SWAP1 PUSH2 0x59F4 JUMP JUMPDEST PUSH1 0x40 MLOAD DUP1 SWAP2 SUB SWAP1 RETURN JUMPDEST CALLVALUE DUP1 ISZERO PUSH2 0x20D JUMPI PUSH1 0x0 DUP1 REVERT JUMPDEST POP PUSH2 0x216 PUSH2 0xE47 JUMP JUMPDEST PUSH1 0x40 MLOAD PUSH2 0x223 SWAP2 SWAP1 PUSH2 0x59F4 JUMP JUMPDEST PUSH1 0x40 MLOAD DUP1 SWAP2 SUB SWAP1 RETURN JUMPDEST CALLVALUE DUP1 ISZERO PUSH2 0x238 JUMPI PUSH1 0x0 DUP1 REVERT JUMPDEST POP PUSH2 0x253 PUSH1 0x4 DUP1 CALLDATASIZE SUB DUP2 ADD SWAP1 PUSH2 0x24E SWAP2 SWAP1 PUSH2 0x5F40 JUMP JUMPDEST PUSH2 0xE4D JUMP JUMPDEST PUSH1 0x40 MLOAD PUSH2 0x26B SWAP13 SWAP12 SWAP11 SWAP10 SWAP9 SWAP8 SWAP7 SWAP6 SWAP5 SWAP4 SWAP3 SWAP2 SWAP1 PUSH2 0x6012 JUMP JUMPDEST PUSH1 0x40 MLOAD DUP1 SWAP2 SUB SWAP1 RETURN JUMPDEST PUSH2 0x28E PUSH1 0x4 DUP1 CALLDATASIZE SUB DUP2 ADD SWAP1 PUSH2 0x289 SWAP2 SWAP1 PUSH2 0x60F6 JUMP JUMPDEST PUSH2 0x1504 JUMP JUMPDEST PUSH1 0x40 MLOAD PUSH2 0x29B SWAP2 SWAP1 PUSH2 0x59F4 JUMP JUMPDEST PUSH1 0x40 MLOAD DUP1 SWAP2 SUB SWAP1 RETURN JUMPDEST CALLVALUE DUP1 ISZERO PUSH2 0x2B0 JUMPI PUSH1 0x0 DUP1 REVERT JUMPDEST POP PUSH2 0x2CB PUSH1 0x4 DUP1 CALLDATASIZE SUB DUP2 ADD SWAP1 PUSH2 0x2C6 SWAP2 SWAP1 PUSH2 0x620F JUMP JUMPDEST PUSH2 0x1BA1 JUMP JUMPDEST PUSH1 0x40 MLOAD PUSH2 0x2D8 SWAP2 SWAP1 PUSH2 0x62B6 JUMP JUMPDEST PUSH1 0x40 MLOAD DUP1 SWAP2 SUB SWAP1 RETURN JUMPDEST CALLVALUE DUP1 ISZERO PUSH2 0x2ED JUMPI PUSH1 0x0 DUP1 REVERT JUMPDEST POP PUSH2 0x308 PUSH1 0x4 DUP1 CALLDATASIZE SUB DUP2 ADD SWAP1 PUSH2 0x303 SWAP2 SWAP1 PUSH2 0x6304 JUMP JUMPDEST PUSH2 0x1C01 JUMP JUMPDEST PUSH1 0x40 MLOAD PUSH2 0x320 SWAP13 SWAP12 SWAP11 SWAP10 SWAP9 SWAP8 SWAP7 SWAP6 SWAP5 SWAP4 SWAP3 SWAP2 SWAP1 PUSH2 0x6012 JUMP JUMPDEST PUSH1 0x40 MLOAD DUP1 SWAP2 SUB SWAP1 RETURN JUMPDEST CALLVALUE DUP1 ISZERO PUSH2 0x335 JUMPI PUSH1 0x0 DUP1 REVERT JUMPDEST POP PUSH2 0x350 PUSH1 0x4 DUP1 CALLDATASIZE SUB DUP2 ADD SWAP1 PUSH2 0x34B SWAP2 SWAP1 PUSH2 0x5F40 JUMP JUMPDEST PUSH2 0x1C88 JUMP JUMPDEST PUSH1 0x40 MLOAD PUSH2 0x35D SWAP2 SWAP1 PUSH2 0x6340 JUMP JUMPDEST PUSH1 0x40 MLOAD DUP1 SWAP2 SUB SWAP1 RETURN JUMPDEST CALLVALUE DUP1 ISZERO PUSH2 0x372 JUMPI PUSH1 0x0 DUP1 REVERT JUMPDEST POP PUSH2 0x37B PUSH2 0x1DA8 JUMP JUMPDEST PUSH1 0x40 MLOAD PUSH2 0x388 SWAP2 SWAP1 PUSH2 0x5938 JUMP JUMPDEST PUSH1 0x40 MLOAD DUP1 SWAP2 SUB SWAP1 RETURN JUMPDEST CALLVALUE DUP1 ISZERO PUSH2 0x39D JUMPI PUSH1 0x0 DUP1 REVERT JUMPDEST POP PUSH2 0x3B8 PUSH1 0x4 DUP1 CALLDATASIZE SUB DUP2 ADD SWAP1 PUSH2 0x3B3 SWAP2 SWAP1 PUSH2 0x635B JUMP JUMPDEST PUSH2 0x1E3A JUMP JUMPDEST PUSH1 0x40 MLOAD PUSH2 0x3C5 SWAP2 SWAP1 PUSH2 0x62B6 JUMP JUMPDEST PUSH1 0x40 MLOAD DUP1 SWAP2 SUB SWAP1 RETURN JUMPDEST CALLVALUE DUP1 ISZERO PUSH2 0x3DA JUMPI PUSH1 0x0 DUP1 REVERT JUMPDEST POP PUSH2 0x3F5 PUSH1 0x4 DUP1 CALLDATASIZE SUB DUP2 ADD SWAP1 PUSH2 0x3F0 SWAP2 SWAP1 PUSH2 0x6304 JUMP JUMPDEST PUSH2 0x1EC4 JUMP JUMPDEST PUSH1 0x40 MLOAD PUSH2 0x405 SWAP5 SWAP4 SWAP3 SWAP2 SWAP1 PUSH2 0x6672 JUMP JUMPDEST PUSH1 0x40 MLOAD DUP1 SWAP2 SUB SWAP1 RETURN JUMPDEST CALLVALUE DUP1 ISZERO PUSH2 0x41A JUMPI PUSH1 0x0 DUP1 REVERT JUMPDEST POP PUSH2 0x435 PUSH1 0x4 DUP1 CALLDATASIZE SUB DUP2 ADD SWAP1 PUSH2 0x430 SWAP2 SWAP1 PUSH2 0x66FF JUMP JUMPDEST PUSH2 0x2E9B JUMP JUMPDEST PUSH1 0x40 MLOAD PUSH2 0x442 SWAP2 SWAP1 PUSH2 0x59F4 JUMP JUMPDEST PUSH1 0x40 MLOAD DUP1 SWAP2 SUB SWAP1 RETURN JUMPDEST CALLVALUE DUP1 ISZERO PUSH2 0x457 JUMPI PUSH1 0x0 DUP1 REVERT JUMPDEST POP PUSH2 0x472 PUSH1 0x4 DUP1 CALLDATASIZE SUB DUP2 ADD SWAP1 PUSH2 0x46D SWAP2 SWAP1 PUSH2 0x6304 JUMP JUMPDEST PUSH2 0x2FD4 JUMP JUMPDEST PUSH1 0x40 MLOAD PUSH2 0x485 SWAP8 SWAP7 SWAP6 SWAP5 SWAP4 SWAP3 SWAP2 SWAP1 PUSH2 0x6766 JUMP JUMPDEST PUSH1 0x40 MLOAD DUP1 SWAP2 SUB SWAP1 RETURN JUMPDEST CALLVALUE DUP1 ISZERO PUSH2 0x49A JUMPI PUSH1 0x0 DUP1 REVERT JUMPDEST POP PUSH2 0x4B5 PUSH1 0x4 DUP1 CALLDATASIZE SUB DUP2 ADD SWAP1 PUSH2 0x4B0 SWAP2 SWAP1 PUSH2 0x6304 JUMP JUMPDEST PUSH2 0x32DE JUMP JUMPDEST PUSH1 0x40 MLOAD PUSH2 0x4C2 SWAP2 SWAP1 PUSH2 0x59F4 JUMP JUMPDEST PUSH1 0x40 MLOAD DUP1 SWAP2 SUB SWAP1 RETURN JUMPDEST CALLVALUE DUP1 ISZERO PUSH2 0x4D7 JUMPI PUSH1 0x0 DUP1 REVERT JUMPDEST POP PUSH2 0x4F2 PUSH1 0x4 DUP1 CALLDATASIZE SUB DUP2 ADD SWAP1 PUSH2 0x4ED SWAP2 SWAP1 PUSH2 0x6853 JUMP JUMPDEST PUSH2 0x32F6 JUMP JUMPDEST PUSH1 0x40 MLOAD PUSH2 0x4FF SWAP2 SWAP1 PUSH2 0x59F4 JUMP JUMPDEST PUSH1 0x40 MLOAD DUP1 SWAP2 SUB SWAP1 RETURN JUMPDEST CALLVALUE DUP1 ISZERO PUSH2 0x514 JUMPI PUSH1 0x0 DUP1 REVERT JUMPDEST POP PUSH2 0x52F PUSH1 0x4 DUP1 CALLDATASIZE SUB DUP2 ADD SWAP1 PUSH2 0x52A SWAP2 SWAP1 PUSH2 0x620F JUMP JUMPDEST PUSH2 0x4334 JUMP JUMPDEST PUSH1 0x40 MLOAD PUSH2 0x53C SWAP2 SWAP1 PUSH2 0x6932 JUMP JUMPDEST PUSH1 0x40 MLOAD DUP1 SWAP2 SUB SWAP1 RETURN JUMPDEST CALLVALUE DUP1 ISZERO PUSH2 0x551 JUMPI PUSH1 0x0 DUP1 REVERT JUMPDEST POP PUSH2 0x56C PUSH1 0x4 DUP1 CALLDATASIZE SUB DUP2 ADD SWAP1 PUSH2 0x567 SWAP2 SWAP1 PUSH2 0x6304 JUMP JUMPDEST PUSH2 0x4439 JUMP JUMPDEST PUSH1 0x40 MLOAD PUSH2 0x579 SWAP2 SWAP1 PUSH2 0x59F4 JUMP JUMPDEST PUSH1 0x40 MLOAD DUP1 SWAP2 SUB SWAP1 RETURN JUMPDEST CALLVALUE DUP1 ISZERO PUSH2 0x58E JUMPI PUSH1 0x0 DUP1 REVERT JUMPDEST POP PUSH2 0x5A9 PUSH1 0x4 DUP1 CALLDATASIZE SUB DUP2 ADD SWAP1 PUSH2 0x5A4 SWAP2 SWAP1 PUSH2 0x5F40 JUMP JUMPDEST PUSH2 0x4451 JUMP JUMPDEST PUSH1 0x40 MLOAD PUSH2 0x5BF SWAP11 SWAP10 SWAP9 SWAP8 SWAP7 SWAP6 SWAP5 SWAP4 SWAP3 SWAP2 SWAP1 PUSH2 0x695C JUMP JUMPDEST PUSH1 0x40 MLOAD DUP1 SWAP2 SUB SWAP1 RETURN JUMPDEST PUSH1 0x0 DUP1 DUP3 DUP5 PUSH1 0xFF AND DUP2 MLOAD DUP2 LT PUSH2 0x5E1 JUMPI PUSH2 0x5E0 PUSH2 0x6A0D JUMP JUMPDEST JUMPDEST PUSH1 0x20 MUL PUSH1 0x20 ADD ADD MLOAD SWAP1 POP PUSH1 0x0 PUSH2 0x5F8 DUP9 DUP8 DUP5 PUSH2 0x4334 JUMP JUMPDEST SWAP1 POP PUSH1 0x0 DUP2 PUSH16 0xFFFFFFFFFFFFFFFFFFFFFFFFFFFFFFFF NOT AND PUSH1 0x0 SHR SWAP1 POP PUSH2 0x62A PUSH2 0x623 DUP11 DUP4 DUP14 PUSH2 0x1E3A JUMP JUMPDEST DUP5 DUP13 PUSH2 0x1BA1 JUMP JUMPDEST SWAP9 POP PUSH2 0x641 PUSH2 0x63A DUP5 DUP4 DUP14 PUSH2 0x1E3A JUMP JUMPDEST DUP9 DUP13 PUSH2 0x1BA1 JUMP JUMPDEST SWAP7 POP DUP5 MLOAD PUSH1 0x1 DUP8 PUSH2 0x652 SWAP2 SWAP1 PUSH2 0x6A6B JUMP JUMPDEST PUSH1 0xFF AND EQ PUSH2 0x68A JUMPI PUSH2 0x680 DUP11 DUP11 PUSH1 0x1 DUP12 PUSH2 0x66C SWAP2 SWAP1 PUSH2 0x6AA0 JUMP JUMPDEST DUP11 PUSH1 0x1 DUP12 PUSH2 0x67A SWAP2 SWAP1 PUSH2 0x6A6B JUMP JUMPDEST DUP11 PUSH2 0x5C8 JUMP JUMPDEST SWAP4 POP POP POP POP PUSH2 0x6D6 JUMP JUMPDEST PUSH1 0x0 DUP9 PUSH1 0x2 PUSH2 0x699 SWAP2 SWAP1 PUSH2 0x6C07 JUMP JUMPDEST PUSH1 0x2 PUSH2 0x6A5 SWAP2 SWAP1 PUSH2 0x6C07 JUMP JUMPDEST SWAP1 POP PUSH2 0x6BB DUP9 PUSH2 0x6B6 DUP13 DUP5 DUP16 PUSH2 0x1E3A JUMP JUMPDEST PUSH2 0x4719 JUMP JUMPDEST ISZERO PUSH2 0x6CD JUMPI PUSH1 0x1 SWAP5 POP POP POP POP POP PUSH2 0x6D6 JUMP JUMPDEST PUSH1 0x0 SWAP5 POP POP POP POP POP JUMPDEST SWAP7 SWAP6 POP POP POP POP POP POP JUMP JUMPDEST PUSH1 0x2 DUP1 SLOAD PUSH2 0x6ED SWAP1 PUSH2 0x6C81 JUMP JUMPDEST DUP1 PUSH1 0x1F ADD PUSH1 0x20 DUP1 SWAP2 DIV MUL PUSH1 0x20 ADD PUSH1 0x40 MLOAD SWAP1 DUP2 ADD PUSH1 0x40 MSTORE DUP1 SWAP3 SWAP2 SWAP1 DUP2 DUP2 MSTORE PUSH1 0x20 ADD DUP3 DUP1 SLOAD PUSH2 0x719 SWAP1 PUSH2 0x6C81 JUMP JUMPDEST DUP1 ISZERO PUSH2 0x766 JUMPI DUP1 PUSH1 0x1F LT PUSH2 0x73B JUMPI PUSH2 0x100 DUP1 DUP4 SLOAD DIV MUL DUP4 MSTORE SWAP2 PUSH1 0x20 ADD SWAP2 PUSH2 0x766 JUMP JUMPDEST DUP3 ADD SWAP2 SWAP1 PUSH1 0x0 MSTORE PUSH1 0x20 PUSH1 0x0 KECCAK256 SWAP1 JUMPDEST DUP2 SLOAD DUP2 MSTORE SWAP1 PUSH1 0x1 ADD SWAP1 PUSH1 0x20 ADD DUP1 DUP4 GT PUSH2 0x749 JUMPI DUP3 SWAP1 SUB PUSH1 0x1F AND DUP3 ADD SWAP2 JUMPDEST POP POP POP POP POP DUP2 JUMP JUMPDEST PUSH1 0x0 DUP4 DUP4 DUP4 PUSH1 0x40 MLOAD PUSH1 0x20 ADD PUSH2 0x785 SWAP4 SWAP3 SWAP2 SWAP1 PUSH2 0x6D0F JUMP JUMPDEST PUSH1 0x40 MLOAD PUSH1 0x20 DUP2 DUP4 SUB SUB DUP2 MSTORE SWAP1 PUSH1 0x40 MSTORE DUP1 MLOAD SWAP1 PUSH1 0x20 ADD KECCAK256 PUSH1 0x0 SHR SWAP1 POP SWAP4 SWAP3 POP POP POP JUMP JUMPDEST PUSH1 0x0 DUP1 PUSH1 0x8 PUSH1 0x0 CALLER PUSH20 0xFFFFFFFFFFFFFFFFFFFFFFFFFFFFFFFFFFFFFFFF AND PUSH20 0xFFFFFFFFFFFFFFFFFFFFFFFFFFFFFFFFFFFFFFFF AND DUP2 MSTORE PUSH1 0x20 ADD SWAP1 DUP2 MSTORE PUSH1 0x20 ADD PUSH1 0x0 KECCAK256 SLOAD SWAP1 POP PUSH1 0x5 PUSH1 0x0 DUP3 DUP2 MSTORE PUSH1 0x20 ADD SWAP1 DUP2 MSTORE PUSH1 0x20 ADD PUSH1 0x0 KECCAK256 PUSH1 0x0 ADD PUSH1 0x0 SWAP1 SLOAD SWAP1 PUSH2 0x100 EXP SWAP1 DIV PUSH20 0xFFFFFFFFFFFFFFFFFFFFFFFFFFFFFFFFFFFFFFFF AND PUSH20 0xFFFFFFFFFFFFFFFFFFFFFFFFFFFFFFFFFFFFFFFF AND CALLER PUSH20 0xFFFFFFFFFFFFFFFFFFFFFFFFFFFFFFFFFFFFFFFF AND EQ PUSH2 0x85A JUMPI PUSH1 0x0 DUP1 REVERT JUMPDEST PUSH1 0x0 DUP1 PUSH1 0x0 PUSH2 0x8A8 DUP11 DUP11 PUSH1 0x0 DUP2 MLOAD DUP2 LT PUSH2 0x877 JUMPI PUSH2 0x876 PUSH2 0x6A0D JUMP JUMPDEST JUMPDEST PUSH1 0x20 MUL PUSH1 0x20 ADD ADD MLOAD PUSH1 0x0 ADD MLOAD DUP12 PUSH1 0x0 DUP2 MLOAD DUP2 LT PUSH2 0x897 JUMPI PUSH2 0x896 PUSH2 0x6A0D JUMP JUMPDEST JUMPDEST PUSH1 0x20 MUL PUSH1 0x20 ADD ADD MLOAD PUSH1 0x20 ADD MLOAD PUSH2 0x76E JUMP JUMPDEST SWAP1 POP PUSH1 0x0 JUMPDEST DUP10 MLOAD DUP2 LT ISZERO PUSH2 0xCCB JUMPI PUSH1 0x0 PUSH2 0x8FF DUP13 DUP13 DUP5 DUP2 MLOAD DUP2 LT PUSH2 0x8CF JUMPI PUSH2 0x8CE PUSH2 0x6A0D JUMP JUMPDEST JUMPDEST PUSH1 0x20 MUL PUSH1 0x20 ADD ADD MLOAD PUSH1 0x0 ADD MLOAD DUP14 DUP6 DUP2 MLOAD DUP2 LT PUSH2 0x8EE JUMPI PUSH2 0x8ED PUSH2 0x6A0D JUMP JUMPDEST JUMPDEST PUSH1 0x20 MUL PUSH1 0x20 ADD ADD MLOAD PUSH1 0x20 ADD MLOAD PUSH2 0x76E JUMP JUMPDEST SWAP1 POP PUSH1 0x0 PUSH2 0x90B PUSH2 0x53B8 JUMP JUMPDEST CALLER DUP2 PUSH1 0x0 ADD SWAP1 PUSH20 0xFFFFFFFFFFFFFFFFFFFFFFFFFFFFFFFFFFFFFFFF AND SWAP1 DUP2 PUSH20 0xFFFFFFFFFFFFFFFFFFFFFFFFFFFFFFFFFFFFFFFF AND DUP2 MSTORE POP POP DUP2 DUP2 PUSH1 0x20 ADD SWAP1 PUSH20 0xFFFFFFFFFFFFFFFFFFFFFFFFFFFFFFFFFFFFFFFF AND SWAP1 DUP2 PUSH20 0xFFFFFFFFFFFFFFFFFFFFFFFFFFFFFFFFFFFFFFFF AND DUP2 MSTORE POP POP DUP14 DUP2 PUSH1 0x40 ADD DUP2 SWAP1 MSTORE POP DUP13 DUP5 DUP2 MLOAD DUP2 LT PUSH2 0x997 JUMPI PUSH2 0x996 PUSH2 0x6A0D JUMP JUMPDEST JUMPDEST PUSH1 0x20 MUL PUSH1 0x20 ADD ADD MLOAD PUSH1 0x0 ADD MLOAD DUP2 PUSH1 0x60 ADD DUP2 SWAP1 MSTORE POP DUP13 DUP5 DUP2 MLOAD DUP2 LT PUSH2 0x9BE JUMPI PUSH2 0x9BD PUSH2 0x6A0D JUMP JUMPDEST JUMPDEST PUSH1 0x20 MUL PUSH1 0x20 ADD ADD MLOAD PUSH1 0x20 ADD MLOAD DUP2 PUSH1 0x80 ADD DUP2 DUP2 MSTORE POP POP PUSH1 0x1 DUP14 MLOAD PUSH2 0x9E1 SWAP2 SWAP1 PUSH2 0x6AA0 JUMP JUMPDEST DUP5 EQ PUSH2 0xA0B JUMPI DUP13 DUP5 DUP2 MLOAD DUP2 LT PUSH2 0x9FA JUMPI PUSH2 0x9F9 PUSH2 0x6A0D JUMP JUMPDEST JUMPDEST PUSH1 0x20 MUL PUSH1 0x20 ADD ADD MLOAD PUSH1 0x40 ADD MLOAD PUSH2 0xA0D JUMP JUMPDEST DUP11 JUMPDEST DUP2 PUSH1 0xA0 ADD DUP2 DUP2 MSTORE POP POP DUP13 DUP5 DUP2 MLOAD DUP2 LT PUSH2 0xA29 JUMPI PUSH2 0xA28 PUSH2 0x6A0D JUMP JUMPDEST JUMPDEST PUSH1 0x20 MUL PUSH1 0x20 ADD ADD MLOAD PUSH1 0x60 ADD MLOAD DUP2 PUSH1 0xC0 ADD DUP2 DUP2 MSTORE POP POP DUP13 DUP5 DUP2 MLOAD DUP2 LT PUSH2 0xA51 JUMPI PUSH2 0xA50 PUSH2 0x6A0D JUMP JUMPDEST JUMPDEST PUSH1 0x20 MUL PUSH1 0x20 ADD ADD MLOAD PUSH1 0x80 ADD MLOAD DUP2 PUSH1 0xE0 ADD DUP2 DUP2 MSTORE POP POP PUSH1 0x0 DUP5 EQ DUP1 PUSH2 0xA81 JUMPI POP PUSH1 0x1 DUP14 MLOAD PUSH2 0xA7E SWAP2 SWAP1 PUSH2 0x6AA0 JUMP JUMPDEST DUP5 EQ JUMPDEST PUSH2 0xA9A JUMPI PUSH1 0x40 MLOAD DUP1 PUSH1 0x20 ADD PUSH1 0x40 MSTORE DUP1 PUSH1 0x0 DUP2 MSTORE POP PUSH2 0xA9C JUMP JUMPDEST DUP12 JUMPDEST DUP2 PUSH2 0x100 ADD DUP2 SWAP1 MSTORE POP DUP5 DUP2 PUSH2 0x120 ADD DUP2 DUP2 MSTORE POP POP DUP1 PUSH1 0x5 PUSH1 0x0 DUP6 DUP2 MSTORE PUSH1 0x20 ADD SWAP1 DUP2 MSTORE PUSH1 0x20 ADD PUSH1 0x0 KECCAK256 PUSH1 0x0 DUP3 ADD MLOAD DUP2 PUSH1 0x0 ADD PUSH1 0x0 PUSH2 0x100 EXP DUP2 SLOAD DUP2 PUSH20 0xFFFFFFFFFFFFFFFFFFFFFFFFFFFFFFFFFFFFFFFF MUL NOT AND SWAP1 DUP4 PUSH20 0xFFFFFFFFFFFFFFFFFFFFFFFFFFFFFFFFFFFFFFFF AND MUL OR SWAP1 SSTORE POP PUSH1 0x20 DUP3 ADD MLOAD DUP2 PUSH1 0x1 ADD PUSH1 0x0 PUSH2 0x100 EXP DUP2 SLOAD DUP2 PUSH20 0xFFFFFFFFFFFFFFFFFFFFFFFFFFFFFFFFFFFFFFFF MUL NOT AND SWAP1 DUP4 PUSH20 0xFFFFFFFFFFFFFFFFFFFFFFFFFFFFFFFFFFFFFFFF AND MUL OR SWAP1 SSTORE POP PUSH1 0x40 DUP3 ADD MLOAD DUP2 PUSH1 0x2 ADD SWAP1 DUP2 PUSH2 0xB67 SWAP2 SWAP1 PUSH2 0x6EF0 JUMP JUMPDEST POP PUSH1 0x60 DUP3 ADD MLOAD DUP2 PUSH1 0x3 ADD SWAP1 DUP2 PUSH2 0xB7D SWAP2 SWAP1 PUSH2 0x6EF0 JUMP JUMPDEST POP PUSH1 0x80 DUP3 ADD MLOAD DUP2 PUSH1 0x4 ADD SSTORE PUSH1 0xA0 DUP3 ADD MLOAD DUP2 PUSH1 0x5 ADD SSTORE PUSH1 0xC0 DUP3 ADD MLOAD DUP2 PUSH1 0x6 ADD SSTORE PUSH1 0xE0 DUP3 ADD MLOAD DUP2 PUSH1 0x7 ADD SSTORE PUSH2 0x100 DUP3 ADD MLOAD DUP2 PUSH1 0x8 ADD SWAP1 DUP2 PUSH2 0xBBC SWAP2 SWAP1 PUSH2 0x701D JUMP JUMPDEST POP PUSH2 0x120 DUP3 ADD MLOAD DUP2 PUSH1 0x9 ADD SSTORE SWAP1 POP POP DUP13 DUP5 DUP2 MLOAD DUP2 LT PUSH2 0xBDE JUMPI PUSH2 0xBDD PUSH2 0x6A0D JUMP JUMPDEST JUMPDEST PUSH1 0x20 MUL PUSH1 0x20 ADD ADD MLOAD PUSH1 0x80 ADD MLOAD DUP8 PUSH2 0xBF5 SWAP2 SWAP1 PUSH2 0x70EF JUMP JUMPDEST SWAP7 POP PUSH1 0x0 DUP5 SUB PUSH2 0xC47 JUMPI DUP3 PUSH1 0x8 PUSH1 0x0 CALLER PUSH20 0xFFFFFFFFFFFFFFFFFFFFFFFFFFFFFFFFFFFFFFFF AND PUSH20 0xFFFFFFFFFFFFFFFFFFFFFFFFFFFFFFFFFFFFFFFF AND DUP2 MSTORE PUSH1 0x20 ADD SWAP1 DUP2 MSTORE PUSH1 0x20 ADD PUSH1 0x0 KECCAK256 DUP2 SWAP1 SSTORE POP DUP3 SWAP6 POP JUMPDEST PUSH2 0xC69 PUSH1 0x40 MLOAD DUP1 PUSH1 0x60 ADD PUSH1 0x40 MSTORE DUP1 PUSH1 0x21 DUP2 MSTORE PUSH1 0x20 ADD PUSH2 0x7AE3 PUSH1 0x21 SWAP2 CODECOPY DUP5 PUSH2 0x479E JUMP JUMPDEST PUSH32 0xDB740CFA0F1894A61AE6E1849CC97444D4B50C7C67BDB8098C217EEEE6EA7AFF CALLER DUP5 PUSH1 0x0 DUP8 EQ PUSH2 0xC9B JUMPI PUSH1 0x0 PUSH2 0xC9E JUMP JUMPDEST PUSH1 0x1 JUMPDEST PUSH1 0x40 MLOAD PUSH2 0xCAD SWAP4 SWAP3 SWAP2 SWAP1 PUSH2 0x7123 JUMP JUMPDEST PUSH1 0x40 MLOAD DUP1 SWAP2 SUB SWAP1 LOG1 POP POP POP DUP1 DUP1 PUSH2 0xCC3 SWAP1 PUSH2 0x715A JUMP JUMPDEST SWAP2 POP POP PUSH2 0x8AD JUMP JUMPDEST POP CALLVALUE PUSH1 0x6 PUSH1 0x0 CALLER PUSH20 0xFFFFFFFFFFFFFFFFFFFFFFFFFFFFFFFFFFFFFFFF AND PUSH20 0xFFFFFFFFFFFFFFFFFFFFFFFFFFFFFFFFFFFFFFFF AND DUP2 MSTORE PUSH1 0x20 ADD SWAP1 DUP2 MSTORE PUSH1 0x20 ADD PUSH1 0x0 KECCAK256 PUSH1 0x0 DUP3 DUP3 SLOAD PUSH2 0xD1B SWAP2 SWAP1 PUSH2 0x70EF JUMP JUMPDEST SWAP3 POP POP DUP2 SWAP1 SSTORE POP PUSH1 0x0 PUSH1 0x7 PUSH1 0x0 PUSH1 0x5 PUSH1 0x0 DUP9 DUP2 MSTORE PUSH1 0x20 ADD SWAP1 DUP2 MSTORE PUSH1 0x20 ADD PUSH1 0x0 KECCAK256 PUSH1 0x0 ADD PUSH1 0x0 SWAP1 SLOAD SWAP1 PUSH2 0x100 EXP SWAP1 DIV PUSH20 0xFFFFFFFFFFFFFFFFFFFFFFFFFFFFFFFFFFFFFFFF AND PUSH20 0xFFFFFFFFFFFFFFFFFFFFFFFFFFFFFFFFFFFFFFFF AND PUSH20 0xFFFFFFFFFFFFFFFFFFFFFFFFFFFFFFFFFFFFFFFF AND DUP2 MSTORE PUSH1 0x20 ADD SWAP1 DUP2 MSTORE PUSH1 0x20 ADD PUSH1 0x0 KECCAK256 SWAP1 POP DUP3 DUP2 PUSH1 0x1 ADD DUP2 SWAP1 SSTORE POP DUP7 PUSH1 0x60 ADD MLOAD DUP2 PUSH1 0x3 ADD SWAP1 DUP2 PUSH2 0xDB9 SWAP2 SWAP1 PUSH2 0x701D JUMP JUMPDEST POP DUP7 PUSH1 0x80 ADD MLOAD DUP2 PUSH1 0x4 ADD SWAP1 DUP2 PUSH2 0xDCF SWAP2 SWAP1 PUSH2 0x701D JUMP JUMPDEST POP PUSH32 0x88F6097554D1CAC804DAEDD99305C40328E68F77263B389059512EBBAC735F6 DUP8 PUSH1 0x0 ADD MLOAD DUP9 PUSH1 0x20 ADD MLOAD DUP10 PUSH1 0x40 ADD MLOAD DUP11 PUSH1 0x60 ADD MLOAD DUP12 PUSH1 0xA0 ADD MLOAD DUP13 PUSH1 0xC0 ADD MLOAD DUP14 PUSH1 0xE0 ADD MLOAD DUP15 PUSH2 0x100 ADD MLOAD PUSH1 0x40 MLOAD PUSH2 0xE2E SWAP9 SWAP8 SWAP7 SWAP6 SWAP5 SWAP4 SWAP3 SWAP2 SWAP1 PUSH2 0x71A2 JUMP JUMPDEST PUSH1 0x40 MLOAD DUP1 SWAP2 SUB SWAP1 LOG1 DUP3 SWAP6 POP POP POP POP POP POP SWAP6 SWAP5 POP POP POP POP POP JUMP JUMPDEST PUSH1 0x4 SLOAD DUP2 JUMP JUMPDEST PUSH1 0x0 DUP1 PUSH1 0x60 DUP1 PUSH1 0x0 DUP1 PUSH1 0x0 PUSH1 0x60 DUP1 PUSH1 0x60 DUP1 PUSH1 0x0 DUP1 PUSH1 0x5 PUSH1 0x0 DUP16 DUP2 MSTORE PUSH1 0x20 ADD SWAP1 DUP2 MSTORE PUSH1 0x20 ADD PUSH1 0x0 KECCAK256 PUSH1 0x40 MLOAD DUP1 PUSH2 0x140 ADD PUSH1 0x40 MSTORE SWAP1 DUP2 PUSH1 0x0 DUP3 ADD PUSH1 0x0 SWAP1 SLOAD SWAP1 PUSH2 0x100 EXP SWAP1 DIV PUSH20 0xFFFFFFFFFFFFFFFFFFFFFFFFFFFFFFFFFFFFFFFF AND PUSH20 0xFFFFFFFFFFFFFFFFFFFFFFFFFFFFFFFFFFFFFFFF AND PUSH20 0xFFFFFFFFFFFFFFFFFFFFFFFFFFFFFFFFFFFFFFFF AND DUP2 MSTORE PUSH1 0x20 ADD PUSH1 0x1 DUP3 ADD PUSH1 0x0 SWAP1 SLOAD SWAP1 PUSH2 0x100 EXP SWAP1 DIV PUSH20 0xFFFFFFFFFFFFFFFFFFFFFFFFFFFFFFFFFFFFFFFF AND PUSH20 0xFFFFFFFFFFFFFFFFFFFFFFFFFFFFFFFFFFFFFFFF AND PUSH20 0xFFFFFFFFFFFFFFFFFFFFFFFFFFFFFFFFFFFFFFFF AND DUP2 MSTORE PUSH1 0x20 ADD PUSH1 0x2 DUP3 ADD DUP1 SLOAD PUSH2 0xF3C SWAP1 PUSH2 0x6C81 JUMP JUMPDEST DUP1 PUSH1 0x1F ADD PUSH1 0x20 DUP1 SWAP2 DIV MUL PUSH1 0x20 ADD PUSH1 0x40 MLOAD SWAP1 DUP2 ADD PUSH1 0x40 MSTORE DUP1 SWAP3 SWAP2 SWAP1 DUP2 DUP2 MSTORE PUSH1 0x20 ADD DUP3 DUP1 SLOAD PUSH2 0xF68 SWAP1 PUSH2 0x6C81 JUMP JUMPDEST DUP1 ISZERO PUSH2 0xFB5 JUMPI DUP1 PUSH1 0x1F LT PUSH2 0xF8A JUMPI PUSH2 0x100 DUP1 DUP4 SLOAD DIV MUL DUP4 MSTORE SWAP2 PUSH1 0x20 ADD SWAP2 PUSH2 0xFB5 JUMP JUMPDEST DUP3 ADD SWAP2 SWAP1 PUSH1 0x0 MSTORE PUSH1 0x20 PUSH1 0x0 KECCAK256 SWAP1 JUMPDEST DUP2 SLOAD DUP2 MSTORE SWAP1 PUSH1 0x1 ADD SWAP1 PUSH1 0x20 ADD DUP1 DUP4 GT PUSH2 0xF98 JUMPI DUP3 SWAP1 SUB PUSH1 0x1F AND DUP3 ADD SWAP2 JUMPDEST POP POP POP POP POP DUP2 MSTORE PUSH1 0x20 ADD PUSH1 0x3 DUP3 ADD DUP1 SLOAD PUSH2 0xFCE SWAP1 PUSH2 0x6C81 JUMP JUMPDEST DUP1 PUSH1 0x1F ADD PUSH1 0x20 DUP1 SWAP2 DIV MUL PUSH1 0x20 ADD PUSH1 0x40 MLOAD SWAP1 DUP2 ADD PUSH1 0x40 MSTORE DUP1 SWAP3 SWAP2 SWAP1 DUP2 DUP2 MSTORE PUSH1 0x20 ADD DUP3 DUP1 SLOAD PUSH2 0xFFA SWAP1 PUSH2 0x6C81 JUMP JUMPDEST DUP1 ISZERO PUSH2 0x1047 JUMPI DUP1 PUSH1 0x1F LT PUSH2 0x101C JUMPI PUSH2 0x100 DUP1 DUP4 SLOAD DIV MUL DUP4 MSTORE SWAP2 PUSH1 0x20 ADD SWAP2 PUSH2 0x1047 JUMP JUMPDEST DUP3 ADD SWAP2 SWAP1 PUSH1 0x0 MSTORE PUSH1 0x20 PUSH1 0x0 KECCAK256 SWAP1 JUMPDEST DUP2 SLOAD DUP2 MSTORE SWAP1 PUSH1 0x1 ADD SWAP1 PUSH1 0x20 ADD DUP1 DUP4 GT PUSH2 0x102A JUMPI DUP3 SWAP1 SUB PUSH1 0x1F AND DUP3 ADD SWAP2 JUMPDEST POP POP POP POP POP DUP2 MSTORE PUSH1 0x20 ADD PUSH1 0x4 DUP3 ADD SLOAD DUP2 MSTORE PUSH1 0x20 ADD PUSH1 0x5 DUP3 ADD SLOAD DUP2 MSTORE PUSH1 0x20 ADD PUSH1 0x6 DUP3 ADD SLOAD DUP2 MSTORE PUSH1 0x20 ADD PUSH1 0x7 DUP3 ADD SLOAD DUP2 MSTORE PUSH1 0x20 ADD PUSH1 0x8 DUP3 ADD DUP1 SLOAD PUSH2 0x1088 SWAP1 PUSH2 0x6C81 JUMP JUMPDEST DUP1 PUSH1 0x1F ADD PUSH1 0x20 DUP1 SWAP2 DIV MUL PUSH1 0x20 ADD PUSH1 0x40 MLOAD SWAP1 DUP2 ADD PUSH1 0x40 MSTORE DUP1 SWAP3 SWAP2 SWAP1 DUP2 DUP2 MSTORE PUSH1 0x20 ADD DUP3 DUP1 SLOAD PUSH2 0x10B4 SWAP1 PUSH2 0x6C81 JUMP JUMPDEST DUP1 ISZERO PUSH2 0x1101 JUMPI DUP1 PUSH1 0x1F LT PUSH2 0x10D6 JUMPI PUSH2 0x100 DUP1 DUP4 SLOAD DIV MUL DUP4 MSTORE SWAP2 PUSH1 0x20 ADD SWAP2 PUSH2 0x1101 JUMP JUMPDEST DUP3 ADD SWAP2 SWAP1 PUSH1 0x0 MSTORE PUSH1 0x20 PUSH1 0x0 KECCAK256 SWAP1 JUMPDEST DUP2 SLOAD DUP2 MSTORE SWAP1 PUSH1 0x1 ADD SWAP1 PUSH1 0x20 ADD DUP1 DUP4 GT PUSH2 0x10E4 JUMPI DUP3 SWAP1 SUB PUSH1 0x1F AND DUP3 ADD SWAP2 JUMPDEST POP POP POP POP POP DUP2 MSTORE PUSH1 0x20 ADD PUSH1 0x9 DUP3 ADD SLOAD DUP2 MSTORE POP POP SWAP1 POP PUSH1 0x0 PUSH1 0x7 PUSH1 0x0 DUP4 PUSH1 0x0 ADD MLOAD PUSH20 0xFFFFFFFFFFFFFFFFFFFFFFFFFFFFFFFFFFFFFFFF AND PUSH20 0xFFFFFFFFFFFFFFFFFFFFFFFFFFFFFFFFFFFFFFFF AND DUP2 MSTORE PUSH1 0x20 ADD SWAP1 DUP2 MSTORE PUSH1 0x20 ADD PUSH1 0x0 KECCAK256 PUSH1 0x40 MLOAD DUP1 PUSH1 0xE0 ADD PUSH1 0x40 MSTORE SWAP1 DUP2 PUSH1 0x0 DUP3 ADD PUSH1 0x0 SWAP1 SLOAD SWAP1 PUSH2 0x100 EXP SWAP1 DIV PUSH20 0xFFFFFFFFFFFFFFFFFFFFFFFFFFFFFFFFFFFFFFFF AND PUSH20 0xFFFFFFFFFFFFFFFFFFFFFFFFFFFFFFFFFFFFFFFF AND PUSH20 0xFFFFFFFFFFFFFFFFFFFFFFFFFFFFFFFFFFFFFFFF AND DUP2 MSTORE PUSH1 0x20 ADD PUSH1 0x1 DUP3 ADD SLOAD DUP2 MSTORE PUSH1 0x20 ADD PUSH1 0x2 DUP3 ADD DUP1 SLOAD PUSH2 0x11D6 SWAP1 PUSH2 0x6C81 JUMP JUMPDEST DUP1 PUSH1 0x1F ADD PUSH1 0x20 DUP1 SWAP2 DIV MUL PUSH1 0x20 ADD PUSH1 0x40 MLOAD SWAP1 DUP2 ADD PUSH1 0x40 MSTORE DUP1 SWAP3 SWAP2 SWAP1 DUP2 DUP2 MSTORE PUSH1 0x20 ADD DUP3 DUP1 SLOAD PUSH2 0x1202 SWAP1 PUSH2 0x6C81 JUMP JUMPDEST DUP1 ISZERO PUSH2 0x124F JUMPI DUP1 PUSH1 0x1F LT PUSH2 0x1224 JUMPI PUSH2 0x100 DUP1 DUP4 SLOAD DIV MUL DUP4 MSTORE SWAP2 PUSH1 0x20 ADD SWAP2 PUSH2 0x124F JUMP JUMPDEST DUP3 ADD SWAP2 SWAP1 PUSH1 0x0 MSTORE PUSH1 0x20 PUSH1 0x0 KECCAK256 SWAP1 JUMPDEST DUP2 SLOAD DUP2 MSTORE SWAP1 PUSH1 0x1 ADD SWAP1 PUSH1 0x20 ADD DUP1 DUP4 GT PUSH2 0x1232 JUMPI DUP3 SWAP1 SUB PUSH1 0x1F AND DUP3 ADD SWAP2 JUMPDEST POP POP POP POP POP DUP2 MSTORE PUSH1 0x20 ADD PUSH1 0x3 DUP3 ADD DUP1 SLOAD PUSH2 0x1268 SWAP1 PUSH2 0x6C81 JUMP JUMPDEST DUP1 PUSH1 0x1F ADD PUSH1 0x20 DUP1 SWAP2 DIV MUL PUSH1 0x20 ADD PUSH1 0x40 MLOAD SWAP1 DUP2 ADD PUSH1 0x40 MSTORE DUP1 SWAP3 SWAP2 SWAP1 DUP2 DUP2 MSTORE PUSH1 0x20 ADD DUP3 DUP1 SLOAD PUSH2 0x1294 SWAP1 PUSH2 0x6C81 JUMP JUMPDEST DUP1 ISZERO PUSH2 0x12E1 JUMPI DUP1 PUSH1 0x1F LT PUSH2 0x12B6 JUMPI PUSH2 0x100 DUP1 DUP4 SLOAD DIV MUL DUP4 MSTORE SWAP2 PUSH1 0x20 ADD SWAP2 PUSH2 0x12E1 JUMP JUMPDEST DUP3 ADD SWAP2 SWAP1 PUSH1 0x0 MSTORE PUSH1 0x20 PUSH1 0x0 KECCAK256 SWAP1 JUMPDEST DUP2 SLOAD DUP2 MSTORE SWAP1 PUSH1 0x1 ADD SWAP1 PUSH1 0x20 ADD DUP1 DUP4 GT PUSH2 0x12C4 JUMPI DUP3 SWAP1 SUB PUSH1 0x1F AND DUP3 ADD SWAP2 JUMPDEST POP POP POP POP POP DUP2 MSTORE PUSH1 0x20 ADD PUSH1 0x4 DUP3 ADD DUP1 SLOAD PUSH2 0x12FA SWAP1 PUSH2 0x6C81 JUMP JUMPDEST DUP1 PUSH1 0x1F ADD PUSH1 0x20 DUP1 SWAP2 DIV MUL PUSH1 0x20 ADD PUSH1 0x40 MLOAD SWAP1 DUP2 ADD PUSH1 0x40 MSTORE DUP1 SWAP3 SWAP2 SWAP1 DUP2 DUP2 MSTORE PUSH1 0x20 ADD DUP3 DUP1 SLOAD PUSH2 0x1326 SWAP1 PUSH2 0x6C81 JUMP JUMPDEST DUP1 ISZERO PUSH2 0x1373 JUMPI DUP1 PUSH1 0x1F LT PUSH2 0x1348 JUMPI PUSH2 0x100 DUP1 DUP4 SLOAD DIV MUL DUP4 MSTORE SWAP2 PUSH1 0x20 ADD SWAP2 PUSH2 0x1373 JUMP JUMPDEST DUP3 ADD SWAP2 SWAP1 PUSH1 0x0 MSTORE PUSH1 0x20 PUSH1 0x0 KECCAK256 SWAP1 JUMPDEST DUP2 SLOAD DUP2 MSTORE SWAP1 PUSH1 0x1 ADD SWAP1 PUSH1 0x20 ADD DUP1 DUP4 GT PUSH2 0x1356 JUMPI DUP3 SWAP1 SUB PUSH1 0x1F AND DUP3 ADD SWAP2 JUMPDEST POP POP POP POP POP DUP2 MSTORE PUSH1 0x20 ADD PUSH1 0x5 DUP3 ADD DUP1 SLOAD PUSH2 0x138C SWAP1 PUSH2 0x6C81 JUMP JUMPDEST DUP1 PUSH1 0x1F ADD PUSH1 0x20 DUP1 SWAP2 DIV MUL PUSH1 0x20 ADD PUSH1 0x40 MLOAD SWAP1 DUP2 ADD PUSH1 0x40 MSTORE DUP1 SWAP3 SWAP2 SWAP1 DUP2 DUP2 MSTORE PUSH1 0x20 ADD DUP3 DUP1 SLOAD PUSH2 0x13B8 SWAP1 PUSH2 0x6C81 JUMP JUMPDEST DUP1 ISZERO PUSH2 0x1405 JUMPI DUP1 PUSH1 0x1F LT PUSH2 0x13DA JUMPI PUSH2 0x100 DUP1 DUP4 SLOAD DIV MUL DUP4 MSTORE SWAP2 PUSH1 0x20 ADD SWAP2 PUSH2 0x1405 JUMP JUMPDEST DUP3 ADD SWAP2 SWAP1 PUSH1 0x0 MSTORE PUSH1 0x20 PUSH1 0x0 KECCAK256 SWAP1 JUMPDEST DUP2 SLOAD DUP2 MSTORE SWAP1 PUSH1 0x1 ADD SWAP1 PUSH1 0x20 ADD DUP1 DUP4 GT PUSH2 0x13E8 JUMPI DUP3 SWAP1 SUB PUSH1 0x1F AND DUP3 ADD SWAP2 JUMPDEST POP POP POP POP POP DUP2 MSTORE PUSH1 0x20 ADD PUSH1 0x6 DUP3 ADD DUP1 SLOAD PUSH2 0x141E SWAP1 PUSH2 0x6C81 JUMP JUMPDEST DUP1 PUSH1 0x1F ADD PUSH1 0x20 DUP1 SWAP2 DIV MUL PUSH1 0x20 ADD PUSH1 0x40 MLOAD SWAP1 DUP2 ADD PUSH1 0x40 MSTORE DUP1 SWAP3 SWAP2 SWAP1 DUP2 DUP2 MSTORE PUSH1 0x20 ADD DUP3 DUP1 SLOAD PUSH2 0x144A SWAP1 PUSH2 0x6C81 JUMP JUMPDEST DUP1 ISZERO PUSH2 0x1497 JUMPI DUP1 PUSH1 0x1F LT PUSH2 0x146C JUMPI PUSH2 0x100 DUP1 DUP4 SLOAD DIV MUL DUP4 MSTORE SWAP2 PUSH1 0x20 ADD SWAP2 PUSH2 0x1497 JUMP JUMPDEST DUP3 ADD SWAP2 SWAP1 PUSH1 0x0 MSTORE PUSH1 0x20 PUSH1 0x0 KECCAK256 SWAP1 JUMPDEST DUP2 SLOAD DUP2 MSTORE SWAP1 PUSH1 0x1 ADD SWAP1 PUSH1 0x20 ADD DUP1 DUP4 GT PUSH2 0x147A JUMPI DUP3 SWAP1 SUB PUSH1 0x1F AND DUP3 ADD SWAP2 JUMPDEST POP POP POP POP POP DUP2 MSTORE POP POP SWAP1 POP DUP15 DUP3 PUSH1 0x0 ADD MLOAD DUP4 PUSH1 0x40 ADD MLOAD DUP5 PUSH1 0x60 ADD MLOAD DUP6 PUSH1 0x80 ADD MLOAD DUP7 PUSH1 0xC0 ADD MLOAD DUP8 PUSH1 0xE0 ADD MLOAD DUP8 PUSH1 0xA0 ADD MLOAD DUP9 PUSH1 0x40 ADD MLOAD DUP10 PUSH1 0x60 ADD MLOAD DUP12 PUSH2 0x100 ADD MLOAD DUP13 PUSH1 0xA0 ADD MLOAD SWAP14 POP SWAP14 POP SWAP14 POP SWAP14 POP SWAP14 POP SWAP14 POP SWAP14 POP SWAP14 POP SWAP14 POP SWAP14 POP SWAP14 POP SWAP14 POP POP POP SWAP2 SWAP4 SWAP6 SWAP8 SWAP10 SWAP12 POP SWAP2 SWAP4 SWAP6 SWAP8 SWAP10 SWAP12 JUMP JUMPDEST PUSH1 0x0 DUP1 PUSH1 0x0 SWAP1 POP PUSH1 0x0 DUP1 PUSH1 0x0 PUSH2 0x1559 DUP12 DUP12 PUSH1 0x0 DUP2 MLOAD DUP2 LT PUSH2 0x1528 JUMPI PUSH2 0x1527 PUSH2 0x6A0D JUMP JUMPDEST JUMPDEST PUSH1 0x20 MUL PUSH1 0x20 ADD ADD MLOAD PUSH1 0x0 ADD MLOAD DUP13 PUSH1 0x0 DUP2 MLOAD DUP2 LT PUSH2 0x1548 JUMPI PUSH2 0x1547 PUSH2 0x6A0D JUMP JUMPDEST JUMPDEST PUSH1 0x20 MUL PUSH1 0x20 ADD ADD MLOAD PUSH1 0x20 ADD MLOAD PUSH2 0x76E JUMP JUMPDEST SWAP1 POP PUSH1 0x0 JUMPDEST DUP11 MLOAD DUP2 LT ISZERO PUSH2 0x1979 JUMPI PUSH2 0x15AE DUP13 DUP13 DUP4 DUP2 MLOAD DUP2 LT PUSH2 0x157E JUMPI PUSH2 0x157D PUSH2 0x6A0D JUMP JUMPDEST JUMPDEST PUSH1 0x20 MUL PUSH1 0x20 ADD ADD MLOAD PUSH1 0x0 ADD MLOAD DUP14 DUP5 DUP2 MLOAD DUP2 LT PUSH2 0x159D JUMPI PUSH2 0x159C PUSH2 0x6A0D JUMP JUMPDEST JUMPDEST PUSH1 0x20 MUL PUSH1 0x20 ADD ADD MLOAD PUSH1 0x20 ADD MLOAD PUSH2 0x76E JUMP JUMPDEST SWAP5 POP PUSH1 0x0 PUSH2 0x15BA PUSH2 0x53B8 JUMP JUMPDEST CALLER DUP2 PUSH1 0x0 ADD SWAP1 PUSH20 0xFFFFFFFFFFFFFFFFFFFFFFFFFFFFFFFFFFFFFFFF AND SWAP1 DUP2 PUSH20 0xFFFFFFFFFFFFFFFFFFFFFFFFFFFFFFFFFFFFFFFF AND DUP2 MSTORE POP POP DUP2 DUP2 PUSH1 0x20 ADD SWAP1 PUSH20 0xFFFFFFFFFFFFFFFFFFFFFFFFFFFFFFFFFFFFFFFF AND SWAP1 DUP2 PUSH20 0xFFFFFFFFFFFFFFFFFFFFFFFFFFFFFFFFFFFFFFFF AND DUP2 MSTORE POP POP DUP14 DUP2 PUSH1 0x40 ADD DUP2 SWAP1 MSTORE POP DUP13 DUP4 DUP2 MLOAD DUP2 LT PUSH2 0x1646 JUMPI PUSH2 0x1645 PUSH2 0x6A0D JUMP JUMPDEST JUMPDEST PUSH1 0x20 MUL PUSH1 0x20 ADD ADD MLOAD PUSH1 0x0 ADD MLOAD DUP2 PUSH1 0x60 ADD DUP2 SWAP1 MSTORE POP DUP13 DUP4 DUP2 MLOAD DUP2 LT PUSH2 0x166D JUMPI PUSH2 0x166C PUSH2 0x6A0D JUMP JUMPDEST JUMPDEST PUSH1 0x20 MUL PUSH1 0x20 ADD ADD MLOAD PUSH1 0x20 ADD MLOAD DUP2 PUSH1 0x80 ADD DUP2 DUP2 MSTORE POP POP PUSH1 0x1 DUP14 MLOAD PUSH2 0x1690 SWAP2 SWAP1 PUSH2 0x6AA0 JUMP JUMPDEST DUP4 EQ PUSH2 0x16BA JUMPI DUP13 DUP4 DUP2 MLOAD DUP2 LT PUSH2 0x16A9 JUMPI PUSH2 0x16A8 PUSH2 0x6A0D JUMP JUMPDEST JUMPDEST PUSH1 0x20 MUL PUSH1 0x20 ADD ADD MLOAD PUSH1 0x40 ADD MLOAD PUSH2 0x16BC JUMP JUMPDEST DUP11 JUMPDEST DUP2 PUSH1 0xA0 ADD DUP2 DUP2 MSTORE POP POP DUP13 DUP4 DUP2 MLOAD DUP2 LT PUSH2 0x16D8 JUMPI PUSH2 0x16D7 PUSH2 0x6A0D JUMP JUMPDEST JUMPDEST PUSH1 0x20 MUL PUSH1 0x20 ADD ADD MLOAD PUSH1 0x60 ADD MLOAD DUP2 PUSH1 0xC0 ADD DUP2 DUP2 MSTORE POP POP DUP13 DUP4 DUP2 MLOAD DUP2 LT PUSH2 0x1700 JUMPI PUSH2 0x16FF PUSH2 0x6A0D JUMP JUMPDEST JUMPDEST PUSH1 0x20 MUL PUSH1 0x20 ADD ADD MLOAD PUSH1 0x80 ADD MLOAD DUP2 PUSH1 0xE0 ADD DUP2 DUP2 MSTORE POP POP PUSH1 0x0 DUP4 EQ DUP1 PUSH2 0x1730 JUMPI POP PUSH1 0x1 DUP14 MLOAD PUSH2 0x172D SWAP2 SWAP1 PUSH2 0x6AA0 JUMP JUMPDEST DUP4 EQ JUMPDEST PUSH2 0x1749 JUMPI PUSH1 0x40 MLOAD DUP1 PUSH1 0x20 ADD PUSH1 0x40 MSTORE DUP1 PUSH1 0x0 DUP2 MSTORE POP PUSH2 0x174B JUMP JUMPDEST DUP12 JUMPDEST DUP2 PUSH2 0x100 ADD DUP2 SWAP1 MSTORE POP DUP4 DUP2 PUSH2 0x120 ADD DUP2 DUP2 MSTORE POP POP DUP1 PUSH1 0x5 PUSH1 0x0 DUP10 DUP2 MSTORE PUSH1 0x20 ADD SWAP1 DUP2 MSTORE PUSH1 0x20 ADD PUSH1 0x0 KECCAK256 PUSH1 0x0 DUP3 ADD MLOAD DUP2 PUSH1 0x0 ADD PUSH1 0x0 PUSH2 0x100 EXP DUP2 SLOAD DUP2 PUSH20 0xFFFFFFFFFFFFFFFFFFFFFFFFFFFFFFFFFFFFFFFF MUL NOT AND SWAP1 DUP4 PUSH20 0xFFFFFFFFFFFFFFFFFFFFFFFFFFFFFFFFFFFFFFFF AND MUL OR SWAP1 SSTORE POP PUSH1 0x20 DUP3 ADD MLOAD DUP2 PUSH1 0x1 ADD PUSH1 0x0 PUSH2 0x100 EXP DUP2 SLOAD DUP2 PUSH20 0xFFFFFFFFFFFFFFFFFFFFFFFFFFFFFFFFFFFFFFFF MUL NOT AND SWAP1 DUP4 PUSH20 0xFFFFFFFFFFFFFFFFFFFFFFFFFFFFFFFFFFFFFFFF AND MUL OR SWAP1 SSTORE POP PUSH1 0x40 DUP3 ADD MLOAD DUP2 PUSH1 0x2 ADD SWAP1 DUP2 PUSH2 0x1816 SWAP2 SWAP1 PUSH2 0x6EF0 JUMP JUMPDEST POP PUSH1 0x60 DUP3 ADD MLOAD DUP2 PUSH1 0x3 ADD SWAP1 DUP2 PUSH2 0x182C SWAP2 SWAP1 PUSH2 0x6EF0 JUMP JUMPDEST POP PUSH1 0x80 DUP3 ADD MLOAD DUP2 PUSH1 0x4 ADD SSTORE PUSH1 0xA0 DUP3 ADD MLOAD DUP2 PUSH1 0x5 ADD SSTORE PUSH1 0xC0 DUP3 ADD MLOAD DUP2 PUSH1 0x6 ADD SSTORE PUSH1 0xE0 DUP3 ADD MLOAD DUP2 PUSH1 0x7 ADD SSTORE PUSH2 0x100 DUP3 ADD MLOAD DUP2 PUSH1 0x8 ADD SWAP1 DUP2 PUSH2 0x186B SWAP2 SWAP1 PUSH2 0x701D JUMP JUMPDEST POP PUSH2 0x120 DUP3 ADD MLOAD DUP2 PUSH1 0x9 ADD SSTORE SWAP1 POP POP DUP13 DUP4 DUP2 MLOAD DUP2 LT PUSH2 0x188D JUMPI PUSH2 0x188C PUSH2 0x6A0D JUMP JUMPDEST JUMPDEST PUSH1 0x20 MUL PUSH1 0x20 ADD ADD MLOAD PUSH1 0x80 ADD MLOAD DUP7 PUSH2 0x18A4 SWAP2 SWAP1 PUSH2 0x70EF JUMP JUMPDEST SWAP6 POP PUSH1 0x0 DUP4 SUB PUSH2 0x18F6 JUMPI DUP7 PUSH1 0x8 PUSH1 0x0 CALLER PUSH20 0xFFFFFFFFFFFFFFFFFFFFFFFFFFFFFFFFFFFFFFFF AND PUSH20 0xFFFFFFFFFFFFFFFFFFFFFFFFFFFFFFFFFFFFFFFF AND DUP2 MSTORE PUSH1 0x20 ADD SWAP1 DUP2 MSTORE PUSH1 0x20 ADD PUSH1 0x0 KECCAK256 DUP2 SWAP1 SSTORE POP DUP7 SWAP5 POP JUMPDEST PUSH2 0x1918 PUSH1 0x40 MLOAD DUP1 PUSH1 0x60 ADD PUSH1 0x40 MSTORE DUP1 PUSH1 0x21 DUP2 MSTORE PUSH1 0x20 ADD PUSH2 0x7AE3 PUSH1 0x21 SWAP2 CODECOPY DUP9 PUSH2 0x479E JUMP JUMPDEST PUSH32 0xDB740CFA0F1894A61AE6E1849CC97444D4B50C7C67BDB8098C217EEEE6EA7AFF CALLER DUP9 PUSH1 0x0 DUP7 EQ PUSH2 0x194A JUMPI PUSH1 0x0 PUSH2 0x194D JUMP JUMPDEST PUSH1 0x1 JUMPDEST PUSH1 0x40 MLOAD PUSH2 0x195C SWAP4 SWAP3 SWAP2 SWAP1 PUSH2 0x7123 JUMP JUMPDEST PUSH1 0x40 MLOAD DUP1 SWAP2 SUB SWAP1 LOG1 POP POP DUP1 DUP1 PUSH2 0x1971 SWAP1 PUSH2 0x715A JUMP JUMPDEST SWAP2 POP POP PUSH2 0x155E JUMP JUMPDEST POP CALLVALUE PUSH1 0x6 PUSH1 0x0 CALLER PUSH20 0xFFFFFFFFFFFFFFFFFFFFFFFFFFFFFFFFFFFFFFFF AND PUSH20 0xFFFFFFFFFFFFFFFFFFFFFFFFFFFFFFFFFFFFFFFF AND DUP2 MSTORE PUSH1 0x20 ADD SWAP1 DUP2 MSTORE PUSH1 0x20 ADD PUSH1 0x0 KECCAK256 PUSH1 0x0 DUP3 DUP3 SLOAD PUSH2 0x19C9 SWAP2 SWAP1 PUSH2 0x70EF JUMP JUMPDEST SWAP3 POP POP DUP2 SWAP1 SSTORE POP PUSH1 0x40 MLOAD DUP1 PUSH1 0xE0 ADD PUSH1 0x40 MSTORE DUP1 CALLER PUSH20 0xFFFFFFFFFFFFFFFFFFFFFFFFFFFFFFFFFFFFFFFF AND DUP2 MSTORE PUSH1 0x20 ADD DUP4 DUP2 MSTORE PUSH1 0x20 ADD DUP8 DUP2 MSTORE PUSH1 0x20 ADD DUP9 PUSH1 0x60 ADD MLOAD DUP2 MSTORE PUSH1 0x20 ADD DUP9 PUSH1 0x80 ADD MLOAD DUP2 MSTORE PUSH1 0x20 ADD DUP9 PUSH1 0xA0 ADD MLOAD DUP2 MSTORE PUSH1 0x20 ADD DUP9 PUSH1 0x40 ADD MLOAD DUP2 MSTORE POP PUSH1 0x7 PUSH1 0x0 CALLER PUSH20 0xFFFFFFFFFFFFFFFFFFFFFFFFFFFFFFFFFFFFFFFF AND PUSH20 0xFFFFFFFFFFFFFFFFFFFFFFFFFFFFFFFFFFFFFFFF AND DUP2 MSTORE PUSH1 0x20 ADD SWAP1 DUP2 MSTORE PUSH1 0x20 ADD PUSH1 0x0 KECCAK256 PUSH1 0x0 DUP3 ADD MLOAD DUP2 PUSH1 0x0 ADD PUSH1 0x0 PUSH2 0x100 EXP DUP2 SLOAD DUP2 PUSH20 0xFFFFFFFFFFFFFFFFFFFFFFFFFFFFFFFFFFFFFFFF MUL NOT AND SWAP1 DUP4 PUSH20 0xFFFFFFFFFFFFFFFFFFFFFFFFFFFFFFFFFFFFFFFF AND MUL OR SWAP1 SSTORE POP PUSH1 0x20 DUP3 ADD MLOAD DUP2 PUSH1 0x1 ADD SSTORE PUSH1 0x40 DUP3 ADD MLOAD DUP2 PUSH1 0x2 ADD SWAP1 DUP2 PUSH2 0x1ACE SWAP2 SWAP1 PUSH2 0x701D JUMP JUMPDEST POP PUSH1 0x60 DUP3 ADD MLOAD DUP2 PUSH1 0x3 ADD SWAP1 DUP2 PUSH2 0x1AE4 SWAP2 SWAP1 PUSH2 0x701D JUMP JUMPDEST POP PUSH1 0x80 DUP3 ADD MLOAD DUP2 PUSH1 0x4 ADD SWAP1 DUP2 PUSH2 0x1AFA SWAP2 SWAP1 PUSH2 0x701D JUMP JUMPDEST POP PUSH1 0xA0 DUP3 ADD MLOAD DUP2 PUSH1 0x5 ADD SWAP1 DUP2 PUSH2 0x1B10 SWAP2 SWAP1 PUSH2 0x701D JUMP JUMPDEST POP PUSH1 0xC0 DUP3 ADD MLOAD DUP2 PUSH1 0x6 ADD SWAP1 DUP2 PUSH2 0x1B26 SWAP2 SWAP1 PUSH2 0x701D JUMP JUMPDEST POP SWAP1 POP POP PUSH32 0x88F6097554D1CAC804DAEDD99305C40328E68F77263B389059512EBBAC735F6 DUP8 PUSH1 0x0 ADD MLOAD DUP9 PUSH1 0x20 ADD MLOAD DUP10 PUSH1 0x40 ADD MLOAD DUP11 PUSH1 0x60 ADD MLOAD DUP12 PUSH1 0xA0 ADD MLOAD DUP13 PUSH1 0xC0 ADD MLOAD DUP14 PUSH1 0xE0 ADD MLOAD DUP15 PUSH2 0x100 ADD MLOAD PUSH1 0x40 MLOAD PUSH2 0x1B88 SWAP9 SWAP8 SWAP7 SWAP6 SWAP5 SWAP4 SWAP3 SWAP2 SWAP1 PUSH2 0x71A2 JUMP JUMPDEST PUSH1 0x40 MLOAD DUP1 SWAP2 SUB SWAP1 LOG1 DUP2 SWAP5 POP POP POP POP POP SWAP7 SWAP6 POP POP POP POP POP POP JUMP JUMPDEST PUSH1 0x60 PUSH1 0x0 PUSH2 0x1BBB PUSH2 0x1BB3 DUP7 DUP7 DUP7 PUSH2 0x483A JUMP JUMPDEST PUSH1 0x2 DUP6 PUSH2 0x1E3A JUMP JUMPDEST SWAP1 POP PUSH1 0x0 PUSH2 0x1BD5 PUSH2 0x1BCD DUP8 DUP8 DUP8 PUSH2 0x488A JUMP JUMPDEST PUSH1 0x2 DUP7 PUSH2 0x1E3A JUMP JUMPDEST SWAP1 POP PUSH1 0x0 PUSH2 0x1BE4 DUP4 DUP4 DUP8 PUSH2 0x488A JUMP JUMPDEST SWAP1 POP PUSH1 0x0 PUSH2 0x1BF1 DUP3 PUSH2 0x48C9 JUMP JUMPDEST SWAP1 POP DUP1 SWAP5 POP POP POP POP POP SWAP4 SWAP3 POP POP POP JUMP JUMPDEST PUSH1 0x0 DUP1 PUSH1 0x60 DUP1 PUSH1 0x0 DUP1 PUSH1 0x0 PUSH1 0x60 DUP1 PUSH1 0x60 DUP1 PUSH1 0x0 DUP1 PUSH1 0x8 PUSH1 0x0 DUP16 PUSH20 0xFFFFFFFFFFFFFFFFFFFFFFFFFFFFFFFFFFFFFFFF AND PUSH20 0xFFFFFFFFFFFFFFFFFFFFFFFFFFFFFFFFFFFFFFFF AND DUP2 MSTORE PUSH1 0x20 ADD SWAP1 DUP2 MSTORE PUSH1 0x20 ADD PUSH1 0x0 KECCAK256 SLOAD SWAP1 POP PUSH2 0x1C60 DUP2 PUSH2 0xE4D JUMP JUMPDEST SWAP13 POP SWAP13 POP SWAP13 POP SWAP13 POP SWAP13 POP SWAP13 POP SWAP13 POP SWAP13 POP SWAP13 POP SWAP13 POP SWAP13 POP SWAP13 POP POP SWAP2 SWAP4 SWAP6 SWAP8 SWAP10 SWAP12 POP SWAP2 SWAP4 SWAP6 SWAP8 SWAP10 SWAP12 JUMP JUMPDEST PUSH1 0x0 DUP1 PUSH1 0x0 SWAP1 POP PUSH17 0x100000000000000000000000000000000 DUP4 LT PUSH2 0x1CBE JUMPI PUSH1 0x80 DUP4 SWAP1 SHR SWAP3 POP PUSH1 0x80 DUP2 PUSH2 0x1CBB SWAP2 SWAP1 PUSH2 0x6A6B JUMP JUMPDEST SWAP1 POP JUMPDEST PUSH9 0x10000000000000000 DUP4 LT PUSH2 0x1CE5 JUMPI PUSH1 0x40 DUP4 SWAP1 SHR SWAP3 POP PUSH1 0x40 DUP2 PUSH2 0x1CE2 SWAP2 SWAP1 PUSH2 0x6A6B JUMP JUMPDEST SWAP1 POP JUMPDEST PUSH5 0x100000000 DUP4 LT PUSH2 0x1D08 JUMPI PUSH1 0x20 DUP4 SWAP1 SHR SWAP3 POP PUSH1 0x20 DUP2 PUSH2 0x1D05 SWAP2 SWAP1 PUSH2 0x6A6B JUMP JUMPDEST SWAP1 POP JUMPDEST PUSH3 0x10000 DUP4 LT PUSH2 0x1D29 JUMPI PUSH1 0x10 DUP4 SWAP1 SHR SWAP3 POP PUSH1 0x10 DUP2 PUSH2 0x1D26 SWAP2 SWAP1 PUSH2 0x6A6B JUMP JUMPDEST SWAP1 POP JUMPDEST PUSH2 0x100 DUP4 LT PUSH2 0x1D49 JUMPI PUSH1 0x8 DUP4 SWAP1 SHR SWAP3 POP PUSH1 0x8 DUP2 PUSH2 0x1D46 SWAP2 SWAP1 PUSH2 0x6A6B JUMP JUMPDEST SWAP1 POP JUMPDEST PUSH1 0x10 DUP4 LT PUSH2 0x1D68 JUMPI PUSH1 0x4 DUP4 SWAP1 SHR SWAP3 POP PUSH1 0x4 DUP2 PUSH2 0x1D65 SWAP2 SWAP1 PUSH2 0x6A6B JUMP JUMPDEST SWAP1 POP JUMPDEST PUSH1 0x4 DUP4 LT PUSH2 0x1D87 JUMPI PUSH1 0x2 DUP4 SWAP1 SHR SWAP3 POP PUSH1 0x2 DUP2 PUSH2 0x1D84 SWAP2 SWAP1 PUSH2 0x6A6B JUMP JUMPDEST SWAP1 POP JUMPDEST PUSH1 0x2 DUP4 LT PUSH2 0x1D9F JUMPI PUSH1 0x1 DUP2 PUSH2 0x1D9C SWAP2 SWAP1 PUSH2 0x6A6B JUMP JUMPDEST SWAP1 POP JUMPDEST DUP1 SWAP2 POP POP SWAP2 SWAP1 POP JUMP JUMPDEST PUSH1 0x60 PUSH1 0x2 DUP1 SLOAD PUSH2 0x1DB7 SWAP1 PUSH2 0x6C81 JUMP JUMPDEST DUP1 PUSH1 0x1F ADD PUSH1 0x20 DUP1 SWAP2 DIV MUL PUSH1 0x20 ADD PUSH1 0x40 MLOAD SWAP1 DUP2 ADD PUSH1 0x40 MSTORE DUP1 SWAP3 SWAP2 SWAP1 DUP2 DUP2 MSTORE PUSH1 0x20 ADD DUP3 DUP1 SLOAD PUSH2 0x1DE3 SWAP1 PUSH2 0x6C81 JUMP JUMPDEST DUP1 ISZERO PUSH2 0x1E30 JUMPI DUP1 PUSH1 0x1F LT PUSH2 0x1E05 JUMPI PUSH2 0x100 DUP1 DUP4 SLOAD DIV MUL DUP4 MSTORE SWAP2 PUSH1 0x20 ADD SWAP2 PUSH2 0x1E30 JUMP JUMPDEST DUP3 ADD SWAP2 SWAP1 PUSH1 0x0 MSTORE PUSH1 0x20 PUSH1 0x0 KECCAK256 SWAP1 JUMPDEST DUP2 SLOAD DUP2 MSTORE SWAP1 PUSH1 0x1 ADD SWAP1 PUSH1 0x20 ADD DUP1 DUP4 GT PUSH2 0x1E13 JUMPI DUP3 SWAP1 SUB PUSH1 0x1F AND DUP3 ADD SWAP2 JUMPDEST POP POP POP POP POP SWAP1 POP SWAP1 JUMP JUMPDEST PUSH1 0x60 PUSH1 0x40 MLOAD DUP5 MLOAD DUP4 MLOAD DUP2 DUP4 MSTORE PUSH1 0x20 DUP1 DUP5 ADD MSTORE DUP1 PUSH1 0x40 DUP5 ADD MSTORE DUP2 PUSH1 0x60 DUP5 ADD DUP4 PUSH1 0x20 DUP11 ADD PUSH1 0x4 PUSH2 0x2710 STATICCALL PUSH2 0x1E6B JUMPI PUSH1 0x0 DUP1 REVERT JUMPDEST DUP6 DUP3 PUSH1 0x60 ADD DUP5 ADD MSTORE DUP1 DUP3 PUSH1 0x80 DUP6 ADD ADD DUP3 PUSH1 0x20 DUP9 ADD PUSH1 0x4 PUSH2 0x2710 STATICCALL PUSH2 0x1E8E JUMPI PUSH1 0x0 DUP1 REVERT JUMPDEST DUP1 PUSH1 0x20 DUP5 ADD DUP3 DUP5 PUSH1 0x80 ADD ADD DUP6 PUSH1 0x5 PUSH2 0x7D0 GAS SUB STATICCALL PUSH2 0x1EAB JUMPI PUSH1 0x0 DUP1 REVERT JUMPDEST PUSH1 0x20 DUP2 DUP5 ADD ADD PUSH1 0x40 MSTORE DUP1 DUP4 MSTORE DUP3 SWAP4 POP POP POP POP SWAP4 SWAP3 POP POP POP JUMP JUMPDEST PUSH1 0x60 DUP1 PUSH1 0x60 DUP1 PUSH1 0x0 PUSH1 0x8 PUSH1 0x0 DUP8 PUSH20 0xFFFFFFFFFFFFFFFFFFFFFFFFFFFFFFFFFFFFFFFF AND PUSH20 0xFFFFFFFFFFFFFFFFFFFFFFFFFFFFFFFFFFFFFFFF AND DUP2 MSTORE PUSH1 0x20 ADD SWAP1 DUP2 MSTORE PUSH1 0x20 ADD PUSH1 0x0 KECCAK256 SLOAD SWAP1 POP PUSH1 0x0 PUSH1 0x5 PUSH1 0x0 DUP4 DUP2 MSTORE PUSH1 0x20 ADD SWAP1 DUP2 MSTORE PUSH1 0x20 ADD PUSH1 0x0 KECCAK256 PUSH1 0x40 MLOAD DUP1 PUSH2 0x140 ADD PUSH1 0x40 MSTORE SWAP1 DUP2 PUSH1 0x0 DUP3 ADD PUSH1 0x0 SWAP1 SLOAD SWAP1 PUSH2 0x100 EXP SWAP1 DIV PUSH20 0xFFFFFFFFFFFFFFFFFFFFFFFFFFFFFFFFFFFFFFFF AND PUSH20 0xFFFFFFFFFFFFFFFFFFFFFFFFFFFFFFFFFFFFFFFF AND PUSH20 0xFFFFFFFFFFFFFFFFFFFFFFFFFFFFFFFFFFFFFFFF AND DUP2 MSTORE PUSH1 0x20 ADD PUSH1 0x1 DUP3 ADD PUSH1 0x0 SWAP1 SLOAD SWAP1 PUSH2 0x100 EXP SWAP1 DIV PUSH20 0xFFFFFFFFFFFFFFFFFFFFFFFFFFFFFFFFFFFFFFFF AND PUSH20 0xFFFFFFFFFFFFFFFFFFFFFFFFFFFFFFFFFFFFFFFF AND PUSH20 0xFFFFFFFFFFFFFFFFFFFFFFFFFFFFFFFFFFFFFFFF AND DUP2 MSTORE PUSH1 0x20 ADD PUSH1 0x2 DUP3 ADD DUP1 SLOAD PUSH2 0x1FEB SWAP1 PUSH2 0x6C81 JUMP JUMPDEST DUP1 PUSH1 0x1F ADD PUSH1 0x20 DUP1 SWAP2 DIV MUL PUSH1 0x20 ADD PUSH1 0x40 MLOAD SWAP1 DUP2 ADD PUSH1 0x40 MSTORE DUP1 SWAP3 SWAP2 SWAP1 DUP2 DUP2 MSTORE PUSH1 0x20 ADD DUP3 DUP1 SLOAD PUSH2 0x2017 SWAP1 PUSH2 0x6C81 JUMP JUMPDEST DUP1 ISZERO PUSH2 0x2064 JUMPI DUP1 PUSH1 0x1F LT PUSH2 0x2039 JUMPI PUSH2 0x100 DUP1 DUP4 SLOAD DIV MUL DUP4 MSTORE SWAP2 PUSH1 0x20 ADD SWAP2 PUSH2 0x2064 JUMP JUMPDEST DUP3 ADD SWAP2 SWAP1 PUSH1 0x0 MSTORE PUSH1 0x20 PUSH1 0x0 KECCAK256 SWAP1 JUMPDEST DUP2 SLOAD DUP2 MSTORE SWAP1 PUSH1 0x1 ADD SWAP1 PUSH1 0x20 ADD DUP1 DUP4 GT PUSH2 0x2047 JUMPI DUP3 SWAP1 SUB PUSH1 0x1F AND DUP3 ADD SWAP2 JUMPDEST POP POP POP POP POP DUP2 MSTORE PUSH1 0x20 ADD PUSH1 0x3 DUP3 ADD DUP1 SLOAD PUSH2 0x207D SWAP1 PUSH2 0x6C81 JUMP JUMPDEST DUP1 PUSH1 0x1F ADD PUSH1 0x20 DUP1 SWAP2 DIV MUL PUSH1 0x20 ADD PUSH1 0x40 MLOAD SWAP1 DUP2 ADD PUSH1 0x40 MSTORE DUP1 SWAP3 SWAP2 SWAP1 DUP2 DUP2 MSTORE PUSH1 0x20 ADD DUP3 DUP1 SLOAD PUSH2 0x20A9 SWAP1 PUSH2 0x6C81 JUMP JUMPDEST DUP1 ISZERO PUSH2 0x20F6 JUMPI DUP1 PUSH1 0x1F LT PUSH2 0x20CB JUMPI PUSH2 0x100 DUP1 DUP4 SLOAD DIV MUL DUP4 MSTORE SWAP2 PUSH1 0x20 ADD SWAP2 PUSH2 0x20F6 JUMP JUMPDEST DUP3 ADD SWAP2 SWAP1 PUSH1 0x0 MSTORE PUSH1 0x20 PUSH1 0x0 KECCAK256 SWAP1 JUMPDEST DUP2 SLOAD DUP2 MSTORE SWAP1 PUSH1 0x1 ADD SWAP1 PUSH1 0x20 ADD DUP1 DUP4 GT PUSH2 0x20D9 JUMPI DUP3 SWAP1 SUB PUSH1 0x1F AND DUP3 ADD SWAP2 JUMPDEST POP POP POP POP POP DUP2 MSTORE PUSH1 0x20 ADD PUSH1 0x4 DUP3 ADD SLOAD DUP2 MSTORE PUSH1 0x20 ADD PUSH1 0x5 DUP3 ADD SLOAD DUP2 MSTORE PUSH1 0x20 ADD PUSH1 0x6 DUP3 ADD SLOAD DUP2 MSTORE PUSH1 0x20 ADD PUSH1 0x7 DUP3 ADD SLOAD DUP2 MSTORE PUSH1 0x20 ADD PUSH1 0x8 DUP3 ADD DUP1 SLOAD PUSH2 0x2137 SWAP1 PUSH2 0x6C81 JUMP JUMPDEST DUP1 PUSH1 0x1F ADD PUSH1 0x20 DUP1 SWAP2 DIV MUL PUSH1 0x20 ADD PUSH1 0x40 MLOAD SWAP1 DUP2 ADD PUSH1 0x40 MSTORE DUP1 SWAP3 SWAP2 SWAP1 DUP2 DUP2 MSTORE PUSH1 0x20 ADD DUP3 DUP1 SLOAD PUSH2 0x2163 SWAP1 PUSH2 0x6C81 JUMP JUMPDEST DUP1 ISZERO PUSH2 0x21B0 JUMPI DUP1 PUSH1 0x1F LT PUSH2 0x2185 JUMPI PUSH2 0x100 DUP1 DUP4 SLOAD DIV MUL DUP4 MSTORE SWAP2 PUSH1 0x20 ADD SWAP2 PUSH2 0x21B0 JUMP JUMPDEST DUP3 ADD SWAP2 SWAP1 PUSH1 0x0 MSTORE PUSH1 0x20 PUSH1 0x0 KECCAK256 SWAP1 JUMPDEST DUP2 SLOAD DUP2 MSTORE SWAP1 PUSH1 0x1 ADD SWAP1 PUSH1 0x20 ADD DUP1 DUP4 GT PUSH2 0x2193 JUMPI DUP3 SWAP1 SUB PUSH1 0x1F AND DUP3 ADD SWAP2 JUMPDEST POP POP POP POP POP DUP2 MSTORE PUSH1 0x20 ADD PUSH1 0x9 DUP3 ADD SLOAD DUP2 MSTORE POP POP SWAP1 POP PUSH1 0x0 PUSH1 0x1 SWAP1 POP JUMPDEST PUSH6 0x1D8FDA4CE000 PUSH8 0xFFFFFFFFFFFFFFFF AND DUP3 PUSH1 0xA0 ADD MLOAD GT ISZERO PUSH2 0x24B4 JUMPI PUSH1 0x5 PUSH1 0x0 DUP4 PUSH1 0xA0 ADD MLOAD DUP2 MSTORE PUSH1 0x20 ADD SWAP1 DUP2 MSTORE PUSH1 0x20 ADD PUSH1 0x0 KECCAK256 PUSH1 0x40 MLOAD DUP1 PUSH2 0x140 ADD PUSH1 0x40 MSTORE SWAP1 DUP2 PUSH1 0x0 DUP3 ADD PUSH1 0x0 SWAP1 SLOAD SWAP1 PUSH2 0x100 EXP SWAP1 DIV PUSH20 0xFFFFFFFFFFFFFFFFFFFFFFFFFFFFFFFFFFFFFFFF AND PUSH20 0xFFFFFFFFFFFFFFFFFFFFFFFFFFFFFFFFFFFFFFFF AND PUSH20 0xFFFFFFFFFFFFFFFFFFFFFFFFFFFFFFFFFFFFFFFF AND DUP2 MSTORE PUSH1 0x20 ADD PUSH1 0x1 DUP3 ADD PUSH1 0x0 SWAP1 SLOAD SWAP1 PUSH2 0x100 EXP SWAP1 DIV PUSH20 0xFFFFFFFFFFFFFFFFFFFFFFFFFFFFFFFFFFFFFFFF AND PUSH20 0xFFFFFFFFFFFFFFFFFFFFFFFFFFFFFFFFFFFFFFFF AND PUSH20 0xFFFFFFFFFFFFFFFFFFFFFFFFFFFFFFFFFFFFFFFF AND DUP2 MSTORE PUSH1 0x20 ADD PUSH1 0x2 DUP3 ADD DUP1 SLOAD PUSH2 0x22C7 SWAP1 PUSH2 0x6C81 JUMP JUMPDEST DUP1 PUSH1 0x1F ADD PUSH1 0x20 DUP1 SWAP2 DIV MUL PUSH1 0x20 ADD PUSH1 0x40 MLOAD SWAP1 DUP2 ADD PUSH1 0x40 MSTORE DUP1 SWAP3 SWAP2 SWAP1 DUP2 DUP2 MSTORE PUSH1 0x20 ADD DUP3 DUP1 SLOAD PUSH2 0x22F3 SWAP1 PUSH2 0x6C81 JUMP JUMPDEST DUP1 ISZERO PUSH2 0x2340 JUMPI DUP1 PUSH1 0x1F LT PUSH2 0x2315 JUMPI PUSH2 0x100 DUP1 DUP4 SLOAD DIV MUL DUP4 MSTORE SWAP2 PUSH1 0x20 ADD SWAP2 PUSH2 0x2340 JUMP JUMPDEST DUP3 ADD SWAP2 SWAP1 PUSH1 0x0 MSTORE PUSH1 0x20 PUSH1 0x0 KECCAK256 SWAP1 JUMPDEST DUP2 SLOAD DUP2 MSTORE SWAP1 PUSH1 0x1 ADD SWAP1 PUSH1 0x20 ADD DUP1 DUP4 GT PUSH2 0x2323 JUMPI DUP3 SWAP1 SUB PUSH1 0x1F AND DUP3 ADD SWAP2 JUMPDEST POP POP POP POP POP DUP2 MSTORE PUSH1 0x20 ADD PUSH1 0x3 DUP3 ADD DUP1 SLOAD PUSH2 0x2359 SWAP1 PUSH2 0x6C81 JUMP JUMPDEST DUP1 PUSH1 0x1F ADD PUSH1 0x20 DUP1 SWAP2 DIV MUL PUSH1 0x20 ADD PUSH1 0x40 MLOAD SWAP1 DUP2 ADD PUSH1 0x40 MSTORE DUP1 SWAP3 SWAP2 SWAP1 DUP2 DUP2 MSTORE PUSH1 0x20 ADD DUP3 DUP1 SLOAD PUSH2 0x2385 SWAP1 PUSH2 0x6C81 JUMP JUMPDEST DUP1 ISZERO PUSH2 0x23D2 JUMPI DUP1 PUSH1 0x1F LT PUSH2 0x23A7 JUMPI PUSH2 0x100 DUP1 DUP4 SLOAD DIV MUL DUP4 MSTORE SWAP2 PUSH1 0x20 ADD SWAP2 PUSH2 0x23D2 JUMP JUMPDEST DUP3 ADD SWAP2 SWAP1 PUSH1 0x0 MSTORE PUSH1 0x20 PUSH1 0x0 KECCAK256 SWAP1 JUMPDEST DUP2 SLOAD DUP2 MSTORE SWAP1 PUSH1 0x1 ADD SWAP1 PUSH1 0x20 ADD DUP1 DUP4 GT PUSH2 0x23B5 JUMPI DUP3 SWAP1 SUB PUSH1 0x1F AND DUP3 ADD SWAP2 JUMPDEST POP POP POP POP POP DUP2 MSTORE PUSH1 0x20 ADD PUSH1 0x4 DUP3 ADD SLOAD DUP2 MSTORE PUSH1 0x20 ADD PUSH1 0x5 DUP3 ADD SLOAD DUP2 MSTORE PUSH1 0x20 ADD PUSH1 0x6 DUP3 ADD SLOAD DUP2 MSTORE PUSH1 0x20 ADD PUSH1 0x7 DUP3 ADD SLOAD DUP2 MSTORE PUSH1 0x20 ADD PUSH1 0x8 DUP3 ADD DUP1 SLOAD PUSH2 0x2413 SWAP1 PUSH2 0x6C81 JUMP JUMPDEST DUP1 PUSH1 0x1F ADD PUSH1 0x20 DUP1 SWAP2 DIV MUL PUSH1 0x20 ADD PUSH1 0x40 MLOAD SWAP1 DUP2 ADD PUSH1 0x40 MSTORE DUP1 SWAP3 SWAP2 SWAP1 DUP2 DUP2 MSTORE PUSH1 0x20 ADD DUP3 DUP1 SLOAD PUSH2 0x243F SWAP1 PUSH2 0x6C81 JUMP JUMPDEST DUP1 ISZERO PUSH2 0x248C JUMPI DUP1 PUSH1 0x1F LT PUSH2 0x2461 JUMPI PUSH2 0x100 DUP1 DUP4 SLOAD DIV MUL DUP4 MSTORE SWAP2 PUSH1 0x20 ADD SWAP2 PUSH2 0x248C JUMP JUMPDEST DUP3 ADD SWAP2 SWAP1 PUSH1 0x0 MSTORE PUSH1 0x20 PUSH1 0x0 KECCAK256 SWAP1 JUMPDEST DUP2 SLOAD DUP2 MSTORE SWAP1 PUSH1 0x1 ADD SWAP1 PUSH1 0x20 ADD DUP1 DUP4 GT PUSH2 0x246F JUMPI DUP3 SWAP1 SUB PUSH1 0x1F AND DUP3 ADD SWAP2 JUMPDEST POP POP POP POP POP DUP2 MSTORE PUSH1 0x20 ADD PUSH1 0x9 DUP3 ADD SLOAD DUP2 MSTORE POP POP SWAP2 POP DUP1 DUP1 PUSH2 0x24AC SWAP1 PUSH2 0x715A JUMP JUMPDEST SWAP2 POP POP PUSH2 0x21CC JUMP JUMPDEST PUSH1 0x0 DUP2 PUSH8 0xFFFFFFFFFFFFFFFF DUP2 GT ISZERO PUSH2 0x24D0 JUMPI PUSH2 0x24CF PUSH2 0x5506 JUMP JUMPDEST JUMPDEST PUSH1 0x40 MLOAD SWAP1 DUP1 DUP3 MSTORE DUP1 PUSH1 0x20 MUL PUSH1 0x20 ADD DUP3 ADD PUSH1 0x40 MSTORE DUP1 ISZERO PUSH2 0x2509 JUMPI DUP2 PUSH1 0x20 ADD JUMPDEST PUSH2 0x24F6 PUSH2 0x53B8 JUMP JUMPDEST DUP2 MSTORE PUSH1 0x20 ADD SWAP1 PUSH1 0x1 SWAP1 SUB SWAP1 DUP2 PUSH2 0x24EE JUMPI SWAP1 POP JUMPDEST POP SWAP1 POP PUSH1 0x5 PUSH1 0x0 DUP6 DUP2 MSTORE PUSH1 0x20 ADD SWAP1 DUP2 MSTORE PUSH1 0x20 ADD PUSH1 0x0 KECCAK256 PUSH1 0x40 MLOAD DUP1 PUSH2 0x140 ADD PUSH1 0x40 MSTORE SWAP1 DUP2 PUSH1 0x0 DUP3 ADD PUSH1 0x0 SWAP1 SLOAD SWAP1 PUSH2 0x100 EXP SWAP1 DIV PUSH20 0xFFFFFFFFFFFFFFFFFFFFFFFFFFFFFFFFFFFFFFFF AND PUSH20 0xFFFFFFFFFFFFFFFFFFFFFFFFFFFFFFFFFFFFFFFF AND PUSH20 0xFFFFFFFFFFFFFFFFFFFFFFFFFFFFFFFFFFFFFFFF AND DUP2 MSTORE PUSH1 0x20 ADD PUSH1 0x1 DUP3 ADD PUSH1 0x0 SWAP1 SLOAD SWAP1 PUSH2 0x100 EXP SWAP1 DIV PUSH20 0xFFFFFFFFFFFFFFFFFFFFFFFFFFFFFFFFFFFFFFFF AND PUSH20 0xFFFFFFFFFFFFFFFFFFFFFFFFFFFFFFFFFFFFFFFF AND PUSH20 0xFFFFFFFFFFFFFFFFFFFFFFFFFFFFFFFFFFFFFFFF AND DUP2 MSTORE PUSH1 0x20 ADD PUSH1 0x2 DUP3 ADD DUP1 SLOAD PUSH2 0x25E7 SWAP1 PUSH2 0x6C81 JUMP JUMPDEST DUP1 PUSH1 0x1F ADD PUSH1 0x20 DUP1 SWAP2 DIV MUL PUSH1 0x20 ADD PUSH1 0x40 MLOAD SWAP1 DUP2 ADD PUSH1 0x40 MSTORE DUP1 SWAP3 SWAP2 SWAP1 DUP2 DUP2 MSTORE PUSH1 0x20 ADD DUP3 DUP1 SLOAD PUSH2 0x2613 SWAP1 PUSH2 0x6C81 JUMP JUMPDEST DUP1 ISZERO PUSH2 0x2660 JUMPI DUP1 PUSH1 0x1F LT PUSH2 0x2635 JUMPI PUSH2 0x100 DUP1 DUP4 SLOAD DIV MUL DUP4 MSTORE SWAP2 PUSH1 0x20 ADD SWAP2 PUSH2 0x2660 JUMP JUMPDEST DUP3 ADD SWAP2 SWAP1 PUSH1 0x0 MSTORE PUSH1 0x20 PUSH1 0x0 KECCAK256 SWAP1 JUMPDEST DUP2 SLOAD DUP2 MSTORE SWAP1 PUSH1 0x1 ADD SWAP1 PUSH1 0x20 ADD DUP1 DUP4 GT PUSH2 0x2643 JUMPI DUP3 SWAP1 SUB PUSH1 0x1F AND DUP3 ADD SWAP2 JUMPDEST POP POP POP POP POP DUP2 MSTORE PUSH1 0x20 ADD PUSH1 0x3 DUP3 ADD DUP1 SLOAD PUSH2 0x2679 SWAP1 PUSH2 0x6C81 JUMP JUMPDEST DUP1 PUSH1 0x1F ADD PUSH1 0x20 DUP1 SWAP2 DIV MUL PUSH1 0x20 ADD PUSH1 0x40 MLOAD SWAP1 DUP2 ADD PUSH1 0x40 MSTORE DUP1 SWAP3 SWAP2 SWAP1 DUP2 DUP2 MSTORE PUSH1 0x20 ADD DUP3 DUP1 SLOAD PUSH2 0x26A5 SWAP1 PUSH2 0x6C81 JUMP JUMPDEST DUP1 ISZERO PUSH2 0x26F2 JUMPI DUP1 PUSH1 0x1F LT PUSH2 0x26C7 JUMPI PUSH2 0x100 DUP1 DUP4 SLOAD DIV MUL DUP4 MSTORE SWAP2 PUSH1 0x20 ADD SWAP2 PUSH2 0x26F2 JUMP JUMPDEST DUP3 ADD SWAP2 SWAP1 PUSH1 0x0 MSTORE PUSH1 0x20 PUSH1 0x0 KECCAK256 SWAP1 JUMPDEST DUP2 SLOAD DUP2 MSTORE SWAP1 PUSH1 0x1 ADD SWAP1 PUSH1 0x20 ADD DUP1 DUP4 GT PUSH2 0x26D5 JUMPI DUP3 SWAP1 SUB PUSH1 0x1F AND DUP3 ADD SWAP2 JUMPDEST POP POP POP POP POP DUP2 MSTORE PUSH1 0x20 ADD PUSH1 0x4 DUP3 ADD SLOAD DUP2 MSTORE PUSH1 0x20 ADD PUSH1 0x5 DUP3 ADD SLOAD DUP2 MSTORE PUSH1 0x20 ADD PUSH1 0x6 DUP3 ADD SLOAD DUP2 MSTORE PUSH1 0x20 ADD PUSH1 0x7 DUP3 ADD SLOAD DUP2 MSTORE PUSH1 0x20 ADD PUSH1 0x8 DUP3 ADD DUP1 SLOAD PUSH2 0x2733 SWAP1 PUSH2 0x6C81 JUMP JUMPDEST DUP1 PUSH1 0x1F ADD PUSH1 0x20 DUP1 SWAP2 DIV MUL PUSH1 0x20 ADD PUSH1 0x40 MLOAD SWAP1 DUP2 ADD PUSH1 0x40 MSTORE DUP1 SWAP3 SWAP2 SWAP1 DUP2 DUP2 MSTORE PUSH1 0x20 ADD DUP3 DUP1 SLOAD PUSH2 0x275F SWAP1 PUSH2 0x6C81 JUMP JUMPDEST DUP1 ISZERO PUSH2 0x27AC JUMPI DUP1 PUSH1 0x1F LT PUSH2 0x2781 JUMPI PUSH2 0x100 DUP1 DUP4 SLOAD DIV MUL DUP4 MSTORE SWAP2 PUSH1 0x20 ADD SWAP2 PUSH2 0x27AC JUMP JUMPDEST DUP3 ADD SWAP2 SWAP1 PUSH1 0x0 MSTORE PUSH1 0x20 PUSH1 0x0 KECCAK256 SWAP1 JUMPDEST DUP2 SLOAD DUP2 MSTORE SWAP1 PUSH1 0x1 ADD SWAP1 PUSH1 0x20 ADD DUP1 DUP4 GT PUSH2 0x278F JUMPI DUP3 SWAP1 SUB PUSH1 0x1F AND DUP3 ADD SWAP2 JUMPDEST POP POP POP POP POP DUP2 MSTORE PUSH1 0x20 ADD PUSH1 0x9 DUP3 ADD SLOAD DUP2 MSTORE POP POP SWAP3 POP PUSH1 0x0 JUMPDEST PUSH6 0x1D8FDA4CE000 PUSH8 0xFFFFFFFFFFFFFFFF AND DUP5 PUSH1 0xA0 ADD MLOAD GT ISZERO PUSH2 0x2ACB JUMPI DUP4 DUP3 DUP3 DUP2 MLOAD DUP2 LT PUSH2 0x27F4 JUMPI PUSH2 0x27F3 PUSH2 0x6A0D JUMP JUMPDEST JUMPDEST PUSH1 0x20 MUL PUSH1 0x20 ADD ADD DUP2 SWAP1 MSTORE POP PUSH1 0x5 PUSH1 0x0 DUP6 PUSH1 0xA0 ADD MLOAD DUP2 MSTORE PUSH1 0x20 ADD SWAP1 DUP2 MSTORE PUSH1 0x20 ADD PUSH1 0x0 KECCAK256 PUSH1 0x40 MLOAD DUP1 PUSH2 0x140 ADD PUSH1 0x40 MSTORE SWAP1 DUP2 PUSH1 0x0 DUP3 ADD PUSH1 0x0 SWAP1 SLOAD SWAP1 PUSH2 0x100 EXP SWAP1 DIV PUSH20 0xFFFFFFFFFFFFFFFFFFFFFFFFFFFFFFFFFFFFFFFF AND PUSH20 0xFFFFFFFFFFFFFFFFFFFFFFFFFFFFFFFFFFFFFFFF AND PUSH20 0xFFFFFFFFFFFFFFFFFFFFFFFFFFFFFFFFFFFFFFFF AND DUP2 MSTORE PUSH1 0x20 ADD PUSH1 0x1 DUP3 ADD PUSH1 0x0 SWAP1 SLOAD SWAP1 PUSH2 0x100 EXP SWAP1 DIV PUSH20 0xFFFFFFFFFFFFFFFFFFFFFFFFFFFFFFFFFFFFFFFF AND PUSH20 0xFFFFFFFFFFFFFFFFFFFFFFFFFFFFFFFFFFFFFFFF AND PUSH20 0xFFFFFFFFFFFFFFFFFFFFFFFFFFFFFFFFFFFFFFFF AND DUP2 MSTORE PUSH1 0x20 ADD PUSH1 0x2 DUP3 ADD DUP1 SLOAD PUSH2 0x28DE SWAP1 PUSH2 0x6C81 JUMP JUMPDEST DUP1 PUSH1 0x1F ADD PUSH1 0x20 DUP1 SWAP2 DIV MUL PUSH1 0x20 ADD PUSH1 0x40 MLOAD SWAP1 DUP2 ADD PUSH1 0x40 MSTORE DUP1 SWAP3 SWAP2 SWAP1 DUP2 DUP2 MSTORE PUSH1 0x20 ADD DUP3 DUP1 SLOAD PUSH2 0x290A SWAP1 PUSH2 0x6C81 JUMP JUMPDEST DUP1 ISZERO PUSH2 0x2957 JUMPI DUP1 PUSH1 0x1F LT PUSH2 0x292C JUMPI PUSH2 0x100 DUP1 DUP4 SLOAD DIV MUL DUP4 MSTORE SWAP2 PUSH1 0x20 ADD SWAP2 PUSH2 0x2957 JUMP JUMPDEST DUP3 ADD SWAP2 SWAP1 PUSH1 0x0 MSTORE PUSH1 0x20 PUSH1 0x0 KECCAK256 SWAP1 JUMPDEST DUP2 SLOAD DUP2 MSTORE SWAP1 PUSH1 0x1 ADD SWAP1 PUSH1 0x20 ADD DUP1 DUP4 GT PUSH2 0x293A JUMPI DUP3 SWAP1 SUB PUSH1 0x1F AND DUP3 ADD SWAP2 JUMPDEST POP POP POP POP POP DUP2 MSTORE PUSH1 0x20 ADD PUSH1 0x3 DUP3 ADD DUP1 SLOAD PUSH2 0x2970 SWAP1 PUSH2 0x6C81 JUMP JUMPDEST DUP1 PUSH1 0x1F ADD PUSH1 0x20 DUP1 SWAP2 DIV MUL PUSH1 0x20 ADD PUSH1 0x40 MLOAD SWAP1 DUP2 ADD PUSH1 0x40 MSTORE DUP1 SWAP3 SWAP2 SWAP1 DUP2 DUP2 MSTORE PUSH1 0x20 ADD DUP3 DUP1 SLOAD PUSH2 0x299C SWAP1 PUSH2 0x6C81 JUMP JUMPDEST DUP1 ISZERO PUSH2 0x29E9 JUMPI DUP1 PUSH1 0x1F LT PUSH2 0x29BE JUMPI PUSH2 0x100 DUP1 DUP4 SLOAD DIV MUL DUP4 MSTORE SWAP2 PUSH1 0x20 ADD SWAP2 PUSH2 0x29E9 JUMP JUMPDEST DUP3 ADD SWAP2 SWAP1 PUSH1 0x0 MSTORE PUSH1 0x20 PUSH1 0x0 KECCAK256 SWAP1 JUMPDEST DUP2 SLOAD DUP2 MSTORE SWAP1 PUSH1 0x1 ADD SWAP1 PUSH1 0x20 ADD DUP1 DUP4 GT PUSH2 0x29CC JUMPI DUP3 SWAP1 SUB PUSH1 0x1F AND DUP3 ADD SWAP2 JUMPDEST POP POP POP POP POP DUP2 MSTORE PUSH1 0x20 ADD PUSH1 0x4 DUP3 ADD SLOAD DUP2 MSTORE PUSH1 0x20 ADD PUSH1 0x5 DUP3 ADD SLOAD DUP2 MSTORE PUSH1 0x20 ADD PUSH1 0x6 DUP3 ADD SLOAD DUP2 MSTORE PUSH1 0x20 ADD PUSH1 0x7 DUP3 ADD SLOAD DUP2 MSTORE PUSH1 0x20 ADD PUSH1 0x8 DUP3 ADD DUP1 SLOAD PUSH2 0x2A2A SWAP1 PUSH2 0x6C81 JUMP JUMPDEST DUP1 PUSH1 0x1F ADD PUSH1 0x20 DUP1 SWAP2 DIV MUL PUSH1 0x20 ADD PUSH1 0x40 MLOAD SWAP1 DUP2 ADD PUSH1 0x40 MSTORE DUP1 SWAP3 SWAP2 SWAP1 DUP2 DUP2 MSTORE PUSH1 0x20 ADD DUP3 DUP1 SLOAD PUSH2 0x2A56 SWAP1 PUSH2 0x6C81 JUMP JUMPDEST DUP1 ISZERO PUSH2 0x2AA3 JUMPI DUP1 PUSH1 0x1F LT PUSH2 0x2A78 JUMPI PUSH2 0x100 DUP1 DUP4 SLOAD DIV MUL DUP4 MSTORE SWAP2 PUSH1 0x20 ADD SWAP2 PUSH2 0x2AA3 JUMP JUMPDEST DUP3 ADD SWAP2 SWAP1 PUSH1 0x0 MSTORE PUSH1 0x20 PUSH1 0x0 KECCAK256 SWAP1 JUMPDEST DUP2 SLOAD DUP2 MSTORE SWAP1 PUSH1 0x1 ADD SWAP1 PUSH1 0x20 ADD DUP1 DUP4 GT PUSH2 0x2A86 JUMPI DUP3 SWAP1 SUB PUSH1 0x1F AND DUP3 ADD SWAP2 JUMPDEST POP POP POP POP POP DUP2 MSTORE PUSH1 0x20 ADD PUSH1 0x9 DUP3 ADD SLOAD DUP2 MSTORE POP POP SWAP4 POP DUP1 DUP1 PUSH2 0x2AC3 SWAP1 PUSH2 0x715A JUMP JUMPDEST SWAP2 POP POP PUSH2 0x27C4 JUMP JUMPDEST DUP4 DUP3 DUP3 DUP2 MLOAD DUP2 LT PUSH2 0x2ADF JUMPI PUSH2 0x2ADE PUSH2 0x6A0D JUMP JUMPDEST JUMPDEST PUSH1 0x20 MUL PUSH1 0x20 ADD ADD DUP2 SWAP1 MSTORE POP PUSH1 0x0 PUSH1 0x7 PUSH1 0x0 DUP7 PUSH1 0x0 ADD MLOAD PUSH20 0xFFFFFFFFFFFFFFFFFFFFFFFFFFFFFFFFFFFFFFFF AND PUSH20 0xFFFFFFFFFFFFFFFFFFFFFFFFFFFFFFFFFFFFFFFF AND DUP2 MSTORE PUSH1 0x20 ADD SWAP1 DUP2 MSTORE PUSH1 0x20 ADD PUSH1 0x0 KECCAK256 PUSH1 0x40 MLOAD DUP1 PUSH1 0xE0 ADD PUSH1 0x40 MSTORE SWAP1 DUP2 PUSH1 0x0 DUP3 ADD PUSH1 0x0 SWAP1 SLOAD SWAP1 PUSH2 0x100 EXP SWAP1 DIV PUSH20 0xFFFFFFFFFFFFFFFFFFFFFFFFFFFFFFFFFFFFFFFF AND PUSH20 0xFFFFFFFFFFFFFFFFFFFFFFFFFFFFFFFFFFFFFFFF AND PUSH20 0xFFFFFFFFFFFFFFFFFFFFFFFFFFFFFFFFFFFFFFFF AND DUP2 MSTORE PUSH1 0x20 ADD PUSH1 0x1 DUP3 ADD SLOAD DUP2 MSTORE PUSH1 0x20 ADD PUSH1 0x2 DUP3 ADD DUP1 SLOAD PUSH2 0x2BAA SWAP1 PUSH2 0x6C81 JUMP JUMPDEST DUP1 PUSH1 0x1F ADD PUSH1 0x20 DUP1 SWAP2 DIV MUL PUSH1 0x20 ADD PUSH1 0x40 MLOAD SWAP1 DUP2 ADD PUSH1 0x40 MSTORE DUP1 SWAP3 SWAP2 SWAP1 DUP2 DUP2 MSTORE PUSH1 0x20 ADD DUP3 DUP1 SLOAD PUSH2 0x2BD6 SWAP1 PUSH2 0x6C81 JUMP JUMPDEST DUP1 ISZERO PUSH2 0x2C23 JUMPI DUP1 PUSH1 0x1F LT PUSH2 0x2BF8 JUMPI PUSH2 0x100 DUP1 DUP4 SLOAD DIV MUL DUP4 MSTORE SWAP2 PUSH1 0x20 ADD SWAP2 PUSH2 0x2C23 JUMP JUMPDEST DUP3 ADD SWAP2 SWAP1 PUSH1 0x0 MSTORE PUSH1 0x20 PUSH1 0x0 KECCAK256 SWAP1 JUMPDEST DUP2 SLOAD DUP2 MSTORE SWAP1 PUSH1 0x1 ADD SWAP1 PUSH1 0x20 ADD DUP1 DUP4 GT PUSH2 0x2C06 JUMPI DUP3 SWAP1 SUB PUSH1 0x1F AND DUP3 ADD SWAP2 JUMPDEST POP POP POP POP POP DUP2 MSTORE PUSH1 0x20 ADD PUSH1 0x3 DUP3 ADD DUP1 SLOAD PUSH2 0x2C3C SWAP1 PUSH2 0x6C81 JUMP JUMPDEST DUP1 PUSH1 0x1F ADD PUSH1 0x20 DUP1 SWAP2 DIV MUL PUSH1 0x20 ADD PUSH1 0x40 MLOAD SWAP1 DUP2 ADD PUSH1 0x40 MSTORE DUP1 SWAP3 SWAP2 SWAP1 DUP2 DUP2 MSTORE PUSH1 0x20 ADD DUP3 DUP1 SLOAD PUSH2 0x2C68 SWAP1 PUSH2 0x6C81 JUMP JUMPDEST DUP1 ISZERO PUSH2 0x2CB5 JUMPI DUP1 PUSH1 0x1F LT PUSH2 0x2C8A JUMPI PUSH2 0x100 DUP1 DUP4 SLOAD DIV MUL DUP4 MSTORE SWAP2 PUSH1 0x20 ADD SWAP2 PUSH2 0x2CB5 JUMP JUMPDEST DUP3 ADD SWAP2 SWAP1 PUSH1 0x0 MSTORE PUSH1 0x20 PUSH1 0x0 KECCAK256 SWAP1 JUMPDEST DUP2 SLOAD DUP2 MSTORE SWAP1 PUSH1 0x1 ADD SWAP1 PUSH1 0x20 ADD DUP1 DUP4 GT PUSH2 0x2C98 JUMPI DUP3 SWAP1 SUB PUSH1 0x1F AND DUP3 ADD SWAP2 JUMPDEST POP POP POP POP POP DUP2 MSTORE PUSH1 0x20 ADD PUSH1 0x4 DUP3 ADD DUP1 SLOAD PUSH2 0x2CCE SWAP1 PUSH2 0x6C81 JUMP JUMPDEST DUP1 PUSH1 0x1F ADD PUSH1 0x20 DUP1 SWAP2 DIV MUL PUSH1 0x20 ADD PUSH1 0x40 MLOAD SWAP1 DUP2 ADD PUSH1 0x40 MSTORE DUP1 SWAP3 SWAP2 SWAP1 DUP2 DUP2 MSTORE PUSH1 0x20 ADD DUP3 DUP1 SLOAD PUSH2 0x2CFA SWAP1 PUSH2 0x6C81 JUMP JUMPDEST DUP1 ISZERO PUSH2 0x2D47 JUMPI DUP1 PUSH1 0x1F LT PUSH2 0x2D1C JUMPI PUSH2 0x100 DUP1 DUP4 SLOAD DIV MUL DUP4 MSTORE SWAP2 PUSH1 0x20 ADD SWAP2 PUSH2 0x2D47 JUMP JUMPDEST DUP3 ADD SWAP2 SWAP1 PUSH1 0x0 MSTORE PUSH1 0x20 PUSH1 0x0 KECCAK256 SWAP1 JUMPDEST DUP2 SLOAD DUP2 MSTORE SWAP1 PUSH1 0x1 ADD SWAP1 PUSH1 0x20 ADD DUP1 DUP4 GT PUSH2 0x2D2A JUMPI DUP3 SWAP1 SUB PUSH1 0x1F AND DUP3 ADD SWAP2 JUMPDEST POP POP POP POP POP DUP2 MSTORE PUSH1 0x20 ADD PUSH1 0x5 DUP3 ADD DUP1 SLOAD PUSH2 0x2D60 SWAP1 PUSH2 0x6C81 JUMP JUMPDEST DUP1 PUSH1 0x1F ADD PUSH1 0x20 DUP1 SWAP2 DIV MUL PUSH1 0x20 ADD PUSH1 0x40 MLOAD SWAP1 DUP2 ADD PUSH1 0x40 MSTORE DUP1 SWAP3 SWAP2 SWAP1 DUP2 DUP2 MSTORE PUSH1 0x20 ADD DUP3 DUP1 SLOAD PUSH2 0x2D8C SWAP1 PUSH2 0x6C81 JUMP JUMPDEST DUP1 ISZERO PUSH2 0x2DD9 JUMPI DUP1 PUSH1 0x1F LT PUSH2 0x2DAE JUMPI PUSH2 0x100 DUP1 DUP4 SLOAD DIV MUL DUP4 MSTORE SWAP2 PUSH1 0x20 ADD SWAP2 PUSH2 0x2DD9 JUMP JUMPDEST DUP3 ADD SWAP2 SWAP1 PUSH1 0x0 MSTORE PUSH1 0x20 PUSH1 0x0 KECCAK256 SWAP1 JUMPDEST DUP2 SLOAD DUP2 MSTORE SWAP1 PUSH1 0x1 ADD SWAP1 PUSH1 0x20 ADD DUP1 DUP4 GT PUSH2 0x2DBC JUMPI DUP3 SWAP1 SUB PUSH1 0x1F AND DUP3 ADD SWAP2 JUMPDEST POP POP POP POP POP DUP2 MSTORE PUSH1 0x20 ADD PUSH1 0x6 DUP3 ADD DUP1 SLOAD PUSH2 0x2DF2 SWAP1 PUSH2 0x6C81 JUMP JUMPDEST DUP1 PUSH1 0x1F ADD PUSH1 0x20 DUP1 SWAP2 DIV MUL PUSH1 0x20 ADD PUSH1 0x40 MLOAD SWAP1 DUP2 ADD PUSH1 0x40 MSTORE DUP1 SWAP3 SWAP2 SWAP1 DUP2 DUP2 MSTORE PUSH1 0x20 ADD DUP3 DUP1 SLOAD PUSH2 0x2E1E SWAP1 PUSH2 0x6C81 JUMP JUMPDEST DUP1 ISZERO PUSH2 0x2E6B JUMPI DUP1 PUSH1 0x1F LT PUSH2 0x2E40 JUMPI PUSH2 0x100 DUP1 DUP4 SLOAD DIV MUL DUP4 MSTORE SWAP2 PUSH1 0x20 ADD SWAP2 PUSH2 0x2E6B JUMP JUMPDEST DUP3 ADD SWAP2 SWAP1 PUSH1 0x0 MSTORE PUSH1 0x20 PUSH1 0x0 KECCAK256 SWAP1 JUMPDEST DUP2 SLOAD DUP2 MSTORE SWAP1 PUSH1 0x1 ADD SWAP1 PUSH1 0x20 ADD DUP1 DUP4 GT PUSH2 0x2E4E JUMPI DUP3 SWAP1 SUB PUSH1 0x1F AND DUP3 ADD SWAP2 JUMPDEST POP POP POP POP POP DUP2 MSTORE POP POP SWAP1 POP DUP3 DUP2 PUSH1 0xA0 ADD MLOAD DUP3 PUSH1 0x40 ADD MLOAD DUP4 PUSH1 0x60 ADD MLOAD SWAP10 POP SWAP10 POP SWAP10 POP SWAP10 POP POP POP POP POP POP POP SWAP2 SWAP4 POP SWAP2 SWAP4 JUMP JUMPDEST PUSH1 0x0 NUMBER PUSH1 0x4 SLOAD LT PUSH2 0x2EAB JUMPI PUSH1 0x0 DUP1 REVERT JUMPDEST NUMBER PUSH1 0x4 DUP2 SWAP1 SSTORE POP PUSH1 0x0 PUSH1 0x5 PUSH1 0x0 DUP7 DUP2 MSTORE PUSH1 0x20 ADD SWAP1 DUP2 MSTORE PUSH1 0x20 ADD PUSH1 0x0 KECCAK256 SWAP1 POP PUSH1 0x0 DUP4 DUP6 PUSH1 0x40 MLOAD PUSH1 0x20 ADD PUSH2 0x2EDE SWAP3 SWAP2 SWAP1 PUSH2 0x7258 JUMP JUMPDEST PUSH1 0x40 MLOAD PUSH1 0x20 DUP2 DUP4 SUB SUB DUP2 MSTORE SWAP1 PUSH1 0x40 MSTORE SWAP1 POP DUP2 PUSH1 0x6 ADD SLOAD PUSH1 0x2 DUP3 PUSH1 0x40 MLOAD PUSH2 0x2F04 SWAP2 SWAP1 PUSH2 0x7281 JUMP JUMPDEST PUSH1 0x20 PUSH1 0x40 MLOAD DUP1 DUP4 SUB DUP2 DUP6 GAS STATICCALL ISZERO DUP1 ISZERO PUSH2 0x2F21 JUMPI RETURNDATASIZE PUSH1 0x0 DUP1 RETURNDATACOPY RETURNDATASIZE PUSH1 0x0 REVERT JUMPDEST POP POP POP PUSH1 0x40 MLOAD RETURNDATASIZE PUSH1 0x1F NOT PUSH1 0x1F DUP3 ADD AND DUP3 ADD DUP1 PUSH1 0x40 MSTORE POP DUP2 ADD SWAP1 PUSH2 0x2F44 SWAP2 SWAP1 PUSH2 0x72AD JUMP JUMPDEST EQ PUSH2 0x2F84 JUMPI PUSH1 0x40 MLOAD PUSH32 0x8C379A000000000000000000000000000000000000000000000000000000000 DUP2 MSTORE PUSH1 0x4 ADD PUSH2 0x2F7B SWAP1 PUSH2 0x734C JUMP JUMPDEST PUSH1 0x40 MLOAD DUP1 SWAP2 SUB SWAP1 REVERT JUMPDEST DUP7 DUP3 PUSH1 0x1 ADD PUSH1 0x0 PUSH2 0x100 EXP DUP2 SLOAD DUP2 PUSH20 0xFFFFFFFFFFFFFFFFFFFFFFFFFFFFFFFFFFFFFFFF MUL NOT AND SWAP1 DUP4 PUSH20 0xFFFFFFFFFFFFFFFFFFFFFFFFFFFFFFFFFFFFFFFF AND MUL OR SWAP1 SSTORE POP DUP6 SWAP3 POP POP POP SWAP5 SWAP4 POP POP POP POP JUMP JUMPDEST PUSH1 0x7 PUSH1 0x20 MSTORE DUP1 PUSH1 0x0 MSTORE PUSH1 0x40 PUSH1 0x0 KECCAK256 PUSH1 0x0 SWAP2 POP SWAP1 POP DUP1 PUSH1 0x0 ADD PUSH1 0x0 SWAP1 SLOAD SWAP1 PUSH2 0x100 EXP SWAP1 DIV PUSH20 0xFFFFFFFFFFFFFFFFFFFFFFFFFFFFFFFFFFFFFFFF AND SWAP1 DUP1 PUSH1 0x1 ADD SLOAD SWAP1 DUP1 PUSH1 0x2 ADD DUP1 SLOAD PUSH2 0x3023 SWAP1 PUSH2 0x6C81 JUMP JUMPDEST DUP1 PUSH1 0x1F ADD PUSH1 0x20 DUP1 SWAP2 DIV MUL PUSH1 0x20 ADD PUSH1 0x40 MLOAD SWAP1 DUP2 ADD PUSH1 0x40 MSTORE DUP1 SWAP3 SWAP2 SWAP1 DUP2 DUP2 MSTORE PUSH1 0x20 ADD DUP3 DUP1 SLOAD PUSH2 0x304F SWAP1 PUSH2 0x6C81 JUMP JUMPDEST DUP1 ISZERO PUSH2 0x309C JUMPI DUP1 PUSH1 0x1F LT PUSH2 0x3071 JUMPI PUSH2 0x100 DUP1 DUP4 SLOAD DIV MUL DUP4 MSTORE SWAP2 PUSH1 0x20 ADD SWAP2 PUSH2 0x309C JUMP JUMPDEST DUP3 ADD SWAP2 SWAP1 PUSH1 0x0 MSTORE PUSH1 0x20 PUSH1 0x0 KECCAK256 SWAP1 JUMPDEST DUP2 SLOAD DUP2 MSTORE SWAP1 PUSH1 0x1 ADD SWAP1 PUSH1 0x20 ADD DUP1 DUP4 GT PUSH2 0x307F JUMPI DUP3 SWAP1 SUB PUSH1 0x1F AND DUP3 ADD SWAP2 JUMPDEST POP POP POP POP POP SWAP1 DUP1 PUSH1 0x3 ADD DUP1 SLOAD PUSH2 0x30B1 SWAP1 PUSH2 0x6C81 JUMP JUMPDEST DUP1 PUSH1 0x1F ADD PUSH1 0x20 DUP1 SWAP2 DIV MUL PUSH1 0x20 ADD PUSH1 0x40 MLOAD SWAP1 DUP2 ADD PUSH1 0x40 MSTORE DUP1 SWAP3 SWAP2 SWAP1 DUP2 DUP2 MSTORE PUSH1 0x20 ADD DUP3 DUP1 SLOAD PUSH2 0x30DD SWAP1 PUSH2 0x6C81 JUMP JUMPDEST DUP1 ISZERO PUSH2 0x312A JUMPI DUP1 PUSH1 0x1F LT PUSH2 0x30FF JUMPI PUSH2 0x100 DUP1 DUP4 SLOAD DIV MUL DUP4 MSTORE SWAP2 PUSH1 0x20 ADD SWAP2 PUSH2 0x312A JUMP JUMPDEST DUP3 ADD SWAP2 SWAP1 PUSH1 0x0 MSTORE PUSH1 0x20 PUSH1 0x0 KECCAK256 SWAP1 JUMPDEST DUP2 SLOAD DUP2 MSTORE SWAP1 PUSH1 0x1 ADD SWAP1 PUSH1 0x20 ADD DUP1 DUP4 GT PUSH2 0x310D JUMPI DUP3 SWAP1 SUB PUSH1 0x1F AND DUP3 ADD SWAP2 JUMPDEST POP POP POP POP POP SWAP1 DUP1 PUSH1 0x4 ADD DUP1 SLOAD PUSH2 0x313F SWAP1 PUSH2 0x6C81 JUMP JUMPDEST DUP1 PUSH1 0x1F ADD PUSH1 0x20 DUP1 SWAP2 DIV MUL PUSH1 0x20 ADD PUSH1 0x40 MLOAD SWAP1 DUP2 ADD PUSH1 0x40 MSTORE DUP1 SWAP3 SWAP2 SWAP1 DUP2 DUP2 MSTORE PUSH1 0x20 ADD DUP3 DUP1 SLOAD PUSH2 0x316B SWAP1 PUSH2 0x6C81 JUMP JUMPDEST DUP1 ISZERO PUSH2 0x31B8 JUMPI DUP1 PUSH1 0x1F LT PUSH2 0x318D JUMPI PUSH2 0x100 DUP1 DUP4 SLOAD DIV MUL DUP4 MSTORE SWAP2 PUSH1 0x20 ADD SWAP2 PUSH2 0x31B8 JUMP JUMPDEST DUP3 ADD SWAP2 SWAP1 PUSH1 0x0 MSTORE PUSH1 0x20 PUSH1 0x0 KECCAK256 SWAP1 JUMPDEST DUP2 SLOAD DUP2 MSTORE SWAP1 PUSH1 0x1 ADD SWAP1 PUSH1 0x20 ADD DUP1 DUP4 GT PUSH2 0x319B JUMPI DUP3 SWAP1 SUB PUSH1 0x1F AND DUP3 ADD SWAP2 JUMPDEST POP POP POP POP POP SWAP1 DUP1 PUSH1 0x5 ADD DUP1 SLOAD PUSH2 0x31CD SWAP1 PUSH2 0x6C81 JUMP JUMPDEST DUP1 PUSH1 0x1F ADD PUSH1 0x20 DUP1 SWAP2 DIV MUL PUSH1 0x20 ADD PUSH1 0x40 MLOAD SWAP1 DUP2 ADD PUSH1 0x40 MSTORE DUP1 SWAP3 SWAP2 SWAP1 DUP2 DUP2 MSTORE PUSH1 0x20 ADD DUP3 DUP1 SLOAD PUSH2 0x31F9 SWAP1 PUSH2 0x6C81 JUMP JUMPDEST DUP1 ISZERO PUSH2 0x3246 JUMPI DUP1 PUSH1 0x1F LT PUSH2 0x321B JUMPI PUSH2 0x100 DUP1 DUP4 SLOAD DIV MUL DUP4 MSTORE SWAP2 PUSH1 0x20 ADD SWAP2 PUSH2 0x3246 JUMP JUMPDEST DUP3 ADD SWAP2 SWAP1 PUSH1 0x0 MSTORE PUSH1 0x20 PUSH1 0x0 KECCAK256 SWAP1 JUMPDEST DUP2 SLOAD DUP2 MSTORE SWAP1 PUSH1 0x1 ADD SWAP1 PUSH1 0x20 ADD DUP1 DUP4 GT PUSH2 0x3229 JUMPI DUP3 SWAP1 SUB PUSH1 0x1F AND DUP3 ADD SWAP2 JUMPDEST POP POP POP POP POP SWAP1 DUP1 PUSH1 0x6 ADD DUP1 SLOAD PUSH2 0x325B SWAP1 PUSH2 0x6C81 JUMP JUMPDEST DUP1 PUSH1 0x1F ADD PUSH1 0x20 DUP1 SWAP2 DIV MUL PUSH1 0x20 ADD PUSH1 0x40 MLOAD SWAP1 DUP2 ADD PUSH1 0x40 MSTORE DUP1 SWAP3 SWAP2 SWAP1 DUP2 DUP2 MSTORE PUSH1 0x20 ADD DUP3 DUP1 SLOAD PUSH2 0x3287 SWAP1 PUSH2 0x6C81 JUMP JUMPDEST DUP1 ISZERO PUSH2 0x32D4 JUMPI DUP1 PUSH1 0x1F LT PUSH2 0x32A9 JUMPI PUSH2 0x100 DUP1 DUP4 SLOAD DIV MUL DUP4 MSTORE SWAP2 PUSH1 0x20 ADD SWAP2 PUSH2 0x32D4 JUMP JUMPDEST DUP3 ADD SWAP2 SWAP1 PUSH1 0x0 MSTORE PUSH1 0x20 PUSH1 0x0 KECCAK256 SWAP1 JUMPDEST DUP2 SLOAD DUP2 MSTORE SWAP1 PUSH1 0x1 ADD SWAP1 PUSH1 0x20 ADD DUP1 DUP4 GT PUSH2 0x32B7 JUMPI DUP3 SWAP1 SUB PUSH1 0x1F AND DUP3 ADD SWAP2 JUMPDEST POP POP POP POP POP SWAP1 POP DUP8 JUMP JUMPDEST PUSH1 0x8 PUSH1 0x20 MSTORE DUP1 PUSH1 0x0 MSTORE PUSH1 0x40 PUSH1 0x0 KECCAK256 PUSH1 0x0 SWAP2 POP SWAP1 POP SLOAD DUP2 JUMP JUMPDEST PUSH1 0x0 NUMBER PUSH1 0x4 SLOAD LT PUSH2 0x3306 JUMPI PUSH1 0x0 DUP1 REVERT JUMPDEST NUMBER PUSH1 0x4 DUP2 SWAP1 SSTORE POP PUSH2 0x334B PUSH1 0x40 MLOAD DUP1 PUSH1 0x40 ADD PUSH1 0x40 MSTORE DUP1 PUSH1 0x7 DUP2 MSTORE PUSH1 0x20 ADD PUSH32 0x4661726D65723A00000000000000000000000000000000000000000000000000 DUP2 MSTORE POP PUSH2 0x49EC JUMP JUMPDEST PUSH2 0x3373 DUP7 PUSH1 0x40 MLOAD PUSH1 0x20 ADD PUSH2 0x335F SWAP2 SWAP1 PUSH2 0x73B4 JUMP JUMPDEST PUSH1 0x40 MLOAD PUSH1 0x20 DUP2 DUP4 SUB SUB DUP2 MSTORE SWAP1 PUSH1 0x40 MSTORE PUSH2 0x4A85 JUMP JUMPDEST PUSH2 0x33B1 PUSH1 0x40 MLOAD DUP1 PUSH1 0x40 ADD PUSH1 0x40 MSTORE DUP1 PUSH1 0x4 DUP2 MSTORE PUSH1 0x20 ADD PUSH32 0x5069643A00000000000000000000000000000000000000000000000000000000 DUP2 MSTORE POP PUSH2 0x49EC JUMP JUMPDEST PUSH2 0x33D9 DUP6 PUSH1 0x40 MLOAD PUSH1 0x20 ADD PUSH2 0x33C5 SWAP2 SWAP1 PUSH2 0x73CF JUMP JUMPDEST PUSH1 0x40 MLOAD PUSH1 0x20 DUP2 DUP4 SUB SUB DUP2 MSTORE SWAP1 PUSH1 0x40 MSTORE PUSH2 0x4A85 JUMP JUMPDEST PUSH1 0x0 PUSH1 0x5 PUSH1 0x0 DUP8 DUP2 MSTORE PUSH1 0x20 ADD SWAP1 DUP2 MSTORE PUSH1 0x20 ADD PUSH1 0x0 KECCAK256 SWAP1 POP PUSH2 0x349D PUSH2 0x3488 DUP3 PUSH1 0x3 ADD DUP1 SLOAD PUSH2 0x3405 SWAP1 PUSH2 0x6C81 JUMP JUMPDEST DUP1 PUSH1 0x1F ADD PUSH1 0x20 DUP1 SWAP2 DIV MUL PUSH1 0x20 ADD PUSH1 0x40 MLOAD SWAP1 DUP2 ADD PUSH1 0x40 MSTORE DUP1 SWAP3 SWAP2 SWAP1 DUP2 DUP2 MSTORE PUSH1 0x20 ADD DUP3 DUP1 SLOAD PUSH2 0x3431 SWAP1 PUSH2 0x6C81 JUMP JUMPDEST DUP1 ISZERO PUSH2 0x347E JUMPI DUP1 PUSH1 0x1F LT PUSH2 0x3453 JUMPI PUSH2 0x100 DUP1 DUP4 SLOAD DIV MUL DUP4 MSTORE SWAP2 PUSH1 0x20 ADD SWAP2 PUSH2 0x347E JUMP JUMPDEST DUP3 ADD SWAP2 SWAP1 PUSH1 0x0 MSTORE PUSH1 0x20 PUSH1 0x0 KECCAK256 SWAP1 JUMPDEST DUP2 SLOAD DUP2 MSTORE SWAP1 PUSH1 0x1 ADD SWAP1 PUSH1 0x20 ADD DUP1 DUP4 GT PUSH2 0x3461 JUMPI DUP3 SWAP1 SUB PUSH1 0x1F AND DUP3 ADD SWAP2 JUMPDEST POP POP POP POP POP PUSH2 0x4B1E JUMP JUMPDEST PUSH1 0x40 MLOAD DUP1 PUSH1 0x20 ADD PUSH1 0x40 MSTORE DUP1 PUSH1 0x0 DUP2 MSTORE POP PUSH2 0x4719 JUMP JUMPDEST PUSH2 0x42E7 JUMPI DUP7 PUSH20 0xFFFFFFFFFFFFFFFFFFFFFFFFFFFFFFFFFFFFFFFF AND DUP2 PUSH1 0x1 ADD PUSH1 0x0 SWAP1 SLOAD SWAP1 PUSH2 0x100 EXP SWAP1 DIV PUSH20 0xFFFFFFFFFFFFFFFFFFFFFFFFFFFFFFFFFFFFFFFF AND PUSH20 0xFFFFFFFFFFFFFFFFFFFFFFFFFFFFFFFFFFFFFFFF AND EQ PUSH2 0x3533 JUMPI PUSH1 0x40 MLOAD PUSH32 0x8C379A000000000000000000000000000000000000000000000000000000000 DUP2 MSTORE PUSH1 0x4 ADD PUSH2 0x352A SWAP1 PUSH2 0x7436 JUMP JUMPDEST PUSH1 0x40 MLOAD DUP1 SWAP2 SUB SWAP1 REVERT JUMPDEST PUSH1 0x0 PUSH1 0x2 DUP7 PUSH1 0x40 MLOAD PUSH2 0x3545 SWAP2 SWAP1 PUSH2 0x7281 JUMP JUMPDEST PUSH1 0x20 PUSH1 0x40 MLOAD DUP1 DUP4 SUB DUP2 DUP6 GAS STATICCALL ISZERO DUP1 ISZERO PUSH2 0x3562 JUMPI RETURNDATASIZE PUSH1 0x0 DUP1 RETURNDATACOPY RETURNDATASIZE PUSH1 0x0 REVERT JUMPDEST POP POP POP PUSH1 0x40 MLOAD RETURNDATASIZE PUSH1 0x1F NOT PUSH1 0x1F DUP3 ADD AND DUP3 ADD DUP1 PUSH1 0x40 MSTORE POP DUP2 ADD SWAP1 PUSH2 0x3585 SWAP2 SWAP1 PUSH2 0x72AD JUMP JUMPDEST SWAP1 POP PUSH1 0x0 PUSH1 0x2 PUSH32 0x4271455448000000000000000000000000000000000000000000000000000000 DUP9 PUSH1 0x40 MLOAD PUSH1 0x20 ADD PUSH2 0x35BE SWAP3 SWAP2 SWAP1 PUSH2 0x7477 JUMP JUMPDEST PUSH1 0x40 MLOAD PUSH1 0x20 DUP2 DUP4 SUB SUB DUP2 MSTORE SWAP1 PUSH1 0x40 MSTORE PUSH1 0x40 MLOAD PUSH2 0x35DA SWAP2 SWAP1 PUSH2 0x7281 JUMP JUMPDEST PUSH1 0x20 PUSH1 0x40 MLOAD DUP1 DUP4 SUB DUP2 DUP6 GAS STATICCALL ISZERO DUP1 ISZERO PUSH2 0x35F7 JUMPI RETURNDATASIZE PUSH1 0x0 DUP1 RETURNDATACOPY RETURNDATASIZE PUSH1 0x0 REVERT JUMPDEST POP POP POP PUSH1 0x40 MLOAD RETURNDATASIZE PUSH1 0x1F NOT PUSH1 0x1F DUP3 ADD AND DUP3 ADD DUP1 PUSH1 0x40 MSTORE POP DUP2 ADD SWAP1 PUSH2 0x361A SWAP2 SWAP1 PUSH2 0x72AD JUMP JUMPDEST SWAP1 POP PUSH2 0x365A PUSH1 0x40 MLOAD DUP1 PUSH1 0x40 ADD PUSH1 0x40 MSTORE DUP1 PUSH1 0x3 DUP2 MSTORE PUSH1 0x20 ADD PUSH32 0x48313A0000000000000000000000000000000000000000000000000000000000 DUP2 MSTORE POP PUSH2 0x49EC JUMP JUMPDEST PUSH2 0x3682 DUP3 PUSH1 0x40 MLOAD PUSH1 0x20 ADD PUSH2 0x366E SWAP2 SWAP1 PUSH2 0x749F JUMP JUMPDEST PUSH1 0x40 MLOAD PUSH1 0x20 DUP2 DUP4 SUB SUB DUP2 MSTORE SWAP1 PUSH1 0x40 MSTORE PUSH2 0x4A85 JUMP JUMPDEST PUSH2 0x36C0 PUSH1 0x40 MLOAD DUP1 PUSH1 0x40 ADD PUSH1 0x40 MSTORE DUP1 PUSH1 0x3 DUP2 MSTORE PUSH1 0x20 ADD PUSH32 0x58323A0000000000000000000000000000000000000000000000000000000000 DUP2 MSTORE POP PUSH2 0x49EC JUMP JUMPDEST PUSH2 0x36E8 DUP2 PUSH1 0x40 MLOAD PUSH1 0x20 ADD PUSH2 0x36D4 SWAP2 SWAP1 PUSH2 0x749F JUMP JUMPDEST PUSH1 0x40 MLOAD PUSH1 0x20 DUP2 DUP4 SUB SUB DUP2 MSTORE SWAP1 PUSH1 0x40 MSTORE PUSH2 0x4A85 JUMP JUMPDEST DUP3 PUSH1 0x6 ADD SLOAD PUSH1 0x2 DUP3 DUP5 PUSH1 0x40 MLOAD PUSH1 0x20 ADD PUSH2 0x3702 SWAP3 SWAP2 SWAP1 PUSH2 0x7258 JUMP JUMPDEST PUSH1 0x40 MLOAD PUSH1 0x20 DUP2 DUP4 SUB SUB DUP2 MSTORE SWAP1 PUSH1 0x40 MSTORE PUSH1 0x40 MLOAD PUSH2 0x371E SWAP2 SWAP1 PUSH2 0x7281 JUMP JUMPDEST PUSH1 0x20 PUSH1 0x40 MLOAD DUP1 DUP4 SUB DUP2 DUP6 GAS STATICCALL ISZERO DUP1 ISZERO PUSH2 0x373B JUMPI RETURNDATASIZE PUSH1 0x0 DUP1 RETURNDATACOPY RETURNDATASIZE PUSH1 0x0 REVERT JUMPDEST POP POP POP PUSH1 0x40 MLOAD RETURNDATASIZE PUSH1 0x1F NOT PUSH1 0x1F DUP3 ADD AND DUP3 ADD DUP1 PUSH1 0x40 MSTORE POP DUP2 ADD SWAP1 PUSH2 0x375E SWAP2 SWAP1 PUSH2 0x72AD JUMP JUMPDEST EQ PUSH2 0x379E JUMPI PUSH1 0x40 MLOAD PUSH32 0x8C379A000000000000000000000000000000000000000000000000000000000 DUP2 MSTORE PUSH1 0x4 ADD PUSH2 0x3795 SWAP1 PUSH2 0x7506 JUMP JUMPDEST PUSH1 0x40 MLOAD DUP1 SWAP2 SUB SWAP1 REVERT JUMPDEST PUSH1 0x0 PUSH1 0x1 PUSH2 0x37AF DUP6 PUSH1 0x4 ADD SLOAD PUSH2 0x1C88 JUMP JUMPDEST PUSH2 0x37B9 SWAP2 SWAP1 PUSH2 0x7526 JUMP JUMPDEST PUSH1 0xFF AND SWAP1 POP PUSH2 0x37FC PUSH1 0x40 MLOAD DUP1 PUSH1 0x40 ADD PUSH1 0x40 MSTORE DUP1 PUSH1 0x2 DUP2 MSTORE PUSH1 0x20 ADD PUSH32 0x4E3A000000000000000000000000000000000000000000000000000000000000 DUP2 MSTORE POP PUSH2 0x49EC JUMP JUMPDEST PUSH2 0x3827 DUP5 PUSH1 0x2 ADD PUSH1 0x40 MLOAD PUSH1 0x20 ADD PUSH2 0x3813 SWAP2 SWAP1 PUSH2 0x75DE JUMP JUMPDEST PUSH1 0x40 MLOAD PUSH1 0x20 DUP2 DUP4 SUB SUB DUP2 MSTORE SWAP1 PUSH1 0x40 MSTORE PUSH2 0x4A85 JUMP JUMPDEST PUSH2 0x3865 PUSH1 0x40 MLOAD DUP1 PUSH1 0x40 ADD PUSH1 0x40 MSTORE DUP1 PUSH1 0x2 DUP2 MSTORE PUSH1 0x20 ADD PUSH32 0x783A000000000000000000000000000000000000000000000000000000000000 DUP2 MSTORE POP PUSH2 0x49EC JUMP JUMPDEST PUSH2 0x3890 DUP5 PUSH1 0x3 ADD PUSH1 0x40 MLOAD PUSH1 0x20 ADD PUSH2 0x387C SWAP2 SWAP1 PUSH2 0x75DE JUMP JUMPDEST PUSH1 0x40 MLOAD PUSH1 0x20 DUP2 DUP4 SUB SUB DUP2 MSTORE SWAP1 PUSH1 0x40 MSTORE PUSH2 0x4A85 JUMP JUMPDEST PUSH2 0x38CE PUSH1 0x40 MLOAD DUP1 PUSH1 0x40 ADD PUSH1 0x40 MSTORE DUP1 PUSH1 0x2 DUP2 MSTORE PUSH1 0x20 ADD PUSH32 0x643A000000000000000000000000000000000000000000000000000000000000 DUP2 MSTORE POP PUSH2 0x49EC JUMP JUMPDEST PUSH2 0x38F6 DUP2 PUSH1 0x40 MLOAD PUSH1 0x20 ADD PUSH2 0x38E2 SWAP2 SWAP1 PUSH2 0x73CF JUMP JUMPDEST PUSH1 0x40 MLOAD PUSH1 0x20 DUP2 DUP4 SUB SUB DUP2 MSTORE SWAP1 PUSH1 0x40 MSTORE PUSH2 0x4A85 JUMP JUMPDEST PUSH2 0x3934 PUSH1 0x40 MLOAD DUP1 PUSH1 0x40 ADD PUSH1 0x40 MSTORE DUP1 PUSH1 0x3 DUP2 MSTORE PUSH1 0x20 ADD PUSH32 0x5F793A0000000000000000000000000000000000000000000000000000000000 DUP2 MSTORE POP PUSH2 0x49EC JUMP JUMPDEST PUSH2 0x395C DUP9 PUSH1 0x40 MLOAD PUSH1 0x20 ADD PUSH2 0x3948 SWAP2 SWAP1 PUSH2 0x7281 JUMP JUMPDEST PUSH1 0x40 MLOAD PUSH1 0x20 DUP2 DUP4 SUB SUB DUP2 MSTORE SWAP1 PUSH1 0x40 MSTORE PUSH2 0x4A85 JUMP JUMPDEST PUSH1 0x0 JUMPDEST DUP8 DUP8 SWAP1 POP DUP2 LT ISZERO PUSH2 0x3A09 JUMPI PUSH2 0x39A9 PUSH1 0x40 MLOAD DUP1 PUSH1 0x40 ADD PUSH1 0x40 MSTORE DUP1 PUSH1 0x8 DUP2 MSTORE PUSH1 0x20 ADD PUSH32 0x50726F6F66202564000000000000000000000000000000000000000000000000 DUP2 MSTORE POP DUP3 PUSH2 0x479E JUMP JUMPDEST PUSH2 0x39F6 DUP9 DUP9 DUP4 DUP2 DUP2 LT PUSH2 0x39BF JUMPI PUSH2 0x39BE PUSH2 0x6A0D JUMP JUMPDEST JUMPDEST SWAP1 POP PUSH1 0x20 MUL DUP2 ADD SWAP1 PUSH2 0x39D1 SWAP2 SWAP1 PUSH2 0x7604 JUMP JUMPDEST PUSH1 0x40 MLOAD PUSH1 0x20 ADD PUSH2 0x39E2 SWAP3 SWAP2 SWAP1 PUSH2 0x7694 JUMP JUMPDEST PUSH1 0x40 MLOAD PUSH1 0x20 DUP2 DUP4 SUB SUB DUP2 MSTORE SWAP1 PUSH1 0x40 MSTORE PUSH2 0x4A85 JUMP JUMPDEST DUP1 DUP1 PUSH2 0x3A01 SWAP1 PUSH2 0x715A JUMP JUMPDEST SWAP2 POP POP PUSH2 0x395F JUMP JUMPDEST POP PUSH2 0x3B3D DUP5 PUSH1 0x2 ADD DUP1 SLOAD PUSH2 0x3A1C SWAP1 PUSH2 0x6C81 JUMP JUMPDEST DUP1 PUSH1 0x1F ADD PUSH1 0x20 DUP1 SWAP2 DIV MUL PUSH1 0x20 ADD PUSH1 0x40 MLOAD SWAP1 DUP2 ADD PUSH1 0x40 MSTORE DUP1 SWAP3 SWAP2 SWAP1 DUP2 DUP2 MSTORE PUSH1 0x20 ADD DUP3 DUP1 SLOAD PUSH2 0x3A48 SWAP1 PUSH2 0x6C81 JUMP JUMPDEST DUP1 ISZERO PUSH2 0x3A95 JUMPI DUP1 PUSH1 0x1F LT PUSH2 0x3A6A JUMPI PUSH2 0x100 DUP1 DUP4 SLOAD DIV MUL DUP4 MSTORE SWAP2 PUSH1 0x20 ADD SWAP2 PUSH2 0x3A95 JUMP JUMPDEST DUP3 ADD SWAP2 SWAP1 PUSH1 0x0 MSTORE PUSH1 0x20 PUSH1 0x0 KECCAK256 SWAP1 JUMPDEST DUP2 SLOAD DUP2 MSTORE SWAP1 PUSH1 0x1 ADD SWAP1 PUSH1 0x20 ADD DUP1 DUP4 GT PUSH2 0x3A78 JUMPI DUP3 SWAP1 SUB PUSH1 0x1F AND DUP3 ADD SWAP2 JUMPDEST POP POP POP POP POP DUP6 PUSH1 0x3 ADD DUP1 SLOAD PUSH2 0x3AA9 SWAP1 PUSH2 0x6C81 JUMP JUMPDEST DUP1 PUSH1 0x1F ADD PUSH1 0x20 DUP1 SWAP2 DIV MUL PUSH1 0x20 ADD PUSH1 0x40 MLOAD SWAP1 DUP2 ADD PUSH1 0x40 MSTORE DUP1 SWAP3 SWAP2 SWAP1 DUP2 DUP2 MSTORE PUSH1 0x20 ADD DUP3 DUP1 SLOAD PUSH2 0x3AD5 SWAP1 PUSH2 0x6C81 JUMP JUMPDEST DUP1 ISZERO PUSH2 0x3B22 JUMPI DUP1 PUSH1 0x1F LT PUSH2 0x3AF7 JUMPI PUSH2 0x100 DUP1 DUP4 SLOAD DIV MUL DUP4 MSTORE SWAP2 PUSH1 0x20 ADD SWAP2 PUSH2 0x3B22 JUMP JUMPDEST DUP3 ADD SWAP2 SWAP1 PUSH1 0x0 MSTORE PUSH1 0x20 PUSH1 0x0 KECCAK256 SWAP1 JUMPDEST DUP2 SLOAD DUP2 MSTORE SWAP1 PUSH1 0x1 ADD SWAP1 PUSH1 0x20 ADD DUP1 DUP4 GT PUSH2 0x3B05 JUMPI DUP3 SWAP1 SUB PUSH1 0x1F AND DUP3 ADD SWAP2 JUMPDEST POP POP POP POP POP DUP4 DUP12 PUSH1 0x0 DUP13 DUP13 SWAP1 PUSH2 0x3B38 SWAP2 SWAP1 PUSH2 0x76B8 JUMP JUMPDEST PUSH2 0x5C8 JUMP JUMPDEST ISZERO PUSH2 0x4290 JUMPI DUP4 PUSH1 0x1 ADD PUSH1 0x0 SWAP1 SLOAD SWAP1 PUSH2 0x100 EXP SWAP1 DIV PUSH20 0xFFFFFFFFFFFFFFFFFFFFFFFFFFFFFFFFFFFFFFFF AND PUSH20 0xFFFFFFFFFFFFFFFFFFFFFFFFFFFFFFFFFFFFFFFF AND PUSH2 0x8FC DUP6 PUSH1 0x7 ADD SLOAD SWAP1 DUP2 ISZERO MUL SWAP1 PUSH1 0x40 MLOAD PUSH1 0x0 PUSH1 0x40 MLOAD DUP1 DUP4 SUB DUP2 DUP6 DUP9 DUP9 CALL SWAP4 POP POP POP POP ISZERO DUP1 ISZERO PUSH2 0x3BB0 JUMPI RETURNDATASIZE PUSH1 0x0 DUP1 RETURNDATACOPY RETURNDATASIZE PUSH1 0x0 REVERT JUMPDEST POP DUP4 PUSH1 0x7 ADD SLOAD PUSH1 0x6 PUSH1 0x0 DUP7 PUSH1 0x0 ADD PUSH1 0x0 SWAP1 SLOAD SWAP1 PUSH2 0x100 EXP SWAP1 DIV PUSH20 0xFFFFFFFFFFFFFFFFFFFFFFFFFFFFFFFFFFFFFFFF AND PUSH20 0xFFFFFFFFFFFFFFFFFFFFFFFFFFFFFFFFFFFFFFFF AND PUSH20 0xFFFFFFFFFFFFFFFFFFFFFFFFFFFFFFFFFFFFFFFF AND DUP2 MSTORE PUSH1 0x20 ADD SWAP1 DUP2 MSTORE PUSH1 0x20 ADD PUSH1 0x0 KECCAK256 PUSH1 0x0 DUP3 DUP3 SLOAD PUSH2 0x3C28 SWAP2 SWAP1 PUSH2 0x6AA0 JUMP JUMPDEST SWAP3 POP POP DUP2 SWAP1 SSTORE POP PUSH1 0x40 MLOAD DUP1 PUSH1 0x20 ADD PUSH1 0x40 MSTORE DUP1 PUSH1 0x0 DUP2 MSTORE POP DUP5 PUSH1 0x3 ADD SWAP1 DUP2 PUSH2 0x3C4F SWAP2 SWAP1 PUSH2 0x76CD JUMP JUMPDEST POP PUSH1 0x0 PUSH1 0x7 PUSH1 0x0 DUP7 PUSH1 0x0 ADD PUSH1 0x0 SWAP1 SLOAD SWAP1 PUSH2 0x100 EXP SWAP1 DIV PUSH20 0xFFFFFFFFFFFFFFFFFFFFFFFFFFFFFFFFFFFFFFFF AND PUSH20 0xFFFFFFFFFFFFFFFFFFFFFFFFFFFFFFFFFFFFFFFF AND PUSH20 0xFFFFFFFFFFFFFFFFFFFFFFFFFFFFFFFFFFFFFFFF AND DUP2 MSTORE PUSH1 0x20 ADD SWAP1 DUP2 MSTORE PUSH1 0x20 ADD PUSH1 0x0 KECCAK256 PUSH1 0x40 MLOAD DUP1 PUSH1 0xE0 ADD PUSH1 0x40 MSTORE SWAP1 DUP2 PUSH1 0x0 DUP3 ADD PUSH1 0x0 SWAP1 SLOAD SWAP1 PUSH2 0x100 EXP SWAP1 DIV PUSH20 0xFFFFFFFFFFFFFFFFFFFFFFFFFFFFFFFFFFFFFFFF AND PUSH20 0xFFFFFFFFFFFFFFFFFFFFFFFFFFFFFFFFFFFFFFFF AND PUSH20 0xFFFFFFFFFFFFFFFFFFFFFFFFFFFFFFFFFFFFFFFF AND DUP2 MSTORE PUSH1 0x20 ADD PUSH1 0x1 DUP3 ADD SLOAD DUP2 MSTORE PUSH1 0x20 ADD PUSH1 0x2 DUP3 ADD DUP1 SLOAD PUSH2 0x3D30 SWAP1 PUSH2 0x6C81 JUMP JUMPDEST DUP1 PUSH1 0x1F ADD PUSH1 0x20 DUP1 SWAP2 DIV MUL PUSH1 0x20 ADD PUSH1 0x40 MLOAD SWAP1 DUP2 ADD PUSH1 0x40 MSTORE DUP1 SWAP3 SWAP2 SWAP1 DUP2 DUP2 MSTORE PUSH1 0x20 ADD DUP3 DUP1 SLOAD PUSH2 0x3D5C SWAP1 PUSH2 0x6C81 JUMP JUMPDEST DUP1 ISZERO PUSH2 0x3DA9 JUMPI DUP1 PUSH1 0x1F LT PUSH2 0x3D7E JUMPI PUSH2 0x100 DUP1 DUP4 SLOAD DIV MUL DUP4 MSTORE SWAP2 PUSH1 0x20 ADD SWAP2 PUSH2 0x3DA9 JUMP JUMPDEST DUP3 ADD SWAP2 SWAP1 PUSH1 0x0 MSTORE PUSH1 0x20 PUSH1 0x0 KECCAK256 SWAP1 JUMPDEST DUP2 SLOAD DUP2 MSTORE SWAP1 PUSH1 0x1 ADD SWAP1 PUSH1 0x20 ADD DUP1 DUP4 GT PUSH2 0x3D8C JUMPI DUP3 SWAP1 SUB PUSH1 0x1F AND DUP3 ADD SWAP2 JUMPDEST POP POP POP POP POP DUP2 MSTORE PUSH1 0x20 ADD PUSH1 0x3 DUP3 ADD DUP1 SLOAD PUSH2 0x3DC2 SWAP1 PUSH2 0x6C81 JUMP JUMPDEST DUP1 PUSH1 0x1F ADD PUSH1 0x20 DUP1 SWAP2 DIV MUL PUSH1 0x20 ADD PUSH1 0x40 MLOAD SWAP1 DUP2 ADD PUSH1 0x40 MSTORE DUP1 SWAP3 SWAP2 SWAP1 DUP2 DUP2 MSTORE PUSH1 0x20 ADD DUP3 DUP1 SLOAD PUSH2 0x3DEE SWAP1 PUSH2 0x6C81 JUMP JUMPDEST DUP1 ISZERO PUSH2 0x3E3B JUMPI DUP1 PUSH1 0x1F LT PUSH2 0x3E10 JUMPI PUSH2 0x100 DUP1 DUP4 SLOAD DIV MUL DUP4 MSTORE SWAP2 PUSH1 0x20 ADD SWAP2 PUSH2 0x3E3B JUMP JUMPDEST DUP3 ADD SWAP2 SWAP1 PUSH1 0x0 MSTORE PUSH1 0x20 PUSH1 0x0 KECCAK256 SWAP1 JUMPDEST DUP2 SLOAD DUP2 MSTORE SWAP1 PUSH1 0x1 ADD SWAP1 PUSH1 0x20 ADD DUP1 DUP4 GT PUSH2 0x3E1E JUMPI DUP3 SWAP1 SUB PUSH1 0x1F AND DUP3 ADD SWAP2 JUMPDEST POP POP POP POP POP DUP2 MSTORE PUSH1 0x20 ADD PUSH1 0x4 DUP3 ADD DUP1 SLOAD PUSH2 0x3E54 SWAP1 PUSH2 0x6C81 JUMP JUMPDEST DUP1 PUSH1 0x1F ADD PUSH1 0x20 DUP1 SWAP2 DIV MUL PUSH1 0x20 ADD PUSH1 0x40 MLOAD SWAP1 DUP2 ADD PUSH1 0x40 MSTORE DUP1 SWAP3 SWAP2 SWAP1 DUP2 DUP2 MSTORE PUSH1 0x20 ADD DUP3 DUP1 SLOAD PUSH2 0x3E80 SWAP1 PUSH2 0x6C81 JUMP JUMPDEST DUP1 ISZERO PUSH2 0x3ECD JUMPI DUP1 PUSH1 0x1F LT PUSH2 0x3EA2 JUMPI PUSH2 0x100 DUP1 DUP4 SLOAD DIV MUL DUP4 MSTORE SWAP2 PUSH1 0x20 ADD SWAP2 PUSH2 0x3ECD JUMP JUMPDEST DUP3 ADD SWAP2 SWAP1 PUSH1 0x0 MSTORE PUSH1 0x20 PUSH1 0x0 KECCAK256 SWAP1 JUMPDEST DUP2 SLOAD DUP2 MSTORE SWAP1 PUSH1 0x1 ADD SWAP1 PUSH1 0x20 ADD DUP1 DUP4 GT PUSH2 0x3EB0 JUMPI DUP3 SWAP1 SUB PUSH1 0x1F AND DUP3 ADD SWAP2 JUMPDEST POP POP POP POP POP DUP2 MSTORE PUSH1 0x20 ADD PUSH1 0x5 DUP3 ADD DUP1 SLOAD PUSH2 0x3EE6 SWAP1 PUSH2 0x6C81 JUMP JUMPDEST DUP1 PUSH1 0x1F ADD PUSH1 0x20 DUP1 SWAP2 DIV MUL PUSH1 0x20 ADD PUSH1 0x40 MLOAD SWAP1 DUP2 ADD PUSH1 0x40 MSTORE DUP1 SWAP3 SWAP2 SWAP1 DUP2 DUP2 MSTORE PUSH1 0x20 ADD DUP3 DUP1 SLOAD PUSH2 0x3F12 SWAP1 PUSH2 0x6C81 JUMP JUMPDEST DUP1 ISZERO PUSH2 0x3F5F JUMPI DUP1 PUSH1 0x1F LT PUSH2 0x3F34 JUMPI PUSH2 0x100 DUP1 DUP4 SLOAD DIV MUL DUP4 MSTORE SWAP2 PUSH1 0x20 ADD SWAP2 PUSH2 0x3F5F JUMP JUMPDEST DUP3 ADD SWAP2 SWAP1 PUSH1 0x0 MSTORE PUSH1 0x20 PUSH1 0x0 KECCAK256 SWAP1 JUMPDEST DUP2 SLOAD DUP2 MSTORE SWAP1 PUSH1 0x1 ADD SWAP1 PUSH1 0x20 ADD DUP1 DUP4 GT PUSH2 0x3F42 JUMPI DUP3 SWAP1 SUB PUSH1 0x1F AND DUP3 ADD SWAP2 JUMPDEST POP POP POP POP POP DUP2 MSTORE PUSH1 0x20 ADD PUSH1 0x6 DUP3 ADD DUP1 SLOAD PUSH2 0x3F78 SWAP1 PUSH2 0x6C81 JUMP JUMPDEST DUP1 PUSH1 0x1F ADD PUSH1 0x20 DUP1 SWAP2 DIV MUL PUSH1 0x20 ADD PUSH1 0x40 MLOAD SWAP1 DUP2 ADD PUSH1 0x40 MSTORE DUP1 SWAP3 SWAP2 SWAP1 DUP2 DUP2 MSTORE PUSH1 0x20 ADD DUP3 DUP1 SLOAD PUSH2 0x3FA4 SWAP1 PUSH2 0x6C81 JUMP JUMPDEST DUP1 ISZERO PUSH2 0x3FF1 JUMPI DUP1 PUSH1 0x1F LT PUSH2 0x3FC6 JUMPI PUSH2 0x100 DUP1 DUP4 SLOAD DIV MUL DUP4 MSTORE SWAP2 PUSH1 0x20 ADD SWAP2 PUSH2 0x3FF1 JUMP JUMPDEST DUP3 ADD SWAP2 SWAP1 PUSH1 0x0 MSTORE PUSH1 0x20 PUSH1 0x0 KECCAK256 SWAP1 JUMPDEST DUP2 SLOAD DUP2 MSTORE SWAP1 PUSH1 0x1 ADD SWAP1 PUSH1 0x20 ADD DUP1 DUP4 GT PUSH2 0x3FD4 JUMPI DUP3 SWAP1 SUB PUSH1 0x1F AND DUP3 ADD SWAP2 JUMPDEST POP POP POP POP POP DUP2 MSTORE POP POP SWAP1 POP PUSH32 0xF32A026611E96B6CC3D9E4AE1DB35E07AFDD9193B6AC4E118A1C4D86F027AE4 DUP11 DUP11 DUP4 PUSH1 0xA0 ADD MLOAD DUP5 PUSH1 0x40 ADD MLOAD DUP10 PUSH1 0x5 ADD SLOAD DUP7 PUSH1 0x60 ADD MLOAD DUP8 PUSH1 0xC0 ADD MLOAD PUSH1 0x40 MLOAD PUSH2 0x404B SWAP8 SWAP7 SWAP6 SWAP5 SWAP4 SWAP3 SWAP2 SWAP1 PUSH2 0x779F JUMP JUMPDEST PUSH1 0x40 MLOAD DUP1 SWAP2 SUB SWAP1 LOG1 PUSH32 0xA31E7C63AD889208FB9FE6BB68680577308BCF776C5D7DE7099B89FE5809B607 DUP11 DUP11 DUP8 PUSH1 0x5 ADD SLOAD DUP9 PUSH1 0x7 ADD SLOAD PUSH1 0x40 MLOAD PUSH2 0x4090 SWAP5 SWAP4 SWAP3 SWAP2 SWAP1 PUSH2 0x7831 JUMP JUMPDEST PUSH1 0x40 MLOAD DUP1 SWAP2 SUB SWAP1 LOG1 PUSH6 0x1D8FDA4CE000 PUSH8 0xFFFFFFFFFFFFFFFF AND DUP6 PUSH1 0x5 ADD SLOAD LT ISZERO PUSH2 0x428A JUMPI PUSH1 0x0 DUP6 PUSH1 0x9 ADD SLOAD SWAP1 POP PUSH1 0x0 DUP2 SWAP1 POP JUMPDEST PUSH1 0x0 PUSH1 0x5 PUSH1 0x0 DUP4 DUP2 MSTORE PUSH1 0x20 ADD SWAP1 DUP2 MSTORE PUSH1 0x20 ADD PUSH1 0x0 KECCAK256 PUSH1 0x5 ADD SLOAD SWAP1 POP PUSH1 0x5 PUSH1 0x0 DUP4 DUP2 MSTORE PUSH1 0x20 ADD SWAP1 DUP2 MSTORE PUSH1 0x20 ADD PUSH1 0x0 KECCAK256 PUSH1 0x0 DUP1 DUP3 ADD PUSH1 0x0 PUSH2 0x100 EXP DUP2 SLOAD SWAP1 PUSH20 0xFFFFFFFFFFFFFFFFFFFFFFFFFFFFFFFFFFFFFFFF MUL NOT AND SWAP1 SSTORE PUSH1 0x1 DUP3 ADD PUSH1 0x0 PUSH2 0x100 EXP DUP2 SLOAD SWAP1 PUSH20 0xFFFFFFFFFFFFFFFFFFFFFFFFFFFFFFFFFFFFFFFF MUL NOT AND SWAP1 SSTORE PUSH1 0x2 DUP3 ADD PUSH1 0x0 PUSH2 0x4150 SWAP2 SWAP1 PUSH2 0x543A JUMP JUMPDEST PUSH1 0x3 DUP3 ADD PUSH1 0x0 PUSH2 0x4160 SWAP2 SWAP1 PUSH2 0x543A JUMP JUMPDEST PUSH1 0x4 DUP3 ADD PUSH1 0x0 SWAP1 SSTORE PUSH1 0x5 DUP3 ADD PUSH1 0x0 SWAP1 SSTORE PUSH1 0x6 DUP3 ADD PUSH1 0x0 SWAP1 SSTORE PUSH1 0x7 DUP3 ADD PUSH1 0x0 SWAP1 SSTORE PUSH1 0x8 DUP3 ADD PUSH1 0x0 PUSH2 0x4190 SWAP2 SWAP1 PUSH2 0x547A JUMP JUMPDEST PUSH1 0x9 DUP3 ADD PUSH1 0x0 SWAP1 SSTORE POP POP DUP1 SWAP2 POP POP PUSH6 0x1D8FDA4CE000 PUSH8 0xFFFFFFFFFFFFFFFF AND DUP2 GT PUSH2 0x40C3 JUMPI DUP2 PUSH1 0x8 PUSH1 0x0 DUP10 PUSH1 0x0 ADD PUSH1 0x0 SWAP1 SLOAD SWAP1 PUSH2 0x100 EXP SWAP1 DIV PUSH20 0xFFFFFFFFFFFFFFFFFFFFFFFFFFFFFFFFFFFFFFFF AND PUSH20 0xFFFFFFFFFFFFFFFFFFFFFFFFFFFFFFFFFFFFFFFF AND PUSH20 0xFFFFFFFFFFFFFFFFFFFFFFFFFFFFFFFFFFFFFFFF AND DUP2 MSTORE PUSH1 0x20 ADD SWAP1 DUP2 MSTORE PUSH1 0x20 ADD PUSH1 0x0 KECCAK256 SLOAD SUB PUSH2 0x4287 JUMPI PUSH1 0x8 PUSH1 0x0 DUP9 PUSH1 0x0 ADD PUSH1 0x0 SWAP1 SLOAD SWAP1 PUSH2 0x100 EXP SWAP1 DIV PUSH20 0xFFFFFFFFFFFFFFFFFFFFFFFFFFFFFFFFFFFFFFFF AND PUSH20 0xFFFFFFFFFFFFFFFFFFFFFFFFFFFFFFFFFFFFFFFF AND PUSH20 0xFFFFFFFFFFFFFFFFFFFFFFFFFFFFFFFFFFFFFFFF AND DUP2 MSTORE PUSH1 0x20 ADD SWAP1 DUP2 MSTORE PUSH1 0x20 ADD PUSH1 0x0 KECCAK256 PUSH1 0x0 SWAP1 SSTORE JUMPDEST POP POP JUMPDEST POP PUSH2 0x42DB JUMP JUMPDEST PUSH2 0x42CE PUSH1 0x40 MLOAD DUP1 PUSH1 0x40 ADD PUSH1 0x40 MSTORE DUP1 PUSH1 0x13 DUP2 MSTORE PUSH1 0x20 ADD PUSH32 0x566572696669636174696F6E206661696C656400000000000000000000000000 DUP2 MSTORE POP PUSH2 0x49EC JUMP JUMPDEST PUSH1 0x0 SWAP5 POP POP POP POP POP PUSH2 0x432B JUMP JUMPDEST DUP9 SWAP5 POP POP POP POP POP PUSH2 0x432B JUMP JUMPDEST PUSH2 0x4325 PUSH1 0x40 MLOAD DUP1 PUSH1 0x40 ADD PUSH1 0x40 MSTORE DUP1 PUSH1 0x16 DUP2 MSTORE PUSH1 0x20 ADD PUSH32 0x50757A7A6C6520616C726561647920636C61696D656400000000000000000000 DUP2 MSTORE POP PUSH2 0x49EC JUMP JUMPDEST PUSH1 0x0 SWAP2 POP POP JUMPDEST SWAP6 SWAP5 POP POP POP POP POP JUMP JUMPDEST PUSH1 0x0 DUP1 DUP5 DUP5 DUP5 PUSH1 0x40 MLOAD PUSH1 0x20 ADD PUSH2 0x434C SWAP4 SWAP3 SWAP2 SWAP1 PUSH2 0x787D JUMP JUMPDEST PUSH1 0x40 MLOAD PUSH1 0x20 DUP2 DUP4 SUB SUB DUP2 MSTORE SWAP1 PUSH1 0x40 MSTORE SWAP1 POP PUSH1 0x0 PUSH1 0x2 DUP3 PUSH1 0x40 MLOAD PUSH2 0x436F SWAP2 SWAP1 PUSH2 0x7281 JUMP JUMPDEST PUSH1 0x20 PUSH1 0x40 MLOAD DUP1 DUP4 SUB DUP2 DUP6 GAS STATICCALL ISZERO DUP1 ISZERO PUSH2 0x438C JUMPI RETURNDATASIZE PUSH1 0x0 DUP1 RETURNDATACOPY RETURNDATASIZE PUSH1 0x0 REVERT JUMPDEST POP POP POP PUSH1 0x40 MLOAD RETURNDATASIZE PUSH1 0x1F NOT PUSH1 0x1F DUP3 ADD AND DUP3 ADD DUP1 PUSH1 0x40 MSTORE POP DUP2 ADD SWAP1 PUSH2 0x43AF SWAP2 SWAP1 PUSH2 0x72AD JUMP JUMPDEST SWAP1 POP PUSH1 0x0 PUSH1 0x40 MLOAD DUP1 PUSH1 0x40 ADD PUSH1 0x40 MSTORE DUP1 PUSH1 0x0 PUSH1 0x80 SHL PUSH16 0xFFFFFFFFFFFFFFFFFFFFFFFFFFFFFFFF NOT AND PUSH16 0xFFFFFFFFFFFFFFFFFFFFFFFFFFFFFFFF NOT AND DUP2 MSTORE PUSH1 0x20 ADD PUSH1 0x0 PUSH1 0x80 SHL PUSH16 0xFFFFFFFFFFFFFFFFFFFFFFFFFFFFFFFF NOT AND DUP2 MSTORE POP SWAP1 POP DUP2 DUP2 MSTORE DUP2 PUSH1 0x10 DUP3 ADD MSTORE DUP1 PUSH1 0x0 PUSH1 0x2 DUP2 LT PUSH2 0x4428 JUMPI PUSH2 0x4427 PUSH2 0x6A0D JUMP JUMPDEST JUMPDEST PUSH1 0x20 MUL ADD MLOAD SWAP4 POP POP POP POP SWAP4 SWAP3 POP POP POP JUMP JUMPDEST PUSH1 0x6 PUSH1 0x20 MSTORE DUP1 PUSH1 0x0 MSTORE PUSH1 0x40 PUSH1 0x0 KECCAK256 PUSH1 0x0 SWAP2 POP SWAP1 POP SLOAD DUP2 JUMP JUMPDEST PUSH1 0x5 PUSH1 0x20 MSTORE DUP1 PUSH1 0x0 MSTORE PUSH1 0x40 PUSH1 0x0 KECCAK256 PUSH1 0x0 SWAP2 POP SWAP1 POP DUP1 PUSH1 0x0 ADD PUSH1 0x0 SWAP1 SLOAD SWAP1 PUSH2 0x100 EXP SWAP1 DIV PUSH20 0xFFFFFFFFFFFFFFFFFFFFFFFFFFFFFFFFFFFFFFFF AND SWAP1 DUP1 PUSH1 0x1 ADD PUSH1 0x0 SWAP1 SLOAD SWAP1 PUSH2 0x100 EXP SWAP1 DIV PUSH20 0xFFFFFFFFFFFFFFFFFFFFFFFFFFFFFFFFFFFFFFFF AND SWAP1 DUP1 PUSH1 0x2 ADD DUP1 SLOAD PUSH2 0x44C0 SWAP1 PUSH2 0x6C81 JUMP JUMPDEST DUP1 PUSH1 0x1F ADD PUSH1 0x20 DUP1 SWAP2 DIV MUL PUSH1 0x20 ADD PUSH1 0x40 MLOAD SWAP1 DUP2 ADD PUSH1 0x40 MSTORE DUP1 SWAP3 SWAP2 SWAP1 DUP2 DUP2 MSTORE PUSH1 0x20 ADD DUP3 DUP1 SLOAD PUSH2 0x44EC SWAP1 PUSH2 0x6C81 JUMP JUMPDEST DUP1 ISZERO PUSH2 0x4539 JUMPI DUP1 PUSH1 0x1F LT PUSH2 0x450E JUMPI PUSH2 0x100 DUP1 DUP4 SLOAD DIV MUL DUP4 MSTORE SWAP2 PUSH1 0x20 ADD SWAP2 PUSH2 0x4539 JUMP JUMPDEST DUP3 ADD SWAP2 SWAP1 PUSH1 0x0 MSTORE PUSH1 0x20 PUSH1 0x0 KECCAK256 SWAP1 JUMPDEST DUP2 SLOAD DUP2 MSTORE SWAP1 PUSH1 0x1 ADD SWAP1 PUSH1 0x20 ADD DUP1 DUP4 GT PUSH2 0x451C JUMPI DUP3 SWAP1 SUB PUSH1 0x1F AND DUP3 ADD SWAP2 JUMPDEST POP POP POP POP POP SWAP1 DUP1 PUSH1 0x3 ADD DUP1 SLOAD PUSH2 0x454E SWAP1 PUSH2 0x6C81 JUMP JUMPDEST DUP1 PUSH1 0x1F ADD PUSH1 0x20 DUP1 SWAP2 DIV MUL PUSH1 0x20 ADD PUSH1 0x40 MLOAD SWAP1 DUP2 ADD PUSH1 0x40 MSTORE DUP1 SWAP3 SWAP2 SWAP1 DUP2 DUP2 MSTORE PUSH1 0x20 ADD DUP3 DUP1 SLOAD PUSH2 0x457A SWAP1 PUSH2 0x6C81 JUMP JUMPDEST DUP1 ISZERO PUSH2 0x45C7 JUMPI DUP1 PUSH1 0x1F LT PUSH2 0x459C JUMPI PUSH2 0x100 DUP1 DUP4 SLOAD DIV MUL DUP4 MSTORE SWAP2 PUSH1 0x20 ADD SWAP2 PUSH2 0x45C7 JUMP JUMPDEST DUP3 ADD SWAP2 SWAP1 PUSH1 0x0 MSTORE PUSH1 0x20 PUSH1 0x0 KECCAK256 SWAP1 JUMPDEST DUP2 SLOAD DUP2 MSTORE SWAP1 PUSH1 0x1 ADD SWAP1 PUSH1 0x20 ADD DUP1 DUP4 GT PUSH2 0x45AA JUMPI DUP3 SWAP1 SUB PUSH1 0x1F AND DUP3 ADD SWAP2 JUMPDEST POP POP POP POP POP SWAP1 DUP1 PUSH1 0x4 ADD SLOAD SWAP1 DUP1 PUSH1 0x5 ADD SLOAD SWAP1 DUP1 PUSH1 0x6 ADD SLOAD SWAP1 DUP1 PUSH1 0x7 ADD SLOAD SWAP1 DUP1 PUSH1 0x8 ADD DUP1 SLOAD PUSH2 0x45F4 SWAP1 PUSH2 0x6C81 JUMP JUMPDEST DUP1 PUSH1 0x1F ADD PUSH1 0x20 DUP1 SWAP2 DIV MUL PUSH1 0x20 ADD PUSH1 0x40 MLOAD SWAP1 DUP2 ADD PUSH1 0x40 MSTORE DUP1 SWAP3 SWAP2 SWAP1 DUP2 DUP2 MSTORE PUSH1 0x20 ADD DUP3 DUP1 SLOAD PUSH2 0x4620 SWAP1 PUSH2 0x6C81 JUMP JUMPDEST DUP1 ISZERO PUSH2 0x466D JUMPI DUP1 PUSH1 0x1F LT PUSH2 0x4642 JUMPI PUSH2 0x100 DUP1 DUP4 SLOAD DIV MUL DUP4 MSTORE SWAP2 PUSH1 0x20 ADD SWAP2 PUSH2 0x466D JUMP JUMPDEST DUP3 ADD SWAP2 SWAP1 PUSH1 0x0 MSTORE PUSH1 0x20 PUSH1 0x0 KECCAK256 SWAP1 JUMPDEST DUP2 SLOAD DUP2 MSTORE SWAP1 PUSH1 0x1 ADD SWAP1 PUSH1 0x20 ADD DUP1 DUP4 GT PUSH2 0x4650 JUMPI DUP3 SWAP1 SUB PUSH1 0x1F AND DUP3 ADD SWAP2 JUMPDEST POP POP POP POP POP SWAP1 DUP1 PUSH1 0x9 ADD SLOAD SWAP1 POP DUP11 JUMP JUMPDEST PUSH2 0x4715 DUP3 DUP3 PUSH1 0x40 MLOAD PUSH1 0x24 ADD PUSH2 0x4693 SWAP3 SWAP2 SWAP1 PUSH2 0x78C9 JUMP JUMPDEST PUSH1 0x40 MLOAD PUSH1 0x20 DUP2 DUP4 SUB SUB DUP2 MSTORE SWAP1 PUSH1 0x40 MSTORE PUSH32 0x4B5C427700000000000000000000000000000000000000000000000000000000 PUSH28 0xFFFFFFFFFFFFFFFFFFFFFFFFFFFFFFFFFFFFFFFFFFFFFFFFFFFFFFFF NOT AND PUSH1 0x20 DUP3 ADD DUP1 MLOAD PUSH28 0xFFFFFFFFFFFFFFFFFFFFFFFFFFFFFFFFFFFFFFFFFFFFFFFFFFFFFFFF DUP4 DUP2 DUP4 AND OR DUP4 MSTORE POP POP POP POP PUSH2 0x4BC1 JUMP JUMPDEST POP POP JUMP JUMPDEST PUSH1 0x0 DUP1 DUP4 MLOAD SWAP1 POP PUSH1 0x0 DUP2 SUB PUSH2 0x4732 JUMPI PUSH1 0x0 SWAP2 POP POP PUSH2 0x4798 JUMP JUMPDEST PUSH1 0x0 PUSH1 0x20 DUP3 PUSH2 0x4741 SWAP2 SWAP1 PUSH2 0x792F JUMP JUMPDEST EQ PUSH2 0x4750 JUMPI PUSH1 0x0 SWAP2 POP POP PUSH2 0x4798 JUMP JUMPDEST DUP3 MLOAD DUP2 EQ PUSH2 0x4762 JUMPI PUSH1 0x0 SWAP2 POP POP PUSH2 0x4798 JUMP JUMPDEST PUSH1 0x0 PUSH1 0x1 SWAP3 POP PUSH1 0x20 JUMPDEST PUSH1 0x1 DUP4 ADD DUP2 LT ISZERO PUSH2 0x4794 JUMPI PUSH1 0x1 DUP3 ADD SWAP2 POP DUP1 DUP6 ADD MLOAD DUP2 DUP8 ADD MLOAD EQ DUP5 AND SWAP4 POP PUSH1 0x20 DUP2 ADD SWAP1 POP PUSH2 0x476B JUMP JUMPDEST POP POP POP JUMPDEST SWAP3 SWAP2 POP POP JUMP JUMPDEST PUSH2 0x4836 DUP3 DUP3 PUSH1 0x40 MLOAD PUSH1 0x24 ADD PUSH2 0x47B4 SWAP3 SWAP2 SWAP1 PUSH2 0x7960 JUMP JUMPDEST PUSH1 0x40 MLOAD PUSH1 0x20 DUP2 DUP4 SUB SUB DUP2 MSTORE SWAP1 PUSH1 0x40 MSTORE PUSH32 0xB60E72CC00000000000000000000000000000000000000000000000000000000 PUSH28 0xFFFFFFFFFFFFFFFFFFFFFFFFFFFFFFFFFFFFFFFFFFFFFFFFFFFFFFFF NOT AND PUSH1 0x20 DUP3 ADD DUP1 MLOAD PUSH28 0xFFFFFFFFFFFFFFFFFFFFFFFFFFFFFFFFFFFFFFFFFFFFFFFFFFFFFFFF DUP4 DUP2 DUP4 AND OR DUP4 MSTORE POP POP POP POP PUSH2 0x4BC1 JUMP JUMPDEST POP POP JUMP JUMPDEST PUSH1 0x60 PUSH1 0x0 PUSH2 0x4848 DUP6 DUP6 PUSH2 0x4BEA JUMP JUMPDEST SWAP1 POP PUSH2 0x4854 DUP2 DUP5 PUSH2 0x4EBC JUMP JUMPDEST DUP1 ISZERO PUSH2 0x4867 JUMPI POP PUSH2 0x4865 DUP2 DUP5 PUSH2 0x4719 JUMP JUMPDEST ISZERO JUMPDEST ISZERO PUSH2 0x4875 JUMPI DUP1 SWAP2 POP POP PUSH2 0x4883 JUMP JUMPDEST PUSH2 0x487F DUP2 DUP5 PUSH2 0x502F JUMP JUMPDEST SWAP2 POP POP JUMPDEST SWAP4 SWAP3 POP POP POP JUMP JUMPDEST PUSH1 0x60 PUSH2 0x4896 DUP4 DUP6 PUSH2 0x4EBC JUMP JUMPDEST ISZERO PUSH2 0x48AC JUMPI PUSH2 0x48A5 DUP5 DUP5 PUSH2 0x502F JUMP JUMPDEST SWAP1 POP PUSH2 0x48C2 JUMP JUMPDEST PUSH2 0x48BF DUP3 PUSH2 0x48BA DUP6 DUP8 PUSH2 0x502F JUMP JUMPDEST PUSH2 0x502F JUMP JUMPDEST SWAP1 POP JUMPDEST SWAP4 SWAP3 POP POP POP JUMP JUMPDEST PUSH1 0x60 PUSH1 0x0 DUP3 MLOAD PUSH8 0xFFFFFFFFFFFFFFFF DUP2 GT ISZERO PUSH2 0x48E8 JUMPI PUSH2 0x48E7 PUSH2 0x5506 JUMP JUMPDEST JUMPDEST PUSH1 0x40 MLOAD SWAP1 DUP1 DUP3 MSTORE DUP1 PUSH1 0x1F ADD PUSH1 0x1F NOT AND PUSH1 0x20 ADD DUP3 ADD PUSH1 0x40 MSTORE DUP1 ISZERO PUSH2 0x491A JUMPI DUP2 PUSH1 0x20 ADD PUSH1 0x1 DUP3 MUL DUP1 CALLDATASIZE DUP4 CALLDATACOPY DUP1 DUP3 ADD SWAP2 POP POP SWAP1 POP JUMPDEST POP SWAP1 POP PUSH1 0x0 DUP1 JUMPDEST DUP5 MLOAD DUP3 LT ISZERO PUSH2 0x49E1 JUMPI PUSH1 0x0 DUP6 DUP4 DUP2 MLOAD DUP2 LT PUSH2 0x493F JUMPI PUSH2 0x493E PUSH2 0x6A0D JUMP JUMPDEST JUMPDEST PUSH1 0x20 ADD ADD MLOAD PUSH1 0xF8 SHR PUSH1 0xF8 SHL PUSH1 0xF8 SHR SWAP1 POP PUSH1 0x0 PUSH1 0x2 DUP3 PUSH1 0xFF AND SWAP1 SHR SWAP1 POP PUSH1 0x0 PUSH1 0x6 DUP4 PUSH1 0xFF AND SWAP1 SHL SWAP1 POP PUSH1 0x0 DUP5 PUSH1 0xFF AND GT ISZERO PUSH2 0x4982 JUMPI DUP4 DUP3 PUSH2 0x497F SWAP2 SWAP1 PUSH2 0x6A6B JUMP JUMPDEST SWAP2 POP JUMPDEST DUP2 PUSH1 0xF8 SHL DUP7 DUP7 DUP2 MLOAD DUP2 LT PUSH2 0x4999 JUMPI PUSH2 0x4998 PUSH2 0x6A0D JUMP JUMPDEST JUMPDEST PUSH1 0x20 ADD ADD SWAP1 PUSH31 0xFFFFFFFFFFFFFFFFFFFFFFFFFFFFFFFFFFFFFFFFFFFFFFFFFFFFFFFFFFFFFF NOT AND SWAP1 DUP2 PUSH1 0x0 BYTE SWAP1 MSTORE8 POP DUP5 DUP1 PUSH2 0x49D3 SWAP1 PUSH2 0x715A JUMP JUMPDEST SWAP6 POP POP DUP1 SWAP4 POP POP POP POP PUSH2 0x4921 JUMP JUMPDEST DUP3 SWAP4 POP POP POP POP SWAP2 SWAP1 POP JUMP JUMPDEST PUSH2 0x4A82 DUP2 PUSH1 0x40 MLOAD PUSH1 0x24 ADD PUSH2 0x4A00 SWAP2 SWAP1 PUSH2 0x5938 JUMP JUMPDEST PUSH1 0x40 MLOAD PUSH1 0x20 DUP2 DUP4 SUB SUB DUP2 MSTORE SWAP1 PUSH1 0x40 MSTORE PUSH32 0x41304FAC00000000000000000000000000000000000000000000000000000000 PUSH28 0xFFFFFFFFFFFFFFFFFFFFFFFFFFFFFFFFFFFFFFFFFFFFFFFFFFFFFFFF NOT AND PUSH1 0x20 DUP3 ADD DUP1 MLOAD PUSH28 0xFFFFFFFFFFFFFFFFFFFFFFFFFFFFFFFFFFFFFFFFFFFFFFFFFFFFFFFF DUP4 DUP2 DUP4 AND OR DUP4 MSTORE POP POP POP POP PUSH2 0x4BC1 JUMP JUMPDEST POP JUMP JUMPDEST PUSH2 0x4B1B DUP2 PUSH1 0x40 MLOAD PUSH1 0x24 ADD PUSH2 0x4A99 SWAP2 SWAP1 PUSH2 0x62B6 JUMP JUMPDEST PUSH1 0x40 MLOAD PUSH1 0x20 DUP2 DUP4 SUB SUB DUP2 MSTORE SWAP1 PUSH1 0x40 MSTORE PUSH32 0xBE77F5600000000000000000000000000000000000000000000000000000000 PUSH28 0xFFFFFFFFFFFFFFFFFFFFFFFFFFFFFFFFFFFFFFFFFFFFFFFFFFFFFFFF NOT AND PUSH1 0x20 DUP3 ADD DUP1 MLOAD PUSH28 0xFFFFFFFFFFFFFFFFFFFFFFFFFFFFFFFFFFFFFFFFFFFFFFFFFFFFFFFF DUP4 DUP2 DUP4 AND OR DUP4 MSTORE POP POP POP POP PUSH2 0x4BC1 JUMP JUMPDEST POP JUMP JUMPDEST PUSH1 0x60 PUSH1 0x0 JUMPDEST PUSH1 0x0 PUSH1 0xF8 SHL DUP4 DUP3 DUP2 MLOAD DUP2 LT PUSH2 0x4B3B JUMPI PUSH2 0x4B3A PUSH2 0x6A0D JUMP JUMPDEST JUMPDEST PUSH1 0x20 ADD ADD MLOAD PUSH1 0xF8 SHR PUSH1 0xF8 SHL PUSH31 0xFFFFFFFFFFFFFFFFFFFFFFFFFFFFFFFFFFFFFFFFFFFFFFFFFFFFFFFFFFFFFF NOT AND SUB PUSH2 0x4BA0 JUMPI DUP1 DUP1 PUSH2 0x4B78 SWAP1 PUSH2 0x715A JUMP JUMPDEST SWAP2 POP POP DUP3 MLOAD DUP2 SUB PUSH2 0x4B9B JUMPI PUSH1 0x40 MLOAD DUP1 PUSH1 0x20 ADD PUSH1 0x40 MSTORE DUP1 PUSH1 0x0 DUP2 MSTORE POP SWAP2 POP POP PUSH2 0x4BBC JUMP JUMPDEST PUSH2 0x4B23 JUMP JUMPDEST PUSH1 0x0 DUP2 GT ISZERO PUSH2 0x4BB7 JUMPI DUP3 MLOAD DUP2 DUP5 ADD SWAP4 POP DUP2 DUP2 SUB DUP5 MSTORE POP JUMPDEST DUP3 SWAP2 POP POP JUMPDEST SWAP2 SWAP1 POP JUMP JUMPDEST PUSH1 0x0 DUP2 MLOAD SWAP1 POP PUSH1 0x0 PUSH11 0x636F6E736F6C652E6C6F67 SWAP1 POP PUSH1 0x20 DUP4 ADD PUSH1 0x0 DUP1 DUP5 DUP4 DUP6 GAS STATICCALL POP POP POP POP POP JUMP JUMPDEST PUSH1 0x60 PUSH1 0x0 PUSH1 0x1 PUSH2 0x4BFC DUP6 MLOAD DUP6 MLOAD PUSH2 0x539F JUMP JUMPDEST PUSH2 0x4C06 SWAP2 SWAP1 PUSH2 0x70EF JUMP JUMPDEST PUSH8 0xFFFFFFFFFFFFFFFF DUP2 GT ISZERO PUSH2 0x4C1F JUMPI PUSH2 0x4C1E PUSH2 0x5506 JUMP JUMPDEST JUMPDEST PUSH1 0x40 MLOAD SWAP1 DUP1 DUP3 MSTORE DUP1 PUSH1 0x1F ADD PUSH1 0x1F NOT AND PUSH1 0x20 ADD DUP3 ADD PUSH1 0x40 MSTORE DUP1 ISZERO PUSH2 0x4C51 JUMPI DUP2 PUSH1 0x20 ADD PUSH1 0x1 DUP3 MUL DUP1 CALLDATASIZE DUP4 CALLDATACOPY DUP1 DUP3 ADD SWAP2 POP POP SWAP1 POP JUMPDEST POP SWAP1 POP PUSH1 0x0 DUP1 JUMPDEST PUSH1 0x1F DUP3 DUP8 MLOAD PUSH2 0x4C67 SWAP2 SWAP1 PUSH2 0x6AA0 JUMP JUMPDEST GT DUP1 ISZERO PUSH2 0x4C80 JUMPI POP PUSH1 0x1F DUP3 DUP7 MLOAD PUSH2 0x4C7E SWAP2 SWAP1 PUSH2 0x6AA0 JUMP JUMPDEST GT JUMPDEST ISZERO PUSH2 0x4D07 JUMPI PUSH1 0x0 DUP1 PUSH1 0x20 DUP5 ADD DUP9 MLOAD SUB PUSH1 0x20 DUP10 ADD ADD MLOAD SWAP2 POP PUSH1 0x20 DUP5 ADD DUP8 MLOAD SUB PUSH1 0x20 DUP9 ADD ADD MLOAD SWAP1 POP PUSH1 0x0 SLOAD DUP3 AND SWAP2 POP PUSH1 0x0 SLOAD DUP2 AND SWAP1 POP PUSH1 0x0 DUP4 PUSH1 0xFF AND DUP3 DUP5 PUSH2 0x4CC6 SWAP2 SWAP1 PUSH2 0x70EF JUMP JUMPDEST PUSH2 0x4CD0 SWAP2 SWAP1 PUSH2 0x70EF JUMP JUMPDEST SWAP1 POP DUP1 PUSH1 0x0 SHL PUSH1 0xF8 SHR SWAP4 POP PUSH1 0x0 SLOAD DUP2 AND SWAP1 POP DUP1 PUSH1 0x20 DUP7 ADD DUP8 MLOAD SUB PUSH1 0x20 DUP9 ADD ADD MSTORE PUSH1 0x1F DUP6 PUSH2 0x4CFD SWAP2 SWAP1 PUSH2 0x70EF JUMP JUMPDEST SWAP5 POP POP POP POP PUSH2 0x4C58 JUMP JUMPDEST JUMPDEST PUSH2 0x4D14 DUP7 MLOAD DUP7 MLOAD PUSH2 0x539F JUMP JUMPDEST DUP3 LT ISZERO PUSH2 0x4E5E JUMPI PUSH1 0x0 DUP7 MLOAD DUP4 LT ISZERO PUSH2 0x4D69 JUMPI DUP7 PUSH1 0x1 DUP5 DUP10 MLOAD PUSH2 0x4D36 SWAP2 SWAP1 PUSH2 0x6AA0 JUMP JUMPDEST PUSH2 0x4D40 SWAP2 SWAP1 PUSH2 0x6AA0 JUMP JUMPDEST DUP2 MLOAD DUP2 LT PUSH2 0x4D51 JUMPI PUSH2 0x4D50 PUSH2 0x6A0D JUMP JUMPDEST JUMPDEST PUSH1 0x20 ADD ADD MLOAD PUSH1 0xF8 SHR PUSH1 0xF8 SHL PUSH1 0xF8 SHR PUSH1 0xFF AND SWAP1 POP PUSH2 0x4D6E JUMP JUMPDEST PUSH1 0x0 SWAP1 POP JUMPDEST PUSH1 0x0 DUP7 MLOAD DUP5 LT ISZERO PUSH2 0x4DBC JUMPI DUP7 PUSH1 0x1 DUP6 DUP10 MLOAD PUSH2 0x4D89 SWAP2 SWAP1 PUSH2 0x6AA0 JUMP JUMPDEST PUSH2 0x4D93 SWAP2 SWAP1 PUSH2 0x6AA0 JUMP JUMPDEST DUP2 MLOAD DUP2 LT PUSH2 0x4DA4 JUMPI PUSH2 0x4DA3 PUSH2 0x6A0D JUMP JUMPDEST JUMPDEST PUSH1 0x20 ADD ADD MLOAD PUSH1 0xF8 SHR PUSH1 0xF8 SHL PUSH1 0xF8 SHR PUSH1 0xFF AND SWAP1 POP PUSH2 0x4DC1 JUMP JUMPDEST PUSH1 0x0 SWAP1 POP JUMPDEST PUSH1 0x0 DUP4 PUSH1 0xFF AND DUP3 DUP5 PUSH2 0x4DD3 SWAP2 SWAP1 PUSH2 0x799E JUMP JUMPDEST PUSH2 0x4DDD SWAP2 SWAP1 PUSH2 0x799E JUMP JUMPDEST SWAP1 POP DUP1 PUSH1 0xF8 SHL DUP7 PUSH1 0x1 DUP8 DUP10 MLOAD PUSH2 0x4DF3 SWAP2 SWAP1 PUSH2 0x6AA0 JUMP JUMPDEST PUSH2 0x4DFD SWAP2 SWAP1 PUSH2 0x6AA0 JUMP JUMPDEST DUP2 MLOAD DUP2 LT PUSH2 0x4E0E JUMPI PUSH2 0x4E0D PUSH2 0x6A0D JUMP JUMPDEST JUMPDEST PUSH1 0x20 ADD ADD SWAP1 PUSH31 0xFFFFFFFFFFFFFFFFFFFFFFFFFFFFFFFFFFFFFFFFFFFFFFFFFFFFFFFFFFFFFF NOT AND SWAP1 DUP2 PUSH1 0x0 BYTE SWAP1 MSTORE8 POP PUSH1 0x8 DUP2 PUSH2 0xFFFF AND SWAP1 SHR SWAP4 POP DUP5 DUP1 PUSH2 0x4E53 SWAP1 PUSH2 0x715A JUMP JUMPDEST SWAP6 POP POP POP POP POP PUSH2 0x4D08 JUMP JUMPDEST DUP1 PUSH1 0xF8 SHL DUP4 PUSH1 0x0 DUP2 MLOAD DUP2 LT PUSH2 0x4E76 JUMPI PUSH2 0x4E75 PUSH2 0x6A0D JUMP JUMPDEST JUMPDEST PUSH1 0x20 ADD ADD SWAP1 PUSH31 0xFFFFFFFFFFFFFFFFFFFFFFFFFFFFFFFFFFFFFFFFFFFFFFFFFFFFFFFFFFFFFF NOT AND SWAP1 DUP2 PUSH1 0x0 BYTE SWAP1 MSTORE8 POP PUSH2 0x4EAE DUP4 PUSH2 0x4B1E JUMP JUMPDEST SWAP3 POP DUP3 SWAP4 POP POP POP POP SWAP3 SWAP2 POP POP JUMP JUMPDEST PUSH1 0x0 DUP2 MLOAD DUP4 MLOAD LT ISZERO PUSH2 0x4ED1 JUMPI PUSH1 0x1 SWAP1 POP PUSH2 0x5029 JUMP JUMPDEST DUP2 MLOAD DUP4 MLOAD GT ISZERO PUSH2 0x4EE4 JUMPI PUSH1 0x0 SWAP1 POP PUSH2 0x5029 JUMP JUMPDEST PUSH1 0x0 JUMPDEST DUP4 MLOAD DUP2 LT ISZERO PUSH2 0x5023 JUMPI DUP3 DUP2 DUP2 MLOAD DUP2 LT PUSH2 0x4F03 JUMPI PUSH2 0x4F02 PUSH2 0x6A0D JUMP JUMPDEST JUMPDEST PUSH1 0x20 ADD ADD MLOAD PUSH1 0xF8 SHR PUSH1 0xF8 SHL PUSH31 0xFFFFFFFFFFFFFFFFFFFFFFFFFFFFFFFFFFFFFFFFFFFFFFFFFFFFFFFFFFFFFF NOT AND DUP5 DUP3 DUP2 MLOAD DUP2 LT PUSH2 0x4F43 JUMPI PUSH2 0x4F42 PUSH2 0x6A0D JUMP JUMPDEST JUMPDEST PUSH1 0x20 ADD ADD MLOAD PUSH1 0xF8 SHR PUSH1 0xF8 SHL PUSH31 0xFFFFFFFFFFFFFFFFFFFFFFFFFFFFFFFFFFFFFFFFFFFFFFFFFFFFFFFFFFFFFF NOT AND LT ISZERO PUSH2 0x4F80 JUMPI PUSH1 0x1 SWAP2 POP POP PUSH2 0x5029 JUMP JUMPDEST DUP3 DUP2 DUP2 MLOAD DUP2 LT PUSH2 0x4F93 JUMPI PUSH2 0x4F92 PUSH2 0x6A0D JUMP JUMPDEST JUMPDEST PUSH1 0x20 ADD ADD MLOAD PUSH1 0xF8 SHR PUSH1 0xF8 SHL PUSH31 0xFFFFFFFFFFFFFFFFFFFFFFFFFFFFFFFFFFFFFFFFFFFFFFFFFFFFFFFFFFFFFF NOT AND DUP5 DUP3 DUP2 MLOAD DUP2 LT PUSH2 0x4FD3 JUMPI PUSH2 0x4FD2 PUSH2 0x6A0D JUMP JUMPDEST JUMPDEST PUSH1 0x20 ADD ADD MLOAD PUSH1 0xF8 SHR PUSH1 0xF8 SHL PUSH31 0xFFFFFFFFFFFFFFFFFFFFFFFFFFFFFFFFFFFFFFFFFFFFFFFFFFFFFFFFFFFFFF NOT AND GT ISZERO PUSH2 0x5010 JUMPI PUSH1 0x0 SWAP2 POP POP PUSH2 0x5029 JUMP JUMPDEST DUP1 DUP1 PUSH2 0x501B SWAP1 PUSH2 0x715A JUMP JUMPDEST SWAP2 POP POP PUSH2 0x4EE7 JUMP JUMPDEST POP PUSH1 0x1 SWAP1 POP JUMPDEST SWAP3 SWAP2 POP POP JUMP JUMPDEST PUSH1 0x60 DUP2 MLOAD DUP4 MLOAD LT ISZERO PUSH2 0x5076 JUMPI PUSH1 0x40 MLOAD PUSH32 0x8C379A000000000000000000000000000000000000000000000000000000000 DUP2 MSTORE PUSH1 0x4 ADD PUSH2 0x506D SWAP1 PUSH2 0x7A20 JUMP JUMPDEST PUSH1 0x40 MLOAD DUP1 SWAP2 SUB SWAP1 REVERT JUMPDEST PUSH1 0x0 DUP4 MLOAD PUSH8 0xFFFFFFFFFFFFFFFF DUP2 GT ISZERO PUSH2 0x5093 JUMPI PUSH2 0x5092 PUSH2 0x5506 JUMP JUMPDEST JUMPDEST PUSH1 0x40 MLOAD SWAP1 DUP1 DUP3 MSTORE DUP1 PUSH1 0x1F ADD PUSH1 0x1F NOT AND PUSH1 0x20 ADD DUP3 ADD PUSH1 0x40 MSTORE DUP1 ISZERO PUSH2 0x50C5 JUMPI DUP2 PUSH1 0x20 ADD PUSH1 0x1 DUP3 MUL DUP1 CALLDATASIZE DUP4 CALLDATACOPY DUP1 DUP3 ADD SWAP2 POP POP SWAP1 POP JUMPDEST POP SWAP1 POP PUSH1 0x0 DUP1 JUMPDEST PUSH1 0x1F DUP3 DUP8 MLOAD PUSH2 0x50DB SWAP2 SWAP1 PUSH2 0x6AA0 JUMP JUMPDEST GT DUP1 ISZERO PUSH2 0x50F4 JUMPI POP PUSH1 0x1F DUP3 DUP7 MLOAD PUSH2 0x50F2 SWAP2 SWAP1 PUSH2 0x6AA0 JUMP JUMPDEST GT JUMPDEST ISZERO PUSH2 0x51B7 JUMPI PUSH1 0x0 DUP1 PUSH1 0x20 DUP5 ADD DUP9 MLOAD SUB PUSH1 0x20 DUP10 ADD ADD MLOAD SWAP2 POP PUSH1 0x20 DUP5 ADD DUP8 MLOAD SUB PUSH1 0x20 DUP9 ADD ADD MLOAD SWAP1 POP PUSH1 0x0 SLOAD DUP3 AND SWAP2 POP PUSH1 0x0 SLOAD DUP2 AND SWAP1 POP PUSH1 0x0 DUP4 PUSH1 0xFF AND DUP3 PUSH2 0x5139 SWAP2 SWAP1 PUSH2 0x70EF JUMP JUMPDEST DUP4 LT PUSH2 0x5164 JUMPI DUP4 PUSH1 0xFF AND DUP3 PUSH2 0x514E SWAP2 SWAP1 PUSH2 0x70EF JUMP JUMPDEST DUP4 PUSH2 0x5159 SWAP2 SWAP1 PUSH2 0x6AA0 JUMP JUMPDEST SWAP1 POP PUSH1 0x0 SWAP4 POP PUSH2 0x5192 JUMP JUMPDEST DUP4 PUSH1 0xFF AND DUP3 PUSH2 0x5173 SWAP2 SWAP1 PUSH2 0x70EF JUMP JUMPDEST PUSH1 0x1 SLOAD DUP5 PUSH2 0x5181 SWAP2 SWAP1 PUSH2 0x70EF JUMP JUMPDEST PUSH2 0x518B SWAP2 SWAP1 PUSH2 0x6AA0 JUMP JUMPDEST SWAP1 POP PUSH1 0x1 SWAP4 POP JUMPDEST DUP1 PUSH1 0x20 DUP7 ADD DUP8 MLOAD SUB PUSH1 0x20 DUP9 ADD ADD MSTORE PUSH1 0x1F DUP6 PUSH2 0x51AD SWAP2 SWAP1 PUSH2 0x70EF JUMP JUMPDEST SWAP5 POP POP POP POP PUSH2 0x50CC JUMP JUMPDEST JUMPDEST DUP6 MLOAD DUP3 LT ISZERO PUSH2 0x5342 JUMPI PUSH1 0x0 DUP7 PUSH1 0x1 DUP5 DUP10 MLOAD PUSH2 0x51D3 SWAP2 SWAP1 PUSH2 0x6AA0 JUMP JUMPDEST PUSH2 0x51DD SWAP2 SWAP1 PUSH2 0x6AA0 JUMP JUMPDEST DUP2 MLOAD DUP2 LT PUSH2 0x51EE JUMPI PUSH2 0x51ED PUSH2 0x6A0D JUMP JUMPDEST JUMPDEST PUSH1 0x20 ADD ADD MLOAD PUSH1 0xF8 SHR PUSH1 0xF8 SHL PUSH1 0xF8 SHR PUSH1 0xFF AND SWAP1 POP PUSH1 0x0 DUP7 MLOAD DUP5 LT ISZERO PUSH2 0x524F JUMPI DUP7 PUSH1 0x1 DUP6 DUP10 MLOAD PUSH2 0x521C SWAP2 SWAP1 PUSH2 0x6AA0 JUMP JUMPDEST PUSH2 0x5226 SWAP2 SWAP1 PUSH2 0x6AA0 JUMP JUMPDEST DUP2 MLOAD DUP2 LT PUSH2 0x5237 JUMPI PUSH2 0x5236 PUSH2 0x6A0D JUMP JUMPDEST JUMPDEST PUSH1 0x20 ADD ADD MLOAD PUSH1 0xF8 SHR PUSH1 0xF8 SHL PUSH1 0xF8 SHR PUSH1 0xFF AND SWAP1 POP PUSH2 0x5254 JUMP JUMPDEST PUSH1 0x0 SWAP1 POP JUMPDEST PUSH1 0x0 DUP4 PUSH1 0xFF AND DUP3 PUSH2 0x5265 SWAP2 SWAP1 PUSH2 0x799E JUMP JUMPDEST PUSH2 0xFFFF AND DUP4 PUSH2 0xFFFF AND LT PUSH2 0x529C JUMPI DUP4 PUSH1 0xFF AND DUP3 PUSH2 0x5282 SWAP2 SWAP1 PUSH2 0x799E JUMP JUMPDEST DUP4 PUSH2 0x528D SWAP2 SWAP1 PUSH2 0x7A40 JUMP JUMPDEST PUSH2 0xFFFF AND SWAP1 POP PUSH1 0x0 SWAP4 POP PUSH2 0x52CE JUMP JUMPDEST DUP4 PUSH1 0xFF AND DUP3 PUSH2 0x52AB SWAP2 SWAP1 PUSH2 0x799E JUMP JUMPDEST PUSH2 0x100 DUP5 PUSH2 0x52B9 SWAP2 SWAP1 PUSH2 0x799E JUMP JUMPDEST PUSH2 0x52C3 SWAP2 SWAP1 PUSH2 0x7A40 JUMP JUMPDEST PUSH2 0xFFFF AND SWAP1 POP PUSH1 0x1 SWAP4 POP JUMPDEST DUP1 PUSH1 0xF8 SHL DUP7 PUSH1 0x1 DUP8 DUP10 MLOAD PUSH2 0x52E2 SWAP2 SWAP1 PUSH2 0x6AA0 JUMP JUMPDEST PUSH2 0x52EC SWAP2 SWAP1 PUSH2 0x6AA0 JUMP JUMPDEST DUP2 MLOAD DUP2 LT PUSH2 0x52FD JUMPI PUSH2 0x52FC PUSH2 0x6A0D JUMP JUMPDEST JUMPDEST PUSH1 0x20 ADD ADD SWAP1 PUSH31 0xFFFFFFFFFFFFFFFFFFFFFFFFFFFFFFFFFFFFFFFFFFFFFFFFFFFFFFFFFFFFFF NOT AND SWAP1 DUP2 PUSH1 0x0 BYTE SWAP1 MSTORE8 POP DUP5 DUP1 PUSH2 0x5337 SWAP1 PUSH2 0x715A JUMP JUMPDEST SWAP6 POP POP POP POP POP PUSH2 0x51B8 JUMP JUMPDEST PUSH1 0x0 DUP2 PUSH1 0xFF AND EQ PUSH2 0x5388 JUMPI PUSH1 0x40 MLOAD PUSH32 0x8C379A000000000000000000000000000000000000000000000000000000000 DUP2 MSTORE PUSH1 0x4 ADD PUSH2 0x537F SWAP1 PUSH2 0x7AC2 JUMP JUMPDEST PUSH1 0x40 MLOAD DUP1 SWAP2 SUB SWAP1 REVERT JUMPDEST PUSH2 0x5391 DUP4 PUSH2 0x4B1E JUMP JUMPDEST SWAP3 POP DUP3 SWAP4 POP POP POP POP SWAP3 SWAP2 POP POP JUMP JUMPDEST PUSH1 0x0 DUP2 DUP4 GT PUSH2 0x53AE JUMPI DUP2 PUSH2 0x53B0 JUMP JUMPDEST DUP3 JUMPDEST SWAP1 POP SWAP3 SWAP2 POP POP JUMP JUMPDEST PUSH1 0x40 MLOAD DUP1 PUSH2 0x140 ADD PUSH1 0x40 MSTORE DUP1 PUSH1 0x0 PUSH20 0xFFFFFFFFFFFFFFFFFFFFFFFFFFFFFFFFFFFFFFFF AND DUP2 MSTORE PUSH1 0x20 ADD PUSH1 0x0 PUSH20 0xFFFFFFFFFFFFFFFFFFFFFFFFFFFFFFFFFFFFFFFF AND DUP2 MSTORE PUSH1 0x20 ADD PUSH1 0x60 DUP2 MSTORE PUSH1 0x20 ADD PUSH1 0x60 DUP2 MSTORE PUSH1 0x20 ADD PUSH1 0x0 DUP2 MSTORE PUSH1 0x20 ADD PUSH1 0x0 DUP2 MSTORE PUSH1 0x20 ADD PUSH1 0x0 DUP1 NOT AND DUP2 MSTORE PUSH1 0x20 ADD PUSH1 0x0 DUP2 MSTORE PUSH1 0x20 ADD PUSH1 0x60 DUP2 MSTORE PUSH1 0x20 ADD PUSH1 0x0 DUP2 MSTORE POP SWAP1 JUMP JUMPDEST POP DUP1 SLOAD PUSH2 0x5446 SWAP1 PUSH2 0x6C81 JUMP JUMPDEST PUSH1 0x0 DUP3 SSTORE DUP1 PUSH1 0x1F LT PUSH2 0x5458 JUMPI POP PUSH2 0x5477 JUMP JUMPDEST PUSH1 0x1F ADD PUSH1 0x20 SWAP1 DIV SWAP1 PUSH1 0x0 MSTORE PUSH1 0x20 PUSH1 0x0 KECCAK256 SWAP1 DUP2 ADD SWAP1 PUSH2 0x5476 SWAP2 SWAP1 PUSH2 0x54BA JUMP JUMPDEST JUMPDEST POP JUMP JUMPDEST POP DUP1 SLOAD PUSH2 0x5486 SWAP1 PUSH2 0x6C81 JUMP JUMPDEST PUSH1 0x0 DUP3 SSTORE DUP1 PUSH1 0x1F LT PUSH2 0x5498 JUMPI POP PUSH2 0x54B7 JUMP JUMPDEST PUSH1 0x1F ADD PUSH1 0x20 SWAP1 DIV SWAP1 PUSH1 0x0 MSTORE PUSH1 0x20 PUSH1 0x0 KECCAK256 SWAP1 DUP2 ADD SWAP1 PUSH2 0x54B6 SWAP2 SWAP1 PUSH2 0x54BA JUMP JUMPDEST JUMPDEST POP JUMP JUMPDEST JUMPDEST DUP1 DUP3 GT ISZERO PUSH2 0x54D3 JUMPI PUSH1 0x0 DUP2 PUSH1 0x0 SWAP1 SSTORE POP PUSH1 0x1 ADD PUSH2 0x54BB JUMP JUMPDEST POP SWAP1 JUMP JUMPDEST PUSH1 0x0 PUSH1 0x40 MLOAD SWAP1 POP SWAP1 JUMP JUMPDEST PUSH1 0x0 DUP1 REVERT JUMPDEST PUSH1 0x0 DUP1 REVERT JUMPDEST PUSH1 0x0 DUP1 REVERT JUMPDEST PUSH1 0x0 DUP1 REVERT JUMPDEST PUSH1 0x0 PUSH1 0x1F NOT PUSH1 0x1F DUP4 ADD AND SWAP1 POP SWAP2 SWAP1 POP JUMP JUMPDEST PUSH32 0x4E487B7100000000000000000000000000000000000000000000000000000000 PUSH1 0x0 MSTORE PUSH1 0x41 PUSH1 0x4 MSTORE PUSH1 0x24 PUSH1 0x0 REVERT JUMPDEST PUSH2 0x553E DUP3 PUSH2 0x54F5 JUMP JUMPDEST DUP2 ADD DUP2 DUP2 LT PUSH8 0xFFFFFFFFFFFFFFFF DUP3 GT OR ISZERO PUSH2 0x555D JUMPI PUSH2 0x555C PUSH2 0x5506 JUMP JUMPDEST JUMPDEST DUP1 PUSH1 0x40 MSTORE POP POP POP JUMP JUMPDEST PUSH1 0x0 PUSH2 0x5570 PUSH2 0x54D7 JUMP JUMPDEST SWAP1 POP PUSH2 0x557C DUP3 DUP3 PUSH2 0x5535 JUMP JUMPDEST SWAP2 SWAP1 POP JUMP JUMPDEST PUSH1 0x0 PUSH8 0xFFFFFFFFFFFFFFFF DUP3 GT ISZERO PUSH2 0x559C JUMPI PUSH2 0x559B PUSH2 0x5506 JUMP JUMPDEST JUMPDEST PUSH2 0x55A5 DUP3 PUSH2 0x54F5 JUMP JUMPDEST SWAP1 POP PUSH1 0x20 DUP2 ADD SWAP1 POP SWAP2 SWAP1 POP JUMP JUMPDEST DUP3 DUP2 DUP4 CALLDATACOPY PUSH1 0x0 DUP4 DUP4 ADD MSTORE POP POP POP JUMP JUMPDEST PUSH1 0x0 PUSH2 0x55D4 PUSH2 0x55CF DUP5 PUSH2 0x5581 JUMP JUMPDEST PUSH2 0x5566 JUMP JUMPDEST SWAP1 POP DUP3 DUP2 MSTORE PUSH1 0x20 DUP2 ADD DUP5 DUP5 DUP5 ADD GT ISZERO PUSH2 0x55F0 JUMPI PUSH2 0x55EF PUSH2 0x54F0 JUMP JUMPDEST JUMPDEST PUSH2 0x55FB DUP5 DUP3 DUP6 PUSH2 0x55B2 JUMP JUMPDEST POP SWAP4 SWAP3 POP POP POP JUMP JUMPDEST PUSH1 0x0 DUP3 PUSH1 0x1F DUP4 ADD SLT PUSH2 0x5618 JUMPI PUSH2 0x5617 PUSH2 0x54EB JUMP JUMPDEST JUMPDEST DUP2 CALLDATALOAD PUSH2 0x5628 DUP5 DUP3 PUSH1 0x20 DUP7 ADD PUSH2 0x55C1 JUMP JUMPDEST SWAP2 POP POP SWAP3 SWAP2 POP POP JUMP JUMPDEST PUSH1 0x0 DUP2 SWAP1 POP SWAP2 SWAP1 POP JUMP JUMPDEST PUSH2 0x5644 DUP2 PUSH2 0x5631 JUMP JUMPDEST DUP2 EQ PUSH2 0x564F JUMPI PUSH1 0x0 DUP1 REVERT JUMPDEST POP JUMP JUMPDEST PUSH1 0x0 DUP2 CALLDATALOAD SWAP1 POP PUSH2 0x5661 DUP2 PUSH2 0x563B JUMP JUMPDEST SWAP3 SWAP2 POP POP JUMP JUMPDEST PUSH1 0x0 PUSH1 0xFF DUP3 AND SWAP1 POP SWAP2 SWAP1 POP JUMP JUMPDEST PUSH2 0x567D DUP2 PUSH2 0x5667 JUMP JUMPDEST DUP2 EQ PUSH2 0x5688 JUMPI PUSH1 0x0 DUP1 REVERT JUMPDEST POP JUMP JUMPDEST PUSH1 0x0 DUP2 CALLDATALOAD SWAP1 POP PUSH2 0x569A DUP2 PUSH2 0x5674 JUMP JUMPDEST SWAP3 SWAP2 POP POP JUMP JUMPDEST PUSH1 0x0 PUSH8 0xFFFFFFFFFFFFFFFF DUP3 GT ISZERO PUSH2 0x56BB JUMPI PUSH2 0x56BA PUSH2 0x5506 JUMP JUMPDEST JUMPDEST PUSH1 0x20 DUP3 MUL SWAP1 POP PUSH1 0x20 DUP2 ADD SWAP1 POP SWAP2 SWAP1 POP JUMP JUMPDEST PUSH1 0x0 DUP1 REVERT JUMPDEST PUSH1 0x0 PUSH2 0x56E4 PUSH2 0x56DF DUP5 PUSH2 0x56A0 JUMP JUMPDEST PUSH2 0x5566 JUMP JUMPDEST SWAP1 POP DUP1 DUP4 DUP3 MSTORE PUSH1 0x20 DUP3 ADD SWAP1 POP PUSH1 0x20 DUP5 MUL DUP4 ADD DUP6 DUP2 GT ISZERO PUSH2 0x5707 JUMPI PUSH2 0x5706 PUSH2 0x56CC JUMP JUMPDEST JUMPDEST DUP4 JUMPDEST DUP2 DUP2 LT ISZERO PUSH2 0x574E JUMPI DUP1 CALLDATALOAD PUSH8 0xFFFFFFFFFFFFFFFF DUP2 GT ISZERO PUSH2 0x572C JUMPI PUSH2 0x572B PUSH2 0x54EB JUMP JUMPDEST JUMPDEST DUP1 DUP7 ADD PUSH2 0x5739 DUP10 DUP3 PUSH2 0x5603 JUMP JUMPDEST DUP6 MSTORE PUSH1 0x20 DUP6 ADD SWAP5 POP POP POP PUSH1 0x20 DUP2 ADD SWAP1 POP PUSH2 0x5709 JUMP JUMPDEST POP POP POP SWAP4 SWAP3 POP POP POP JUMP JUMPDEST PUSH1 0x0 DUP3 PUSH1 0x1F DUP4 ADD SLT PUSH2 0x576D JUMPI PUSH2 0x576C PUSH2 0x54EB JUMP JUMPDEST JUMPDEST DUP2 CALLDATALOAD PUSH2 0x577D DUP5 DUP3 PUSH1 0x20 DUP7 ADD PUSH2 0x56D1 JUMP JUMPDEST SWAP2 POP POP SWAP3 SWAP2 POP POP JUMP JUMPDEST PUSH1 0x0 DUP1 PUSH1 0x0 DUP1 PUSH1 0x0 DUP1 PUSH1 0xC0 DUP8 DUP10 SUB SLT ISZERO PUSH2 0x57A3 JUMPI PUSH2 0x57A2 PUSH2 0x54E1 JUMP JUMPDEST JUMPDEST PUSH1 0x0 DUP8 ADD CALLDATALOAD PUSH8 0xFFFFFFFFFFFFFFFF DUP2 GT ISZERO PUSH2 0x57C1 JUMPI PUSH2 0x57C0 PUSH2 0x54E6 JUMP JUMPDEST JUMPDEST PUSH2 0x57CD DUP10 DUP3 DUP11 ADD PUSH2 0x5603 JUMP JUMPDEST SWAP7 POP POP PUSH1 0x20 DUP8 ADD CALLDATALOAD PUSH8 0xFFFFFFFFFFFFFFFF DUP2 GT ISZERO PUSH2 0x57EE JUMPI PUSH2 0x57ED PUSH2 0x54E6 JUMP JUMPDEST JUMPDEST PUSH2 0x57FA DUP10 DUP3 DUP11 ADD PUSH2 0x5603 JUMP JUMPDEST SWAP6 POP POP PUSH1 0x40 PUSH2 0x580B DUP10 DUP3 DUP11 ADD PUSH2 0x5652 JUMP JUMPDEST SWAP5 POP POP PUSH1 0x60 DUP8 ADD CALLDATALOAD PUSH8 0xFFFFFFFFFFFFFFFF DUP2 GT ISZERO PUSH2 0x582C JUMPI PUSH2 0x582B PUSH2 0x54E6 JUMP JUMPDEST JUMPDEST PUSH2 0x5838 DUP10 DUP3 DUP11 ADD PUSH2 0x5603 JUMP JUMPDEST SWAP4 POP POP PUSH1 0x80 PUSH2 0x5849 DUP10 DUP3 DUP11 ADD PUSH2 0x568B JUMP JUMPDEST SWAP3 POP POP PUSH1 0xA0 DUP8 ADD CALLDATALOAD PUSH8 0xFFFFFFFFFFFFFFFF DUP2 GT ISZERO PUSH2 0x586A JUMPI PUSH2 0x5869 PUSH2 0x54E6 JUMP JUMPDEST JUMPDEST PUSH2 0x5876 DUP10 DUP3 DUP11 ADD PUSH2 0x5758 JUMP JUMPDEST SWAP2 POP POP SWAP3 SWAP6 POP SWAP3 SWAP6 POP SWAP3 SWAP6 JUMP JUMPDEST PUSH1 0x0 DUP2 ISZERO ISZERO SWAP1 POP SWAP2 SWAP1 POP JUMP JUMPDEST PUSH2 0x5898 DUP2 PUSH2 0x5883 JUMP JUMPDEST DUP3 MSTORE POP POP JUMP JUMPDEST PUSH1 0x0 PUSH1 0x20 DUP3 ADD SWAP1 POP PUSH2 0x58B3 PUSH1 0x0 DUP4 ADD DUP5 PUSH2 0x588F JUMP JUMPDEST SWAP3 SWAP2 POP POP JUMP JUMPDEST PUSH1 0x0 DUP2 MLOAD SWAP1 POP SWAP2 SWAP1 POP JUMP JUMPDEST PUSH1 0x0 DUP3 DUP3 MSTORE PUSH1 0x20 DUP3 ADD SWAP1 POP SWAP3 SWAP2 POP POP JUMP JUMPDEST PUSH1 0x0 JUMPDEST DUP4 DUP2 LT ISZERO PUSH2 0x58F3 JUMPI DUP1 DUP3 ADD MLOAD DUP2 DUP5 ADD MSTORE PUSH1 0x20 DUP2 ADD SWAP1 POP PUSH2 0x58D8 JUMP JUMPDEST PUSH1 0x0 DUP5 DUP5 ADD MSTORE POP POP POP POP JUMP JUMPDEST PUSH1 0x0 PUSH2 0x590A DUP3 PUSH2 0x58B9 JUMP JUMPDEST PUSH2 0x5914 DUP2 DUP6 PUSH2 0x58C4 JUMP JUMPDEST SWAP4 POP PUSH2 0x5924 DUP2 DUP6 PUSH1 0x20 DUP7 ADD PUSH2 0x58D5 JUMP JUMPDEST PUSH2 0x592D DUP2 PUSH2 0x54F5 JUMP JUMPDEST DUP5 ADD SWAP2 POP POP SWAP3 SWAP2 POP POP JUMP JUMPDEST PUSH1 0x0 PUSH1 0x20 DUP3 ADD SWAP1 POP DUP2 DUP2 SUB PUSH1 0x0 DUP4 ADD MSTORE PUSH2 0x5952 DUP2 DUP5 PUSH2 0x58FF JUMP JUMPDEST SWAP1 POP SWAP3 SWAP2 POP POP JUMP JUMPDEST PUSH1 0x0 DUP1 PUSH1 0x0 PUSH1 0x60 DUP5 DUP7 SUB SLT ISZERO PUSH2 0x5973 JUMPI PUSH2 0x5972 PUSH2 0x54E1 JUMP JUMPDEST JUMPDEST PUSH1 0x0 DUP5 ADD CALLDATALOAD PUSH8 0xFFFFFFFFFFFFFFFF DUP2 GT ISZERO PUSH2 0x5991 JUMPI PUSH2 0x5990 PUSH2 0x54E6 JUMP JUMPDEST JUMPDEST PUSH2 0x599D DUP7 DUP3 DUP8 ADD PUSH2 0x5603 JUMP JUMPDEST SWAP4 POP POP PUSH1 0x20 DUP5 ADD CALLDATALOAD PUSH8 0xFFFFFFFFFFFFFFFF DUP2 GT ISZERO PUSH2 0x59BE JUMPI PUSH2 0x59BD PUSH2 0x54E6 JUMP JUMPDEST JUMPDEST PUSH2 0x59CA DUP7 DUP3 DUP8 ADD PUSH2 0x5603 JUMP JUMPDEST SWAP3 POP POP PUSH1 0x40 PUSH2 0x59DB DUP7 DUP3 DUP8 ADD PUSH2 0x5652 JUMP JUMPDEST SWAP2 POP POP SWAP3 POP SWAP3 POP SWAP3 JUMP JUMPDEST PUSH2 0x59EE DUP2 PUSH2 0x5631 JUMP JUMPDEST DUP3 MSTORE POP POP JUMP JUMPDEST PUSH1 0x0 PUSH1 0x20 DUP3 ADD SWAP1 POP PUSH2 0x5A09 PUSH1 0x0 DUP4 ADD DUP5 PUSH2 0x59E5 JUMP JUMPDEST SWAP3 SWAP2 POP POP JUMP JUMPDEST PUSH1 0x0 PUSH8 0xFFFFFFFFFFFFFFFF DUP3 GT ISZERO PUSH2 0x5A2A JUMPI PUSH2 0x5A29 PUSH2 0x5506 JUMP JUMPDEST JUMPDEST PUSH1 0x20 DUP3 MUL SWAP1 POP PUSH1 0x20 DUP2 ADD SWAP1 POP SWAP2 SWAP1 POP JUMP JUMPDEST PUSH1 0x0 DUP1 REVERT JUMPDEST PUSH1 0x0 DUP1 REVERT JUMPDEST PUSH1 0x0 DUP2 SWAP1 POP SWAP2 SWAP1 POP JUMP JUMPDEST PUSH2 0x5A58 DUP2 PUSH2 0x5A45 JUMP JUMPDEST DUP2 EQ PUSH2 0x5A63 JUMPI PUSH1 0x0 DUP1 REVERT JUMPDEST POP JUMP JUMPDEST PUSH1 0x0 DUP2 CALLDATALOAD SWAP1 POP PUSH2 0x5A75 DUP2 PUSH2 0x5A4F JUMP JUMPDEST SWAP3 SWAP2 POP POP JUMP JUMPDEST PUSH1 0x0 PUSH1 0xA0 DUP3 DUP5 SUB SLT ISZERO PUSH2 0x5A91 JUMPI PUSH2 0x5A90 PUSH2 0x5A3B JUMP JUMPDEST JUMPDEST PUSH2 0x5A9B PUSH1 0xA0 PUSH2 0x5566 JUMP JUMPDEST SWAP1 POP PUSH1 0x0 DUP3 ADD CALLDATALOAD PUSH8 0xFFFFFFFFFFFFFFFF DUP2 GT ISZERO PUSH2 0x5ABB JUMPI PUSH2 0x5ABA PUSH2 0x5A40 JUMP JUMPDEST JUMPDEST PUSH2 0x5AC7 DUP5 DUP3 DUP6 ADD PUSH2 0x5603 JUMP JUMPDEST PUSH1 0x0 DUP4 ADD MSTORE POP PUSH1 0x20 PUSH2 0x5ADB DUP5 DUP3 DUP6 ADD PUSH2 0x5652 JUMP JUMPDEST PUSH1 0x20 DUP4 ADD MSTORE POP PUSH1 0x40 PUSH2 0x5AEF DUP5 DUP3 DUP6 ADD PUSH2 0x5652 JUMP JUMPDEST PUSH1 0x40 DUP4 ADD MSTORE POP PUSH1 0x60 PUSH2 0x5B03 DUP5 DUP3 DUP6 ADD PUSH2 0x5A66 JUMP JUMPDEST PUSH1 0x60 DUP4 ADD MSTORE POP PUSH1 0x80 PUSH2 0x5B17 DUP5 DUP3 DUP6 ADD PUSH2 0x5652 JUMP JUMPDEST PUSH1 0x80 DUP4 ADD MSTORE POP SWAP3 SWAP2 POP POP JUMP JUMPDEST PUSH1 0x0 PUSH2 0x5B36 PUSH2 0x5B31 DUP5 PUSH2 0x5A0F JUMP JUMPDEST PUSH2 0x5566 JUMP JUMPDEST SWAP1 POP DUP1 DUP4 DUP3 MSTORE PUSH1 0x20 DUP3 ADD SWAP1 POP PUSH1 0x20 DUP5 MUL DUP4 ADD DUP6 DUP2 GT ISZERO PUSH2 0x5B59 JUMPI PUSH2 0x5B58 PUSH2 0x56CC JUMP JUMPDEST JUMPDEST DUP4 JUMPDEST DUP2 DUP2 LT ISZERO PUSH2 0x5BA0 JUMPI DUP1 CALLDATALOAD PUSH8 0xFFFFFFFFFFFFFFFF DUP2 GT ISZERO PUSH2 0x5B7E JUMPI PUSH2 0x5B7D PUSH2 0x54EB JUMP JUMPDEST JUMPDEST DUP1 DUP7 ADD PUSH2 0x5B8B DUP10 DUP3 PUSH2 0x5A7B JUMP JUMPDEST DUP6 MSTORE PUSH1 0x20 DUP6 ADD SWAP5 POP POP POP PUSH1 0x20 DUP2 ADD SWAP1 POP PUSH2 0x5B5B JUMP JUMPDEST POP POP POP SWAP4 SWAP3 POP POP POP JUMP JUMPDEST PUSH1 0x0 DUP3 PUSH1 0x1F DUP4 ADD SLT PUSH2 0x5BBF JUMPI PUSH2 0x5BBE PUSH2 0x54EB JUMP JUMPDEST JUMPDEST DUP2 CALLDATALOAD PUSH2 0x5BCF DUP5 DUP3 PUSH1 0x20 DUP7 ADD PUSH2 0x5B23 JUMP JUMPDEST SWAP2 POP POP SWAP3 SWAP2 POP POP JUMP JUMPDEST PUSH1 0x0 PUSH8 0xFFFFFFFFFFFFFFFF DUP3 GT ISZERO PUSH2 0x5BF3 JUMPI PUSH2 0x5BF2 PUSH2 0x5506 JUMP JUMPDEST JUMPDEST PUSH2 0x5BFC DUP3 PUSH2 0x54F5 JUMP JUMPDEST SWAP1 POP PUSH1 0x20 DUP2 ADD SWAP1 POP SWAP2 SWAP1 POP JUMP JUMPDEST PUSH1 0x0 PUSH2 0x5C1C PUSH2 0x5C17 DUP5 PUSH2 0x5BD8 JUMP JUMPDEST PUSH2 0x5566 JUMP JUMPDEST SWAP1 POP DUP3 DUP2 MSTORE PUSH1 0x20 DUP2 ADD DUP5 DUP5 DUP5 ADD GT ISZERO PUSH2 0x5C38 JUMPI PUSH2 0x5C37 PUSH2 0x54F0 JUMP JUMPDEST JUMPDEST PUSH2 0x5C43 DUP5 DUP3 DUP6 PUSH2 0x55B2 JUMP JUMPDEST POP SWAP4 SWAP3 POP POP POP JUMP JUMPDEST PUSH1 0x0 DUP3 PUSH1 0x1F DUP4 ADD SLT PUSH2 0x5C60 JUMPI PUSH2 0x5C5F PUSH2 0x54EB JUMP JUMPDEST JUMPDEST DUP2 CALLDATALOAD PUSH2 0x5C70 DUP5 DUP3 PUSH1 0x20 DUP7 ADD PUSH2 0x5C09 JUMP JUMPDEST SWAP2 POP POP SWAP3 SWAP2 POP POP JUMP JUMPDEST PUSH1 0x0 PUSH2 0x120 DUP3 DUP5 SUB SLT ISZERO PUSH2 0x5C90 JUMPI PUSH2 0x5C8F PUSH2 0x5A3B JUMP JUMPDEST JUMPDEST PUSH2 0x5C9B PUSH2 0x120 PUSH2 0x5566 JUMP JUMPDEST SWAP1 POP PUSH1 0x0 DUP3 ADD CALLDATALOAD PUSH8 0xFFFFFFFFFFFFFFFF DUP2 GT ISZERO PUSH2 0x5CBB JUMPI PUSH2 0x5CBA PUSH2 0x5A40 JUMP JUMPDEST JUMPDEST PUSH2 0x5CC7 DUP5 DUP3 DUP6 ADD PUSH2 0x5C4B JUMP JUMPDEST PUSH1 0x0 DUP4 ADD MSTORE POP PUSH1 0x20 DUP3 ADD CALLDATALOAD PUSH8 0xFFFFFFFFFFFFFFFF DUP2 GT ISZERO PUSH2 0x5CEB JUMPI PUSH2 0x5CEA PUSH2 0x5A40 JUMP JUMPDEST JUMPDEST PUSH2 0x5CF7 DUP5 DUP3 DUP6 ADD PUSH2 0x5C4B JUMP JUMPDEST PUSH1 0x20 DUP4 ADD MSTORE POP PUSH1 0x40 DUP3 ADD CALLDATALOAD PUSH8 0xFFFFFFFFFFFFFFFF DUP2 GT ISZERO PUSH2 0x5D1B JUMPI PUSH2 0x5D1A PUSH2 0x5A40 JUMP JUMPDEST JUMPDEST PUSH2 0x5D27 DUP5 DUP3 DUP6 ADD PUSH2 0x5C4B JUMP JUMPDEST PUSH1 0x40 DUP4 ADD MSTORE POP PUSH1 0x60 DUP3 ADD CALLDATALOAD PUSH8 0xFFFFFFFFFFFFFFFF DUP2 GT ISZERO PUSH2 0x5D4B JUMPI PUSH2 0x5D4A PUSH2 0x5A40 JUMP JUMPDEST JUMPDEST PUSH2 0x5D57 DUP5 DUP3 DUP6 ADD PUSH2 0x5C4B JUMP JUMPDEST PUSH1 0x60 DUP4 ADD MSTORE POP PUSH1 0x80 DUP3 ADD CALLDATALOAD PUSH8 0xFFFFFFFFFFFFFFFF DUP2 GT ISZERO PUSH2 0x5D7B JUMPI PUSH2 0x5D7A PUSH2 0x5A40 JUMP JUMPDEST JUMPDEST PUSH2 0x5D87 DUP5 DUP3 DUP6 ADD PUSH2 0x5C4B JUMP JUMPDEST PUSH1 0x80 DUP4 ADD MSTORE POP PUSH1 0xA0 DUP3 ADD CALLDATALOAD PUSH8 0xFFFFFFFFFFFFFFFF DUP2 GT ISZERO PUSH2 0x5DAB JUMPI PUSH2 0x5DAA PUSH2 0x5A40 JUMP JUMPDEST JUMPDEST PUSH2 0x5DB7 DUP5 DUP3 DUP6 ADD PUSH2 0x5C4B JUMP JUMPDEST PUSH1 0xA0 DUP4 ADD MSTORE POP PUSH1 0xC0 DUP3 ADD CALLDATALOAD PUSH8 0xFFFFFFFFFFFFFFFF DUP2 GT ISZERO PUSH2 0x5DDB JUMPI PUSH2 0x5DDA PUSH2 0x5A40 JUMP JUMPDEST JUMPDEST PUSH2 0x5DE7 DUP5 DUP3 DUP6 ADD PUSH2 0x5C4B JUMP JUMPDEST PUSH1 0xC0 DUP4 ADD MSTORE POP PUSH1 0xE0 DUP3 ADD CALLDATALOAD PUSH8 0xFFFFFFFFFFFFFFFF DUP2 GT ISZERO PUSH2 0x5E0B JUMPI PUSH2 0x5E0A PUSH2 0x5A40 JUMP JUMPDEST JUMPDEST PUSH2 0x5E17 DUP5 DUP3 DUP6 ADD PUSH2 0x5C4B JUMP JUMPDEST PUSH1 0xE0 DUP4 ADD MSTORE POP PUSH2 0x100 DUP3 ADD CALLDATALOAD PUSH8 0xFFFFFFFFFFFFFFFF DUP2 GT ISZERO PUSH2 0x5E3C JUMPI PUSH2 0x5E3B PUSH2 0x5A40 JUMP JUMPDEST JUMPDEST PUSH2 0x5E48 DUP5 DUP3 DUP6 ADD PUSH2 0x5C4B JUMP JUMPDEST PUSH2 0x100 DUP4 ADD MSTORE POP SWAP3 SWAP2 POP POP JUMP JUMPDEST PUSH1 0x0 DUP1 PUSH1 0x0 DUP1 PUSH1 0x0 PUSH1 0xA0 DUP7 DUP9 SUB SLT ISZERO PUSH2 0x5E71 JUMPI PUSH2 0x5E70 PUSH2 0x54E1 JUMP JUMPDEST JUMPDEST PUSH1 0x0 DUP7 ADD CALLDATALOAD PUSH8 0xFFFFFFFFFFFFFFFF DUP2 GT ISZERO PUSH2 0x5E8F JUMPI PUSH2 0x5E8E PUSH2 0x54E6 JUMP JUMPDEST JUMPDEST PUSH2 0x5E9B DUP9 DUP3 DUP10 ADD PUSH2 0x5603 JUMP JUMPDEST SWAP6 POP POP PUSH1 0x20 DUP7 ADD CALLDATALOAD PUSH8 0xFFFFFFFFFFFFFFFF DUP2 GT ISZERO PUSH2 0x5EBC JUMPI PUSH2 0x5EBB PUSH2 0x54E6 JUMP JUMPDEST JUMPDEST PUSH2 0x5EC8 DUP9 DUP3 DUP10 ADD PUSH2 0x5BAA JUMP JUMPDEST SWAP5 POP POP PUSH1 0x40 DUP7 ADD CALLDATALOAD PUSH8 0xFFFFFFFFFFFFFFFF DUP2 GT ISZERO PUSH2 0x5EE9 JUMPI PUSH2 0x5EE8 PUSH2 0x54E6 JUMP JUMPDEST JUMPDEST PUSH2 0x5EF5 DUP9 DUP3 DUP10 ADD PUSH2 0x5C4B JUMP JUMPDEST SWAP4 POP POP PUSH1 0x60 PUSH2 0x5F06 DUP9 DUP3 DUP10 ADD PUSH2 0x5652 JUMP JUMPDEST SWAP3 POP POP PUSH1 0x80 DUP7 ADD CALLDATALOAD PUSH8 0xFFFFFFFFFFFFFFFF DUP2 GT ISZERO PUSH2 0x5F27 JUMPI PUSH2 0x5F26 PUSH2 0x54E6 JUMP JUMPDEST JUMPDEST PUSH2 0x5F33 DUP9 DUP3 DUP10 ADD PUSH2 0x5C79 JUMP JUMPDEST SWAP2 POP POP SWAP3 SWAP6 POP SWAP3 SWAP6 SWAP1 SWAP4 POP JUMP JUMPDEST PUSH1 0x0 PUSH1 0x20 DUP3 DUP5 SUB SLT ISZERO PUSH2 0x5F56 JUMPI PUSH2 0x5F55 PUSH2 0x54E1 JUMP JUMPDEST JUMPDEST PUSH1 0x0 PUSH2 0x5F64 DUP5 DUP3 DUP6 ADD PUSH2 0x5652 JUMP JUMPDEST SWAP2 POP POP SWAP3 SWAP2 POP POP JUMP JUMPDEST PUSH1 0x0 PUSH20 0xFFFFFFFFFFFFFFFFFFFFFFFFFFFFFFFFFFFFFFFF DUP3 AND SWAP1 POP SWAP2 SWAP1 POP JUMP JUMPDEST PUSH1 0x0 PUSH2 0x5F98 DUP3 PUSH2 0x5F6D JUMP JUMPDEST SWAP1 POP SWAP2 SWAP1 POP JUMP JUMPDEST PUSH2 0x5FA8 DUP2 PUSH2 0x5F8D JUMP JUMPDEST DUP3 MSTORE POP POP JUMP JUMPDEST PUSH1 0x0 DUP2 MLOAD SWAP1 POP SWAP2 SWAP1 POP JUMP JUMPDEST PUSH1 0x0 DUP3 DUP3 MSTORE PUSH1 0x20 DUP3 ADD SWAP1 POP SWAP3 SWAP2 POP POP JUMP JUMPDEST PUSH1 0x0 PUSH2 0x5FD5 DUP3 PUSH2 0x5FAE JUMP JUMPDEST PUSH2 0x5FDF DUP2 DUP6 PUSH2 0x5FB9 JUMP JUMPDEST SWAP4 POP PUSH2 0x5FEF DUP2 DUP6 PUSH1 0x20 DUP7 ADD PUSH2 0x58D5 JUMP JUMPDEST PUSH2 0x5FF8 DUP2 PUSH2 0x54F5 JUMP JUMPDEST DUP5 ADD SWAP2 POP POP SWAP3 SWAP2 POP POP JUMP JUMPDEST PUSH2 0x600C DUP2 PUSH2 0x5A45 JUMP JUMPDEST DUP3 MSTORE POP POP JUMP JUMPDEST PUSH1 0x0 PUSH2 0x180 DUP3 ADD SWAP1 POP PUSH2 0x6028 PUSH1 0x0 DUP4 ADD DUP16 PUSH2 0x59E5 JUMP JUMPDEST PUSH2 0x6035 PUSH1 0x20 DUP4 ADD DUP15 PUSH2 0x5F9F JUMP JUMPDEST DUP2 DUP2 SUB PUSH1 0x40 DUP4 ADD MSTORE PUSH2 0x6047 DUP2 DUP14 PUSH2 0x5FCA JUMP JUMPDEST SWAP1 POP DUP2 DUP2 SUB PUSH1 0x60 DUP4 ADD MSTORE PUSH2 0x605B DUP2 DUP13 PUSH2 0x5FCA JUMP JUMPDEST SWAP1 POP PUSH2 0x606A PUSH1 0x80 DUP4 ADD DUP12 PUSH2 0x59E5 JUMP JUMPDEST PUSH2 0x6077 PUSH1 0xA0 DUP4 ADD DUP11 PUSH2 0x6003 JUMP JUMPDEST PUSH2 0x6084 PUSH1 0xC0 DUP4 ADD DUP10 PUSH2 0x59E5 JUMP JUMPDEST DUP2 DUP2 SUB PUSH1 0xE0 DUP4 ADD MSTORE PUSH2 0x6096 DUP2 DUP9 PUSH2 0x58FF JUMP JUMPDEST SWAP1 POP DUP2 DUP2 SUB PUSH2 0x100 DUP4 ADD MSTORE PUSH2 0x60AB DUP2 DUP8 PUSH2 0x58FF JUMP JUMPDEST SWAP1 POP DUP2 DUP2 SUB PUSH2 0x120 DUP4 ADD MSTORE PUSH2 0x60C0 DUP2 DUP7 PUSH2 0x58FF JUMP JUMPDEST SWAP1 POP DUP2 DUP2 SUB PUSH2 0x140 DUP4 ADD MSTORE PUSH2 0x60D5 DUP2 DUP6 PUSH2 0x58FF JUMP JUMPDEST SWAP1 POP PUSH2 0x60E5 PUSH2 0x160 DUP4 ADD DUP5 PUSH2 0x59E5 JUMP JUMPDEST SWAP14 SWAP13 POP POP POP POP POP POP POP POP POP POP POP POP POP JUMP JUMPDEST PUSH1 0x0 DUP1 PUSH1 0x0 DUP1 PUSH1 0x0 DUP1 PUSH1 0xC0 DUP8 DUP10 SUB SLT ISZERO PUSH2 0x6113 JUMPI PUSH2 0x6112 PUSH2 0x54E1 JUMP JUMPDEST JUMPDEST PUSH1 0x0 DUP8 ADD CALLDATALOAD PUSH8 0xFFFFFFFFFFFFFFFF DUP2 GT ISZERO PUSH2 0x6131 JUMPI PUSH2 0x6130 PUSH2 0x54E6 JUMP JUMPDEST JUMPDEST PUSH2 0x613D DUP10 DUP3 DUP11 ADD PUSH2 0x5603 JUMP JUMPDEST SWAP7 POP POP PUSH1 0x20 DUP8 ADD CALLDATALOAD PUSH8 0xFFFFFFFFFFFFFFFF DUP2 GT ISZERO PUSH2 0x615E JUMPI PUSH2 0x615D PUSH2 0x54E6 JUMP JUMPDEST JUMPDEST PUSH2 0x616A DUP10 DUP3 DUP11 ADD PUSH2 0x5BAA JUMP JUMPDEST SWAP6 POP POP PUSH1 0x40 DUP8 ADD CALLDATALOAD PUSH8 0xFFFFFFFFFFFFFFFF DUP2 GT ISZERO PUSH2 0x618B JUMPI PUSH2 0x618A PUSH2 0x54E6 JUMP JUMPDEST JUMPDEST PUSH2 0x6197 DUP10 DUP3 DUP11 ADD PUSH2 0x5C4B JUMP JUMPDEST SWAP5 POP POP PUSH1 0x60 PUSH2 0x61A8 DUP10 DUP3 DUP11 ADD PUSH2 0x5652 JUMP JUMPDEST SWAP4 POP POP PUSH1 0x80 DUP8 ADD CALLDATALOAD PUSH8 0xFFFFFFFFFFFFFFFF DUP2 GT ISZERO PUSH2 0x61C9 JUMPI PUSH2 0x61C8 PUSH2 0x54E6 JUMP JUMPDEST JUMPDEST PUSH2 0x61D5 DUP10 DUP3 DUP11 ADD PUSH2 0x5C79 JUMP JUMPDEST SWAP3 POP POP PUSH1 0xA0 DUP8 ADD CALLDATALOAD PUSH8 0xFFFFFFFFFFFFFFFF DUP2 GT ISZERO PUSH2 0x61F6 JUMPI PUSH2 0x61F5 PUSH2 0x54E6 JUMP JUMPDEST JUMPDEST PUSH2 0x6202 DUP10 DUP3 DUP11 ADD PUSH2 0x5C4B JUMP JUMPDEST SWAP2 POP POP SWAP3 SWAP6 POP SWAP3 SWAP6 POP SWAP3 SWAP6 JUMP JUMPDEST PUSH1 0x0 DUP1 PUSH1 0x0 PUSH1 0x60 DUP5 DUP7 SUB SLT ISZERO PUSH2 0x6228 JUMPI PUSH2 0x6227 PUSH2 0x54E1 JUMP JUMPDEST JUMPDEST PUSH1 0x0 DUP5 ADD CALLDATALOAD PUSH8 0xFFFFFFFFFFFFFFFF DUP2 GT ISZERO PUSH2 0x6246 JUMPI PUSH2 0x6245 PUSH2 0x54E6 JUMP JUMPDEST JUMPDEST PUSH2 0x6252 DUP7 DUP3 DUP8 ADD PUSH2 0x5603 JUMP JUMPDEST SWAP4 POP POP PUSH1 0x20 DUP5 ADD CALLDATALOAD PUSH8 0xFFFFFFFFFFFFFFFF DUP2 GT ISZERO PUSH2 0x6273 JUMPI PUSH2 0x6272 PUSH2 0x54E6 JUMP JUMPDEST JUMPDEST PUSH2 0x627F DUP7 DUP3 DUP8 ADD PUSH2 0x5603 JUMP JUMPDEST SWAP3 POP POP PUSH1 0x40 DUP5 ADD CALLDATALOAD PUSH8 0xFFFFFFFFFFFFFFFF DUP2 GT ISZERO PUSH2 0x62A0 JUMPI PUSH2 0x629F PUSH2 0x54E6 JUMP JUMPDEST JUMPDEST PUSH2 0x62AC DUP7 DUP3 DUP8 ADD PUSH2 0x5603 JUMP JUMPDEST SWAP2 POP POP SWAP3 POP SWAP3 POP SWAP3 JUMP JUMPDEST PUSH1 0x0 PUSH1 0x20 DUP3 ADD SWAP1 POP DUP2 DUP2 SUB PUSH1 0x0 DUP4 ADD MSTORE PUSH2 0x62D0 DUP2 DUP5 PUSH2 0x5FCA JUMP JUMPDEST SWAP1 POP SWAP3 SWAP2 POP POP JUMP JUMPDEST PUSH2 0x62E1 DUP2 PUSH2 0x5F8D JUMP JUMPDEST DUP2 EQ PUSH2 0x62EC JUMPI PUSH1 0x0 DUP1 REVERT JUMPDEST POP JUMP JUMPDEST PUSH1 0x0 DUP2 CALLDATALOAD SWAP1 POP PUSH2 0x62FE DUP2 PUSH2 0x62D8 JUMP JUMPDEST SWAP3 SWAP2 POP POP JUMP JUMPDEST PUSH1 0x0 PUSH1 0x20 DUP3 DUP5 SUB SLT ISZERO PUSH2 0x631A JUMPI PUSH2 0x6319 PUSH2 0x54E1 JUMP JUMPDEST JUMPDEST PUSH1 0x0 PUSH2 0x6328 DUP5 DUP3 DUP6 ADD PUSH2 0x62EF JUMP JUMPDEST SWAP2 POP POP SWAP3 SWAP2 POP POP JUMP JUMPDEST PUSH2 0x633A DUP2 PUSH2 0x5667 JUMP JUMPDEST DUP3 MSTORE POP POP JUMP JUMPDEST PUSH1 0x0 PUSH1 0x20 DUP3 ADD SWAP1 POP PUSH2 0x6355 PUSH1 0x0 DUP4 ADD DUP5 PUSH2 0x6331 JUMP JUMPDEST SWAP3 SWAP2 POP POP JUMP JUMPDEST PUSH1 0x0 DUP1 PUSH1 0x0 PUSH1 0x60 DUP5 DUP7 SUB SLT ISZERO PUSH2 0x6374 JUMPI PUSH2 0x6373 PUSH2 0x54E1 JUMP JUMPDEST JUMPDEST PUSH1 0x0 DUP5 ADD CALLDATALOAD PUSH8 0xFFFFFFFFFFFFFFFF DUP2 GT ISZERO PUSH2 0x6392 JUMPI PUSH2 0x6391 PUSH2 0x54E6 JUMP JUMPDEST JUMPDEST PUSH2 0x639E DUP7 DUP3 DUP8 ADD PUSH2 0x5603 JUMP JUMPDEST SWAP4 POP POP PUSH1 0x20 PUSH2 0x63AF DUP7 DUP3 DUP8 ADD PUSH2 0x5652 JUMP JUMPDEST SWAP3 POP POP PUSH1 0x40 DUP5 ADD CALLDATALOAD PUSH8 0xFFFFFFFFFFFFFFFF DUP2 GT ISZERO PUSH2 0x63D0 JUMPI PUSH2 0x63CF PUSH2 0x54E6 JUMP JUMPDEST JUMPDEST PUSH2 0x63DC DUP7 DUP3 DUP8 ADD PUSH2 0x5603 JUMP JUMPDEST SWAP2 POP POP SWAP3 POP SWAP3 POP SWAP3 JUMP JUMPDEST PUSH1 0x0 DUP2 MLOAD SWAP1 POP SWAP2 SWAP1 POP JUMP JUMPDEST PUSH1 0x0 DUP3 DUP3 MSTORE PUSH1 0x20 DUP3 ADD SWAP1 POP SWAP3 SWAP2 POP POP JUMP JUMPDEST PUSH1 0x0 DUP2 SWAP1 POP PUSH1 0x20 DUP3 ADD SWAP1 POP SWAP2 SWAP1 POP JUMP JUMPDEST PUSH2 0x641B DUP2 PUSH2 0x5F8D JUMP JUMPDEST DUP3 MSTORE POP POP JUMP JUMPDEST PUSH1 0x0 PUSH2 0x642C DUP3 PUSH2 0x5F6D JUMP JUMPDEST SWAP1 POP SWAP2 SWAP1 POP JUMP JUMPDEST PUSH2 0x643C DUP2 PUSH2 0x6421 JUMP JUMPDEST DUP3 MSTORE POP POP JUMP JUMPDEST PUSH1 0x0 DUP3 DUP3 MSTORE PUSH1 0x20 DUP3 ADD SWAP1 POP SWAP3 SWAP2 POP POP JUMP JUMPDEST PUSH1 0x0 PUSH2 0x645E DUP3 PUSH2 0x5FAE JUMP JUMPDEST PUSH2 0x6468 DUP2 DUP6 PUSH2 0x6442 JUMP JUMPDEST SWAP4 POP PUSH2 0x6478 DUP2 DUP6 PUSH1 0x20 DUP7 ADD PUSH2 0x58D5 JUMP JUMPDEST PUSH2 0x6481 DUP2 PUSH2 0x54F5 JUMP JUMPDEST DUP5 ADD SWAP2 POP POP SWAP3 SWAP2 POP POP JUMP JUMPDEST PUSH2 0x6495 DUP2 PUSH2 0x5631 JUMP JUMPDEST DUP3 MSTORE POP POP JUMP JUMPDEST PUSH2 0x64A4 DUP2 PUSH2 0x5A45 JUMP JUMPDEST DUP3 MSTORE POP POP JUMP JUMPDEST PUSH1 0x0 DUP3 DUP3 MSTORE PUSH1 0x20 DUP3 ADD SWAP1 POP SWAP3 SWAP2 POP POP JUMP JUMPDEST PUSH1 0x0 PUSH2 0x64C6 DUP3 PUSH2 0x58B9 JUMP JUMPDEST PUSH2 0x64D0 DUP2 DUP6 PUSH2 0x64AA JUMP JUMPDEST SWAP4 POP PUSH2 0x64E0 DUP2 DUP6 PUSH1 0x20 DUP7 ADD PUSH2 0x58D5 JUMP JUMPDEST PUSH2 0x64E9 DUP2 PUSH2 0x54F5 JUMP JUMPDEST DUP5 ADD SWAP2 POP POP SWAP3 SWAP2 POP POP JUMP JUMPDEST PUSH1 0x0 PUSH2 0x140 DUP4 ADD PUSH1 0x0 DUP4 ADD MLOAD PUSH2 0x650D PUSH1 0x0 DUP7 ADD DUP3 PUSH2 0x6412 JUMP JUMPDEST POP PUSH1 0x20 DUP4 ADD MLOAD PUSH2 0x6520 PUSH1 0x20 DUP7 ADD DUP3 PUSH2 0x6433 JUMP JUMPDEST POP PUSH1 0x40 DUP4 ADD MLOAD DUP5 DUP3 SUB PUSH1 0x40 DUP7 ADD MSTORE PUSH2 0x6538 DUP3 DUP3 PUSH2 0x6453 JUMP JUMPDEST SWAP2 POP POP PUSH1 0x60 DUP4 ADD MLOAD DUP5 DUP3 SUB PUSH1 0x60 DUP7 ADD MSTORE PUSH2 0x6552 DUP3 DUP3 PUSH2 0x6453 JUMP JUMPDEST SWAP2 POP POP PUSH1 0x80 DUP4 ADD MLOAD PUSH2 0x6567 PUSH1 0x80 DUP7 ADD DUP3 PUSH2 0x648C JUMP JUMPDEST POP PUSH1 0xA0 DUP4 ADD MLOAD PUSH2 0x657A PUSH1 0xA0 DUP7 ADD DUP3 PUSH2 0x648C JUMP JUMPDEST POP PUSH1 0xC0 DUP4 ADD MLOAD PUSH2 0x658D PUSH1 0xC0 DUP7 ADD DUP3 PUSH2 0x649B JUMP JUMPDEST POP PUSH1 0xE0 DUP4 ADD MLOAD PUSH2 0x65A0 PUSH1 0xE0 DUP7 ADD DUP3 PUSH2 0x648C JUMP JUMPDEST POP PUSH2 0x100 DUP4 ADD MLOAD DUP5 DUP3 SUB PUSH2 0x100 DUP7 ADD MSTORE PUSH2 0x65BA DUP3 DUP3 PUSH2 0x64BB JUMP JUMPDEST SWAP2 POP POP PUSH2 0x120 DUP4 ADD MLOAD PUSH2 0x65D1 PUSH2 0x120 DUP7 ADD DUP3 PUSH2 0x648C JUMP JUMPDEST POP DUP1 SWAP2 POP POP SWAP3 SWAP2 POP POP JUMP JUMPDEST PUSH1 0x0 PUSH2 0x65E8 DUP4 DUP4 PUSH2 0x64F4 JUMP JUMPDEST SWAP1 POP SWAP3 SWAP2 POP POP JUMP JUMPDEST PUSH1 0x0 PUSH1 0x20 DUP3 ADD SWAP1 POP SWAP2 SWAP1 POP JUMP JUMPDEST PUSH1 0x0 PUSH2 0x6608 DUP3 PUSH2 0x63E6 JUMP JUMPDEST PUSH2 0x6612 DUP2 DUP6 PUSH2 0x63F1 JUMP JUMPDEST SWAP4 POP DUP4 PUSH1 0x20 DUP3 MUL DUP6 ADD PUSH2 0x6624 DUP6 PUSH2 0x6402 JUMP JUMPDEST DUP1 PUSH1 0x0 JUMPDEST DUP6 DUP2 LT ISZERO PUSH2 0x6660 JUMPI DUP5 DUP5 SUB DUP10 MSTORE DUP2 MLOAD PUSH2 0x6641 DUP6 DUP3 PUSH2 0x65DC JUMP JUMPDEST SWAP5 POP PUSH2 0x664C DUP4 PUSH2 0x65F0 JUMP JUMPDEST SWAP3 POP PUSH1 0x20 DUP11 ADD SWAP10 POP POP PUSH1 0x1 DUP2 ADD SWAP1 POP PUSH2 0x6628 JUMP JUMPDEST POP DUP3 SWAP8 POP DUP8 SWAP6 POP POP POP POP POP POP SWAP3 SWAP2 POP POP JUMP JUMPDEST PUSH1 0x0 PUSH1 0x80 DUP3 ADD SWAP1 POP DUP2 DUP2 SUB PUSH1 0x0 DUP4 ADD MSTORE PUSH2 0x668C DUP2 DUP8 PUSH2 0x65FD JUMP JUMPDEST SWAP1 POP DUP2 DUP2 SUB PUSH1 0x20 DUP4 ADD MSTORE PUSH2 0x66A0 DUP2 DUP7 PUSH2 0x58FF JUMP JUMPDEST SWAP1 POP DUP2 DUP2 SUB PUSH1 0x40 DUP4 ADD MSTORE PUSH2 0x66B4 DUP2 DUP6 PUSH2 0x58FF JUMP JUMPDEST SWAP1 POP DUP2 DUP2 SUB PUSH1 0x60 DUP4 ADD MSTORE PUSH2 0x66C8 DUP2 DUP5 PUSH2 0x58FF JUMP JUMPDEST SWAP1 POP SWAP6 SWAP5 POP POP POP POP POP JUMP JUMPDEST PUSH2 0x66DC DUP2 PUSH2 0x6421 JUMP JUMPDEST DUP2 EQ PUSH2 0x66E7 JUMPI PUSH1 0x0 DUP1 REVERT JUMPDEST POP JUMP JUMPDEST PUSH1 0x0 DUP2 CALLDATALOAD SWAP1 POP PUSH2 0x66F9 DUP2 PUSH2 0x66D3 JUMP JUMPDEST SWAP3 SWAP2 POP POP JUMP JUMPDEST PUSH1 0x0 DUP1 PUSH1 0x0 DUP1 PUSH1 0x80 DUP6 DUP8 SUB SLT ISZERO PUSH2 0x6719 JUMPI PUSH2 0x6718 PUSH2 0x54E1 JUMP JUMPDEST JUMPDEST PUSH1 0x0 PUSH2 0x6727 DUP8 DUP3 DUP9 ADD PUSH2 0x66EA JUMP JUMPDEST SWAP5 POP POP PUSH1 0x20 PUSH2 0x6738 DUP8 DUP3 DUP9 ADD PUSH2 0x5652 JUMP JUMPDEST SWAP4 POP POP PUSH1 0x40 PUSH2 0x6749 DUP8 DUP3 DUP9 ADD PUSH2 0x5A66 JUMP JUMPDEST SWAP3 POP POP PUSH1 0x60 PUSH2 0x675A DUP8 DUP3 DUP9 ADD PUSH2 0x5A66 JUMP JUMPDEST SWAP2 POP POP SWAP3 SWAP6 SWAP2 SWAP5 POP SWAP3 POP JUMP JUMPDEST PUSH1 0x0 PUSH1 0xE0 DUP3 ADD SWAP1 POP PUSH2 0x677B PUSH1 0x0 DUP4 ADD DUP11 PUSH2 0x5F9F JUMP JUMPDEST PUSH2 0x6788 PUSH1 0x20 DUP4 ADD DUP10 PUSH2 0x59E5 JUMP JUMPDEST DUP2 DUP2 SUB PUSH1 0x40 DUP4 ADD MSTORE PUSH2 0x679A DUP2 DUP9 PUSH2 0x58FF JUMP JUMPDEST SWAP1 POP DUP2 DUP2 SUB PUSH1 0x60 DUP4 ADD MSTORE PUSH2 0x67AE DUP2 DUP8 PUSH2 0x58FF JUMP JUMPDEST SWAP1 POP DUP2 DUP2 SUB PUSH1 0x80 DUP4 ADD MSTORE PUSH2 0x67C2 DUP2 DUP7 PUSH2 0x58FF JUMP JUMPDEST SWAP1 POP DUP2 DUP2 SUB PUSH1 0xA0 DUP4 ADD MSTORE PUSH2 0x67D6 DUP2 DUP6 PUSH2 0x58FF JUMP JUMPDEST SWAP1 POP DUP2 DUP2 SUB PUSH1 0xC0 DUP4 ADD MSTORE PUSH2 0x67EA DUP2 DUP5 PUSH2 0x58FF JUMP JUMPDEST SWAP1 POP SWAP9 SWAP8 POP POP POP POP POP POP POP POP JUMP JUMPDEST PUSH1 0x0 DUP1 REVERT JUMPDEST PUSH1 0x0 DUP1 DUP4 PUSH1 0x1F DUP5 ADD SLT PUSH2 0x6813 JUMPI PUSH2 0x6812 PUSH2 0x54EB JUMP JUMPDEST JUMPDEST DUP3 CALLDATALOAD SWAP1 POP PUSH8 0xFFFFFFFFFFFFFFFF DUP2 GT ISZERO PUSH2 0x6830 JUMPI PUSH2 0x682F PUSH2 0x67F8 JUMP JUMPDEST JUMPDEST PUSH1 0x20 DUP4 ADD SWAP2 POP DUP4 PUSH1 0x20 DUP3 MUL DUP4 ADD GT ISZERO PUSH2 0x684C JUMPI PUSH2 0x684B PUSH2 0x56CC JUMP JUMPDEST JUMPDEST SWAP3 POP SWAP3 SWAP1 POP JUMP JUMPDEST PUSH1 0x0 DUP1 PUSH1 0x0 DUP1 PUSH1 0x0 PUSH1 0x80 DUP7 DUP9 SUB SLT ISZERO PUSH2 0x686F JUMPI PUSH2 0x686E PUSH2 0x54E1 JUMP JUMPDEST JUMPDEST PUSH1 0x0 PUSH2 0x687D DUP9 DUP3 DUP10 ADD PUSH2 0x66EA JUMP JUMPDEST SWAP6 POP POP PUSH1 0x20 PUSH2 0x688E DUP9 DUP3 DUP10 ADD PUSH2 0x5652 JUMP JUMPDEST SWAP5 POP POP PUSH1 0x40 DUP7 ADD CALLDATALOAD PUSH8 0xFFFFFFFFFFFFFFFF DUP2 GT ISZERO PUSH2 0x68AF JUMPI PUSH2 0x68AE PUSH2 0x54E6 JUMP JUMPDEST JUMPDEST PUSH2 0x68BB DUP9 DUP3 DUP10 ADD PUSH2 0x5603 JUMP JUMPDEST SWAP4 POP POP PUSH1 0x60 DUP7 ADD CALLDATALOAD PUSH8 0xFFFFFFFFFFFFFFFF DUP2 GT ISZERO PUSH2 0x68DC JUMPI PUSH2 0x68DB PUSH2 0x54E6 JUMP JUMPDEST JUMPDEST PUSH2 0x68E8 DUP9 DUP3 DUP10 ADD PUSH2 0x67FD JUMP JUMPDEST SWAP3 POP SWAP3 POP POP SWAP3 SWAP6 POP SWAP3 SWAP6 SWAP1 SWAP4 POP JUMP JUMPDEST PUSH1 0x0 PUSH32 0xFFFFFFFFFFFFFFFFFFFFFFFFFFFFFFFF00000000000000000000000000000000 DUP3 AND SWAP1 POP SWAP2 SWAP1 POP JUMP JUMPDEST PUSH2 0x692C DUP2 PUSH2 0x68F7 JUMP JUMPDEST DUP3 MSTORE POP POP JUMP JUMPDEST PUSH1 0x0 PUSH1 0x20 DUP3 ADD SWAP1 POP PUSH2 0x6947 PUSH1 0x0 DUP4 ADD DUP5 PUSH2 0x6923 JUMP JUMPDEST SWAP3 SWAP2 POP POP JUMP JUMPDEST PUSH2 0x6956 DUP2 PUSH2 0x6421 JUMP JUMPDEST DUP3 MSTORE POP POP JUMP JUMPDEST PUSH1 0x0 PUSH2 0x140 DUP3 ADD SWAP1 POP PUSH2 0x6972 PUSH1 0x0 DUP4 ADD DUP14 PUSH2 0x5F9F JUMP JUMPDEST PUSH2 0x697F PUSH1 0x20 DUP4 ADD DUP13 PUSH2 0x694D JUMP JUMPDEST DUP2 DUP2 SUB PUSH1 0x40 DUP4 ADD MSTORE PUSH2 0x6991 DUP2 DUP12 PUSH2 0x5FCA JUMP JUMPDEST SWAP1 POP DUP2 DUP2 SUB PUSH1 0x60 DUP4 ADD MSTORE PUSH2 0x69A5 DUP2 DUP11 PUSH2 0x5FCA JUMP JUMPDEST SWAP1 POP PUSH2 0x69B4 PUSH1 0x80 DUP4 ADD DUP10 PUSH2 0x59E5 JUMP JUMPDEST PUSH2 0x69C1 PUSH1 0xA0 DUP4 ADD DUP9 PUSH2 0x59E5 JUMP JUMPDEST PUSH2 0x69CE PUSH1 0xC0 DUP4 ADD DUP8 PUSH2 0x6003 JUMP JUMPDEST PUSH2 0x69DB PUSH1 0xE0 DUP4 ADD DUP7 PUSH2 0x59E5 JUMP JUMPDEST DUP2 DUP2 SUB PUSH2 0x100 DUP4 ADD MSTORE PUSH2 0x69EE DUP2 DUP6 PUSH2 0x58FF JUMP JUMPDEST SWAP1 POP PUSH2 0x69FE PUSH2 0x120 DUP4 ADD DUP5 PUSH2 0x59E5 JUMP JUMPDEST SWAP12 SWAP11 POP POP POP POP POP POP POP POP POP POP POP JUMP JUMPDEST PUSH32 0x4E487B7100000000000000000000000000000000000000000000000000000000 PUSH1 0x0 MSTORE PUSH1 0x32 PUSH1 0x4 MSTORE PUSH1 0x24 PUSH1 0x0 REVERT JUMPDEST PUSH32 0x4E487B7100000000000000000000000000000000000000000000000000000000 PUSH1 0x0 MSTORE PUSH1 0x11 PUSH1 0x4 MSTORE PUSH1 0x24 PUSH1 0x0 REVERT JUMPDEST PUSH1 0x0 PUSH2 0x6A76 DUP3 PUSH2 0x5667 JUMP JUMPDEST SWAP2 POP PUSH2 0x6A81 DUP4 PUSH2 0x5667 JUMP JUMPDEST SWAP3 POP DUP3 DUP3 ADD SWAP1 POP PUSH1 0xFF DUP2 GT ISZERO PUSH2 0x6A9A JUMPI PUSH2 0x6A99 PUSH2 0x6A3C JUMP JUMPDEST JUMPDEST SWAP3 SWAP2 POP POP JUMP JUMPDEST PUSH1 0x0 PUSH2 0x6AAB DUP3 PUSH2 0x5631 JUMP JUMPDEST SWAP2 POP PUSH2 0x6AB6 DUP4 PUSH2 0x5631 JUMP JUMPDEST SWAP3 POP DUP3 DUP3 SUB SWAP1 POP DUP2 DUP2 GT ISZERO PUSH2 0x6ACE JUMPI PUSH2 0x6ACD PUSH2 0x6A3C JUMP JUMPDEST JUMPDEST SWAP3 SWAP2 POP POP JUMP JUMPDEST PUSH1 0x0 DUP2 PUSH1 0x1 SHR SWAP1 POP SWAP2 SWAP1 POP JUMP JUMPDEST PUSH1 0x0 DUP1 DUP3 SWAP2 POP DUP4 SWAP1 POP JUMPDEST PUSH1 0x1 DUP6 GT ISZERO PUSH2 0x6B2B JUMPI DUP1 DUP7 DIV DUP2 GT ISZERO PUSH2 0x6B07 JUMPI PUSH2 0x6B06 PUSH2 0x6A3C JUMP JUMPDEST JUMPDEST PUSH1 0x1 DUP6 AND ISZERO PUSH2 0x6B16 JUMPI DUP1 DUP3 MUL SWAP2 POP JUMPDEST DUP1 DUP2 MUL SWAP1 POP PUSH2 0x6B24 DUP6 PUSH2 0x6AD4 JUMP JUMPDEST SWAP5 POP PUSH2 0x6AEB JUMP JUMPDEST SWAP5 POP SWAP5 SWAP3 POP POP POP JUMP JUMPDEST PUSH1 0x0 DUP3 PUSH2 0x6B44 JUMPI PUSH1 0x1 SWAP1 POP PUSH2 0x6C00 JUMP JUMPDEST DUP2 PUSH2 0x6B52 JUMPI PUSH1 0x0 SWAP1 POP PUSH2 0x6C00 JUMP JUMPDEST DUP2 PUSH1 0x1 DUP2 EQ PUSH2 0x6B68 JUMPI PUSH1 0x2 DUP2 EQ PUSH2 0x6B72 JUMPI PUSH2 0x6BA1 JUMP JUMPDEST PUSH1 0x1 SWAP2 POP POP PUSH2 0x6C00 JUMP JUMPDEST PUSH1 0xFF DUP5 GT ISZERO PUSH2 0x6B84 JUMPI PUSH2 0x6B83 PUSH2 0x6A3C JUMP JUMPDEST JUMPDEST DUP4 PUSH1 0x2 EXP SWAP2 POP DUP5 DUP3 GT ISZERO PUSH2 0x6B9B JUMPI PUSH2 0x6B9A PUSH2 0x6A3C JUMP JUMPDEST JUMPDEST POP PUSH2 0x6C00 JUMP JUMPDEST POP PUSH1 0x20 DUP4 LT PUSH2 0x133 DUP4 LT AND PUSH1 0x4E DUP5 LT PUSH1 0xB DUP5 LT AND OR ISZERO PUSH2 0x6BD6 JUMPI DUP3 DUP3 EXP SWAP1 POP DUP4 DUP2 GT ISZERO PUSH2 0x6BD1 JUMPI PUSH2 0x6BD0 PUSH2 0x6A3C JUMP JUMPDEST JUMPDEST PUSH2 0x6C00 JUMP JUMPDEST PUSH2 0x6BE3 DUP5 DUP5 DUP5 PUSH1 0x1 PUSH2 0x6AE1 JUMP JUMPDEST SWAP3 POP SWAP1 POP DUP2 DUP5 DIV DUP2 GT ISZERO PUSH2 0x6BFA JUMPI PUSH2 0x6BF9 PUSH2 0x6A3C JUMP JUMPDEST JUMPDEST DUP2 DUP2 MUL SWAP1 POP JUMPDEST SWAP4 SWAP3 POP POP POP JUMP JUMPDEST PUSH1 0x0 PUSH2 0x6C12 DUP3 PUSH2 0x5631 JUMP JUMPDEST SWAP2 POP PUSH2 0x6C1D DUP4 PUSH2 0x5631 JUMP JUMPDEST SWAP3 POP PUSH2 0x6C4A PUSH32 0xFFFFFFFFFFFFFFFFFFFFFFFFFFFFFFFFFFFFFFFFFFFFFFFFFFFFFFFFFFFFFFFF DUP5 DUP5 PUSH2 0x6B34 JUMP JUMPDEST SWAP1 POP SWAP3 SWAP2 POP POP JUMP JUMPDEST PUSH32 0x4E487B7100000000000000000000000000000000000000000000000000000000 PUSH1 0x0 MSTORE PUSH1 0x22 PUSH1 0x4 MSTORE PUSH1 0x24 PUSH1 0x0 REVERT JUMPDEST PUSH1 0x0 PUSH1 0x2 DUP3 DIV SWAP1 POP PUSH1 0x1 DUP3 AND DUP1 PUSH2 0x6C99 JUMPI PUSH1 0x7F DUP3 AND SWAP2 POP JUMPDEST PUSH1 0x20 DUP3 LT DUP2 SUB PUSH2 0x6CAC JUMPI PUSH2 0x6CAB PUSH2 0x6C52 JUMP JUMPDEST JUMPDEST POP SWAP2 SWAP1 POP JUMP JUMPDEST PUSH1 0x0 DUP2 SWAP1 POP SWAP3 SWAP2 POP POP JUMP JUMPDEST PUSH1 0x0 PUSH2 0x6CC8 DUP3 PUSH2 0x5FAE JUMP JUMPDEST PUSH2 0x6CD2 DUP2 DUP6 PUSH2 0x6CB2 JUMP JUMPDEST SWAP4 POP PUSH2 0x6CE2 DUP2 DUP6 PUSH1 0x20 DUP7 ADD PUSH2 0x58D5 JUMP JUMPDEST DUP1 DUP5 ADD SWAP2 POP POP SWAP3 SWAP2 POP POP JUMP JUMPDEST PUSH1 0x0 DUP2 SWAP1 POP SWAP2 SWAP1 POP JUMP JUMPDEST PUSH2 0x6D09 PUSH2 0x6D04 DUP3 PUSH2 0x5631 JUMP JUMPDEST PUSH2 0x6CEE JUMP JUMPDEST DUP3 MSTORE POP POP JUMP JUMPDEST PUSH1 0x0 PUSH2 0x6D1B DUP3 DUP7 PUSH2 0x6CBD JUMP JUMPDEST SWAP2 POP PUSH2 0x6D27 DUP3 DUP6 PUSH2 0x6CBD JUMP JUMPDEST SWAP2 POP PUSH2 0x6D33 DUP3 DUP5 PUSH2 0x6CF8 JUMP JUMPDEST PUSH1 0x20 DUP3 ADD SWAP2 POP DUP2 SWAP1 POP SWAP5 SWAP4 POP POP POP POP JUMP JUMPDEST PUSH1 0x0 DUP2 SWAP1 POP DUP2 PUSH1 0x0 MSTORE PUSH1 0x20 PUSH1 0x0 KECCAK256 SWAP1 POP SWAP2 SWAP1 POP JUMP JUMPDEST PUSH1 0x0 PUSH1 0x20 PUSH1 0x1F DUP4 ADD DIV SWAP1 POP SWAP2 SWAP1 POP JUMP JUMPDEST PUSH1 0x0 DUP3 DUP3 SHL SWAP1 POP SWAP3 SWAP2 POP POP JUMP JUMPDEST PUSH1 0x0 PUSH1 0x8 DUP4 MUL PUSH2 0x6DA6 PUSH32 0xFFFFFFFFFFFFFFFFFFFFFFFFFFFFFFFFFFFFFFFFFFFFFFFFFFFFFFFFFFFFFFFF DUP3 PUSH2 0x6D69 JUMP JUMPDEST PUSH2 0x6DB0 DUP7 DUP4 PUSH2 0x6D69 JUMP JUMPDEST SWAP6 POP DUP1 NOT DUP5 AND SWAP4 POP DUP1 DUP7 AND DUP5 OR SWAP3 POP POP POP SWAP4 SWAP3 POP POP POP JUMP JUMPDEST PUSH1 0x0 DUP2 SWAP1 POP SWAP2 SWAP1 POP JUMP JUMPDEST PUSH1 0x0 PUSH2 0x6DED PUSH2 0x6DE8 PUSH2 0x6DE3 DUP5 PUSH2 0x5631 JUMP JUMPDEST PUSH2 0x6DC8 JUMP JUMPDEST PUSH2 0x5631 JUMP JUMPDEST SWAP1 POP SWAP2 SWAP1 POP JUMP JUMPDEST PUSH1 0x0 DUP2 SWAP1 POP SWAP2 SWAP1 POP JUMP JUMPDEST PUSH2 0x6E07 DUP4 PUSH2 0x6DD2 JUMP JUMPDEST PUSH2 0x6E1B PUSH2 0x6E13 DUP3 PUSH2 0x6DF4 JUMP JUMPDEST DUP5 DUP5 SLOAD PUSH2 0x6D76 JUMP JUMPDEST DUP3 SSTORE POP POP POP POP JUMP JUMPDEST PUSH1 0x0 SWAP1 JUMP JUMPDEST PUSH2 0x6E30 PUSH2 0x6E23 JUMP JUMPDEST PUSH2 0x6E3B DUP2 DUP5 DUP5 PUSH2 0x6DFE JUMP JUMPDEST POP POP POP JUMP JUMPDEST JUMPDEST DUP2 DUP2 LT ISZERO PUSH2 0x6E5F JUMPI PUSH2 0x6E54 PUSH1 0x0 DUP3 PUSH2 0x6E28 JUMP JUMPDEST PUSH1 0x1 DUP2 ADD SWAP1 POP PUSH2 0x6E41 JUMP JUMPDEST POP POP JUMP JUMPDEST PUSH1 0x1F DUP3 GT ISZERO PUSH2 0x6EA4 JUMPI PUSH2 0x6E75 DUP2 PUSH2 0x6D44 JUMP JUMPDEST PUSH2 0x6E7E DUP5 PUSH2 0x6D59 JUMP JUMPDEST DUP2 ADD PUSH1 0x20 DUP6 LT ISZERO PUSH2 0x6E8D JUMPI DUP2 SWAP1 POP JUMPDEST PUSH2 0x6EA1 PUSH2 0x6E99 DUP6 PUSH2 0x6D59 JUMP JUMPDEST DUP4 ADD DUP3 PUSH2 0x6E40 JUMP JUMPDEST POP POP JUMPDEST POP POP POP JUMP JUMPDEST PUSH1 0x0 DUP3 DUP3 SHR SWAP1 POP SWAP3 SWAP2 POP POP JUMP JUMPDEST PUSH1 0x0 PUSH2 0x6EC7 PUSH1 0x0 NOT DUP5 PUSH1 0x8 MUL PUSH2 0x6EA9 JUMP JUMPDEST NOT DUP1 DUP4 AND SWAP2 POP POP SWAP3 SWAP2 POP POP JUMP JUMPDEST PUSH1 0x0 PUSH2 0x6EE0 DUP4 DUP4 PUSH2 0x6EB6 JUMP JUMPDEST SWAP2 POP DUP3 PUSH1 0x2 MUL DUP3 OR SWAP1 POP SWAP3 SWAP2 POP POP JUMP JUMPDEST PUSH2 0x6EF9 DUP3 PUSH2 0x5FAE JUMP JUMPDEST PUSH8 0xFFFFFFFFFFFFFFFF DUP2 GT ISZERO PUSH2 0x6F12 JUMPI PUSH2 0x6F11 PUSH2 0x5506 JUMP JUMPDEST JUMPDEST PUSH2 0x6F1C DUP3 SLOAD PUSH2 0x6C81 JUMP JUMPDEST PUSH2 0x6F27 DUP3 DUP3 DUP6 PUSH2 0x6E63 JUMP JUMPDEST PUSH1 0x0 PUSH1 0x20 SWAP1 POP PUSH1 0x1F DUP4 GT PUSH1 0x1 DUP2 EQ PUSH2 0x6F5A JUMPI PUSH1 0x0 DUP5 ISZERO PUSH2 0x6F48 JUMPI DUP3 DUP8 ADD MLOAD SWAP1 POP JUMPDEST PUSH2 0x6F52 DUP6 DUP3 PUSH2 0x6ED4 JUMP JUMPDEST DUP7 SSTORE POP PUSH2 0x6FBA JUMP JUMPDEST PUSH1 0x1F NOT DUP5 AND PUSH2 0x6F68 DUP7 PUSH2 0x6D44 JUMP JUMPDEST PUSH1 0x0 JUMPDEST DUP3 DUP2 LT ISZERO PUSH2 0x6F90 JUMPI DUP5 DUP10 ADD MLOAD DUP3 SSTORE PUSH1 0x1 DUP3 ADD SWAP2 POP PUSH1 0x20 DUP6 ADD SWAP5 POP PUSH1 0x20 DUP2 ADD SWAP1 POP PUSH2 0x6F6B JUMP JUMPDEST DUP7 DUP4 LT ISZERO PUSH2 0x6FAD JUMPI DUP5 DUP10 ADD MLOAD PUSH2 0x6FA9 PUSH1 0x1F DUP10 AND DUP3 PUSH2 0x6EB6 JUMP JUMPDEST DUP4 SSTORE POP JUMPDEST PUSH1 0x1 PUSH1 0x2 DUP9 MUL ADD DUP9 SSTORE POP POP POP JUMPDEST POP POP POP POP POP POP JUMP JUMPDEST PUSH1 0x0 DUP2 SWAP1 POP DUP2 PUSH1 0x0 MSTORE PUSH1 0x20 PUSH1 0x0 KECCAK256 SWAP1 POP SWAP2 SWAP1 POP JUMP JUMPDEST PUSH1 0x1F DUP3 GT ISZERO PUSH2 0x7018 JUMPI PUSH2 0x6FE9 DUP2 PUSH2 0x6FC2 JUMP JUMPDEST PUSH2 0x6FF2 DUP5 PUSH2 0x6D59 JUMP JUMPDEST DUP2 ADD PUSH1 0x20 DUP6 LT ISZERO PUSH2 0x7001 JUMPI DUP2 SWAP1 POP JUMPDEST PUSH2 0x7015 PUSH2 0x700D DUP6 PUSH2 0x6D59 JUMP JUMPDEST DUP4 ADD DUP3 PUSH2 0x6E40 JUMP JUMPDEST POP POP JUMPDEST POP POP POP JUMP JUMPDEST PUSH2 0x7026 DUP3 PUSH2 0x58B9 JUMP JUMPDEST PUSH8 0xFFFFFFFFFFFFFFFF DUP2 GT ISZERO PUSH2 0x703F JUMPI PUSH2 0x703E PUSH2 0x5506 JUMP JUMPDEST JUMPDEST PUSH2 0x7049 DUP3 SLOAD PUSH2 0x6C81 JUMP JUMPDEST PUSH2 0x7054 DUP3 DUP3 DUP6 PUSH2 0x6FD7 JUMP JUMPDEST PUSH1 0x0 PUSH1 0x20 SWAP1 POP PUSH1 0x1F DUP4 GT PUSH1 0x1 DUP2 EQ PUSH2 0x7087 JUMPI PUSH1 0x0 DUP5 ISZERO PUSH2 0x7075 JUMPI DUP3 DUP8 ADD MLOAD SWAP1 POP JUMPDEST PUSH2 0x707F DUP6 DUP3 PUSH2 0x6ED4 JUMP JUMPDEST DUP7 SSTORE POP PUSH2 0x70E7 JUMP JUMPDEST PUSH1 0x1F NOT DUP5 AND PUSH2 0x7095 DUP7 PUSH2 0x6FC2 JUMP JUMPDEST PUSH1 0x0 JUMPDEST DUP3 DUP2 LT ISZERO PUSH2 0x70BD JUMPI DUP5 DUP10 ADD MLOAD DUP3 SSTORE PUSH1 0x1 DUP3 ADD SWAP2 POP PUSH1 0x20 DUP6 ADD SWAP5 POP PUSH1 0x20 DUP2 ADD SWAP1 POP PUSH2 0x7098 JUMP JUMPDEST DUP7 DUP4 LT ISZERO PUSH2 0x70DA JUMPI DUP5 DUP10 ADD MLOAD PUSH2 0x70D6 PUSH1 0x1F DUP10 AND DUP3 PUSH2 0x6EB6 JUMP JUMPDEST DUP4 SSTORE POP JUMPDEST PUSH1 0x1 PUSH1 0x2 DUP9 MUL ADD DUP9 SSTORE POP POP POP JUMPDEST POP POP POP POP POP POP JUMP JUMPDEST PUSH1 0x0 PUSH2 0x70FA DUP3 PUSH2 0x5631 JUMP JUMPDEST SWAP2 POP PUSH2 0x7105 DUP4 PUSH2 0x5631 JUMP JUMPDEST SWAP3 POP DUP3 DUP3 ADD SWAP1 POP DUP1 DUP3 GT ISZERO PUSH2 0x711D JUMPI PUSH2 0x711C PUSH2 0x6A3C JUMP JUMPDEST JUMPDEST SWAP3 SWAP2 POP POP JUMP JUMPDEST PUSH1 0x0 PUSH1 0x60 DUP3 ADD SWAP1 POP PUSH2 0x7138 PUSH1 0x0 DUP4 ADD DUP7 PUSH2 0x5F9F JUMP JUMPDEST PUSH2 0x7145 PUSH1 0x20 DUP4 ADD DUP6 PUSH2 0x59E5 JUMP JUMPDEST PUSH2 0x7152 PUSH1 0x40 DUP4 ADD DUP5 PUSH2 0x588F JUMP JUMPDEST SWAP5 SWAP4 POP POP POP POP JUMP JUMPDEST PUSH1 0x0 PUSH2 0x7165 DUP3 PUSH2 0x5631 JUMP JUMPDEST SWAP2 POP PUSH32 0xFFFFFFFFFFFFFFFFFFFFFFFFFFFFFFFFFFFFFFFFFFFFFFFFFFFFFFFFFFFFFFFF DUP3 SUB PUSH2 0x7197 JUMPI PUSH2 0x7196 PUSH2 0x6A3C JUMP JUMPDEST JUMPDEST PUSH1 0x1 DUP3 ADD SWAP1 POP SWAP2 SWAP1 POP JUMP JUMPDEST PUSH1 0x0 PUSH2 0x100 DUP3 ADD SWAP1 POP DUP2 DUP2 SUB PUSH1 0x0 DUP4 ADD MSTORE PUSH2 0x71BD DUP2 DUP12 PUSH2 0x58FF JUMP JUMPDEST SWAP1 POP DUP2 DUP2 SUB PUSH1 0x20 DUP4 ADD MSTORE PUSH2 0x71D1 DUP2 DUP11 PUSH2 0x58FF JUMP JUMPDEST SWAP1 POP DUP2 DUP2 SUB PUSH1 0x40 DUP4 ADD MSTORE PUSH2 0x71E5 DUP2 DUP10 PUSH2 0x58FF JUMP JUMPDEST SWAP1 POP DUP2 DUP2 SUB PUSH1 0x60 DUP4 ADD MSTORE PUSH2 0x71F9 DUP2 DUP9 PUSH2 0x58FF JUMP JUMPDEST SWAP1 POP DUP2 DUP2 SUB PUSH1 0x80 DUP4 ADD MSTORE PUSH2 0x720D DUP2 DUP8 PUSH2 0x58FF JUMP JUMPDEST SWAP1 POP DUP2 DUP2 SUB PUSH1 0xA0 DUP4 ADD MSTORE PUSH2 0x7221 DUP2 DUP7 PUSH2 0x58FF JUMP JUMPDEST SWAP1 POP DUP2 DUP2 SUB PUSH1 0xC0 DUP4 ADD MSTORE PUSH2 0x7235 DUP2 DUP6 PUSH2 0x58FF JUMP JUMPDEST SWAP1 POP DUP2 DUP2 SUB PUSH1 0xE0 DUP4 ADD MSTORE PUSH2 0x7249 DUP2 DUP5 PUSH2 0x58FF JUMP JUMPDEST SWAP1 POP SWAP10 SWAP9 POP POP POP POP POP POP POP POP POP JUMP JUMPDEST PUSH1 0x0 PUSH1 0x40 DUP3 ADD SWAP1 POP PUSH2 0x726D PUSH1 0x0 DUP4 ADD DUP6 PUSH2 0x6003 JUMP JUMPDEST PUSH2 0x727A PUSH1 0x20 DUP4 ADD DUP5 PUSH2 0x6003 JUMP JUMPDEST SWAP4 SWAP3 POP POP POP JUMP JUMPDEST PUSH1 0x0 PUSH2 0x728D DUP3 DUP5 PUSH2 0x6CBD JUMP JUMPDEST SWAP2 POP DUP2 SWAP1 POP SWAP3 SWAP2 POP POP JUMP JUMPDEST PUSH1 0x0 DUP2 MLOAD SWAP1 POP PUSH2 0x72A7 DUP2 PUSH2 0x5A4F JUMP JUMPDEST SWAP3 SWAP2 POP POP JUMP JUMPDEST PUSH1 0x0 PUSH1 0x20 DUP3 DUP5 SUB SLT ISZERO PUSH2 0x72C3 JUMPI PUSH2 0x72C2 PUSH2 0x54E1 JUMP JUMPDEST JUMPDEST PUSH1 0x0 PUSH2 0x72D1 DUP5 DUP3 DUP6 ADD PUSH2 0x7298 JUMP JUMPDEST SWAP2 POP POP SWAP3 SWAP2 POP POP JUMP JUMPDEST PUSH32 0x436F6D6D69746D656E74206D757374206D617463682070757A7A6C6520737461 PUSH1 0x0 DUP3 ADD MSTORE PUSH32 0x6D702E0000000000000000000000000000000000000000000000000000000000 PUSH1 0x20 DUP3 ADD MSTORE POP JUMP JUMPDEST PUSH1 0x0 PUSH2 0x7336 PUSH1 0x23 DUP4 PUSH2 0x58C4 JUMP JUMPDEST SWAP2 POP PUSH2 0x7341 DUP3 PUSH2 0x72DA JUMP JUMPDEST PUSH1 0x40 DUP3 ADD SWAP1 POP SWAP2 SWAP1 POP JUMP JUMPDEST PUSH1 0x0 PUSH1 0x20 DUP3 ADD SWAP1 POP DUP2 DUP2 SUB PUSH1 0x0 DUP4 ADD MSTORE PUSH2 0x7365 DUP2 PUSH2 0x7329 JUMP JUMPDEST SWAP1 POP SWAP2 SWAP1 POP JUMP JUMPDEST PUSH1 0x0 DUP2 PUSH1 0x60 SHL SWAP1 POP SWAP2 SWAP1 POP JUMP JUMPDEST PUSH1 0x0 PUSH2 0x7384 DUP3 PUSH2 0x736C JUMP JUMPDEST SWAP1 POP SWAP2 SWAP1 POP JUMP JUMPDEST PUSH1 0x0 PUSH2 0x7396 DUP3 PUSH2 0x7379 JUMP JUMPDEST SWAP1 POP SWAP2 SWAP1 POP JUMP JUMPDEST PUSH2 0x73AE PUSH2 0x73A9 DUP3 PUSH2 0x6421 JUMP JUMPDEST PUSH2 0x738B JUMP JUMPDEST DUP3 MSTORE POP POP JUMP JUMPDEST PUSH1 0x0 PUSH2 0x73C0 DUP3 DUP5 PUSH2 0x739D JUMP JUMPDEST PUSH1 0x14 DUP3 ADD SWAP2 POP DUP2 SWAP1 POP SWAP3 SWAP2 POP POP JUMP JUMPDEST PUSH1 0x0 PUSH2 0x73DB DUP3 DUP5 PUSH2 0x6CF8 JUMP JUMPDEST PUSH1 0x20 DUP3 ADD SWAP2 POP DUP2 SWAP1 POP SWAP3 SWAP2 POP POP JUMP JUMPDEST PUSH32 0x4F726967696E616C206661726D65722072657175697265640000000000000000 PUSH1 0x0 DUP3 ADD MSTORE POP JUMP JUMPDEST PUSH1 0x0 PUSH2 0x7420 PUSH1 0x18 DUP4 PUSH2 0x58C4 JUMP JUMPDEST SWAP2 POP PUSH2 0x742B DUP3 PUSH2 0x73EA JUMP JUMPDEST PUSH1 0x20 DUP3 ADD SWAP1 POP SWAP2 SWAP1 POP JUMP JUMPDEST PUSH1 0x0 PUSH1 0x20 DUP3 ADD SWAP1 POP DUP2 DUP2 SUB PUSH1 0x0 DUP4 ADD MSTORE PUSH2 0x744F DUP2 PUSH2 0x7413 JUMP JUMPDEST SWAP1 POP SWAP2 SWAP1 POP JUMP JUMPDEST PUSH1 0x0 DUP2 SWAP1 POP SWAP2 SWAP1 POP JUMP JUMPDEST PUSH2 0x7471 PUSH2 0x746C DUP3 PUSH2 0x5A45 JUMP JUMPDEST PUSH2 0x7456 JUMP JUMPDEST DUP3 MSTORE POP POP JUMP JUMPDEST PUSH1 0x0 PUSH2 0x7483 DUP3 DUP6 PUSH2 0x7460 JUMP JUMPDEST PUSH1 0x20 DUP3 ADD SWAP2 POP PUSH2 0x7493 DUP3 DUP5 PUSH2 0x6CBD JUMP JUMPDEST SWAP2 POP DUP2 SWAP1 POP SWAP4 SWAP3 POP POP POP JUMP JUMPDEST PUSH1 0x0 PUSH2 0x74AB DUP3 DUP5 PUSH2 0x7460 JUMP JUMPDEST PUSH1 0x20 DUP3 ADD SWAP2 POP DUP2 SWAP1 POP SWAP3 SWAP2 POP POP JUMP JUMPDEST PUSH32 0x536F6C7574696F6E206D757374206D6174636820636F6D6D69746D656E742E00 PUSH1 0x0 DUP3 ADD MSTORE POP JUMP JUMPDEST PUSH1 0x0 PUSH2 0x74F0 PUSH1 0x1F DUP4 PUSH2 0x58C4 JUMP JUMPDEST SWAP2 POP PUSH2 0x74FB DUP3 PUSH2 0x74BA JUMP JUMPDEST PUSH1 0x20 DUP3 ADD SWAP1 POP SWAP2 SWAP1 POP JUMP JUMPDEST PUSH1 0x0 PUSH1 0x20 DUP3 ADD SWAP1 POP DUP2 DUP2 SUB PUSH1 0x0 DUP4 ADD MSTORE PUSH2 0x751F DUP2 PUSH2 0x74E3 JUMP JUMPDEST SWAP1 POP SWAP2 SWAP1 POP JUMP JUMPDEST PUSH1 0x0 PUSH2 0x7531 DUP3 PUSH2 0x5667 JUMP JUMPDEST SWAP2 POP PUSH2 0x753C DUP4 PUSH2 0x5667 JUMP JUMPDEST SWAP3 POP DUP3 DUP3 SUB SWAP1 POP PUSH1 0xFF DUP2 GT ISZERO PUSH2 0x7555 JUMPI PUSH2 0x7554 PUSH2 0x6A3C JUMP JUMPDEST JUMPDEST SWAP3 SWAP2 POP POP JUMP JUMPDEST PUSH1 0x0 DUP2 SLOAD PUSH2 0x7568 DUP2 PUSH2 0x6C81 JUMP JUMPDEST PUSH2 0x7572 DUP2 DUP7 PUSH2 0x6CB2 JUMP JUMPDEST SWAP5 POP PUSH1 0x1 DUP3 AND PUSH1 0x0 DUP2 EQ PUSH2 0x758D JUMPI PUSH1 0x1 DUP2 EQ PUSH2 0x75A2 JUMPI PUSH2 0x75D5 JUMP JUMPDEST PUSH1 0xFF NOT DUP4 AND DUP7 MSTORE DUP2 ISZERO ISZERO DUP3 MUL DUP7 ADD SWAP4 POP PUSH2 0x75D5 JUMP JUMPDEST PUSH2 0x75AB DUP6 PUSH2 0x6D44 JUMP JUMPDEST PUSH1 0x0 JUMPDEST DUP4 DUP2 LT ISZERO PUSH2 0x75CD JUMPI DUP2 SLOAD DUP2 DUP10 ADD MSTORE PUSH1 0x1 DUP3 ADD SWAP2 POP PUSH1 0x20 DUP2 ADD SWAP1 POP PUSH2 0x75AE JUMP JUMPDEST DUP4 DUP9 ADD SWAP6 POP POP POP JUMPDEST POP POP POP SWAP3 SWAP2 POP POP JUMP JUMPDEST PUSH1 0x0 PUSH2 0x75EA DUP3 DUP5 PUSH2 0x755B JUMP JUMPDEST SWAP2 POP DUP2 SWAP1 POP SWAP3 SWAP2 POP POP JUMP JUMPDEST PUSH1 0x0 DUP1 REVERT JUMPDEST PUSH1 0x0 DUP1 REVERT JUMPDEST PUSH1 0x0 DUP1 REVERT JUMPDEST PUSH1 0x0 DUP1 DUP4 CALLDATALOAD PUSH1 0x1 PUSH1 0x20 SUB DUP5 CALLDATASIZE SUB SUB DUP2 SLT PUSH2 0x7621 JUMPI PUSH2 0x7620 PUSH2 0x75F5 JUMP JUMPDEST JUMPDEST DUP1 DUP5 ADD SWAP3 POP DUP3 CALLDATALOAD SWAP2 POP PUSH8 0xFFFFFFFFFFFFFFFF DUP3 GT ISZERO PUSH2 0x7643 JUMPI PUSH2 0x7642 PUSH2 0x75FA JUMP JUMPDEST JUMPDEST PUSH1 0x20 DUP4 ADD SWAP3 POP PUSH1 0x1 DUP3 MUL CALLDATASIZE SUB DUP4 SGT ISZERO PUSH2 0x765F JUMPI PUSH2 0x765E PUSH2 0x75FF JUMP JUMPDEST JUMPDEST POP SWAP3 POP SWAP3 SWAP1 POP JUMP JUMPDEST PUSH1 0x0 PUSH2 0x7673 DUP4 DUP6 PUSH2 0x5FB9 JUMP JUMPDEST SWAP4 POP PUSH2 0x7680 DUP4 DUP6 DUP5 PUSH2 0x55B2 JUMP JUMPDEST PUSH2 0x7689 DUP4 PUSH2 0x54F5 JUMP JUMPDEST DUP5 ADD SWAP1 POP SWAP4 SWAP3 POP POP POP JUMP JUMPDEST PUSH1 0x0 PUSH1 0x20 DUP3 ADD SWAP1 POP DUP2 DUP2 SUB PUSH1 0x0 DUP4 ADD MSTORE PUSH2 0x76AF DUP2 DUP5 DUP7 PUSH2 0x7667 JUMP JUMPDEST SWAP1 POP SWAP4 SWAP3 POP POP POP JUMP JUMPDEST PUSH1 0x0 PUSH2 0x76C5 CALLDATASIZE DUP5 DUP5 PUSH2 0x56D1 JUMP JUMPDEST SWAP1 POP SWAP3 SWAP2 POP POP JUMP JUMPDEST PUSH2 0x76D6 DUP3 PUSH2 0x58B9 JUMP JUMPDEST PUSH8 0xFFFFFFFFFFFFFFFF DUP2 GT ISZERO PUSH2 0x76EF JUMPI PUSH2 0x76EE PUSH2 0x5506 JUMP JUMPDEST JUMPDEST PUSH2 0x76F9 DUP3 SLOAD PUSH2 0x6C81 JUMP JUMPDEST PUSH2 0x7704 DUP3 DUP3 DUP6 PUSH2 0x6E63 JUMP JUMPDEST PUSH1 0x0 PUSH1 0x20 SWAP1 POP PUSH1 0x1F DUP4 GT PUSH1 0x1 DUP2 EQ PUSH2 0x7737 JUMPI PUSH1 0x0 DUP5 ISZERO PUSH2 0x7725 JUMPI DUP3 DUP8 ADD MLOAD SWAP1 POP JUMPDEST PUSH2 0x772F DUP6 DUP3 PUSH2 0x6ED4 JUMP JUMPDEST DUP7 SSTORE POP PUSH2 0x7797 JUMP JUMPDEST PUSH1 0x1F NOT DUP5 AND PUSH2 0x7745 DUP7 PUSH2 0x6D44 JUMP JUMPDEST PUSH1 0x0 JUMPDEST DUP3 DUP2 LT ISZERO PUSH2 0x776D JUMPI DUP5 DUP10 ADD MLOAD DUP3 SSTORE PUSH1 0x1 DUP3 ADD SWAP2 POP PUSH1 0x20 DUP6 ADD SWAP5 POP PUSH1 0x20 DUP2 ADD SWAP1 POP PUSH2 0x7748 JUMP JUMPDEST DUP7 DUP4 LT ISZERO PUSH2 0x778A JUMPI DUP5 DUP10 ADD MLOAD PUSH2 0x7786 PUSH1 0x1F DUP10 AND DUP3 PUSH2 0x6EB6 JUMP JUMPDEST DUP4 SSTORE POP JUMPDEST PUSH1 0x1 PUSH1 0x2 DUP9 MUL ADD DUP9 SSTORE POP POP POP JUMPDEST POP POP POP POP POP POP JUMP JUMPDEST PUSH1 0x0 PUSH1 0xE0 DUP3 ADD SWAP1 POP PUSH2 0x77B4 PUSH1 0x0 DUP4 ADD DUP11 PUSH2 0x59E5 JUMP JUMPDEST DUP2 DUP2 SUB PUSH1 0x20 DUP4 ADD MSTORE PUSH2 0x77C6 DUP2 DUP10 PUSH2 0x5FCA JUMP JUMPDEST SWAP1 POP DUP2 DUP2 SUB PUSH1 0x40 DUP4 ADD MSTORE PUSH2 0x77DA DUP2 DUP9 PUSH2 0x58FF JUMP JUMPDEST SWAP1 POP DUP2 DUP2 SUB PUSH1 0x60 DUP4 ADD MSTORE PUSH2 0x77EE DUP2 DUP8 PUSH2 0x58FF JUMP JUMPDEST SWAP1 POP PUSH2 0x77FD PUSH1 0x80 DUP4 ADD DUP7 PUSH2 0x59E5 JUMP JUMPDEST DUP2 DUP2 SUB PUSH1 0xA0 DUP4 ADD MSTORE PUSH2 0x780F DUP2 DUP6 PUSH2 0x58FF JUMP JUMPDEST SWAP1 POP DUP2 DUP2 SUB PUSH1 0xC0 DUP4 ADD MSTORE PUSH2 0x7823 DUP2 DUP5 PUSH2 0x58FF JUMP JUMPDEST SWAP1 POP SWAP9 SWAP8 POP POP POP POP POP POP POP POP JUMP JUMPDEST PUSH1 0x0 PUSH1 0x80 DUP3 ADD SWAP1 POP PUSH2 0x7846 PUSH1 0x0 DUP4 ADD DUP8 PUSH2 0x59E5 JUMP JUMPDEST DUP2 DUP2 SUB PUSH1 0x20 DUP4 ADD MSTORE PUSH2 0x7858 DUP2 DUP7 PUSH2 0x5FCA JUMP JUMPDEST SWAP1 POP PUSH2 0x7867 PUSH1 0x40 DUP4 ADD DUP6 PUSH2 0x59E5 JUMP JUMPDEST PUSH2 0x7874 PUSH1 0x60 DUP4 ADD DUP5 PUSH2 0x59E5 JUMP JUMPDEST SWAP6 SWAP5 POP POP POP POP POP JUMP JUMPDEST PUSH1 0x0 PUSH1 0x60 DUP3 ADD SWAP1 POP DUP2 DUP2 SUB PUSH1 0x0 DUP4 ADD MSTORE PUSH2 0x7897 DUP2 DUP7 PUSH2 0x5FCA JUMP JUMPDEST SWAP1 POP DUP2 DUP2 SUB PUSH1 0x20 DUP4 ADD MSTORE PUSH2 0x78AB DUP2 DUP6 PUSH2 0x5FCA JUMP JUMPDEST SWAP1 POP DUP2 DUP2 SUB PUSH1 0x40 DUP4 ADD MSTORE PUSH2 0x78BF DUP2 DUP5 PUSH2 0x5FCA JUMP JUMPDEST SWAP1 POP SWAP5 SWAP4 POP POP POP POP JUMP JUMPDEST PUSH1 0x0 PUSH1 0x40 DUP3 ADD SWAP1 POP DUP2 DUP2 SUB PUSH1 0x0 DUP4 ADD MSTORE PUSH2 0x78E3 DUP2 DUP6 PUSH2 0x58FF JUMP JUMPDEST SWAP1 POP DUP2 DUP2 SUB PUSH1 0x20 DUP4 ADD MSTORE PUSH2 0x78F7 DUP2 DUP5 PUSH2 0x58FF JUMP JUMPDEST SWAP1 POP SWAP4 SWAP3 POP POP POP JUMP JUMPDEST PUSH32 0x4E487B7100000000000000000000000000000000000000000000000000000000 PUSH1 0x0 MSTORE PUSH1 0x12 PUSH1 0x4 MSTORE PUSH1 0x24 PUSH1 0x0 REVERT JUMPDEST PUSH1 0x0 PUSH2 0x793A DUP3 PUSH2 0x5631 JUMP JUMPDEST SWAP2 POP PUSH2 0x7945 DUP4 PUSH2 0x5631 JUMP JUMPDEST SWAP3 POP DUP3 PUSH2 0x7955 JUMPI PUSH2 0x7954 PUSH2 0x7900 JUMP JUMPDEST JUMPDEST DUP3 DUP3 MOD SWAP1 POP SWAP3 SWAP2 POP POP JUMP JUMPDEST PUSH1 0x0 PUSH1 0x40 DUP3 ADD SWAP1 POP DUP2 DUP2 SUB PUSH1 0x0 DUP4 ADD MSTORE PUSH2 0x797A DUP2 DUP6 PUSH2 0x58FF JUMP JUMPDEST SWAP1 POP PUSH2 0x7989 PUSH1 0x20 DUP4 ADD DUP5 PUSH2 0x59E5 JUMP JUMPDEST SWAP4 SWAP3 POP POP POP JUMP JUMPDEST PUSH1 0x0 PUSH2 0xFFFF DUP3 AND SWAP1 POP SWAP2 SWAP1 POP JUMP JUMPDEST PUSH1 0x0 PUSH2 0x79A9 DUP3 PUSH2 0x7990 JUMP JUMPDEST SWAP2 POP PUSH2 0x79B4 DUP4 PUSH2 0x7990 JUMP JUMPDEST SWAP3 POP DUP3 DUP3 ADD SWAP1 POP PUSH2 0xFFFF DUP2 GT ISZERO PUSH2 0x79CE JUMPI PUSH2 0x79CD PUSH2 0x6A3C JUMP JUMPDEST JUMPDEST SWAP3 SWAP2 POP POP JUMP JUMPDEST PUSH32 0x5375627472616374696F6E20756E646572666C6F770000000000000000000000 PUSH1 0x0 DUP3 ADD MSTORE POP JUMP JUMPDEST PUSH1 0x0 PUSH2 0x7A0A PUSH1 0x15 DUP4 PUSH2 0x58C4 JUMP JUMPDEST SWAP2 POP PUSH2 0x7A15 DUP3 PUSH2 0x79D4 JUMP JUMPDEST PUSH1 0x20 DUP3 ADD SWAP1 POP SWAP2 SWAP1 POP JUMP JUMPDEST PUSH1 0x0 PUSH1 0x20 DUP3 ADD SWAP1 POP DUP2 DUP2 SUB PUSH1 0x0 DUP4 ADD MSTORE PUSH2 0x7A39 DUP2 PUSH2 0x79FD JUMP JUMPDEST SWAP1 POP SWAP2 SWAP1 POP JUMP JUMPDEST PUSH1 0x0 PUSH2 0x7A4B DUP3 PUSH2 0x7990 JUMP JUMPDEST SWAP2 POP PUSH2 0x7A56 DUP4 PUSH2 0x7990 JUMP JUMPDEST SWAP3 POP DUP3 DUP3 SUB SWAP1 POP PUSH2 0xFFFF DUP2 GT ISZERO PUSH2 0x7A70 JUMPI PUSH2 0x7A6F PUSH2 0x6A3C JUMP JUMPDEST JUMPDEST SWAP3 SWAP2 POP POP JUMP JUMPDEST PUSH32 0x556E646572666C6F77206572726F720000000000000000000000000000000000 PUSH1 0x0 DUP3 ADD MSTORE POP JUMP JUMPDEST PUSH1 0x0 PUSH2 0x7AAC PUSH1 0xF DUP4 PUSH2 0x58C4 JUMP JUMPDEST SWAP2 POP PUSH2 0x7AB7 DUP3 PUSH2 0x7A76 JUMP JUMPDEST PUSH1 0x20 DUP3 ADD SWAP1 POP SWAP2 SWAP1 POP JUMP JUMPDEST PUSH1 0x0 PUSH1 0x20 DUP3 ADD SWAP1 POP DUP2 DUP2 SUB PUSH1 0x0 DUP4 ADD MSTORE PUSH2 0x7ADB DUP2 PUSH2 0x7A9F JUMP JUMPDEST SWAP1 POP SWAP2 SWAP1 POP JUMP INVALID MSTORE PUSH6 0x676973746572 PUSH6 0x642070757A7A PUSH13 0x6520776974682048617368203A 0x27 0x25 PUSH20 0x27A2646970667358221220E9F76A33847D877783 PUSH16 0x6979EDDB1764C8038BDCB5651DBB4EFE CALLER PUSH20 0x559BD44C64736F6C634300081100334465706C6F PUSH26 0x696E6720427145544820436F6E74726163742077697468207665 PUSH19 0x73696F6E3A0000000000000000000000000000 "
		},
		"gasEstimates": {
			"creation": {
				"codeDepositCost": "6309000",
				"executionCost": "infinite",
				"totalCost": "infinite"
			},
			"external": {
				"": "219",
				"activePolicies(address)": "infinite",
				"activePuzzles(address)": "2836",
				"big_mulmod(bytes,bytes,bytes)": "infinite",
				"bignum_expmod(bytes,uint256,bytes)": "infinite",
				"claimBlockNumber()": "2541",
				"claimPuzzle(address,uint256,bytes32,bytes32)": "infinite",
				"claimReward(address,uint256,bytes,bytes[])": "infinite",
				"escrow_balances(address)": "2902",
				"getActiveChain(address)": "infinite",
				"getActivePuzzle(address)": "infinite",
				"getPuzzle(uint256)": "infinite",
				"log2(uint256)": "infinite",
				"name()": "infinite",
				"puzzleKey(bytes,bytes,uint256)": "infinite",
				"r_value(bytes,bytes,bytes)": "infinite",
				"registerFlippedPuzzle(bytes,(bytes,uint256,uint256,bytes32,uint256)[],string,uint256,(string,string,string,string,string,string,string,string,string))": "infinite",
				"registerPuzzleChain(bytes,(bytes,uint256,uint256,bytes32,uint256)[],string,uint256,(string,string,string,string,string,string,string,string,string),string)": "infinite",
				"userPuzzles(uint256)": "infinite",
				"verifyProof(bytes,bytes,uint256,bytes,uint8,bytes[])": "infinite",
				"version()": "infinite"
			}
		},
		"methodIdentifiers": {
			"activePolicies(address)": "b0eac321",
			"activePuzzles(address)": "cdab1649",
			"big_mulmod(bytes,bytes,bytes)": "3e30b440",
			"bignum_expmod(bytes,uint256,bytes)": "606748cf",
			"claimBlockNumber()": "1e348629",
			"claimPuzzle(address,uint256,bytes32,bytes32)": "9576c7c1",
			"claimReward(address,uint256,bytes,bytes[])": "d10da1b5",
			"escrow_balances(address)": "ed9c79f4",
			"getActiveChain(address)": "7eeb5bdf",
			"getActivePuzzle(address)": "3fed202d",
			"getPuzzle(uint256)": "1f2d8b46",
			"log2(uint256)": "5456bf13",
			"name()": "06fdde03",
			"puzzleKey(bytes,bytes,uint256)": "1652896a",
			"r_value(bytes,bytes,bytes)": "e7867481",
			"registerFlippedPuzzle(bytes,(bytes,uint256,uint256,bytes32,uint256)[],string,uint256,(string,string,string,string,string,string,string,string,string))": "1e1d2558",
			"registerPuzzleChain(bytes,(bytes,uint256,uint256,bytes32,uint256)[],string,uint256,(string,string,string,string,string,string,string,string,string),string)": "387b29be",
			"userPuzzles(uint256)": "f542c3cd",
			"verifyProof(bytes,bytes,uint256,bytes,uint8,bytes[])": "04d7f1b1",
			"version()": "54fd4d50"
		}
	},
	"abi": [
		{
			"inputs": [],
			"stateMutability": "payable",
			"type": "constructor"
		},
		{
			"anonymous": false,
			"inputs": [
				{
					"indexed": false,
					"internalType": "string",
					"name": "id",
					"type": "string"
				},
				{
					"indexed": false,
					"internalType": "string",
					"name": "label",
					"type": "string"
				},
				{
					"indexed": false,
					"internalType": "string",
					"name": "policyEncryptingKey",
					"type": "string"
				},
				{
					"indexed": false,
					"internalType": "string",
					"name": "encryptedTreasureMap",
					"type": "string"
				},
				{
					"indexed": false,
					"internalType": "string",
					"name": "aliceVerifyingKey",
					"type": "string"
				},
				{
					"indexed": false,
					"internalType": "string",
					"name": "size",
					"type": "string"
				},
				{
					"indexed": false,
					"internalType": "string",
					"name": "startTimestamp",
					"type": "string"
				},
				{
					"indexed": false,
					"internalType": "string",
					"name": "endTimestamp",
					"type": "string"
				}
			],
			"name": "NewPolicyRegistered",
			"type": "event"
		},
		{
			"anonymous": false,
			"inputs": [
				{
					"indexed": false,
					"internalType": "address",
					"name": "sender",
					"type": "address"
				},
				{
					"indexed": false,
					"internalType": "uint256",
					"name": "pid",
					"type": "uint256"
				},
				{
					"indexed": false,
					"internalType": "bool",
					"name": "ready",
					"type": "bool"
				}
			],
			"name": "NewPuzzleRegistered",
			"type": "event"
		},
		{
			"anonymous": false,
			"inputs": [
				{
					"indexed": false,
					"internalType": "uint256",
					"name": "pid",
					"type": "uint256"
				},
				{
					"indexed": false,
					"internalType": "bytes",
					"name": "solution",
					"type": "bytes"
				},
				{
					"indexed": false,
					"internalType": "string",
					"name": "verifyingKey",
					"type": "string"
				},
				{
					"indexed": false,
					"internalType": "string",
					"name": "messageKit",
					"type": "string"
				},
				{
					"indexed": false,
					"internalType": "uint256",
					"name": "sdate",
					"type": "uint256"
				},
				{
					"indexed": false,
					"internalType": "string",
					"name": "treasureMap",
					"type": "string"
				},
				{
					"indexed": false,
					"internalType": "string",
					"name": "policyEncryptingKey",
					"type": "string"
				}
			],
			"name": "PuzzleInactive",
			"type": "event"
		},
		{
			"anonymous": false,
			"inputs": [
				{
					"indexed": false,
					"internalType": "uint256",
					"name": "pid",
					"type": "uint256"
				},
				{
					"indexed": false,
					"internalType": "bytes",
					"name": "y",
					"type": "bytes"
				},
				{
					"indexed": false,
					"internalType": "uint256",
					"name": "sdate",
					"type": "uint256"
				},
				{
					"indexed": false,
					"internalType": "uint256",
					"name": "reward",
					"type": "uint256"
				}
			],
			"name": "RewardClaimed",
			"type": "event"
		},
		{
			"stateMutability": "payable",
			"type": "fallback"
		},
		{
			"inputs": [
				{
					"internalType": "address",
					"name": "",
					"type": "address"
				}
			],
			"name": "activePolicies",
			"outputs": [
				{
					"internalType": "address",
					"name": "creator",
					"type": "address"
				},
				{
					"internalType": "uint256",
					"name": "pid",
					"type": "uint256"
				},
				{
					"internalType": "string",
					"name": "messageKit",
					"type": "string"
				},
				{
					"internalType": "string",
					"name": "encryptedTreasureMap",
					"type": "string"
				},
				{
					"internalType": "string",
					"name": "revocationKit",
					"type": "string"
				},
				{
					"internalType": "string",
					"name": "aliceVerifyingKey",
					"type": "string"
				},
				{
					"internalType": "string",
					"name": "policyEncryptingKey",
					"type": "string"
				}
			],
			"stateMutability": "view",
			"type": "function"
		},
		{
			"inputs": [
				{
					"internalType": "address",
					"name": "",
					"type": "address"
				}
			],
			"name": "activePuzzles",
			"outputs": [
				{
					"internalType": "uint256",
					"name": "",
					"type": "uint256"
				}
			],
			"stateMutability": "view",
			"type": "function"
		},
		{
			"inputs": [
				{
					"internalType": "bytes",
					"name": "a",
					"type": "bytes"
				},
				{
					"internalType": "bytes",
					"name": "b",
					"type": "bytes"
				},
				{
					"internalType": "bytes",
					"name": "mod",
					"type": "bytes"
				}
			],
			"name": "big_mulmod",
			"outputs": [
				{
					"internalType": "bytes",
					"name": "c",
					"type": "bytes"
				}
			],
			"stateMutability": "view",
			"type": "function"
		},
		{
			"inputs": [
				{
					"internalType": "bytes",
					"name": "base",
					"type": "bytes"
				},
				{
					"internalType": "uint256",
					"name": "e",
					"type": "uint256"
				},
				{
					"internalType": "bytes",
					"name": "m",
					"type": "bytes"
				}
			],
			"name": "bignum_expmod",
			"outputs": [
				{
					"internalType": "bytes",
					"name": "o",
					"type": "bytes"
				}
			],
			"stateMutability": "view",
			"type": "function"
		},
		{
			"inputs": [],
			"name": "claimBlockNumber",
			"outputs": [
				{
					"internalType": "uint256",
					"name": "",
					"type": "uint256"
				}
			],
			"stateMutability": "view",
			"type": "function"
		},
		{
			"inputs": [
				{
					"internalType": "address payable",
					"name": "_farmer",
					"type": "address"
				},
				{
					"internalType": "uint256",
					"name": "_pid",
					"type": "uint256"
				},
				{
					"internalType": "bytes32",
					"name": "_h1",
					"type": "bytes32"
				},
				{
					"internalType": "bytes32",
					"name": "_x2",
					"type": "bytes32"
				}
			],
			"name": "claimPuzzle",
			"outputs": [
				{
					"internalType": "uint256",
					"name": "",
					"type": "uint256"
				}
			],
			"stateMutability": "nonpayable",
			"type": "function"
		},
		{
			"inputs": [
				{
					"internalType": "address payable",
					"name": "_farmer",
					"type": "address"
				},
				{
					"internalType": "uint256",
					"name": "_pid",
					"type": "uint256"
				},
				{
					"internalType": "bytes",
					"name": "_y",
					"type": "bytes"
				},
				{
					"internalType": "bytes[]",
					"name": "_proof",
					"type": "bytes[]"
				}
			],
			"name": "claimReward",
			"outputs": [
				{
					"internalType": "uint256",
					"name": "",
					"type": "uint256"
				}
			],
			"stateMutability": "nonpayable",
			"type": "function"
		},
		{
			"inputs": [
				{
					"internalType": "address",
					"name": "",
					"type": "address"
				}
			],
			"name": "escrow_balances",
			"outputs": [
				{
					"internalType": "uint256",
					"name": "",
					"type": "uint256"
				}
			],
			"stateMutability": "view",
			"type": "function"
		},
		{
			"inputs": [
				{
					"internalType": "address",
					"name": "_user",
					"type": "address"
				}
			],
			"name": "getActiveChain",
			"outputs": [
				{
					"components": [
						{
							"internalType": "address",
							"name": "creator",
							"type": "address"
						},
						{
							"internalType": "address payable",
							"name": "farmer",
							"type": "address"
						},
						{
							"internalType": "bytes",
							"name": "N",
							"type": "bytes"
						},
						{
							"internalType": "bytes",
							"name": "x",
							"type": "bytes"
						},
						{
							"internalType": "uint256",
							"name": "t",
							"type": "uint256"
						},
						{
							"internalType": "uint256",
							"name": "sdate",
							"type": "uint256"
						},
						{
							"internalType": "bytes32",
							"name": "h3",
							"type": "bytes32"
						},
						{
							"internalType": "uint256",
							"name": "reward",
							"type": "uint256"
						},
						{
							"internalType": "string",
							"name": "phi",
							"type": "string"
						},
						{
							"internalType": "uint256",
							"name": "head",
							"type": "uint256"
						}
					],
					"internalType": "struct BqETH.Puzzle[]",
					"name": "chain",
					"type": "tuple[]"
				},
				{
					"internalType": "string",
					"name": "verifyingKey",
					"type": "string"
				},
				{
					"internalType": "string",
					"name": "messageKit",
					"type": "string"
				},
				{
					"internalType": "string",
					"name": "treasureMap",
					"type": "string"
				}
			],
			"stateMutability": "view",
			"type": "function"
		},
		{
			"inputs": [
				{
					"internalType": "address",
					"name": "_user",
					"type": "address"
				}
			],
			"name": "getActivePuzzle",
			"outputs": [
				{
					"internalType": "uint256",
					"name": "pid",
					"type": "uint256"
				},
				{
					"internalType": "address",
					"name": "creator",
					"type": "address"
				},
				{
					"internalType": "bytes",
					"name": "N",
					"type": "bytes"
				},
				{
					"internalType": "bytes",
					"name": "x",
					"type": "bytes"
				},
				{
					"internalType": "uint256",
					"name": "t",
					"type": "uint256"
				},
				{
					"internalType": "bytes32",
					"name": "h3",
					"type": "bytes32"
				},
				{
					"internalType": "uint256",
					"name": "reward",
					"type": "uint256"
				},
				{
					"internalType": "string",
					"name": "verifyingKey",
					"type": "string"
				},
				{
					"internalType": "string",
					"name": "messageKit",
					"type": "string"
				},
				{
					"internalType": "string",
					"name": "treasureMap",
					"type": "string"
				},
				{
					"internalType": "string",
					"name": "encryptedPhi",
					"type": "string"
				},
				{
					"internalType": "uint256",
					"name": "sdate",
					"type": "uint256"
				}
			],
			"stateMutability": "view",
			"type": "function"
		},
		{
			"inputs": [
				{
					"internalType": "uint256",
					"name": "_pid",
					"type": "uint256"
				}
			],
			"name": "getPuzzle",
			"outputs": [
				{
					"internalType": "uint256",
					"name": "pid",
					"type": "uint256"
				},
				{
					"internalType": "address",
					"name": "creator",
					"type": "address"
				},
				{
					"internalType": "bytes",
					"name": "N",
					"type": "bytes"
				},
				{
					"internalType": "bytes",
					"name": "x",
					"type": "bytes"
				},
				{
					"internalType": "uint256",
					"name": "t",
					"type": "uint256"
				},
				{
					"internalType": "bytes32",
					"name": "h3",
					"type": "bytes32"
				},
				{
					"internalType": "uint256",
					"name": "reward",
					"type": "uint256"
				},
				{
					"internalType": "string",
					"name": "verifyingKey",
					"type": "string"
				},
				{
					"internalType": "string",
					"name": "messageKit",
					"type": "string"
				},
				{
					"internalType": "string",
					"name": "treasureMap",
					"type": "string"
				},
				{
					"internalType": "string",
					"name": "phi",
					"type": "string"
				},
				{
					"internalType": "uint256",
					"name": "sdate",
					"type": "uint256"
				}
			],
			"stateMutability": "view",
			"type": "function"
		},
		{
			"inputs": [
				{
					"internalType": "uint256",
					"name": "x",
					"type": "uint256"
				}
			],
			"name": "log2",
			"outputs": [
				{
					"internalType": "uint8",
					"name": "",
					"type": "uint8"
				}
			],
			"stateMutability": "pure",
			"type": "function"
		},
		{
			"inputs": [],
			"name": "name",
			"outputs": [
				{
					"internalType": "string",
					"name": "",
					"type": "string"
				}
			],
			"stateMutability": "view",
			"type": "function"
		},
		{
			"inputs": [
				{
					"internalType": "bytes",
					"name": "_N",
					"type": "bytes"
				},
				{
					"internalType": "bytes",
					"name": "_x",
					"type": "bytes"
				},
				{
					"internalType": "uint256",
					"name": "_t",
					"type": "uint256"
				}
			],
			"name": "puzzleKey",
			"outputs": [
				{
					"internalType": "uint256",
					"name": "",
					"type": "uint256"
				}
			],
			"stateMutability": "pure",
			"type": "function"
		},
		{
			"inputs": [
				{
					"internalType": "bytes",
					"name": "_x",
					"type": "bytes"
				},
				{
					"internalType": "bytes",
					"name": "_y",
					"type": "bytes"
				},
				{
					"internalType": "bytes",
					"name": "_u",
					"type": "bytes"
				}
			],
			"name": "r_value",
			"outputs": [
				{
					"internalType": "bytes16",
					"name": "result",
					"type": "bytes16"
				}
			],
			"stateMutability": "pure",
			"type": "function"
		},
		{
			"inputs": [
				{
					"internalType": "bytes",
					"name": "_N",
					"type": "bytes"
				},
				{
					"components": [
						{
							"internalType": "bytes",
							"name": "x",
							"type": "bytes"
						},
						{
							"internalType": "uint256",
							"name": "t",
							"type": "uint256"
						},
						{
							"internalType": "uint256",
							"name": "pid",
							"type": "uint256"
						},
						{
							"internalType": "bytes32",
							"name": "h3",
							"type": "bytes32"
						},
						{
							"internalType": "uint256",
							"name": "reward",
							"type": "uint256"
						}
					],
					"internalType": "struct BqETH.ChainData[]",
					"name": "_c",
					"type": "tuple[]"
				},
				{
					"internalType": "string",
					"name": "_phi",
					"type": "string"
				},
				{
					"internalType": "uint256",
					"name": "_sdate",
					"type": "uint256"
				},
				{
					"components": [
						{
							"internalType": "string",
							"name": "id",
							"type": "string"
						},
						{
							"internalType": "string",
							"name": "label",
							"type": "string"
						},
						{
							"internalType": "string",
							"name": "policyEncryptingKey",
							"type": "string"
						},
						{
							"internalType": "string",
							"name": "encryptedTreasureMap",
							"type": "string"
						},
						{
							"internalType": "string",
							"name": "revocationKit",
							"type": "string"
						},
						{
							"internalType": "string",
							"name": "aliceVerifyingKey",
							"type": "string"
						},
						{
							"internalType": "string",
							"name": "size",
							"type": "string"
						},
						{
							"internalType": "string",
							"name": "startTimestamp",
							"type": "string"
						},
						{
							"internalType": "string",
							"name": "endTimestamp",
							"type": "string"
						}
					],
					"internalType": "struct BqETH.PolicyData",
					"name": "_policy",
					"type": "tuple"
				}
			],
			"name": "registerFlippedPuzzle",
			"outputs": [
				{
					"internalType": "uint256",
					"name": "",
					"type": "uint256"
				}
			],
			"stateMutability": "payable",
			"type": "function"
		},
		{
			"inputs": [
				{
					"internalType": "bytes",
					"name": "_N",
					"type": "bytes"
				},
				{
					"components": [
						{
							"internalType": "bytes",
							"name": "x",
							"type": "bytes"
						},
						{
							"internalType": "uint256",
							"name": "t",
							"type": "uint256"
						},
						{
							"internalType": "uint256",
							"name": "pid",
							"type": "uint256"
						},
						{
							"internalType": "bytes32",
							"name": "h3",
							"type": "bytes32"
						},
						{
							"internalType": "uint256",
							"name": "reward",
							"type": "uint256"
						}
					],
					"internalType": "struct BqETH.ChainData[]",
					"name": "_c",
					"type": "tuple[]"
				},
				{
					"internalType": "string",
					"name": "_phi",
					"type": "string"
				},
				{
					"internalType": "uint256",
					"name": "_sdate",
					"type": "uint256"
				},
				{
					"components": [
						{
							"internalType": "string",
							"name": "id",
							"type": "string"
						},
						{
							"internalType": "string",
							"name": "label",
							"type": "string"
						},
						{
							"internalType": "string",
							"name": "policyEncryptingKey",
							"type": "string"
						},
						{
							"internalType": "string",
							"name": "encryptedTreasureMap",
							"type": "string"
						},
						{
							"internalType": "string",
							"name": "revocationKit",
							"type": "string"
						},
						{
							"internalType": "string",
							"name": "aliceVerifyingKey",
							"type": "string"
						},
						{
							"internalType": "string",
							"name": "size",
							"type": "string"
						},
						{
							"internalType": "string",
							"name": "startTimestamp",
							"type": "string"
						},
						{
							"internalType": "string",
							"name": "endTimestamp",
							"type": "string"
						}
					],
					"internalType": "struct BqETH.PolicyData",
					"name": "_policy",
					"type": "tuple"
				},
				{
					"internalType": "string",
					"name": "_messageKit",
					"type": "string"
				}
			],
			"name": "registerPuzzleChain",
			"outputs": [
				{
					"internalType": "uint256",
					"name": "",
					"type": "uint256"
				}
			],
			"stateMutability": "payable",
			"type": "function"
		},
		{
			"inputs": [
				{
					"internalType": "uint256",
					"name": "",
					"type": "uint256"
				}
			],
			"name": "userPuzzles",
			"outputs": [
				{
					"internalType": "address",
					"name": "creator",
					"type": "address"
				},
				{
					"internalType": "address payable",
					"name": "farmer",
					"type": "address"
				},
				{
					"internalType": "bytes",
					"name": "N",
					"type": "bytes"
				},
				{
					"internalType": "bytes",
					"name": "x",
					"type": "bytes"
				},
				{
					"internalType": "uint256",
					"name": "t",
					"type": "uint256"
				},
				{
					"internalType": "uint256",
					"name": "sdate",
					"type": "uint256"
				},
				{
					"internalType": "bytes32",
					"name": "h3",
					"type": "bytes32"
				},
				{
					"internalType": "uint256",
					"name": "reward",
					"type": "uint256"
				},
				{
					"internalType": "string",
					"name": "phi",
					"type": "string"
				},
				{
					"internalType": "uint256",
					"name": "head",
					"type": "uint256"
				}
			],
			"stateMutability": "view",
			"type": "function"
		},
		{
			"inputs": [
				{
					"internalType": "bytes",
					"name": "N",
					"type": "bytes"
				},
				{
					"internalType": "bytes",
					"name": "xi",
					"type": "bytes"
				},
				{
					"internalType": "uint256",
					"name": "d",
					"type": "uint256"
				},
				{
					"internalType": "bytes",
					"name": "yi",
					"type": "bytes"
				},
				{
					"internalType": "uint8",
					"name": "index",
					"type": "uint8"
				},
				{
					"internalType": "bytes[]",
					"name": "p",
					"type": "bytes[]"
				}
			],
			"name": "verifyProof",
			"outputs": [
				{
					"internalType": "bool",
					"name": "",
					"type": "bool"
				}
			],
			"stateMutability": "nonpayable",
			"type": "function"
		},
		{
			"inputs": [],
			"name": "version",
			"outputs": [
				{
					"internalType": "string",
					"name": "",
					"type": "string"
				}
			],
			"stateMutability": "view",
			"type": "function"
		},
		{
			"stateMutability": "payable",
			"type": "receive"
		}
	]
}